{
  "_format": "hh-sol-artifact-1",
  "contractName": "ShibAfrica",
  "sourceName": "contracts/ShibaAfrica.sol",
  "abi": [
    {
      "inputs": [
        {
          "internalType": "address",
          "name": "_owner",
          "type": "address"
        },
        {
          "internalType": "address",
          "name": "_buyback",
          "type": "address"
        }
      ],
      "stateMutability": "nonpayable",
      "type": "constructor"
    },
    {
      "anonymous": false,
      "inputs": [
        {
          "indexed": false,
          "internalType": "uint256[]",
          "name": "packages",
          "type": "uint256[]"
        },
        {
          "indexed": false,
          "internalType": "address",
          "name": "referral",
          "type": "address"
        }
      ],
      "name": "Buyed",
      "type": "event"
    },
    {
      "inputs": [
        {
          "internalType": "uint256",
          "name": "",
          "type": "uint256"
        }
      ],
      "name": "Packages",
      "outputs": [
        {
          "internalType": "uint256",
          "name": "",
          "type": "uint256"
        }
      ],
      "stateMutability": "view",
      "type": "function"
    },
    {
      "inputs": [],
      "name": "ROUTER",
      "outputs": [
        {
          "internalType": "address",
          "name": "",
          "type": "address"
        }
      ],
      "stateMutability": "view",
      "type": "function"
    },
    {
      "inputs": [],
      "name": "SHIBAFRICA",
      "outputs": [
        {
          "internalType": "address",
          "name": "",
          "type": "address"
        }
      ],
      "stateMutability": "view",
      "type": "function"
    },
    {
      "inputs": [],
      "name": "WBNB",
      "outputs": [
        {
          "internalType": "address",
          "name": "",
          "type": "address"
        }
      ],
      "stateMutability": "view",
      "type": "function"
    },
    {
      "inputs": [
        {
          "internalType": "address payable",
          "name": "referral",
          "type": "address"
        },
        {
          "internalType": "uint256",
          "name": "package",
          "type": "uint256"
        },
        {
          "internalType": "uint256",
          "name": "amount",
          "type": "uint256"
        }
      ],
      "name": "buyPackage",
      "outputs": [
        {
          "internalType": "bool",
          "name": "",
          "type": "bool"
        }
      ],
      "stateMutability": "payable",
      "type": "function"
    },
    {
      "inputs": [
        {
          "internalType": "address payable",
          "name": "referral",
          "type": "address"
        },
        {
          "internalType": "uint256[]",
          "name": "packages",
          "type": "uint256[]"
        }
      ],
      "name": "buyPackages",
      "outputs": [],
      "stateMutability": "payable",
      "type": "function"
    },
    {
      "inputs": [],
      "name": "buyback",
      "outputs": [
        {
          "internalType": "address payable",
          "name": "",
          "type": "address"
        }
      ],
      "stateMutability": "view",
      "type": "function"
    },
    {
      "inputs": [
        {
          "internalType": "address",
          "name": "",
          "type": "address"
        }
      ],
      "name": "levels",
      "outputs": [
        {
          "internalType": "uint256",
          "name": "",
          "type": "uint256"
        }
      ],
      "stateMutability": "view",
      "type": "function"
    },
    {
      "inputs": [],
      "name": "owner",
      "outputs": [
        {
          "internalType": "address payable",
          "name": "",
          "type": "address"
        }
      ],
      "stateMutability": "view",
      "type": "function"
    },
    {
      "inputs": [
        {
          "internalType": "address",
          "name": "",
          "type": "address"
        },
        {
          "internalType": "uint256",
          "name": "",
          "type": "uint256"
        }
      ],
      "name": "packagesTokenAmount",
      "outputs": [
        {
          "internalType": "uint256",
          "name": "",
          "type": "uint256"
        }
      ],
      "stateMutability": "view",
      "type": "function"
    },
    {
      "inputs": [
        {
          "internalType": "address",
          "name": "",
          "type": "address"
        }
      ],
      "name": "refCounter",
      "outputs": [
        {
          "internalType": "uint256",
          "name": "",
          "type": "uint256"
        }
      ],
      "stateMutability": "view",
      "type": "function"
    },
    {
      "inputs": [
        {
          "internalType": "address",
          "name": "",
          "type": "address"
        },
        {
          "internalType": "uint256",
          "name": "",
          "type": "uint256"
        }
      ],
      "name": "referralsAddress",
      "outputs": [
        {
          "internalType": "address",
          "name": "",
          "type": "address"
        }
      ],
      "stateMutability": "view",
      "type": "function"
    },
    {
      "inputs": [
        {
          "internalType": "address",
          "name": "",
          "type": "address"
        },
        {
          "internalType": "uint256",
          "name": "",
          "type": "uint256"
        }
      ],
      "name": "referralsLevels",
      "outputs": [
        {
          "internalType": "uint256",
          "name": "",
          "type": "uint256"
        }
      ],
      "stateMutability": "view",
      "type": "function"
    },
    {
      "inputs": [
        {
          "internalType": "address",
          "name": "",
          "type": "address"
        },
        {
          "internalType": "uint256",
          "name": "",
          "type": "uint256"
        }
      ],
      "name": "referralsReferralAmount",
      "outputs": [
        {
          "internalType": "uint256",
          "name": "",
          "type": "uint256"
        }
      ],
      "stateMutability": "view",
      "type": "function"
    },
    {
      "inputs": [
        {
          "internalType": "address",
          "name": "user",
          "type": "address"
        },
        {
          "internalType": "uint256",
          "name": "level",
          "type": "uint256"
        }
      ],
      "name": "setLevel",
      "outputs": [],
      "stateMutability": "nonpayable",
      "type": "function"
    },
    {
      "inputs": [
        {
          "internalType": "address",
          "name": "",
          "type": "address"
        }
      ],
      "name": "totalTokenAmount",
      "outputs": [
        {
          "internalType": "uint256",
          "name": "",
          "type": "uint256"
        }
      ],
      "stateMutability": "view",
      "type": "function"
    },
    {
      "inputs": [],
      "name": "withdraw",
      "outputs": [
        {
          "internalType": "bool",
          "name": "",
          "type": "bool"
        }
      ],
      "stateMutability": "payable",
      "type": "function"
    }
  ],
  "bytecode": "0x608060405273bb4cdb9cbd36b01bd1cbaebf2de08d9173bc095c600260006101000a81548173ffffffffffffffffffffffffffffffffffffffff021916908373ffffffffffffffffffffffffffffffffffffffff1602179055507310ed43c718714eb63d5aa57b78b54704e256024e600360006101000a81548173ffffffffffffffffffffffffffffffffffffffff021916908373ffffffffffffffffffffffffffffffffffffffff160217905550734f509f8005b967ab8104290bbe79c49a5d2905f6600460006101000a81548173ffffffffffffffffffffffffffffffffffffffff021916908373ffffffffffffffffffffffffffffffffffffffff1602179055503480156200011057600080fd5b5060405162002e1238038062002e12833981810160405281019062000136919062000d3d565b81600560006101000a81548173ffffffffffffffffffffffffffffffffffffffff021916908373ffffffffffffffffffffffffffffffffffffffff160217905550600a60086000600560009054906101000a900473ffffffffffffffffffffffffffffffffffffffff1673ffffffffffffffffffffffffffffffffffffffff1673ffffffffffffffffffffffffffffffffffffffff1681526020019081526020016000208190555080600660006101000a81548173ffffffffffffffffffffffffffffffffffffffff021916908373ffffffffffffffffffffffffffffffffffffffff16021790555066b1a2bc2ec50000600760008081526020019081526020016000208190555067016345785d8a00006007600060018152602001908152602001600020819055506703782dace9d900006007600060028152602001908152602001600020819055506706f05b59d3b20000600760006003815260200190815260200160002081905550670de0b6b3a7640000600760006004815260200190815260200160002081905550671bc16d674ec80000600760006005815260200190815260200160002081905550674563918244f40000600760006006815260200190815260200160002081905550678ac7230489e800006007600060078152602001908152602001600020819055506801158e460913d0000060076000600881526020019081526020016000208190555068022b1c8c1227a000006007600060098152602001908152602001600020819055506009600860007340568e2c3632c2c54ce7a76fe4a132c2d2785d2b73ffffffffffffffffffffffffffffffffffffffff1673ffffffffffffffffffffffffffffffffffffffff1681526020019081526020016000208190555060096008600073c18dccfb00bdd894deb06cce23586bb57978239b73ffffffffffffffffffffffffffffffffffffffff1673ffffffffffffffffffffffffffffffffffffffff168152602001908152602001600020819055506009600860007374d2ffe54401f30538cfebc524f64846f8bb037c73ffffffffffffffffffffffffffffffffffffffff1673ffffffffffffffffffffffffffffffffffffffff16815260200190815260200160002081905550600960086000739a67cac5fd39f9419aec4dd0b6aca690126b0f0173ffffffffffffffffffffffffffffffffffffffff1673ffffffffffffffffffffffffffffffffffffffff1681526020019081526020016000208190555060096008600073b8a676fc48da2ea87cfb9d87a4310a14091dd10173ffffffffffffffffffffffffffffffffffffffff1673ffffffffffffffffffffffffffffffffffffffff1681526020019081526020016000208190555060096008600073ced31b5df37e13065ce9a800ef85ecd48f80f57e73ffffffffffffffffffffffffffffffffffffffff1673ffffffffffffffffffffffffffffffffffffffff16815260200190815260200160002081905550600360086000730915e78b173b1c5920eab355e5a4b95faba44f7e73ffffffffffffffffffffffffffffffffffffffff1673ffffffffffffffffffffffffffffffffffffffff16815260200190815260200160002081905550600960086000737d708f78bb312badbb6a2d9b10e643b6a2276c6e73ffffffffffffffffffffffffffffffffffffffff1673ffffffffffffffffffffffffffffffffffffffff1681526020019081526020016000208190555060046008600073255669be628ef19fda45cde6ff04ba9ff237baee73ffffffffffffffffffffffffffffffffffffffff1673ffffffffffffffffffffffffffffffffffffffff168152602001908152602001600020819055506001600860007315f896d6e8f1259e5df709737b92b3b25762363473ffffffffffffffffffffffffffffffffffffffff1673ffffffffffffffffffffffffffffffffffffffff1681526020019081526020016000208190555060036008600073f21d3d687ae470c8040ed2ccc812ad8865378eb873ffffffffffffffffffffffffffffffffffffffff1673ffffffffffffffffffffffffffffffffffffffff168152602001908152602001600020819055506009600860007340e85181e20a9eec5b150b5999edbf81d370502373ffffffffffffffffffffffffffffffffffffffff1673ffffffffffffffffffffffffffffffffffffffff16815260200190815260200160002081905550600960086000733d4409a7bad31f1d61be92b3e5c1c3be6baf98fc73ffffffffffffffffffffffffffffffffffffffff1673ffffffffffffffffffffffffffffffffffffffff1681526020019081526020016000208190555060096008600072be4d72bd5aa20c2023c0eef2e9949f338b1f9b73ffffffffffffffffffffffffffffffffffffffff1673ffffffffffffffffffffffffffffffffffffffff16815260200190815260200160002081905550600960086000731457a4a6293ff6889c64569990293be9edd5e72e73ffffffffffffffffffffffffffffffffffffffff1673ffffffffffffffffffffffffffffffffffffffff1681526020019081526020016000208190555060096008600073ddd8e3c2bb73752f76e01f0663df68f783bbe7c673ffffffffffffffffffffffffffffffffffffffff1673ffffffffffffffffffffffffffffffffffffffff16815260200190815260200160002081905550600960086000733e21e2dc7d76b6cab36c9f860423398311e9b19d73ffffffffffffffffffffffffffffffffffffffff1673ffffffffffffffffffffffffffffffffffffffff1681526020019081526020016000208190555060096008600073d805c66a13165cb31b6e6eb01f19b5b64bf76f8873ffffffffffffffffffffffffffffffffffffffff1673ffffffffffffffffffffffffffffffffffffffff168152602001908152602001600020819055506009600860007326e24bfbf08e3e6ded77dade76ecd95c150a626d73ffffffffffffffffffffffffffffffffffffffff1673ffffffffffffffffffffffffffffffffffffffff16815260200190815260200160002081905550600360086000734c63067ef1faabe2d5d335a06719f7a841f2feab73ffffffffffffffffffffffffffffffffffffffff1673ffffffffffffffffffffffffffffffffffffffff1681526020019081526020016000208190555060096008600073355b9cbfaedf2588342d798b919c2f9954bcfb9f73ffffffffffffffffffffffffffffffffffffffff1673ffffffffffffffffffffffffffffffffffffffff16815260200190815260200160002081905550600960086000734ec4c60ead071b3ac705c261d0bb8cabb8c033e073ffffffffffffffffffffffffffffffffffffffff1673ffffffffffffffffffffffffffffffffffffffff16815260200190815260200160002081905550600960086000730709106aff4cab1c5333741ebec887368f64653773ffffffffffffffffffffffffffffffffffffffff1673ffffffffffffffffffffffffffffffffffffffff1681526020019081526020016000208190555060036008600073a708ba7f9f3fe47ffc5755a4d7160b0fee8ad1f573ffffffffffffffffffffffffffffffffffffffff1673ffffffffffffffffffffffffffffffffffffffff1681526020019081526020016000208190555060096008600073605f1816391e6dbe27500920a14f65b26c2d0ae073ffffffffffffffffffffffffffffffffffffffff1673ffffffffffffffffffffffffffffffffffffffff168152602001908152602001600020819055506000600860007354f373d43a6bba137a359abf5ad77752e90a18bb73ffffffffffffffffffffffffffffffffffffffff1673ffffffffffffffffffffffffffffffffffffffff16815260200190815260200160002081905550600960086000734e4cd5a564cef73252560b0253f6877778969d4b73ffffffffffffffffffffffffffffffffffffffff1673ffffffffffffffffffffffffffffffffffffffff16815260200190815260200160002081905550505062000d84565b600080fd5b600073ffffffffffffffffffffffffffffffffffffffff82169050919050565b600062000d058262000cd8565b9050919050565b62000d178162000cf8565b811462000d2357600080fd5b50565b60008151905062000d378162000d0c565b92915050565b6000806040838503121562000d575762000d5662000cd3565b5b600062000d678582860162000d26565b925050602062000d7a8582860162000d26565b9150509250929050565b61207e8062000d946000396000f3fe6080604052600436106100fe5760003560e01c80638522101c116100955780639ca04d64116100645780639ca04d64146103695780639cedcb1914610385578063c7ef078c146103c2578063f60f384b146103ff578063f8ec69111461042a576100fe565b80638522101c146102995780638c15e694146102d65780638da5cb5b146103135780638dd950021461033e576100fe565b80635a81bf9a116100d15780635a81bf9a146101c65780635e9d306e14610203578063722dcd8f14610233578063730c3ce31461025c576100fe565b80630738ce511461010357806332fe7b26146101405780633ccfd60b1461016b57806347082db314610189575b600080fd5b34801561010f57600080fd5b5061012a60048036038101906101259190611506565b610455565b604051610137919061154c565b60405180910390f35b34801561014c57600080fd5b5061015561046d565b6040516101629190611576565b60405180910390f35b610173610493565b60405161018091906115ac565b60405180910390f35b34801561019557600080fd5b506101b060048036038101906101ab9190611506565b610573565b6040516101bd919061154c565b60405180910390f35b3480156101d257600080fd5b506101ed60048036038101906101e89190611506565b61058b565b6040516101fa919061154c565b60405180910390f35b61021d60048036038101906102189190611631565b6105a3565b60405161022a91906115ac565b60405180910390f35b34801561023f57600080fd5b5061025a60048036038101906102559190611684565b610c8d565b005b34801561026857600080fd5b50610283600480360381019061027e9190611684565b610db8565b6040516102909190611576565b60405180910390f35b3480156102a557600080fd5b506102c060048036038101906102bb9190611684565b610dfa565b6040516102cd919061154c565b60405180910390f35b3480156102e257600080fd5b506102fd60048036038101906102f89190611684565b610e1f565b60405161030a919061154c565b60405180910390f35b34801561031f57600080fd5b50610328610e44565b60405161033591906116d3565b60405180910390f35b34801561034a57600080fd5b50610353610e6a565b6040516103609190611576565b60405180910390f35b610383600480360381019061037e9190611847565b610e90565b005b34801561039157600080fd5b506103ac60048036038101906103a79190611684565b61140b565b6040516103b9919061154c565b60405180910390f35b3480156103ce57600080fd5b506103e960048036038101906103e491906118a3565b611430565b6040516103f6919061154c565b60405180910390f35b34801561040b57600080fd5b50610414611448565b6040516104219190611576565b60405180910390f35b34801561043657600080fd5b5061043f61146e565b60405161044c91906116d3565b60405180910390f35b600a6020528060005260406000206000915090505481565b600360009054906101000a900473ffffffffffffffffffffffffffffffffffffffff1681565b6000600560009054906101000a900473ffffffffffffffffffffffffffffffffffffffff1673ffffffffffffffffffffffffffffffffffffffff163373ffffffffffffffffffffffffffffffffffffffff1614610525576040517f08c379a000000000000000000000000000000000000000000000000000000000815260040161051c9061192d565b60405180910390fd5b3373ffffffffffffffffffffffffffffffffffffffff166108fc479081150290604051600060405180830381858888f1935050505015801561056b573d6000803e3d6000fd5b506001905090565b60086020528060005260406000206000915090505481565b60096020528060005260406000206000915090505481565b600082600081101580156105b8575060098111155b6105f7576040517f08c379a00000000000000000000000000000000000000000000000000000000081526004016105ee90611999565b60405180910390fd5b6060600267ffffffffffffffff81111561061457610613611704565b5b6040519080825280602002602001820160405280156106425781602001602082028036833780820191505090505b509050600260009054906101000a900473ffffffffffffffffffffffffffffffffffffffff168160008151811061067c5761067b6119b9565b5b602002602001019073ffffffffffffffffffffffffffffffffffffffff16908173ffffffffffffffffffffffffffffffffffffffff1681525050600460009054906101000a900473ffffffffffffffffffffffffffffffffffffffff16816001815181106106ed576106ec6119b9565b5b602002602001019073ffffffffffffffffffffffffffffffffffffffff16908173ffffffffffffffffffffffffffffffffffffffff1681525050600060648560236107389190611a17565b6107429190611a88565b90506000606486601e6107559190611a17565b61075f9190611a88565b9050600060648760146107729190611a17565b61077c9190611a88565b90506000606488600f61078f9190611a17565b6107999190611a88565b9050600089600860008d73ffffffffffffffffffffffffffffffffffffffff1673ffffffffffffffffffffffffffffffffffffffff16815260200190815260200160002054106108d5578a73ffffffffffffffffffffffffffffffffffffffff166108fc869081150290604051600060405180830381858888f19350505050158015610829573d6000803e3d6000fd5b5084600c60008d73ffffffffffffffffffffffffffffffffffffffff1673ffffffffffffffffffffffffffffffffffffffff1681526020019081526020016000206000600960008f73ffffffffffffffffffffffffffffffffffffffff1673ffffffffffffffffffffffffffffffffffffffff16815260200190815260200160002054815260200190815260200160002060008282546108c99190611ab9565b92505081905550610a07565b600660009054906101000a900473ffffffffffffffffffffffffffffffffffffffff1673ffffffffffffffffffffffffffffffffffffffff166108fc869081150290604051600060405180830381858888f1935050505015801561093d573d6000803e3d6000fd5b5084600c6000600660009054906101000a900473ffffffffffffffffffffffffffffffffffffffff1673ffffffffffffffffffffffffffffffffffffffff1673ffffffffffffffffffffffffffffffffffffffff1681526020019081526020016000206000600960008f73ffffffffffffffffffffffffffffffffffffffff1673ffffffffffffffffffffffffffffffffffffffff16815260200190815260200160002054815260200190815260200160002060008282546109ff9190611ab9565b925050819055505b600660009054906101000a900473ffffffffffffffffffffffffffffffffffffffff1673ffffffffffffffffffffffffffffffffffffffff166108fc839081150290604051600060405180830381858888f19350505050158015610a6f573d6000803e3d6000fd5b50600560009054906101000a900473ffffffffffffffffffffffffffffffffffffffff1673ffffffffffffffffffffffffffffffffffffffff166108fc849081150290604051600060405180830381858888f19350505050158015610ad8573d6000803e3d6000fd5b50600360009054906101000a900473ffffffffffffffffffffffffffffffffffffffff1673ffffffffffffffffffffffffffffffffffffffff1663b6f9de958583893361012c42610b299190611ab9565b6040518663ffffffff1660e01b8152600401610b489493929190611bab565b6000604051808303818588803b158015610b6157600080fd5b505af1158015610b75573d6000803e3d6000fd5b505050505089600860003373ffffffffffffffffffffffffffffffffffffffff1673ffffffffffffffffffffffffffffffffffffffff1681526020019081526020016000208190555083600a60003373ffffffffffffffffffffffffffffffffffffffff1673ffffffffffffffffffffffffffffffffffffffff1681526020019081526020016000206000828254610c0d9190611ab9565b9250508190555083600b60003373ffffffffffffffffffffffffffffffffffffffff1673ffffffffffffffffffffffffffffffffffffffff16815260200190815260200160002060008c81526020019081526020016000206000828254610c749190611ab9565b9250508190555060019750505050505050509392505050565b600560009054906101000a900473ffffffffffffffffffffffffffffffffffffffff1673ffffffffffffffffffffffffffffffffffffffff163373ffffffffffffffffffffffffffffffffffffffff1614610d1d576040517f08c379a0000000000000000000000000000000000000000000000000000000008152600401610d149061192d565b60405180910390fd5b8060008110158015610d30575060098111155b610d6f576040517f08c379a0000000000000000000000000000000000000000000000000000000008152600401610d6690611999565b60405180910390fd5b81600860008573ffffffffffffffffffffffffffffffffffffffff1673ffffffffffffffffffffffffffffffffffffffff16815260200190815260200160002081905550505050565b600e6020528160005260406000206020528060005260406000206000915091509054906101000a900473ffffffffffffffffffffffffffffffffffffffff1681565b600d602052816000526040600020602052806000526040600020600091509150505481565b600c602052816000526040600020602052806000526040600020600091509150505481565b600560009054906101000a900473ffffffffffffffffffffffffffffffffffffffff1681565b600260009054906101000a900473ffffffffffffffffffffffffffffffffffffffff1681565b600073ffffffffffffffffffffffffffffffffffffffff168273ffffffffffffffffffffffffffffffffffffffff1603610eff576040517f08c379a0000000000000000000000000000000000000000000000000000000008152600401610ef690611c43565b60405180910390fd5b3373ffffffffffffffffffffffffffffffffffffffff168273ffffffffffffffffffffffffffffffffffffffff1603610f6d576040517f08c379a0000000000000000000000000000000000000000000000000000000008152600401610f6490611caf565b60405180910390fd5b600960008373ffffffffffffffffffffffffffffffffffffffff1673ffffffffffffffffffffffffffffffffffffffff1681526020019081526020016000206000815480929190610fbd90611ccf565b9190505550600034905060005b825181101561125957600a838281518110610fe857610fe76119b9565b5b6020026020010151101561124657828181518110611009576110086119b9565b5b6020026020010151600860003373ffffffffffffffffffffffffffffffffffffffff1673ffffffffffffffffffffffffffffffffffffffff168152602001908152602001600020541015611092576040517f08c379a000000000000000000000000000000000000000000000000000000000815260040161108990611d63565b60405180910390fd5b600183516110a09190611d83565b8114611135576001836001836110b69190611ab9565b815181106110c7576110c66119b9565b5b60200260200101516110d99190611d83565b8382815181106110ec576110eb6119b9565b5b602002602001015114611134576040517f08c379a000000000000000000000000000000000000000000000000000000000815260040161112b90611e03565b60405180910390fd5b5b6007600084838151811061114c5761114b6119b9565b5b60200260200101518152602001908152602001600020548261116e9190611d83565b915060008210156111b4576040517f08c379a00000000000000000000000000000000000000000000000000000000081526004016111ab90611e6f565b60405180910390fd5b611206848483815181106111cb576111ca6119b9565b5b6020026020010151600760008786815181106111ea576111e96119b9565b5b60200260200101518152602001908152602001600020546105a3565b611245576040517f08c379a000000000000000000000000000000000000000000000000000000000815260040161123c90611edb565b60405180910390fd5b5b808061125190611ccf565b915050610fca565b5033600e60008573ffffffffffffffffffffffffffffffffffffffff1673ffffffffffffffffffffffffffffffffffffffff1681526020019081526020016000206000600960008773ffffffffffffffffffffffffffffffffffffffff1673ffffffffffffffffffffffffffffffffffffffff16815260200190815260200160002054815260200190815260200160002060006101000a81548173ffffffffffffffffffffffffffffffffffffffff021916908373ffffffffffffffffffffffffffffffffffffffff160217905550600d60008473ffffffffffffffffffffffffffffffffffffffff1673ffffffffffffffffffffffffffffffffffffffff1681526020019081526020016000206000600960008673ffffffffffffffffffffffffffffffffffffffff1673ffffffffffffffffffffffffffffffffffffffff16815260200190815260200160002054815260200190815260200160002060008154809291906113c890611ccf565b91905055507fb1c395709b4d34e257bb5f45ee4836b48b7f67ec39e79025fdf6970e0f6c007082846040516113fe929190612018565b60405180910390a1505050565b600b602052816000526040600020602052806000526040600020600091509150505481565b60076020528060005260406000206000915090505481565b600460009054906101000a900473ffffffffffffffffffffffffffffffffffffffff1681565b600660009054906101000a900473ffffffffffffffffffffffffffffffffffffffff1681565b6000604051905090565b600080fd5b600080fd5b600073ffffffffffffffffffffffffffffffffffffffff82169050919050565b60006114d3826114a8565b9050919050565b6114e3816114c8565b81146114ee57600080fd5b50565b600081359050611500816114da565b92915050565b60006020828403121561151c5761151b61149e565b5b600061152a848285016114f1565b91505092915050565b6000819050919050565b61154681611533565b82525050565b6000602082019050611561600083018461153d565b92915050565b611570816114c8565b82525050565b600060208201905061158b6000830184611567565b92915050565b60008115159050919050565b6115a681611591565b82525050565b60006020820190506115c1600083018461159d565b92915050565b60006115d2826114a8565b9050919050565b6115e2816115c7565b81146115ed57600080fd5b50565b6000813590506115ff816115d9565b92915050565b61160e81611533565b811461161957600080fd5b50565b60008135905061162b81611605565b92915050565b60008060006060848603121561164a5761164961149e565b5b6000611658868287016115f0565b93505060206116698682870161161c565b925050604061167a8682870161161c565b9150509250925092565b6000806040838503121561169b5761169a61149e565b5b60006116a9858286016114f1565b92505060206116ba8582860161161c565b9150509250929050565b6116cd816115c7565b82525050565b60006020820190506116e860008301846116c4565b92915050565b600080fd5b6000601f19601f8301169050919050565b7f4e487b7100000000000000000000000000000000000000000000000000000000600052604160045260246000fd5b61173c826116f3565b810181811067ffffffffffffffff8211171561175b5761175a611704565b5b80604052505050565b600061176e611494565b905061177a8282611733565b919050565b600067ffffffffffffffff82111561179a57611799611704565b5b602082029050602081019050919050565b600080fd5b60006117c36117be8461177f565b611764565b905080838252602082019050602084028301858111156117e6576117e56117ab565b5b835b8181101561180f57806117fb888261161c565b8452602084019350506020810190506117e8565b5050509392505050565b600082601f83011261182e5761182d6116ee565b5b813561183e8482602086016117b0565b91505092915050565b6000806040838503121561185e5761185d61149e565b5b600061186c858286016115f0565b925050602083013567ffffffffffffffff81111561188d5761188c6114a3565b5b61189985828601611819565b9150509250929050565b6000602082840312156118b9576118b861149e565b5b60006118c78482850161161c565b91505092915050565b600082825260208201905092915050565b7f4f6e6c794f776e65722e00000000000000000000000000000000000000000000600082015250565b6000611917600a836118d0565b9150611922826118e1565b602082019050919050565b600060208201905081810360008301526119468161190a565b9050919050565b7f496e76616c6964205061636b6167652e00000000000000000000000000000000600082015250565b60006119836010836118d0565b915061198e8261194d565b602082019050919050565b600060208201905081810360008301526119b281611976565b9050919050565b7f4e487b7100000000000000000000000000000000000000000000000000000000600052603260045260246000fd5b7f4e487b7100000000000000000000000000000000000000000000000000000000600052601160045260246000fd5b6000611a2282611533565b9150611a2d83611533565b9250828202611a3b81611533565b91508282048414831517611a5257611a516119e8565b5b5092915050565b7f4e487b7100000000000000000000000000000000000000000000000000000000600052601260045260246000fd5b6000611a9382611533565b9150611a9e83611533565b925082611aae57611aad611a59565b5b828204905092915050565b6000611ac482611533565b9150611acf83611533565b9250828201905080821115611ae757611ae66119e8565b5b92915050565b600081519050919050565b600082825260208201905092915050565b6000819050602082019050919050565b611b22816114c8565b82525050565b6000611b348383611b19565b60208301905092915050565b6000602082019050919050565b6000611b5882611aed565b611b628185611af8565b9350611b6d83611b09565b8060005b83811015611b9e578151611b858882611b28565b9750611b9083611b40565b925050600181019050611b71565b5085935050505092915050565b6000608082019050611bc0600083018761153d565b8181036020830152611bd28186611b4d565b9050611be16040830185611567565b611bee606083018461153d565b95945050505050565b7f526566657272616c206973203020616464726573732e00000000000000000000600082015250565b6000611c2d6016836118d0565b9150611c3882611bf7565b602082019050919050565b60006020820190508181036000830152611c5c81611c20565b9050919050565b7f526566657272616c2063616e277420626520796f752e00000000000000000000600082015250565b6000611c996016836118d0565b9150611ca482611c63565b602082019050919050565b60006020820190508181036000830152611cc881611c8c565b9050919050565b6000611cda82611533565b91507fffffffffffffffffffffffffffffffffffffffffffffffffffffffffffffffff8203611d0c57611d0b6119e8565b5b600182019050919050565b7f496e76616c6964204c6576656c2e000000000000000000000000000000000000600082015250565b6000611d4d600e836118d0565b9150611d5882611d17565b602082019050919050565b60006020820190508181036000830152611d7c81611d40565b9050919050565b6000611d8e82611533565b9150611d9983611533565b9250828203905081811115611db157611db06119e8565b5b92915050565b7f4e6f7420436f6e73656375746976652e00000000000000000000000000000000600082015250565b6000611ded6010836118d0565b9150611df882611db7565b602082019050919050565b60006020820190508181036000830152611e1c81611de0565b9050919050565b7f496e76616c6964205061796d656e742e00000000000000000000000000000000600082015250565b6000611e596010836118d0565b9150611e6482611e23565b602082019050919050565b60006020820190508181036000830152611e8881611e4c565b9050919050565b7f5061636b616765206e6f742042757965642e0000000000000000000000000000600082015250565b6000611ec56012836118d0565b9150611ed082611e8f565b602082019050919050565b60006020820190508181036000830152611ef481611eb8565b9050919050565b600081519050919050565b600082825260208201905092915050565b6000819050602082019050919050565b611f3081611533565b82525050565b6000611f428383611f27565b60208301905092915050565b6000602082019050919050565b6000611f6682611efb565b611f708185611f06565b9350611f7b83611f17565b8060005b83811015611fac578151611f938882611f36565b9750611f9e83611f4e565b925050600181019050611f7f565b5085935050505092915050565b6000819050919050565b6000611fde611fd9611fd4846114a8565b611fb9565b6114a8565b9050919050565b6000611ff082611fc3565b9050919050565b600061200282611fe5565b9050919050565b61201281611ff7565b82525050565b600060408201905081810360008301526120328185611f5b565b90506120416020830184612009565b939250505056fea2646970667358221220a152e727687891d619a08d7f69af2c9cfe078e4ccaf5641aef4097fdef8d7ee064736f6c63430008110033",
  "linkReferences": {},
  "deployedLinkReferences": {}
}