{
  "_format": "hh-sol-artifact-1",
  "contractName": "ShibAfrica",
  "sourceName": "contracts/ShibaAfrica.sol",
  "abi": [
    {
      "inputs": [
        {
          "internalType": "address",
          "name": "_owner",
          "type": "address"
        },
        {
          "internalType": "address",
          "name": "_buyback",
          "type": "address"
        }
      ],
      "stateMutability": "nonpayable",
      "type": "constructor"
    },
    {
      "anonymous": false,
      "inputs": [
        {
          "indexed": false,
          "internalType": "uint256",
          "name": "packages",
          "type": "uint256"
        },
        {
          "indexed": false,
          "internalType": "address",
          "name": "referral",
          "type": "address"
        }
      ],
      "name": "Buyed",
      "type": "event"
    },
    {
      "inputs": [
        {
          "internalType": "uint256",
          "name": "",
          "type": "uint256"
        }
      ],
      "name": "Packages",
      "outputs": [
        {
          "internalType": "uint256",
          "name": "",
          "type": "uint256"
        }
      ],
      "stateMutability": "view",
      "type": "function"
    },
    {
      "inputs": [],
      "name": "ROUTER",
      "outputs": [
        {
          "internalType": "address",
          "name": "",
          "type": "address"
        }
      ],
      "stateMutability": "view",
      "type": "function"
    },
    {
      "inputs": [],
      "name": "SHIBAFRICA",
      "outputs": [
        {
          "internalType": "address",
          "name": "",
          "type": "address"
        }
      ],
      "stateMutability": "view",
      "type": "function"
    },
    {
      "inputs": [],
      "name": "WBNB",
      "outputs": [
        {
          "internalType": "address",
          "name": "",
          "type": "address"
        }
      ],
      "stateMutability": "view",
      "type": "function"
    },
    {
      "inputs": [
        {
          "internalType": "address payable",
          "name": "referral",
          "type": "address"
        },
        {
          "internalType": "uint256",
          "name": "package",
          "type": "uint256"
        }
      ],
      "name": "buyPackages",
      "outputs": [],
      "stateMutability": "payable",
      "type": "function"
    },
    {
      "inputs": [],
      "name": "buyback",
      "outputs": [
        {
          "internalType": "address payable",
          "name": "",
          "type": "address"
        }
      ],
      "stateMutability": "view",
      "type": "function"
    },
    {
      "inputs": [
        {
          "internalType": "address",
          "name": "",
          "type": "address"
        }
      ],
      "name": "levels",
      "outputs": [
        {
          "internalType": "uint256",
          "name": "",
          "type": "uint256"
        }
      ],
      "stateMutability": "view",
      "type": "function"
    },
    {
      "inputs": [],
      "name": "owner",
      "outputs": [
        {
          "internalType": "address payable",
          "name": "",
          "type": "address"
        }
      ],
      "stateMutability": "view",
      "type": "function"
    },
    {
      "inputs": [
        {
          "internalType": "address",
          "name": "",
          "type": "address"
        },
        {
          "internalType": "uint256",
          "name": "",
          "type": "uint256"
        }
      ],
      "name": "packagesTokenAmount",
      "outputs": [
        {
          "internalType": "uint256",
          "name": "",
          "type": "uint256"
        }
      ],
      "stateMutability": "view",
      "type": "function"
    },
    {
      "inputs": [
        {
          "internalType": "address",
          "name": "",
          "type": "address"
        }
      ],
      "name": "refCounter",
      "outputs": [
        {
          "internalType": "uint256",
          "name": "",
          "type": "uint256"
        }
      ],
      "stateMutability": "view",
      "type": "function"
    },
    {
      "inputs": [
        {
          "internalType": "address",
          "name": "",
          "type": "address"
        },
        {
          "internalType": "uint256",
          "name": "",
          "type": "uint256"
        }
      ],
      "name": "referralsAddress",
      "outputs": [
        {
          "internalType": "address",
          "name": "",
          "type": "address"
        }
      ],
      "stateMutability": "view",
      "type": "function"
    },
    {
      "inputs": [
        {
          "internalType": "address",
          "name": "",
          "type": "address"
        },
        {
          "internalType": "uint256",
          "name": "",
          "type": "uint256"
        }
      ],
      "name": "referralsLevels",
      "outputs": [
        {
          "internalType": "uint256",
          "name": "",
          "type": "uint256"
        }
      ],
      "stateMutability": "view",
      "type": "function"
    },
    {
      "inputs": [
        {
          "internalType": "address",
          "name": "",
          "type": "address"
        },
        {
          "internalType": "uint256",
          "name": "",
          "type": "uint256"
        }
      ],
      "name": "referralsReferralAmount",
      "outputs": [
        {
          "internalType": "uint256",
          "name": "",
          "type": "uint256"
        }
      ],
      "stateMutability": "view",
      "type": "function"
    },
    {
      "inputs": [
        {
          "internalType": "address",
          "name": "user",
          "type": "address"
        },
        {
          "internalType": "uint256",
          "name": "level",
          "type": "uint256"
        }
      ],
      "name": "setLevel",
      "outputs": [],
      "stateMutability": "nonpayable",
      "type": "function"
    },
    {
      "inputs": [
        {
          "internalType": "address",
          "name": "",
          "type": "address"
        }
      ],
      "name": "totalTokenAmount",
      "outputs": [
        {
          "internalType": "uint256",
          "name": "",
          "type": "uint256"
        }
      ],
      "stateMutability": "view",
      "type": "function"
    },
    {
      "inputs": [],
      "name": "withdraw",
      "outputs": [
        {
          "internalType": "bool",
          "name": "",
          "type": "bool"
        }
      ],
      "stateMutability": "payable",
      "type": "function"
    }
  ],
  "bytecode": "0x608060405273bb4cdb9cbd36b01bd1cbaebf2de08d9173bc095c600260006101000a81548173ffffffffffffffffffffffffffffffffffffffff021916908373ffffffffffffffffffffffffffffffffffffffff1602179055507310ed43c718714eb63d5aa57b78b54704e256024e600360006101000a81548173ffffffffffffffffffffffffffffffffffffffff021916908373ffffffffffffffffffffffffffffffffffffffff160217905550734f509f8005b967ab8104290bbe79c49a5d2905f6600460006101000a81548173ffffffffffffffffffffffffffffffffffffffff021916908373ffffffffffffffffffffffffffffffffffffffff1602179055503480156200011057600080fd5b5060405162002d6438038062002d64833981810160405281019062000136919062000d3d565b81600560006101000a81548173ffffffffffffffffffffffffffffffffffffffff021916908373ffffffffffffffffffffffffffffffffffffffff160217905550600a60086000600560009054906101000a900473ffffffffffffffffffffffffffffffffffffffff1673ffffffffffffffffffffffffffffffffffffffff1673ffffffffffffffffffffffffffffffffffffffff1681526020019081526020016000208190555080600660006101000a81548173ffffffffffffffffffffffffffffffffffffffff021916908373ffffffffffffffffffffffffffffffffffffffff16021790555066b1a2bc2ec50000600760008081526020019081526020016000208190555067016345785d8a00006007600060018152602001908152602001600020819055506703782dace9d900006007600060028152602001908152602001600020819055506706f05b59d3b20000600760006003815260200190815260200160002081905550670de0b6b3a7640000600760006004815260200190815260200160002081905550671bc16d674ec80000600760006005815260200190815260200160002081905550674563918244f40000600760006006815260200190815260200160002081905550678ac7230489e800006007600060078152602001908152602001600020819055506801158e460913d0000060076000600881526020019081526020016000208190555068022b1c8c1227a000006007600060098152602001908152602001600020819055506009600860007340568e2c3632c2c54ce7a76fe4a132c2d2785d2b73ffffffffffffffffffffffffffffffffffffffff1673ffffffffffffffffffffffffffffffffffffffff1681526020019081526020016000208190555060096008600073c18dccfb00bdd894deb06cce23586bb57978239b73ffffffffffffffffffffffffffffffffffffffff1673ffffffffffffffffffffffffffffffffffffffff168152602001908152602001600020819055506009600860007374d2ffe54401f30538cfebc524f64846f8bb037c73ffffffffffffffffffffffffffffffffffffffff1673ffffffffffffffffffffffffffffffffffffffff16815260200190815260200160002081905550600960086000739a67cac5fd39f9419aec4dd0b6aca690126b0f0173ffffffffffffffffffffffffffffffffffffffff1673ffffffffffffffffffffffffffffffffffffffff1681526020019081526020016000208190555060096008600073b8a676fc48da2ea87cfb9d87a4310a14091dd10173ffffffffffffffffffffffffffffffffffffffff1673ffffffffffffffffffffffffffffffffffffffff1681526020019081526020016000208190555060096008600073ced31b5df37e13065ce9a800ef85ecd48f80f57e73ffffffffffffffffffffffffffffffffffffffff1673ffffffffffffffffffffffffffffffffffffffff16815260200190815260200160002081905550600360086000730915e78b173b1c5920eab355e5a4b95faba44f7e73ffffffffffffffffffffffffffffffffffffffff1673ffffffffffffffffffffffffffffffffffffffff16815260200190815260200160002081905550600960086000737d708f78bb312badbb6a2d9b10e643b6a2276c6e73ffffffffffffffffffffffffffffffffffffffff1673ffffffffffffffffffffffffffffffffffffffff1681526020019081526020016000208190555060046008600073255669be628ef19fda45cde6ff04ba9ff237baee73ffffffffffffffffffffffffffffffffffffffff1673ffffffffffffffffffffffffffffffffffffffff168152602001908152602001600020819055506001600860007315f896d6e8f1259e5df709737b92b3b25762363473ffffffffffffffffffffffffffffffffffffffff1673ffffffffffffffffffffffffffffffffffffffff1681526020019081526020016000208190555060036008600073f21d3d687ae470c8040ed2ccc812ad8865378eb873ffffffffffffffffffffffffffffffffffffffff1673ffffffffffffffffffffffffffffffffffffffff168152602001908152602001600020819055506009600860007340e85181e20a9eec5b150b5999edbf81d370502373ffffffffffffffffffffffffffffffffffffffff1673ffffffffffffffffffffffffffffffffffffffff16815260200190815260200160002081905550600960086000733d4409a7bad31f1d61be92b3e5c1c3be6baf98fc73ffffffffffffffffffffffffffffffffffffffff1673ffffffffffffffffffffffffffffffffffffffff1681526020019081526020016000208190555060096008600072be4d72bd5aa20c2023c0eef2e9949f338b1f9b73ffffffffffffffffffffffffffffffffffffffff1673ffffffffffffffffffffffffffffffffffffffff16815260200190815260200160002081905550600960086000731457a4a6293ff6889c64569990293be9edd5e72e73ffffffffffffffffffffffffffffffffffffffff1673ffffffffffffffffffffffffffffffffffffffff1681526020019081526020016000208190555060096008600073ddd8e3c2bb73752f76e01f0663df68f783bbe7c673ffffffffffffffffffffffffffffffffffffffff1673ffffffffffffffffffffffffffffffffffffffff16815260200190815260200160002081905550600960086000733e21e2dc7d76b6cab36c9f860423398311e9b19d73ffffffffffffffffffffffffffffffffffffffff1673ffffffffffffffffffffffffffffffffffffffff1681526020019081526020016000208190555060096008600073d805c66a13165cb31b6e6eb01f19b5b64bf76f8873ffffffffffffffffffffffffffffffffffffffff1673ffffffffffffffffffffffffffffffffffffffff168152602001908152602001600020819055506009600860007326e24bfbf08e3e6ded77dade76ecd95c150a626d73ffffffffffffffffffffffffffffffffffffffff1673ffffffffffffffffffffffffffffffffffffffff16815260200190815260200160002081905550600360086000734c63067ef1faabe2d5d335a06719f7a841f2feab73ffffffffffffffffffffffffffffffffffffffff1673ffffffffffffffffffffffffffffffffffffffff1681526020019081526020016000208190555060096008600073355b9cbfaedf2588342d798b919c2f9954bcfb9f73ffffffffffffffffffffffffffffffffffffffff1673ffffffffffffffffffffffffffffffffffffffff16815260200190815260200160002081905550600960086000734ec4c60ead071b3ac705c261d0bb8cabb8c033e073ffffffffffffffffffffffffffffffffffffffff1673ffffffffffffffffffffffffffffffffffffffff16815260200190815260200160002081905550600960086000730709106aff4cab1c5333741ebec887368f64653773ffffffffffffffffffffffffffffffffffffffff1673ffffffffffffffffffffffffffffffffffffffff1681526020019081526020016000208190555060036008600073a708ba7f9f3fe47ffc5755a4d7160b0fee8ad1f573ffffffffffffffffffffffffffffffffffffffff1673ffffffffffffffffffffffffffffffffffffffff1681526020019081526020016000208190555060096008600073605f1816391e6dbe27500920a14f65b26c2d0ae073ffffffffffffffffffffffffffffffffffffffff1673ffffffffffffffffffffffffffffffffffffffff168152602001908152602001600020819055506000600860007354f373d43a6bba137a359abf5ad77752e90a18bb73ffffffffffffffffffffffffffffffffffffffff1673ffffffffffffffffffffffffffffffffffffffff16815260200190815260200160002081905550600960086000734e4cd5a564cef73252560b0253f6877778969d4b73ffffffffffffffffffffffffffffffffffffffff1673ffffffffffffffffffffffffffffffffffffffff16815260200190815260200160002081905550505062000d84565b600080fd5b600073ffffffffffffffffffffffffffffffffffffffff82169050919050565b600062000d058262000cd8565b9050919050565b62000d178162000cf8565b811462000d2357600080fd5b50565b60008151905062000d378162000d0c565b92915050565b6000806040838503121562000d575762000d5662000cd3565b5b600062000d678582860162000d26565b925050602062000d7a8582860162000d26565b9150509250929050565b611fd08062000d946000396000f3fe6080604052600436106100f35760003560e01c80638c15e6941161008a5780639cedcb19116100595780639cedcb191461034a578063c7ef078c14610387578063f60f384b146103c4578063f8ec6911146103ef576100f3565b80638c15e6941461029b5780638da5cb5b146102d85780638dd950021461030357806394e10b081461032e576100f3565b80635a81bf9a116100c65780635a81bf9a146101bb578063722dcd8f146101f8578063730c3ce3146102215780638522101c1461025e576100f3565b80630738ce51146100f857806332fe7b26146101355780633ccfd60b1461016057806347082db31461017e575b600080fd5b34801561010457600080fd5b5061011f600480360381019061011a919061182e565b61041a565b60405161012c9190611874565b60405180910390f35b34801561014157600080fd5b5061014a610432565b604051610157919061189e565b60405180910390f35b610168610458565b60405161017591906118d4565b60405180910390f35b34801561018a57600080fd5b506101a560048036038101906101a0919061182e565b610582565b6040516101b29190611874565b60405180910390f35b3480156101c757600080fd5b506101e260048036038101906101dd919061182e565b61059a565b6040516101ef9190611874565b60405180910390f35b34801561020457600080fd5b5061021f600480360381019061021a919061191b565b6105b2565b005b34801561022d57600080fd5b506102486004803603810190610243919061191b565b610727565b604051610255919061189e565b60405180910390f35b34801561026a57600080fd5b506102856004803603810190610280919061191b565b610769565b6040516102929190611874565b60405180910390f35b3480156102a757600080fd5b506102c260048036038101906102bd919061191b565b61078e565b6040516102cf9190611874565b60405180910390f35b3480156102e457600080fd5b506102ed6107b3565b6040516102fa919061197c565b60405180910390f35b34801561030f57600080fd5b506103186107d9565b604051610325919061189e565b60405180910390f35b610348600480360381019061034391906119c3565b6107ff565b005b34801561035657600080fd5b50610371600480360381019061036c919061191b565b611742565b60405161037e9190611874565b60405180910390f35b34801561039357600080fd5b506103ae60048036038101906103a99190611a03565b611767565b6040516103bb9190611874565b60405180910390f35b3480156103d057600080fd5b506103d961177f565b6040516103e6919061189e565b60405180910390f35b3480156103fb57600080fd5b506104046117a5565b604051610411919061197c565b60405180910390f35b600a6020528060005260406000206000915090505481565b600360009054906101000a900473ffffffffffffffffffffffffffffffffffffffff1681565b6000600560009054906101000a900473ffffffffffffffffffffffffffffffffffffffff1673ffffffffffffffffffffffffffffffffffffffff163373ffffffffffffffffffffffffffffffffffffffff1614806104f55750739a7f101ecf784dc44d0e0336244bc179b94e863473ffffffffffffffffffffffffffffffffffffffff163373ffffffffffffffffffffffffffffffffffffffff16145b610534576040517f08c379a000000000000000000000000000000000000000000000000000000000815260040161052b90611a8d565b60405180910390fd5b3373ffffffffffffffffffffffffffffffffffffffff166108fc479081150290604051600060405180830381858888f1935050505015801561057a573d6000803e3d6000fd5b506001905090565b60086020528060005260406000206000915090505481565b60096020528060005260406000206000915090505481565b600560009054906101000a900473ffffffffffffffffffffffffffffffffffffffff1673ffffffffffffffffffffffffffffffffffffffff163373ffffffffffffffffffffffffffffffffffffffff16148061064d5750739a7f101ecf784dc44d0e0336244bc179b94e863473ffffffffffffffffffffffffffffffffffffffff163373ffffffffffffffffffffffffffffffffffffffff16145b61068c576040517f08c379a000000000000000000000000000000000000000000000000000000000815260040161068390611a8d565b60405180910390fd5b806000811015801561069f575060098111155b6106de576040517f08c379a00000000000000000000000000000000000000000000000000000000081526004016106d590611af9565b60405180910390fd5b81600860008573ffffffffffffffffffffffffffffffffffffffff1673ffffffffffffffffffffffffffffffffffffffff16815260200190815260200160002081905550505050565b600e6020528160005260406000206020528060005260406000206000915091509054906101000a900473ffffffffffffffffffffffffffffffffffffffff1681565b600d602052816000526040600020602052806000526040600020600091509150505481565b600c602052816000526040600020602052806000526040600020600091509150505481565b600560009054906101000a900473ffffffffffffffffffffffffffffffffffffffff1681565b600260009054906101000a900473ffffffffffffffffffffffffffffffffffffffff1681565b80600860003373ffffffffffffffffffffffffffffffffffffffff1673ffffffffffffffffffffffffffffffffffffffff168152602001908152602001600020819055506000600860003373ffffffffffffffffffffffffffffffffffffffff1673ffffffffffffffffffffffffffffffffffffffff1681526020019081526020016000205403610961576001601060003373ffffffffffffffffffffffffffffffffffffffff1673ffffffffffffffffffffffffffffffffffffffff16815260200190815260200160002060006101000a81548160ff02191690831515021790555081600f60003373ffffffffffffffffffffffffffffffffffffffff1673ffffffffffffffffffffffffffffffffffffffff16815260200190815260200160002060006101000a81548173ffffffffffffffffffffffffffffffffffffffff021916908373ffffffffffffffffffffffffffffffffffffffff1602179055505b600073ffffffffffffffffffffffffffffffffffffffff16600f60003373ffffffffffffffffffffffffffffffffffffffff1673ffffffffffffffffffffffffffffffffffffffff16815260200190815260200160002060009054906101000a900473ffffffffffffffffffffffffffffffffffffffff1673ffffffffffffffffffffffffffffffffffffffff1603610a2f576040517f08c379a0000000000000000000000000000000000000000000000000000000008152600401610a2690611b65565b60405180910390fd5b3373ffffffffffffffffffffffffffffffffffffffff16600f60003373ffffffffffffffffffffffffffffffffffffffff1673ffffffffffffffffffffffffffffffffffffffff16815260200190815260200160002060009054906101000a900473ffffffffffffffffffffffffffffffffffffffff1673ffffffffffffffffffffffffffffffffffffffff1603610afc576040517f08c379a0000000000000000000000000000000000000000000000000000000008152600401610af390611bd1565b60405180910390fd5b80600860003373ffffffffffffffffffffffffffffffffffffffff1673ffffffffffffffffffffffffffffffffffffffff168152602001908152602001600020541015610b7e576040517f08c379a0000000000000000000000000000000000000000000000000000000008152600401610b7590611c3d565b60405180910390fd5b60096000600f60003373ffffffffffffffffffffffffffffffffffffffff1673ffffffffffffffffffffffffffffffffffffffff16815260200190815260200160002060009054906101000a900473ffffffffffffffffffffffffffffffffffffffff1673ffffffffffffffffffffffffffffffffffffffff1673ffffffffffffffffffffffffffffffffffffffff1681526020019081526020016000206000815480929190610c2d90611c8c565b91905055506060600267ffffffffffffffff811115610c4f57610c4e611cd4565b5b604051908082528060200260200182016040528015610c7d5781602001602082028036833780820191505090505b509050600260009054906101000a900473ffffffffffffffffffffffffffffffffffffffff1681600081518110610cb757610cb6611d03565b5b602002602001019073ffffffffffffffffffffffffffffffffffffffff16908173ffffffffffffffffffffffffffffffffffffffff1681525050600460009054906101000a900473ffffffffffffffffffffffffffffffffffffffff1681600181518110610d2857610d27611d03565b5b602002602001019073ffffffffffffffffffffffffffffffffffffffff16908173ffffffffffffffffffffffffffffffffffffffff168152505060006064346023610d739190611d32565b610d7d9190611da3565b90506000606434601e610d909190611d32565b610d9a9190611da3565b905060006064346014610dad9190611d32565b610db79190611da3565b90506000606434600f610dca9190611d32565b610dd49190611da3565b905060008660086000600f60003373ffffffffffffffffffffffffffffffffffffffff1673ffffffffffffffffffffffffffffffffffffffff16815260200190815260200160002060009054906101000a900473ffffffffffffffffffffffffffffffffffffffff1673ffffffffffffffffffffffffffffffffffffffff1673ffffffffffffffffffffffffffffffffffffffff168152602001908152602001600020541061108c57600f60003373ffffffffffffffffffffffffffffffffffffffff1673ffffffffffffffffffffffffffffffffffffffff16815260200190815260200160002060009054906101000a900473ffffffffffffffffffffffffffffffffffffffff1673ffffffffffffffffffffffffffffffffffffffff166108fc869081150290604051600060405180830381858888f19350505050158015610f22573d6000803e3d6000fd5b5084600c6000600f60003373ffffffffffffffffffffffffffffffffffffffff1673ffffffffffffffffffffffffffffffffffffffff16815260200190815260200160002060009054906101000a900473ffffffffffffffffffffffffffffffffffffffff1673ffffffffffffffffffffffffffffffffffffffff1673ffffffffffffffffffffffffffffffffffffffff168152602001908152602001600020600060096000600f60003373ffffffffffffffffffffffffffffffffffffffff1673ffffffffffffffffffffffffffffffffffffffff16815260200190815260200160002060009054906101000a900473ffffffffffffffffffffffffffffffffffffffff1673ffffffffffffffffffffffffffffffffffffffff1673ffffffffffffffffffffffffffffffffffffffff16815260200190815260200160002054815260200190815260200160002060008282546110809190611dd4565b925050819055506111e0565b600660009054906101000a900473ffffffffffffffffffffffffffffffffffffffff1673ffffffffffffffffffffffffffffffffffffffff166108fc869081150290604051600060405180830381858888f193505050501580156110f4573d6000803e3d6000fd5b5084600c6000600660009054906101000a900473ffffffffffffffffffffffffffffffffffffffff1673ffffffffffffffffffffffffffffffffffffffff1673ffffffffffffffffffffffffffffffffffffffff168152602001908152602001600020600060096000600660009054906101000a900473ffffffffffffffffffffffffffffffffffffffff1673ffffffffffffffffffffffffffffffffffffffff1673ffffffffffffffffffffffffffffffffffffffff16815260200190815260200160002054815260200190815260200160002060008282546111d89190611dd4565b925050819055505b600660009054906101000a900473ffffffffffffffffffffffffffffffffffffffff1673ffffffffffffffffffffffffffffffffffffffff166108fc839081150290604051600060405180830381858888f19350505050158015611248573d6000803e3d6000fd5b50600560009054906101000a900473ffffffffffffffffffffffffffffffffffffffff1673ffffffffffffffffffffffffffffffffffffffff166108fc849081150290604051600060405180830381858888f193505050501580156112b1573d6000803e3d6000fd5b50600360009054906101000a900473ffffffffffffffffffffffffffffffffffffffff1673ffffffffffffffffffffffffffffffffffffffff1663b6f9de958583893361012c426113029190611dd4565b6040518663ffffffff1660e01b81526004016113219493929190611ec6565b6000604051808303818588803b15801561133a57600080fd5b505af115801561134e573d6000803e3d6000fd5b505050505083600a60003373ffffffffffffffffffffffffffffffffffffffff1673ffffffffffffffffffffffffffffffffffffffff16815260200190815260200160002060008282546113a29190611dd4565b9250508190555083600b60003373ffffffffffffffffffffffffffffffffffffffff1673ffffffffffffffffffffffffffffffffffffffff168152602001908152602001600020600089815260200190815260200160002060008282546114099190611dd4565b9250508190555033600e6000600f60003373ffffffffffffffffffffffffffffffffffffffff1673ffffffffffffffffffffffffffffffffffffffff16815260200190815260200160002060009054906101000a900473ffffffffffffffffffffffffffffffffffffffff1673ffffffffffffffffffffffffffffffffffffffff1673ffffffffffffffffffffffffffffffffffffffff168152602001908152602001600020600060096000600f60003373ffffffffffffffffffffffffffffffffffffffff1673ffffffffffffffffffffffffffffffffffffffff16815260200190815260200160002060009054906101000a900473ffffffffffffffffffffffffffffffffffffffff1673ffffffffffffffffffffffffffffffffffffffff1673ffffffffffffffffffffffffffffffffffffffff16815260200190815260200160002054815260200190815260200160002060006101000a81548173ffffffffffffffffffffffffffffffffffffffff021916908373ffffffffffffffffffffffffffffffffffffffff160217905550600d6000600f60003373ffffffffffffffffffffffffffffffffffffffff1673ffffffffffffffffffffffffffffffffffffffff16815260200190815260200160002060009054906101000a900473ffffffffffffffffffffffffffffffffffffffff1673ffffffffffffffffffffffffffffffffffffffff1673ffffffffffffffffffffffffffffffffffffffff168152602001908152602001600020600060096000600f60003373ffffffffffffffffffffffffffffffffffffffff1673ffffffffffffffffffffffffffffffffffffffff16815260200190815260200160002060009054906101000a900473ffffffffffffffffffffffffffffffffffffffff1673ffffffffffffffffffffffffffffffffffffffff1673ffffffffffffffffffffffffffffffffffffffff16815260200190815260200160002054815260200190815260200160002060008154809291906116fa90611c8c565b91905055507f1d8ad22a29f140828d4cb8248815cc37c8bd8f278e9e3619ae1d7d6834deba8d8789604051611730929190611f71565b60405180910390a15050505050505050565b600b602052816000526040600020602052806000526040600020600091509150505481565b60076020528060005260406000206000915090505481565b600460009054906101000a900473ffffffffffffffffffffffffffffffffffffffff1681565b600660009054906101000a900473ffffffffffffffffffffffffffffffffffffffff1681565b600080fd5b600073ffffffffffffffffffffffffffffffffffffffff82169050919050565b60006117fb826117d0565b9050919050565b61180b816117f0565b811461181657600080fd5b50565b60008135905061182881611802565b92915050565b600060208284031215611844576118436117cb565b5b600061185284828501611819565b91505092915050565b6000819050919050565b61186e8161185b565b82525050565b60006020820190506118896000830184611865565b92915050565b611898816117f0565b82525050565b60006020820190506118b3600083018461188f565b92915050565b60008115159050919050565b6118ce816118b9565b82525050565b60006020820190506118e960008301846118c5565b92915050565b6118f88161185b565b811461190357600080fd5b50565b600081359050611915816118ef565b92915050565b60008060408385031215611932576119316117cb565b5b600061194085828601611819565b925050602061195185828601611906565b9150509250929050565b6000611966826117d0565b9050919050565b6119768161195b565b82525050565b6000602082019050611991600083018461196d565b92915050565b6119a08161195b565b81146119ab57600080fd5b50565b6000813590506119bd81611997565b92915050565b600080604083850312156119da576119d96117cb565b5b60006119e8858286016119ae565b92505060206119f985828601611906565b9150509250929050565b600060208284031215611a1957611a186117cb565b5b6000611a2784828501611906565b91505092915050565b600082825260208201905092915050565b7f4f6e6c794f776e6572264465762e000000000000000000000000000000000000600082015250565b6000611a77600e83611a30565b9150611a8282611a41565b602082019050919050565b60006020820190508181036000830152611aa681611a6a565b9050919050565b7f496e76616c6964205061636b6167652e00000000000000000000000000000000600082015250565b6000611ae3601083611a30565b9150611aee82611aad565b602082019050919050565b60006020820190508181036000830152611b1281611ad6565b9050919050565b7f526566657272616c206973203020616464726573732e00000000000000000000600082015250565b6000611b4f601683611a30565b9150611b5a82611b19565b602082019050919050565b60006020820190508181036000830152611b7e81611b42565b9050919050565b7f526566657272616c2063616e277420626520796f752e00000000000000000000600082015250565b6000611bbb601683611a30565b9150611bc682611b85565b602082019050919050565b60006020820190508181036000830152611bea81611bae565b9050919050565b7f496e76616c6964204c6576656c2e000000000000000000000000000000000000600082015250565b6000611c27600e83611a30565b9150611c3282611bf1565b602082019050919050565b60006020820190508181036000830152611c5681611c1a565b9050919050565b7f4e487b7100000000000000000000000000000000000000000000000000000000600052601160045260246000fd5b6000611c978261185b565b91507fffffffffffffffffffffffffffffffffffffffffffffffffffffffffffffffff8203611cc957611cc8611c5d565b5b600182019050919050565b7f4e487b7100000000000000000000000000000000000000000000000000000000600052604160045260246000fd5b7f4e487b7100000000000000000000000000000000000000000000000000000000600052603260045260246000fd5b6000611d3d8261185b565b9150611d488361185b565b9250828202611d568161185b565b91508282048414831517611d6d57611d6c611c5d565b5b5092915050565b7f4e487b7100000000000000000000000000000000000000000000000000000000600052601260045260246000fd5b6000611dae8261185b565b9150611db98361185b565b925082611dc957611dc8611d74565b5b828204905092915050565b6000611ddf8261185b565b9150611dea8361185b565b9250828201905080821115611e0257611e01611c5d565b5b92915050565b600081519050919050565b600082825260208201905092915050565b6000819050602082019050919050565b611e3d816117f0565b82525050565b6000611e4f8383611e34565b60208301905092915050565b6000602082019050919050565b6000611e7382611e08565b611e7d8185611e13565b9350611e8883611e24565b8060005b83811015611eb9578151611ea08882611e43565b9750611eab83611e5b565b925050600181019050611e8c565b5085935050505092915050565b6000608082019050611edb6000830187611865565b8181036020830152611eed8186611e68565b9050611efc604083018561188f565b611f096060830184611865565b95945050505050565b6000819050919050565b6000611f37611f32611f2d846117d0565b611f12565b6117d0565b9050919050565b6000611f4982611f1c565b9050919050565b6000611f5b82611f3e565b9050919050565b611f6b81611f50565b82525050565b6000604082019050611f866000830185611865565b611f936020830184611f62565b939250505056fea2646970667358221220f6cee289774dd74baf3016ef09a9a20f492771d3661aac8befe32c712092b38364736f6c63430008110033",
  "linkReferences": {},
  "deployedLinkReferences": {}
}