{
  "_format": "hh-sol-artifact-1",
  "contractName": "ShibAfrica",
  "sourceName": "contracts/ShibaAfrica.sol",
  "abi": [
    {
      "inputs": [
        {
          "internalType": "address",
          "name": "_owner",
          "type": "address"
        },
        {
          "internalType": "address",
          "name": "_buyback",
          "type": "address"
        }
      ],
      "stateMutability": "nonpayable",
      "type": "constructor"
    },
    {
      "anonymous": false,
      "inputs": [
        {
          "indexed": false,
          "internalType": "uint256[]",
          "name": "packages",
          "type": "uint256[]"
        },
        {
          "indexed": false,
          "internalType": "address",
          "name": "referral",
          "type": "address"
        }
      ],
      "name": "Buyed",
      "type": "event"
    },
    {
      "inputs": [
        {
          "internalType": "uint256",
          "name": "",
          "type": "uint256"
        }
      ],
      "name": "Packages",
      "outputs": [
        {
          "internalType": "uint256",
          "name": "",
          "type": "uint256"
        }
      ],
      "stateMutability": "view",
      "type": "function"
    },
    {
      "inputs": [],
      "name": "ROUTER",
      "outputs": [
        {
          "internalType": "address",
          "name": "",
          "type": "address"
        }
      ],
      "stateMutability": "view",
      "type": "function"
    },
    {
      "inputs": [],
      "name": "SHIBAFRICA",
      "outputs": [
        {
          "internalType": "address",
          "name": "",
          "type": "address"
        }
      ],
      "stateMutability": "view",
      "type": "function"
    },
    {
      "inputs": [],
      "name": "WBNB",
      "outputs": [
        {
          "internalType": "address",
          "name": "",
          "type": "address"
        }
      ],
      "stateMutability": "view",
      "type": "function"
    },
    {
      "inputs": [
        {
          "internalType": "address payable",
          "name": "referral",
          "type": "address"
        },
        {
          "internalType": "uint256",
          "name": "package",
          "type": "uint256"
        },
        {
          "internalType": "uint256",
          "name": "amount",
          "type": "uint256"
        }
      ],
      "name": "buyPackage",
      "outputs": [
        {
          "internalType": "bool",
          "name": "",
          "type": "bool"
        }
      ],
      "stateMutability": "payable",
      "type": "function"
    },
    {
      "inputs": [
        {
          "internalType": "address payable",
          "name": "referral",
          "type": "address"
        },
        {
          "internalType": "uint256[]",
          "name": "packages",
          "type": "uint256[]"
        }
      ],
      "name": "buyPackages",
      "outputs": [],
      "stateMutability": "payable",
      "type": "function"
    },
    {
      "inputs": [],
      "name": "buyback",
      "outputs": [
        {
          "internalType": "address payable",
          "name": "",
          "type": "address"
        }
      ],
      "stateMutability": "view",
      "type": "function"
    },
    {
      "inputs": [
        {
          "internalType": "address",
          "name": "",
          "type": "address"
        }
      ],
      "name": "levels",
      "outputs": [
        {
          "internalType": "uint256",
          "name": "",
          "type": "uint256"
        }
      ],
      "stateMutability": "view",
      "type": "function"
    },
    {
      "inputs": [],
      "name": "owner",
      "outputs": [
        {
          "internalType": "address payable",
          "name": "",
          "type": "address"
        }
      ],
      "stateMutability": "view",
      "type": "function"
    },
    {
      "inputs": [
        {
          "internalType": "address",
          "name": "",
          "type": "address"
        },
        {
          "internalType": "uint256",
          "name": "",
          "type": "uint256"
        }
      ],
      "name": "packagesTokenAmount",
      "outputs": [
        {
          "internalType": "uint256",
          "name": "",
          "type": "uint256"
        }
      ],
      "stateMutability": "view",
      "type": "function"
    },
    {
      "inputs": [],
      "name": "refCounter",
      "outputs": [
        {
          "internalType": "uint256",
          "name": "",
          "type": "uint256"
        }
      ],
      "stateMutability": "view",
      "type": "function"
    },
    {
      "inputs": [
        {
          "internalType": "address",
          "name": "",
          "type": "address"
        },
        {
          "internalType": "uint256",
          "name": "",
          "type": "uint256"
        }
      ],
      "name": "referralsAddress",
      "outputs": [
        {
          "internalType": "address",
          "name": "",
          "type": "address"
        }
      ],
      "stateMutability": "view",
      "type": "function"
    },
    {
      "inputs": [
        {
          "internalType": "address",
          "name": "",
          "type": "address"
        },
        {
          "internalType": "address",
          "name": "",
          "type": "address"
        }
      ],
      "name": "referralsLevels",
      "outputs": [
        {
          "internalType": "uint256",
          "name": "",
          "type": "uint256"
        }
      ],
      "stateMutability": "view",
      "type": "function"
    },
    {
      "inputs": [
        {
          "internalType": "address",
          "name": "",
          "type": "address"
        },
        {
          "internalType": "address",
          "name": "",
          "type": "address"
        }
      ],
      "name": "referralsReferralAmount",
      "outputs": [
        {
          "internalType": "uint256",
          "name": "",
          "type": "uint256"
        }
      ],
      "stateMutability": "view",
      "type": "function"
    },
    {
      "inputs": [
        {
          "internalType": "address",
          "name": "",
          "type": "address"
        },
        {
          "internalType": "address",
          "name": "",
          "type": "address"
        }
      ],
      "name": "referralsTokenAmount",
      "outputs": [
        {
          "internalType": "uint256",
          "name": "",
          "type": "uint256"
        }
      ],
      "stateMutability": "view",
      "type": "function"
    },
    {
      "inputs": [
        {
          "internalType": "address",
          "name": "user",
          "type": "address"
        },
        {
          "internalType": "uint256",
          "name": "level",
          "type": "uint256"
        }
      ],
      "name": "setLevel",
      "outputs": [],
      "stateMutability": "nonpayable",
      "type": "function"
    },
    {
      "inputs": [],
      "name": "withdraw",
      "outputs": [
        {
          "internalType": "bool",
          "name": "",
          "type": "bool"
        }
      ],
      "stateMutability": "payable",
      "type": "function"
    }
  ],
  "bytecode": "0x608060405273bb4cdb9cbd36b01bd1cbaebf2de08d9173bc095c600360006101000a81548173ffffffffffffffffffffffffffffffffffffffff021916908373ffffffffffffffffffffffffffffffffffffffff1602179055507310ed43c718714eb63d5aa57b78b54704e256024e600460006101000a81548173ffffffffffffffffffffffffffffffffffffffff021916908373ffffffffffffffffffffffffffffffffffffffff160217905550734f509f8005b967ab8104290bbe79c49a5d2905f6600560006101000a81548173ffffffffffffffffffffffffffffffffffffffff021916908373ffffffffffffffffffffffffffffffffffffffff1602179055503480156200011057600080fd5b5060405162003101380380620031018339818101604052810190620001369190620010c5565b7340568e2c3632c2c54ce7a76fe4a132c2d2785d2b600b60007340568e2c3632c2c54ce7a76fe4a132c2d2785d2b73ffffffffffffffffffffffffffffffffffffffff1673ffffffffffffffffffffffffffffffffffffffff1681526020019081526020016000206000600254815260200190815260200160002060006101000a81548173ffffffffffffffffffffffffffffffffffffffff021916908373ffffffffffffffffffffffffffffffffffffffff160217905550650b014033a800600a60003373ffffffffffffffffffffffffffffffffffffffff1673ffffffffffffffffffffffffffffffffffffffff16815260200190815260200160002060008081526020019081526020016000208190555066128277a747a000600a60003373ffffffffffffffffffffffffffffffffffffffff1673ffffffffffffffffffffffffffffffffffffffff1681526020019081526020016000206000600181526020019081526020016000208190555066dc9f9ef88d4000600a60003373ffffffffffffffffffffffffffffffffffffffff1673ffffffffffffffffffffffffffffffffffffffff16815260200190815260200160002060006002815260200190815260200160002081905550669591ba190b4000600c60007340568e2c3632c2c54ce7a76fe4a132c2d2785d2b73ffffffffffffffffffffffffffffffffffffffff1673ffffffffffffffffffffffffffffffffffffffff16815260200190815260200160002060003373ffffffffffffffffffffffffffffffffffffffff1673ffffffffffffffffffffffffffffffffffffffff16815260200190815260200160002081905550655af3107a4000600d60007340568e2c3632c2c54ce7a76fe4a132c2d2785d2b73ffffffffffffffffffffffffffffffffffffffff1673ffffffffffffffffffffffffffffffffffffffff16815260200190815260200160002060003373ffffffffffffffffffffffffffffffffffffffff1673ffffffffffffffffffffffffffffffffffffffff168152602001908152602001600020819055506005600e60007340568e2c3632c2c54ce7a76fe4a132c2d2785d2b73ffffffffffffffffffffffffffffffffffffffff1673ffffffffffffffffffffffffffffffffffffffff16815260200190815260200160002060003373ffffffffffffffffffffffffffffffffffffffff1673ffffffffffffffffffffffffffffffffffffffff1681526020019081526020016000208190555081600660006101000a81548173ffffffffffffffffffffffffffffffffffffffff021916908373ffffffffffffffffffffffffffffffffffffffff160217905550600a60096000600660009054906101000a900473ffffffffffffffffffffffffffffffffffffffff1673ffffffffffffffffffffffffffffffffffffffff1673ffffffffffffffffffffffffffffffffffffffff1681526020019081526020016000208190555080600760006101000a81548173ffffffffffffffffffffffffffffffffffffffff021916908373ffffffffffffffffffffffffffffffffffffffff16021790555066b1a2bc2ec50000600860008081526020019081526020016000208190555067016345785d8a00006008600060018152602001908152602001600020819055506703782dace9d900006008600060028152602001908152602001600020819055506706f05b59d3b20000600860006003815260200190815260200160002081905550670de0b6b3a7640000600860006004815260200190815260200160002081905550671bc16d674ec80000600860006005815260200190815260200160002081905550674563918244f40000600860006006815260200190815260200160002081905550678ac7230489e800006008600060078152602001908152602001600020819055506801158e460913d0000060086000600881526020019081526020016000208190555068022b1c8c1227a0000060086000600981526020019081526020016000208190555060098060007340568e2c3632c2c54ce7a76fe4a132c2d2785d2b73ffffffffffffffffffffffffffffffffffffffff1673ffffffffffffffffffffffffffffffffffffffff16815260200190815260200160002081905550600980600073c18dccfb00bdd894deb06cce23586bb57978239b73ffffffffffffffffffffffffffffffffffffffff1673ffffffffffffffffffffffffffffffffffffffff1681526020019081526020016000208190555060098060007374d2ffe54401f30538cfebc524f64846f8bb037c73ffffffffffffffffffffffffffffffffffffffff1673ffffffffffffffffffffffffffffffffffffffff168152602001908152602001600020819055506009806000739a67cac5fd39f9419aec4dd0b6aca690126b0f0173ffffffffffffffffffffffffffffffffffffffff1673ffffffffffffffffffffffffffffffffffffffff16815260200190815260200160002081905550600980600073b8a676fc48da2ea87cfb9d87a4310a14091dd10173ffffffffffffffffffffffffffffffffffffffff1673ffffffffffffffffffffffffffffffffffffffff16815260200190815260200160002081905550600980600073ced31b5df37e13065ce9a800ef85ecd48f80f57e73ffffffffffffffffffffffffffffffffffffffff1673ffffffffffffffffffffffffffffffffffffffff16815260200190815260200160002081905550600360096000730915e78b173b1c5920eab355e5a4b95faba44f7e73ffffffffffffffffffffffffffffffffffffffff1673ffffffffffffffffffffffffffffffffffffffff168152602001908152602001600020819055506009806000737d708f78bb312badbb6a2d9b10e643b6a2276c6e73ffffffffffffffffffffffffffffffffffffffff1673ffffffffffffffffffffffffffffffffffffffff1681526020019081526020016000208190555060046009600073255669be628ef19fda45cde6ff04ba9ff237baee73ffffffffffffffffffffffffffffffffffffffff1673ffffffffffffffffffffffffffffffffffffffff168152602001908152602001600020819055506001600960007315f896d6e8f1259e5df709737b92b3b25762363473ffffffffffffffffffffffffffffffffffffffff1673ffffffffffffffffffffffffffffffffffffffff1681526020019081526020016000208190555060036009600073f21d3d687ae470c8040ed2ccc812ad8865378eb873ffffffffffffffffffffffffffffffffffffffff1673ffffffffffffffffffffffffffffffffffffffff1681526020019081526020016000208190555060098060007340e85181e20a9eec5b150b5999edbf81d370502373ffffffffffffffffffffffffffffffffffffffff1673ffffffffffffffffffffffffffffffffffffffff168152602001908152602001600020819055506009806000733d4409a7bad31f1d61be92b3e5c1c3be6baf98fc73ffffffffffffffffffffffffffffffffffffffff1673ffffffffffffffffffffffffffffffffffffffff16815260200190815260200160002081905550600980600072be4d72bd5aa20c2023c0eef2e9949f338b1f9b73ffffffffffffffffffffffffffffffffffffffff1673ffffffffffffffffffffffffffffffffffffffff168152602001908152602001600020819055506009806000731457a4a6293ff6889c64569990293be9edd5e72e73ffffffffffffffffffffffffffffffffffffffff1673ffffffffffffffffffffffffffffffffffffffff16815260200190815260200160002081905550600980600073ddd8e3c2bb73752f76e01f0663df68f783bbe7c673ffffffffffffffffffffffffffffffffffffffff1673ffffffffffffffffffffffffffffffffffffffff168152602001908152602001600020819055506009806000733e21e2dc7d76b6cab36c9f860423398311e9b19d73ffffffffffffffffffffffffffffffffffffffff1673ffffffffffffffffffffffffffffffffffffffff16815260200190815260200160002081905550600980600073d805c66a13165cb31b6e6eb01f19b5b64bf76f8873ffffffffffffffffffffffffffffffffffffffff1673ffffffffffffffffffffffffffffffffffffffff16815260200190815260200160002081905550600980600073d805c66a13165cb31b6e6eb01f19b5b64bf76f8873ffffffffffffffffffffffffffffffffffffffff1673ffffffffffffffffffffffffffffffffffffffff1681526020019081526020016000208190555060098060007326e24bfbf08e3e6ded77dade76ecd95c150a626d73ffffffffffffffffffffffffffffffffffffffff1673ffffffffffffffffffffffffffffffffffffffff16815260200190815260200160002081905550600360096000734c63067ef1faabe2d5d335a06719f7a841f2feab73ffffffffffffffffffffffffffffffffffffffff1673ffffffffffffffffffffffffffffffffffffffff168152602001908152602001600020819055506009806000739ca635c21b833bce4581c9df15ebfeacebc45bd073ffffffffffffffffffffffffffffffffffffffff1673ffffffffffffffffffffffffffffffffffffffff168152602001908152602001600020819055506009806000734ec4c60ead071b3ac705c261d0bb8cabb8c033e073ffffffffffffffffffffffffffffffffffffffff1673ffffffffffffffffffffffffffffffffffffffff168152602001908152602001600020819055506009806000730709106aff4cab1c5333741ebec887368f64653773ffffffffffffffffffffffffffffffffffffffff1673ffffffffffffffffffffffffffffffffffffffff1681526020019081526020016000208190555060036009600073a708ba7f9f3fe47ffc5755a4d7160b0fee8ad1f573ffffffffffffffffffffffffffffffffffffffff1673ffffffffffffffffffffffffffffffffffffffff16815260200190815260200160002081905550600a6009600073605f1816391e6dbe27500920a14f65b26c2d0ae073ffffffffffffffffffffffffffffffffffffffff1673ffffffffffffffffffffffffffffffffffffffff16815260200190815260200160002081905550600a600960007354f373d43a6bba137a359abf5ad77752e90a18bb73ffffffffffffffffffffffffffffffffffffffff1673ffffffffffffffffffffffffffffffffffffffff1681526020019081526020016000208190555050506200110c565b600080fd5b600073ffffffffffffffffffffffffffffffffffffffff82169050919050565b60006200108d8262001060565b9050919050565b6200109f8162001080565b8114620010ab57600080fd5b50565b600081519050620010bf8162001094565b92915050565b60008060408385031215620010df57620010de6200105b565b5b6000620010ef85828601620010ae565b92505060206200110285828601620010ae565b9150509250929050565b611fe5806200111c6000396000f3fe6080604052600436106100fe5760003560e01c80638da5cb5b116100955780639cedcb19116100645780639cedcb1914610336578063c7ef078c14610373578063f60f384b146103b0578063f8ec6911146103db578063fa29ecc214610406576100fe565b80638da5cb5b146102995780638dd95002146102c4578063911a9c06146102ef5780639ca04d641461031a576100fe565b80635e9d306e116100d15780635e9d306e146101c65780635ff126b2146101f6578063722dcd8f14610233578063730c3ce31461025c576100fe565b8063118238761461010357806332fe7b26146101405780633ccfd60b1461016b57806347082db314610189575b600080fd5b34801561010f57600080fd5b5061012a6004803603810190610125919061142d565b610443565b6040516101379190611486565b60405180910390f35b34801561014c57600080fd5b50610155610468565b60405161016291906114b0565b60405180910390f35b61017361048e565b60405161018091906114e6565b60405180910390f35b34801561019557600080fd5b506101b060048036038101906101ab9190611501565b61056e565b6040516101bd9190611486565b60405180910390f35b6101e060048036038101906101db9190611598565b610586565b6040516101ed91906114e6565b60405180910390f35b34801561020257600080fd5b5061021d6004803603810190610218919061142d565b610c25565b60405161022a9190611486565b60405180910390f35b34801561023f57600080fd5b5061025a600480360381019061025591906115eb565b610c4a565b005b34801561026857600080fd5b50610283600480360381019061027e91906115eb565b610d75565b60405161029091906114b0565b60405180910390f35b3480156102a557600080fd5b506102ae610db7565b6040516102bb919061163a565b60405180910390f35b3480156102d057600080fd5b506102d9610ddd565b6040516102e691906114b0565b60405180910390f35b3480156102fb57600080fd5b50610304610e03565b6040516103119190611486565b60405180910390f35b610334600480360381019061032f91906117ae565b610e09565b005b34801561034257600080fd5b5061035d600480360381019061035891906115eb565b61130d565b60405161036a9190611486565b60405180910390f35b34801561037f57600080fd5b5061039a6004803603810190610395919061180a565b611332565b6040516103a79190611486565b60405180910390f35b3480156103bc57600080fd5b506103c561134a565b6040516103d291906114b0565b60405180910390f35b3480156103e757600080fd5b506103f0611370565b6040516103fd919061163a565b60405180910390f35b34801561041257600080fd5b5061042d6004803603810190610428919061142d565b611396565b60405161043a9190611486565b60405180910390f35b600d602052816000526040600020602052806000526040600020600091509150505481565b600460009054906101000a900473ffffffffffffffffffffffffffffffffffffffff1681565b6000600660009054906101000a900473ffffffffffffffffffffffffffffffffffffffff1673ffffffffffffffffffffffffffffffffffffffff163373ffffffffffffffffffffffffffffffffffffffff1614610520576040517f08c379a000000000000000000000000000000000000000000000000000000000815260040161051790611894565b60405180910390fd5b3373ffffffffffffffffffffffffffffffffffffffff166108fc479081150290604051600060405180830381858888f19350505050158015610566573d6000803e3d6000fd5b506001905090565b60096020528060005260406000206000915090505481565b6000826000811015801561059b575060098111155b6105da576040517f08c379a00000000000000000000000000000000000000000000000000000000081526004016105d190611900565b60405180910390fd5b6001600960003373ffffffffffffffffffffffffffffffffffffffff1673ffffffffffffffffffffffffffffffffffffffff16815260200190815260200160002054610626919061194f565b84036106715783600960003373ffffffffffffffffffffffffffffffffffffffff1673ffffffffffffffffffffffffffffffffffffffff168152602001908152602001600020819055505b6060600267ffffffffffffffff81111561068e5761068d61166b565b5b6040519080825280602002602001820160405280156106bc5781602001602082028036833780820191505090505b509050600360009054906101000a900473ffffffffffffffffffffffffffffffffffffffff16816000815181106106f6576106f5611983565b5b602002602001019073ffffffffffffffffffffffffffffffffffffffff16908173ffffffffffffffffffffffffffffffffffffffff1681525050600560009054906101000a900473ffffffffffffffffffffffffffffffffffffffff168160018151811061076757610766611983565b5b602002602001019073ffffffffffffffffffffffffffffffffffffffff16908173ffffffffffffffffffffffffffffffffffffffff1681525050600060648560236107b291906119b2565b6107bc9190611a23565b90506000606486601e6107cf91906119b2565b6107d99190611a23565b9050600060648760146107ec91906119b2565b6107f69190611a23565b90506000606488600f61080991906119b2565b6108139190611a23565b9050600089600960008d73ffffffffffffffffffffffffffffffffffffffff1673ffffffffffffffffffffffffffffffffffffffff16815260200190815260200160002054106108a9578a73ffffffffffffffffffffffffffffffffffffffff166108fc869081150290604051600060405180830381858888f193505050501580156108a3573d6000803e3d6000fd5b50610913565b600760009054906101000a900473ffffffffffffffffffffffffffffffffffffffff1673ffffffffffffffffffffffffffffffffffffffff166108fc869081150290604051600060405180830381858888f19350505050158015610911573d6000803e3d6000fd5b505b600760009054906101000a900473ffffffffffffffffffffffffffffffffffffffff1673ffffffffffffffffffffffffffffffffffffffff166108fc839081150290604051600060405180830381858888f1935050505015801561097b573d6000803e3d6000fd5b50600660009054906101000a900473ffffffffffffffffffffffffffffffffffffffff1673ffffffffffffffffffffffffffffffffffffffff166108fc849081150290604051600060405180830381858888f193505050501580156109e4573d6000803e3d6000fd5b50600460009054906101000a900473ffffffffffffffffffffffffffffffffffffffff1673ffffffffffffffffffffffffffffffffffffffff1663b6f9de958583893361012c42610a35919061194f565b6040518663ffffffff1660e01b8152600401610a549493929190611b12565b6000604051808303818588803b158015610a6d57600080fd5b505af1158015610a81573d6000803e3d6000fd5b505050505084600c60008d73ffffffffffffffffffffffffffffffffffffffff1673ffffffffffffffffffffffffffffffffffffffff16815260200190815260200160002060003373ffffffffffffffffffffffffffffffffffffffff1673ffffffffffffffffffffffffffffffffffffffff1681526020019081526020016000206000828254610b12919061194f565b9250508190555083600d60008d73ffffffffffffffffffffffffffffffffffffffff1673ffffffffffffffffffffffffffffffffffffffff16815260200190815260200160002060003373ffffffffffffffffffffffffffffffffffffffff1673ffffffffffffffffffffffffffffffffffffffff1681526020019081526020016000206000828254610ba5919061194f565b9250508190555083600a60003373ffffffffffffffffffffffffffffffffffffffff1673ffffffffffffffffffffffffffffffffffffffff16815260200190815260200160002060008c81526020019081526020016000206000828254610c0c919061194f565b9250508190555060019750505050505050509392505050565b600e602052816000526040600020602052806000526040600020600091509150505481565b600660009054906101000a900473ffffffffffffffffffffffffffffffffffffffff1673ffffffffffffffffffffffffffffffffffffffff163373ffffffffffffffffffffffffffffffffffffffff1614610cda576040517f08c379a0000000000000000000000000000000000000000000000000000000008152600401610cd190611894565b60405180910390fd5b8060008110158015610ced575060098111155b610d2c576040517f08c379a0000000000000000000000000000000000000000000000000000000008152600401610d2390611900565b60405180910390fd5b81600960008573ffffffffffffffffffffffffffffffffffffffff1673ffffffffffffffffffffffffffffffffffffffff16815260200190815260200160002081905550505050565b600b6020528160005260406000206020528060005260406000206000915091509054906101000a900473ffffffffffffffffffffffffffffffffffffffff1681565b600660009054906101000a900473ffffffffffffffffffffffffffffffffffffffff1681565b600360009054906101000a900473ffffffffffffffffffffffffffffffffffffffff1681565b60025481565b600073ffffffffffffffffffffffffffffffffffffffff168273ffffffffffffffffffffffffffffffffffffffff1603610e78576040517f08c379a0000000000000000000000000000000000000000000000000000000008152600401610e6f90611baa565b60405180910390fd5b3373ffffffffffffffffffffffffffffffffffffffff168273ffffffffffffffffffffffffffffffffffffffff1603610ee6576040517f08c379a0000000000000000000000000000000000000000000000000000000008152600401610edd90611c16565b60405180910390fd5b600034905060005b825181101561130757600a838281518110610f0c57610f0b611983565b5b602002602001015110156112f457828181518110610f2d57610f2c611983565b5b6020026020010151600960003373ffffffffffffffffffffffffffffffffffffffff1673ffffffffffffffffffffffffffffffffffffffff168152602001908152602001600020541015610fb6576040517f08c379a0000000000000000000000000000000000000000000000000000000008152600401610fad90611c82565b60405180910390fd5b60018351610fc49190611ca2565b811461105957600183600183610fda919061194f565b81518110610feb57610fea611983565b5b6020026020010151610ffd9190611ca2565b8382815181106110105761100f611983565b5b602002602001015114611058576040517f08c379a000000000000000000000000000000000000000000000000000000000815260040161104f90611d22565b60405180910390fd5b5b600860008483815181106110705761106f611983565b5b6020026020010151815260200190815260200160002054826110929190611ca2565b915060008210156110d8576040517f08c379a00000000000000000000000000000000000000000000000000000000081526004016110cf90611d8e565b60405180910390fd5b61112a848483815181106110ef576110ee611983565b5b60200260200101516008600087868151811061110e5761110d611983565b5b6020026020010151815260200190815260200160002054610586565b611169576040517f08c379a000000000000000000000000000000000000000000000000000000000815260040161116090611dfa565b60405180910390fd5b33600b60008673ffffffffffffffffffffffffffffffffffffffff1673ffffffffffffffffffffffffffffffffffffffff1681526020019081526020016000206000600254815260200190815260200160002060006101000a81548173ffffffffffffffffffffffffffffffffffffffff021916908373ffffffffffffffffffffffffffffffffffffffff16021790555082600184516112099190611ca2565b8151811061121a57611219611983565b5b6020026020010151600e60008673ffffffffffffffffffffffffffffffffffffffff1673ffffffffffffffffffffffffffffffffffffffff16815260200190815260200160002060003373ffffffffffffffffffffffffffffffffffffffff1673ffffffffffffffffffffffffffffffffffffffff16815260200190815260200160002081905550600260008154809291906112b590611e1a565b91905055507fb1c395709b4d34e257bb5f45ee4836b48b7f67ec39e79025fdf6970e0f6c007083856040516112eb929190611f7f565b60405180910390a15b80806112ff90611e1a565b915050610eee565b50505050565b600a602052816000526040600020602052806000526040600020600091509150505481565b60086020528060005260406000206000915090505481565b600560009054906101000a900473ffffffffffffffffffffffffffffffffffffffff1681565b600760009054906101000a900473ffffffffffffffffffffffffffffffffffffffff1681565b600c602052816000526040600020602052806000526040600020600091509150505481565b6000604051905090565b600080fd5b600080fd5b600073ffffffffffffffffffffffffffffffffffffffff82169050919050565b60006113fa826113cf565b9050919050565b61140a816113ef565b811461141557600080fd5b50565b60008135905061142781611401565b92915050565b60008060408385031215611444576114436113c5565b5b600061145285828601611418565b925050602061146385828601611418565b9150509250929050565b6000819050919050565b6114808161146d565b82525050565b600060208201905061149b6000830184611477565b92915050565b6114aa816113ef565b82525050565b60006020820190506114c560008301846114a1565b92915050565b60008115159050919050565b6114e0816114cb565b82525050565b60006020820190506114fb60008301846114d7565b92915050565b600060208284031215611517576115166113c5565b5b600061152584828501611418565b91505092915050565b6000611539826113cf565b9050919050565b6115498161152e565b811461155457600080fd5b50565b60008135905061156681611540565b92915050565b6115758161146d565b811461158057600080fd5b50565b6000813590506115928161156c565b92915050565b6000806000606084860312156115b1576115b06113c5565b5b60006115bf86828701611557565b93505060206115d086828701611583565b92505060406115e186828701611583565b9150509250925092565b60008060408385031215611602576116016113c5565b5b600061161085828601611418565b925050602061162185828601611583565b9150509250929050565b6116348161152e565b82525050565b600060208201905061164f600083018461162b565b92915050565b600080fd5b6000601f19601f8301169050919050565b7f4e487b7100000000000000000000000000000000000000000000000000000000600052604160045260246000fd5b6116a38261165a565b810181811067ffffffffffffffff821117156116c2576116c161166b565b5b80604052505050565b60006116d56113bb565b90506116e1828261169a565b919050565b600067ffffffffffffffff8211156117015761170061166b565b5b602082029050602081019050919050565b600080fd5b600061172a611725846116e6565b6116cb565b9050808382526020820190506020840283018581111561174d5761174c611712565b5b835b8181101561177657806117628882611583565b84526020840193505060208101905061174f565b5050509392505050565b600082601f83011261179557611794611655565b5b81356117a5848260208601611717565b91505092915050565b600080604083850312156117c5576117c46113c5565b5b60006117d385828601611557565b925050602083013567ffffffffffffffff8111156117f4576117f36113ca565b5b61180085828601611780565b9150509250929050565b6000602082840312156118205761181f6113c5565b5b600061182e84828501611583565b91505092915050565b600082825260208201905092915050565b7f4f6e6c794f776e65722e00000000000000000000000000000000000000000000600082015250565b600061187e600a83611837565b915061188982611848565b602082019050919050565b600060208201905081810360008301526118ad81611871565b9050919050565b7f496e76616c6964205061636b6167652e00000000000000000000000000000000600082015250565b60006118ea601083611837565b91506118f5826118b4565b602082019050919050565b60006020820190508181036000830152611919816118dd565b9050919050565b7f4e487b7100000000000000000000000000000000000000000000000000000000600052601160045260246000fd5b600061195a8261146d565b91506119658361146d565b925082820190508082111561197d5761197c611920565b5b92915050565b7f4e487b7100000000000000000000000000000000000000000000000000000000600052603260045260246000fd5b60006119bd8261146d565b91506119c88361146d565b92508282026119d68161146d565b915082820484148315176119ed576119ec611920565b5b5092915050565b7f4e487b7100000000000000000000000000000000000000000000000000000000600052601260045260246000fd5b6000611a2e8261146d565b9150611a398361146d565b925082611a4957611a486119f4565b5b828204905092915050565b600081519050919050565b600082825260208201905092915050565b6000819050602082019050919050565b611a89816113ef565b82525050565b6000611a9b8383611a80565b60208301905092915050565b6000602082019050919050565b6000611abf82611a54565b611ac98185611a5f565b9350611ad483611a70565b8060005b83811015611b05578151611aec8882611a8f565b9750611af783611aa7565b925050600181019050611ad8565b5085935050505092915050565b6000608082019050611b276000830187611477565b8181036020830152611b398186611ab4565b9050611b4860408301856114a1565b611b556060830184611477565b95945050505050565b7f526566657272616c206973203020616464726573732e00000000000000000000600082015250565b6000611b94601683611837565b9150611b9f82611b5e565b602082019050919050565b60006020820190508181036000830152611bc381611b87565b9050919050565b7f526566657272616c2063616e277420626520796f752e00000000000000000000600082015250565b6000611c00601683611837565b9150611c0b82611bca565b602082019050919050565b60006020820190508181036000830152611c2f81611bf3565b9050919050565b7f496e76616c6964204c6576656c2e000000000000000000000000000000000000600082015250565b6000611c6c600e83611837565b9150611c7782611c36565b602082019050919050565b60006020820190508181036000830152611c9b81611c5f565b9050919050565b6000611cad8261146d565b9150611cb88361146d565b9250828203905081811115611cd057611ccf611920565b5b92915050565b7f4e6f7420436f6e73656375746976652e00000000000000000000000000000000600082015250565b6000611d0c601083611837565b9150611d1782611cd6565b602082019050919050565b60006020820190508181036000830152611d3b81611cff565b9050919050565b7f496e76616c6964205061796d656e742e00000000000000000000000000000000600082015250565b6000611d78601083611837565b9150611d8382611d42565b602082019050919050565b60006020820190508181036000830152611da781611d6b565b9050919050565b7f5061636b616765206e6f742042757965642e0000000000000000000000000000600082015250565b6000611de4601283611837565b9150611def82611dae565b602082019050919050565b60006020820190508181036000830152611e1381611dd7565b9050919050565b6000611e258261146d565b91507fffffffffffffffffffffffffffffffffffffffffffffffffffffffffffffffff8203611e5757611e56611920565b5b600182019050919050565b600081519050919050565b600082825260208201905092915050565b6000819050602082019050919050565b611e978161146d565b82525050565b6000611ea98383611e8e565b60208301905092915050565b6000602082019050919050565b6000611ecd82611e62565b611ed78185611e6d565b9350611ee283611e7e565b8060005b83811015611f13578151611efa8882611e9d565b9750611f0583611eb5565b925050600181019050611ee6565b5085935050505092915050565b6000819050919050565b6000611f45611f40611f3b846113cf565b611f20565b6113cf565b9050919050565b6000611f5782611f2a565b9050919050565b6000611f6982611f4c565b9050919050565b611f7981611f5e565b82525050565b60006040820190508181036000830152611f998185611ec2565b9050611fa86020830184611f70565b939250505056fea2646970667358221220322e9aed177cd1f4e8f965521374786b2dc65aa99dec5a6e7d627dc5dfec520a64736f6c63430008110033",
  "linkReferences": {},
  "deployedLinkReferences": {}
}