{
  "_format": "hh-sol-artifact-1",
  "contractName": "ShibAfrica",
  "sourceName": "contracts/ShibaAfrica.sol",
  "abi": [
    {
      "inputs": [
        {
          "internalType": "address",
          "name": "_owner",
          "type": "address"
        },
        {
          "internalType": "address",
          "name": "_buyback",
          "type": "address"
        }
      ],
      "stateMutability": "nonpayable",
      "type": "constructor"
    },
    {
      "anonymous": false,
      "inputs": [
        {
          "indexed": false,
          "internalType": "uint256[]",
          "name": "packages",
          "type": "uint256[]"
        },
        {
          "indexed": false,
          "internalType": "address",
          "name": "referral",
          "type": "address"
        }
      ],
      "name": "Buyed",
      "type": "event"
    },
    {
      "inputs": [
        {
          "internalType": "uint256",
          "name": "",
          "type": "uint256"
        }
      ],
      "name": "Packages",
      "outputs": [
        {
          "internalType": "uint256",
          "name": "",
          "type": "uint256"
        }
      ],
      "stateMutability": "view",
      "type": "function"
    },
    {
      "inputs": [],
      "name": "ROUTER",
      "outputs": [
        {
          "internalType": "address",
          "name": "",
          "type": "address"
        }
      ],
      "stateMutability": "view",
      "type": "function"
    },
    {
      "inputs": [],
      "name": "SHIBAFRICA",
      "outputs": [
        {
          "internalType": "address",
          "name": "",
          "type": "address"
        }
      ],
      "stateMutability": "view",
      "type": "function"
    },
    {
      "inputs": [],
      "name": "WBNB",
      "outputs": [
        {
          "internalType": "address",
          "name": "",
          "type": "address"
        }
      ],
      "stateMutability": "view",
      "type": "function"
    },
    {
      "inputs": [
        {
          "internalType": "address payable",
          "name": "referral",
          "type": "address"
        },
        {
          "internalType": "uint256",
          "name": "package",
          "type": "uint256"
        },
        {
          "internalType": "uint256",
          "name": "amount",
          "type": "uint256"
        }
      ],
      "name": "buyPackage",
      "outputs": [
        {
          "internalType": "bool",
          "name": "",
          "type": "bool"
        }
      ],
      "stateMutability": "payable",
      "type": "function"
    },
    {
      "inputs": [
        {
          "internalType": "address payable",
          "name": "referral",
          "type": "address"
        },
        {
          "internalType": "uint256[]",
          "name": "packages",
          "type": "uint256[]"
        }
      ],
      "name": "buyPackages",
      "outputs": [],
      "stateMutability": "payable",
      "type": "function"
    },
    {
      "inputs": [
        {
          "internalType": "address",
          "name": "",
          "type": "address"
        },
        {
          "internalType": "address",
          "name": "",
          "type": "address"
        },
        {
          "internalType": "uint256",
          "name": "",
          "type": "uint256"
        }
      ],
      "name": "history",
      "outputs": [
        {
          "internalType": "uint256",
          "name": "",
          "type": "uint256"
        }
      ],
      "stateMutability": "view",
      "type": "function"
    },
    {
      "inputs": [
        {
          "internalType": "address",
          "name": "",
          "type": "address"
        }
      ],
      "name": "levels",
      "outputs": [
        {
          "internalType": "uint256",
          "name": "",
          "type": "uint256"
        }
      ],
      "stateMutability": "view",
      "type": "function"
    },
    {
      "inputs": [
        {
          "internalType": "address",
          "name": "",
          "type": "address"
        },
        {
          "internalType": "uint256",
          "name": "",
          "type": "uint256"
        }
      ],
      "name": "referrals",
      "outputs": [
        {
          "internalType": "address",
          "name": "",
          "type": "address"
        }
      ],
      "stateMutability": "view",
      "type": "function"
    },
    {
      "inputs": [
        {
          "internalType": "address",
          "name": "user",
          "type": "address"
        },
        {
          "internalType": "uint256",
          "name": "level",
          "type": "uint256"
        }
      ],
      "name": "setLevel",
      "outputs": [],
      "stateMutability": "nonpayable",
      "type": "function"
    },
    {
      "inputs": [],
      "name": "withdraw",
      "outputs": [
        {
          "internalType": "bool",
          "name": "",
          "type": "bool"
        }
      ],
      "stateMutability": "payable",
      "type": "function"
    }
  ],
  "bytecode": "0x608060405273bb4cdb9cbd36b01bd1cbaebf2de08d9173bc095c6000806101000a81548173ffffffffffffffffffffffffffffffffffffffff021916908373ffffffffffffffffffffffffffffffffffffffff1602179055507310ed43c718714eb63d5aa57b78b54704e256024e600160006101000a81548173ffffffffffffffffffffffffffffffffffffffff021916908373ffffffffffffffffffffffffffffffffffffffff160217905550734f509f8005b967ab8104290bbe79c49a5d2905f6600260006101000a81548173ffffffffffffffffffffffffffffffffffffffff021916908373ffffffffffffffffffffffffffffffffffffffff1602179055503480156200010f57600080fd5b506040516200283d3803806200283d833981810160405281019062000135919062000d3c565b81600360006101000a81548173ffffffffffffffffffffffffffffffffffffffff021916908373ffffffffffffffffffffffffffffffffffffffff160217905550600a60086000600360009054906101000a900473ffffffffffffffffffffffffffffffffffffffff1673ffffffffffffffffffffffffffffffffffffffff1673ffffffffffffffffffffffffffffffffffffffff1681526020019081526020016000208190555080600460006101000a81548173ffffffffffffffffffffffffffffffffffffffff021916908373ffffffffffffffffffffffffffffffffffffffff16021790555066b1a2bc2ec50000600760008081526020019081526020016000208190555067016345785d8a00006007600060018152602001908152602001600020819055506703782dace9d900006007600060028152602001908152602001600020819055506706f05b59d3b20000600760006003815260200190815260200160002081905550670de0b6b3a7640000600760006004815260200190815260200160002081905550671bc16d674ec80000600760006005815260200190815260200160002081905550674563918244f40000600760006006815260200190815260200160002081905550678ac7230489e800006007600060078152602001908152602001600020819055506801158e460913d0000060076000600881526020019081526020016000208190555068022b1c8c1227a000006007600060098152602001908152602001600020819055506009600860007340568e2c3632c2c54ce7a76fe4a132c2d2785d2b73ffffffffffffffffffffffffffffffffffffffff1673ffffffffffffffffffffffffffffffffffffffff1681526020019081526020016000208190555060096008600073c18dccfb00bdd894deb06cce23586bb57978239b73ffffffffffffffffffffffffffffffffffffffff1673ffffffffffffffffffffffffffffffffffffffff168152602001908152602001600020819055506009600860007374d2ffe54401f30538cfebc524f64846f8bb037c73ffffffffffffffffffffffffffffffffffffffff1673ffffffffffffffffffffffffffffffffffffffff16815260200190815260200160002081905550600960086000739a67cac5fd39f9419aec4dd0b6aca690126b0f0173ffffffffffffffffffffffffffffffffffffffff1673ffffffffffffffffffffffffffffffffffffffff1681526020019081526020016000208190555060096008600073b8a676fc48da2ea87cfb9d87a4310a14091dd10173ffffffffffffffffffffffffffffffffffffffff1673ffffffffffffffffffffffffffffffffffffffff1681526020019081526020016000208190555060096008600073ced31b5df37e13065ce9a800ef85ecd48f80f57e73ffffffffffffffffffffffffffffffffffffffff1673ffffffffffffffffffffffffffffffffffffffff16815260200190815260200160002081905550600360086000730915e78b173b1c5920eab355e5a4b95faba44f7e73ffffffffffffffffffffffffffffffffffffffff1673ffffffffffffffffffffffffffffffffffffffff16815260200190815260200160002081905550600960086000737d708f78bb312badbb6a2d9b10e643b6a2276c6e73ffffffffffffffffffffffffffffffffffffffff1673ffffffffffffffffffffffffffffffffffffffff1681526020019081526020016000208190555060046008600073255669be628ef19fda45cde6ff04ba9ff237baee73ffffffffffffffffffffffffffffffffffffffff1673ffffffffffffffffffffffffffffffffffffffff168152602001908152602001600020819055506001600860007315f896d6e8f1259e5df709737b92b3b25762363473ffffffffffffffffffffffffffffffffffffffff1673ffffffffffffffffffffffffffffffffffffffff1681526020019081526020016000208190555060036008600073f21d3d687ae470c8040ed2ccc812ad8865378eb873ffffffffffffffffffffffffffffffffffffffff1673ffffffffffffffffffffffffffffffffffffffff168152602001908152602001600020819055506009600860007340e85181e20a9eec5b150b5999edbf81d370502373ffffffffffffffffffffffffffffffffffffffff1673ffffffffffffffffffffffffffffffffffffffff16815260200190815260200160002081905550600960086000733d4409a7bad31f1d61be92b3e5c1c3be6baf98fc73ffffffffffffffffffffffffffffffffffffffff1673ffffffffffffffffffffffffffffffffffffffff1681526020019081526020016000208190555060096008600072be4d72bd5aa20c2023c0eef2e9949f338b1f9b73ffffffffffffffffffffffffffffffffffffffff1673ffffffffffffffffffffffffffffffffffffffff16815260200190815260200160002081905550600960086000731457a4a6293ff6889c64569990293be9edd5e72e73ffffffffffffffffffffffffffffffffffffffff1673ffffffffffffffffffffffffffffffffffffffff1681526020019081526020016000208190555060096008600073ddd8e3c2bb73752f76e01f0663df68f783bbe7c673ffffffffffffffffffffffffffffffffffffffff1673ffffffffffffffffffffffffffffffffffffffff16815260200190815260200160002081905550600960086000733e21e2dc7d76b6cab36c9f860423398311e9b19d73ffffffffffffffffffffffffffffffffffffffff1673ffffffffffffffffffffffffffffffffffffffff1681526020019081526020016000208190555060096008600073d805c66a13165cb31b6e6eb01f19b5b64bf76f8873ffffffffffffffffffffffffffffffffffffffff1673ffffffffffffffffffffffffffffffffffffffff1681526020019081526020016000208190555060096008600073d805c66a13165cb31b6e6eb01f19b5b64bf76f8873ffffffffffffffffffffffffffffffffffffffff1673ffffffffffffffffffffffffffffffffffffffff168152602001908152602001600020819055506009600860007326e24bfbf08e3e6ded77dade76ecd95c150a626d73ffffffffffffffffffffffffffffffffffffffff1673ffffffffffffffffffffffffffffffffffffffff16815260200190815260200160002081905550600360086000734c63067ef1faabe2d5d335a06719f7a841f2feab73ffffffffffffffffffffffffffffffffffffffff1673ffffffffffffffffffffffffffffffffffffffff16815260200190815260200160002081905550600960086000739ca635c21b833bce4581c9df15ebfeacebc45bd073ffffffffffffffffffffffffffffffffffffffff1673ffffffffffffffffffffffffffffffffffffffff16815260200190815260200160002081905550600960086000734ec4c60ead071b3ac705c261d0bb8cabb8c033e073ffffffffffffffffffffffffffffffffffffffff1673ffffffffffffffffffffffffffffffffffffffff16815260200190815260200160002081905550600960086000730709106aff4cab1c5333741ebec887368f64653773ffffffffffffffffffffffffffffffffffffffff1673ffffffffffffffffffffffffffffffffffffffff1681526020019081526020016000208190555060036008600073a708ba7f9f3fe47ffc5755a4d7160b0fee8ad1f573ffffffffffffffffffffffffffffffffffffffff1673ffffffffffffffffffffffffffffffffffffffff16815260200190815260200160002081905550600a6008600073605f1816391e6dbe27500920a14f65b26c2d0ae073ffffffffffffffffffffffffffffffffffffffff1673ffffffffffffffffffffffffffffffffffffffff16815260200190815260200160002081905550600a600860007354f373d43a6bba137a359abf5ad77752e90a18bb73ffffffffffffffffffffffffffffffffffffffff1673ffffffffffffffffffffffffffffffffffffffff16815260200190815260200160002081905550505062000d83565b600080fd5b600073ffffffffffffffffffffffffffffffffffffffff82169050919050565b600062000d048262000cd7565b9050919050565b62000d168162000cf7565b811462000d2257600080fd5b50565b60008151905062000d368162000d0b565b92915050565b6000806040838503121562000d565762000d5562000cd2565b5b600062000d668582860162000d25565b925050602062000d798582860162000d25565b9150509250929050565b611aaa8062000d936000396000f3fe60806040526004361061009c5760003560e01c80638dd95002116100645780638dd95002146101805780639065a9af146101ab5780639ca04d64146101e8578063c7ef078c14610204578063e697b5d814610241578063f60f384b1461027e5761009c565b806332fe7b26146100a15780633ccfd60b146100cc57806347082db3146100ea5780635e9d306e14610127578063722dcd8f14610157575b600080fd5b3480156100ad57600080fd5b506100b66102a9565b6040516100c39190610ed8565b60405180910390f35b6100d46102cf565b6040516100e19190610f0e565b60405180910390f35b3480156100f657600080fd5b50610111600480360381019061010c9190610f69565b6103af565b60405161011e9190610faf565b60405180910390f35b610141600480360381019061013c9190611034565b6103c7565b60405161014e9190610f0e565b60405180910390f35b34801561016357600080fd5b5061017e60048036038101906101799190611087565b6108d7565b005b34801561018c57600080fd5b50610195610a02565b6040516101a29190610ed8565b60405180910390f35b3480156101b757600080fd5b506101d260048036038101906101cd91906110c7565b610a26565b6040516101df9190610faf565b60405180910390f35b61020260048036038101906101fd9190611273565b610a58565b005b34801561021057600080fd5b5061022b600480360381019061022691906112cf565b610e0b565b6040516102389190610faf565b60405180910390f35b34801561024d57600080fd5b5061026860048036038101906102639190611087565b610e23565b6040516102759190610ed8565b60405180910390f35b34801561028a57600080fd5b50610293610e71565b6040516102a09190610ed8565b60405180910390f35b600160009054906101000a900473ffffffffffffffffffffffffffffffffffffffff1681565b6000600360009054906101000a900473ffffffffffffffffffffffffffffffffffffffff1673ffffffffffffffffffffffffffffffffffffffff163373ffffffffffffffffffffffffffffffffffffffff1614610361576040517f08c379a000000000000000000000000000000000000000000000000000000000815260040161035890611359565b60405180910390fd5b3373ffffffffffffffffffffffffffffffffffffffff166108fc479081150290604051600060405180830381858888f193505050501580156103a7573d6000803e3d6000fd5b506001905090565b60086020528060005260406000206000915090505481565b600082600081101580156103dc575060098111155b61041b576040517f08c379a0000000000000000000000000000000000000000000000000000000008152600401610412906113c5565b60405180910390fd5b6001600860003373ffffffffffffffffffffffffffffffffffffffff1673ffffffffffffffffffffffffffffffffffffffff168152602001908152602001600020546104679190611414565b84036104b25783600860003373ffffffffffffffffffffffffffffffffffffffff1673ffffffffffffffffffffffffffffffffffffffff168152602001908152602001600020819055505b6060600267ffffffffffffffff8111156104cf576104ce611130565b5b6040519080825280602002602001820160405280156104fd5781602001602082028036833780820191505090505b50905060008054906101000a900473ffffffffffffffffffffffffffffffffffffffff168160008151811061053557610534611448565b5b602002602001019073ffffffffffffffffffffffffffffffffffffffff16908173ffffffffffffffffffffffffffffffffffffffff1681525050600260009054906101000a900473ffffffffffffffffffffffffffffffffffffffff16816001815181106105a6576105a5611448565b5b602002602001019073ffffffffffffffffffffffffffffffffffffffff16908173ffffffffffffffffffffffffffffffffffffffff1681525050600060648560236105f19190611477565b6105fb91906114e8565b90506000606486601e61060e9190611477565b61061891906114e8565b90506000606487601461062b9190611477565b61063591906114e8565b90506000606488600f6106489190611477565b61065291906114e8565b9050600089600860008d73ffffffffffffffffffffffffffffffffffffffff1673ffffffffffffffffffffffffffffffffffffffff16815260200190815260200160002054106106e8578a73ffffffffffffffffffffffffffffffffffffffff166108fc869081150290604051600060405180830381858888f193505050501580156106e2573d6000803e3d6000fd5b50610752565b600460009054906101000a900473ffffffffffffffffffffffffffffffffffffffff1673ffffffffffffffffffffffffffffffffffffffff166108fc869081150290604051600060405180830381858888f19350505050158015610750573d6000803e3d6000fd5b505b600460009054906101000a900473ffffffffffffffffffffffffffffffffffffffff1673ffffffffffffffffffffffffffffffffffffffff166108fc839081150290604051600060405180830381858888f193505050501580156107ba573d6000803e3d6000fd5b50600360009054906101000a900473ffffffffffffffffffffffffffffffffffffffff1673ffffffffffffffffffffffffffffffffffffffff166108fc849081150290604051600060405180830381858888f19350505050158015610823573d6000803e3d6000fd5b50600160009054906101000a900473ffffffffffffffffffffffffffffffffffffffff1673ffffffffffffffffffffffffffffffffffffffff1663b6f9de958583893361012c426108749190611414565b6040518663ffffffff1660e01b815260040161089394939291906115d7565b6000604051808303818588803b1580156108ac57600080fd5b505af11580156108c0573d6000803e3d6000fd5b505050505060019750505050505050509392505050565b600360009054906101000a900473ffffffffffffffffffffffffffffffffffffffff1673ffffffffffffffffffffffffffffffffffffffff163373ffffffffffffffffffffffffffffffffffffffff1614610967576040517f08c379a000000000000000000000000000000000000000000000000000000000815260040161095e90611359565b60405180910390fd5b806000811015801561097a575060098111155b6109b9576040517f08c379a00000000000000000000000000000000000000000000000000000000081526004016109b0906113c5565b60405180910390fd5b81600860008573ffffffffffffffffffffffffffffffffffffffff1673ffffffffffffffffffffffffffffffffffffffff16815260200190815260200160002081905550505050565b60008054906101000a900473ffffffffffffffffffffffffffffffffffffffff1681565b600960205282600052604060002060205281600052604060002060205280600052604060002060009250925050505481565b600073ffffffffffffffffffffffffffffffffffffffff168273ffffffffffffffffffffffffffffffffffffffff1603610ac7576040517f08c379a0000000000000000000000000000000000000000000000000000000008152600401610abe9061166f565b60405180910390fd5b3373ffffffffffffffffffffffffffffffffffffffff168273ffffffffffffffffffffffffffffffffffffffff1603610b35576040517f08c379a0000000000000000000000000000000000000000000000000000000008152600401610b2c906116db565b60405180910390fd5b600034905060005b8251811015610e0557600a838281518110610b5b57610b5a611448565b5b60200260200101511015610df257828181518110610b7c57610b7b611448565b5b6020026020010151600860003373ffffffffffffffffffffffffffffffffffffffff1673ffffffffffffffffffffffffffffffffffffffff168152602001908152602001600020541015610c05576040517f08c379a0000000000000000000000000000000000000000000000000000000008152600401610bfc90611747565b60405180910390fd5b60018351610c139190611767565b8114610ca857600183600183610c299190611414565b81518110610c3a57610c39611448565b5b6020026020010151610c4c9190611767565b838281518110610c5f57610c5e611448565b5b602002602001015114610ca7576040517f08c379a0000000000000000000000000000000000000000000000000000000008152600401610c9e906117e7565b60405180910390fd5b5b60076000848381518110610cbf57610cbe611448565b5b602002602001015181526020019081526020016000205482610ce19190611767565b91506000821015610d27576040517f08c379a0000000000000000000000000000000000000000000000000000000008152600401610d1e90611853565b60405180910390fd5b610d7984848381518110610d3e57610d3d611448565b5b602002602001015160076000878681518110610d5d57610d5c611448565b5b60200260200101518152602001908152602001600020546103c7565b610db8576040517f08c379a0000000000000000000000000000000000000000000000000000000008152600401610daf906118bf565b60405180910390fd5b7fb1c395709b4d34e257bb5f45ee4836b48b7f67ec39e79025fdf6970e0f6c00708385604051610de99291906119fc565b60405180910390a15b8080610dfd90611a2c565b915050610b3d565b50505050565b60076020528060005260406000206000915090505481565b600a6020528160005260406000208181548110610e3f57600080fd5b906000526020600020016000915091509054906101000a900473ffffffffffffffffffffffffffffffffffffffff1681565b600260009054906101000a900473ffffffffffffffffffffffffffffffffffffffff1681565b600073ffffffffffffffffffffffffffffffffffffffff82169050919050565b6000610ec282610e97565b9050919050565b610ed281610eb7565b82525050565b6000602082019050610eed6000830184610ec9565b92915050565b60008115159050919050565b610f0881610ef3565b82525050565b6000602082019050610f236000830184610eff565b92915050565b6000604051905090565b600080fd5b600080fd5b610f4681610eb7565b8114610f5157600080fd5b50565b600081359050610f6381610f3d565b92915050565b600060208284031215610f7f57610f7e610f33565b5b6000610f8d84828501610f54565b91505092915050565b6000819050919050565b610fa981610f96565b82525050565b6000602082019050610fc46000830184610fa0565b92915050565b6000610fd582610e97565b9050919050565b610fe581610fca565b8114610ff057600080fd5b50565b60008135905061100281610fdc565b92915050565b61101181610f96565b811461101c57600080fd5b50565b60008135905061102e81611008565b92915050565b60008060006060848603121561104d5761104c610f33565b5b600061105b86828701610ff3565b935050602061106c8682870161101f565b925050604061107d8682870161101f565b9150509250925092565b6000806040838503121561109e5761109d610f33565b5b60006110ac85828601610f54565b92505060206110bd8582860161101f565b9150509250929050565b6000806000606084860312156110e0576110df610f33565b5b60006110ee86828701610f54565b93505060206110ff86828701610f54565b92505060406111108682870161101f565b9150509250925092565b600080fd5b6000601f19601f8301169050919050565b7f4e487b7100000000000000000000000000000000000000000000000000000000600052604160045260246000fd5b6111688261111f565b810181811067ffffffffffffffff8211171561118757611186611130565b5b80604052505050565b600061119a610f29565b90506111a6828261115f565b919050565b600067ffffffffffffffff8211156111c6576111c5611130565b5b602082029050602081019050919050565b600080fd5b60006111ef6111ea846111ab565b611190565b90508083825260208201905060208402830185811115611212576112116111d7565b5b835b8181101561123b5780611227888261101f565b845260208401935050602081019050611214565b5050509392505050565b600082601f83011261125a5761125961111a565b5b813561126a8482602086016111dc565b91505092915050565b6000806040838503121561128a57611289610f33565b5b600061129885828601610ff3565b925050602083013567ffffffffffffffff8111156112b9576112b8610f38565b5b6112c585828601611245565b9150509250929050565b6000602082840312156112e5576112e4610f33565b5b60006112f38482850161101f565b91505092915050565b600082825260208201905092915050565b7f4f6e6c794f776e65722e00000000000000000000000000000000000000000000600082015250565b6000611343600a836112fc565b915061134e8261130d565b602082019050919050565b6000602082019050818103600083015261137281611336565b9050919050565b7f496e76616c6964205061636b6167652e00000000000000000000000000000000600082015250565b60006113af6010836112fc565b91506113ba82611379565b602082019050919050565b600060208201905081810360008301526113de816113a2565b9050919050565b7f4e487b7100000000000000000000000000000000000000000000000000000000600052601160045260246000fd5b600061141f82610f96565b915061142a83610f96565b9250828201905080821115611442576114416113e5565b5b92915050565b7f4e487b7100000000000000000000000000000000000000000000000000000000600052603260045260246000fd5b600061148282610f96565b915061148d83610f96565b925082820261149b81610f96565b915082820484148315176114b2576114b16113e5565b5b5092915050565b7f4e487b7100000000000000000000000000000000000000000000000000000000600052601260045260246000fd5b60006114f382610f96565b91506114fe83610f96565b92508261150e5761150d6114b9565b5b828204905092915050565b600081519050919050565b600082825260208201905092915050565b6000819050602082019050919050565b61154e81610eb7565b82525050565b60006115608383611545565b60208301905092915050565b6000602082019050919050565b600061158482611519565b61158e8185611524565b935061159983611535565b8060005b838110156115ca5781516115b18882611554565b97506115bc8361156c565b92505060018101905061159d565b5085935050505092915050565b60006080820190506115ec6000830187610fa0565b81810360208301526115fe8186611579565b905061160d6040830185610ec9565b61161a6060830184610fa0565b95945050505050565b7f526566657272616c206973203020616464726573732e00000000000000000000600082015250565b60006116596016836112fc565b915061166482611623565b602082019050919050565b600060208201905081810360008301526116888161164c565b9050919050565b7f526566657272616c2063616e277420626520796f752e00000000000000000000600082015250565b60006116c56016836112fc565b91506116d08261168f565b602082019050919050565b600060208201905081810360008301526116f4816116b8565b9050919050565b7f496e76616c6964204c6576656c2e000000000000000000000000000000000000600082015250565b6000611731600e836112fc565b915061173c826116fb565b602082019050919050565b6000602082019050818103600083015261176081611724565b9050919050565b600061177282610f96565b915061177d83610f96565b9250828203905081811115611795576117946113e5565b5b92915050565b7f4e6f7420436f6e73656375746976652e00000000000000000000000000000000600082015250565b60006117d16010836112fc565b91506117dc8261179b565b602082019050919050565b60006020820190508181036000830152611800816117c4565b9050919050565b7f496e76616c6964205061796d656e742e00000000000000000000000000000000600082015250565b600061183d6010836112fc565b915061184882611807565b602082019050919050565b6000602082019050818103600083015261186c81611830565b9050919050565b7f5061636b616765206e6f742042757965642e0000000000000000000000000000600082015250565b60006118a96012836112fc565b91506118b482611873565b602082019050919050565b600060208201905081810360008301526118d88161189c565b9050919050565b600081519050919050565b600082825260208201905092915050565b6000819050602082019050919050565b61191481610f96565b82525050565b6000611926838361190b565b60208301905092915050565b6000602082019050919050565b600061194a826118df565b61195481856118ea565b935061195f836118fb565b8060005b83811015611990578151611977888261191a565b975061198283611932565b925050600181019050611963565b5085935050505092915050565b6000819050919050565b60006119c26119bd6119b884610e97565b61199d565b610e97565b9050919050565b60006119d4826119a7565b9050919050565b60006119e6826119c9565b9050919050565b6119f6816119db565b82525050565b60006040820190508181036000830152611a16818561193f565b9050611a2560208301846119ed565b9392505050565b6000611a3782610f96565b91507fffffffffffffffffffffffffffffffffffffffffffffffffffffffffffffffff8203611a6957611a686113e5565b5b60018201905091905056fea2646970667358221220aaef73f5b47c9b41c3ba2178046496377b5f78d965d89a1cd814d616f4c123d464736f6c63430008110033",
  "linkReferences": {},
  "deployedLinkReferences": {}
}