{
  "_format": "hh-sol-artifact-1",
  "contractName": "ShibAfrica",
  "sourceName": "contracts/ShibaAfrica.sol",
  "abi": [
    {
      "inputs": [
        {
          "internalType": "address",
          "name": "_owner",
          "type": "address"
        },
        {
          "internalType": "address",
          "name": "_buyback",
          "type": "address"
        }
      ],
      "stateMutability": "nonpayable",
      "type": "constructor"
    },
    {
      "inputs": [
        {
          "internalType": "uint256",
          "name": "",
          "type": "uint256"
        }
      ],
      "name": "Packages",
      "outputs": [
        {
          "internalType": "uint256",
          "name": "",
          "type": "uint256"
        }
      ],
      "stateMutability": "view",
      "type": "function"
    },
    {
      "inputs": [],
      "name": "ROUTER",
      "outputs": [
        {
          "internalType": "address",
          "name": "",
          "type": "address"
        }
      ],
      "stateMutability": "view",
      "type": "function"
    },
    {
      "inputs": [],
      "name": "SHIBAFRICA",
      "outputs": [
        {
          "internalType": "address",
          "name": "",
          "type": "address"
        }
      ],
      "stateMutability": "view",
      "type": "function"
    },
    {
      "inputs": [],
      "name": "WBNB",
      "outputs": [
        {
          "internalType": "address",
          "name": "",
          "type": "address"
        }
      ],
      "stateMutability": "view",
      "type": "function"
    },
    {
      "inputs": [
        {
          "internalType": "address payable",
          "name": "referral",
          "type": "address"
        },
        {
          "internalType": "uint256",
          "name": "package",
          "type": "uint256"
        },
        {
          "internalType": "uint256",
          "name": "amount",
          "type": "uint256"
        }
      ],
      "name": "buyPackage",
      "outputs": [
        {
          "internalType": "bool",
          "name": "",
          "type": "bool"
        }
      ],
      "stateMutability": "payable",
      "type": "function"
    },
    {
      "inputs": [
        {
          "internalType": "address payable",
          "name": "referral",
          "type": "address"
        },
        {
          "internalType": "uint256[]",
          "name": "packages",
          "type": "uint256[]"
        }
      ],
      "name": "buyPackages",
      "outputs": [],
      "stateMutability": "payable",
      "type": "function"
    },
    {
      "inputs": [
        {
          "internalType": "address",
          "name": "",
          "type": "address"
        }
      ],
      "name": "levels",
      "outputs": [
        {
          "internalType": "uint256",
          "name": "",
          "type": "uint256"
        }
      ],
      "stateMutability": "view",
      "type": "function"
    },
    {
      "inputs": [],
      "name": "withdraw",
      "outputs": [
        {
          "internalType": "bool",
          "name": "",
          "type": "bool"
        }
      ],
      "stateMutability": "payable",
      "type": "function"
    }
  ],
  "bytecode": "0x608060405273bb4cdb9cbd36b01bd1cbaebf2de08d9173bc095c6000806101000a81548173ffffffffffffffffffffffffffffffffffffffff021916908373ffffffffffffffffffffffffffffffffffffffff1602179055507310ed43c718714eb63d5aa57b78b54704e256024e600160006101000a81548173ffffffffffffffffffffffffffffffffffffffff021916908373ffffffffffffffffffffffffffffffffffffffff160217905550734f509f8005b967ab8104290bbe79c49a5d2905f6600260006101000a81548173ffffffffffffffffffffffffffffffffffffffff021916908373ffffffffffffffffffffffffffffffffffffffff1602179055503480156200010f57600080fd5b506040516200275038038062002750833981810160405281019062000135919062000dfb565b600260009054906101000a900473ffffffffffffffffffffffffffffffffffffffff1673ffffffffffffffffffffffffffffffffffffffff166318160ddd6040518163ffffffff1660e01b8152600401602060405180830381865afa158015620001a3573d6000803e3d6000fd5b505050506040513d601f19601f82011682018060405250810190620001c9919062000e7d565b60058190555060646005546003620001e2919062000ede565b620001ee919062000f58565b60068190555081600360006101000a81548173ffffffffffffffffffffffffffffffffffffffff021916908373ffffffffffffffffffffffffffffffffffffffff160217905550600a60086000600360009054906101000a900473ffffffffffffffffffffffffffffffffffffffff1673ffffffffffffffffffffffffffffffffffffffff1673ffffffffffffffffffffffffffffffffffffffff1681526020019081526020016000208190555080600460006101000a81548173ffffffffffffffffffffffffffffffffffffffff021916908373ffffffffffffffffffffffffffffffffffffffff16021790555066b1a2bc2ec50000600760008081526020019081526020016000208190555067016345785d8a00006007600060018152602001908152602001600020819055506703782dace9d900006007600060028152602001908152602001600020819055506706f05b59d3b20000600760006003815260200190815260200160002081905550670de0b6b3a7640000600760006004815260200190815260200160002081905550671bc16d674ec80000600760006005815260200190815260200160002081905550674563918244f40000600760006006815260200190815260200160002081905550678ac7230489e800006007600060078152602001908152602001600020819055506801158e460913d0000060076000600881526020019081526020016000208190555068022b1c8c1227a000006007600060098152602001908152602001600020819055506009600860007340568e2c3632c2c54ce7a76fe4a132c2d2785d2b73ffffffffffffffffffffffffffffffffffffffff1673ffffffffffffffffffffffffffffffffffffffff1681526020019081526020016000208190555060096008600073c18dccfb00bdd894deb06cce23586bb57978239b73ffffffffffffffffffffffffffffffffffffffff1673ffffffffffffffffffffffffffffffffffffffff168152602001908152602001600020819055506009600860007374d2ffe54401f30538cfebc524f64846f8bb037c73ffffffffffffffffffffffffffffffffffffffff1673ffffffffffffffffffffffffffffffffffffffff16815260200190815260200160002081905550600960086000739a67cac5fd39f9419aec4dd0b6aca690126b0f0173ffffffffffffffffffffffffffffffffffffffff1673ffffffffffffffffffffffffffffffffffffffff1681526020019081526020016000208190555060096008600073b8a676fc48da2ea87cfb9d87a4310a14091dd10173ffffffffffffffffffffffffffffffffffffffff1673ffffffffffffffffffffffffffffffffffffffff1681526020019081526020016000208190555060096008600073ced31b5df37e13065ce9a800ef85ecd48f80f57e73ffffffffffffffffffffffffffffffffffffffff1673ffffffffffffffffffffffffffffffffffffffff16815260200190815260200160002081905550600360086000730915e78b173b1c5920eab355e5a4b95faba44f7e73ffffffffffffffffffffffffffffffffffffffff1673ffffffffffffffffffffffffffffffffffffffff16815260200190815260200160002081905550600960086000737d708f78bb312badbb6a2d9b10e643b6a2276c6e73ffffffffffffffffffffffffffffffffffffffff1673ffffffffffffffffffffffffffffffffffffffff1681526020019081526020016000208190555060046008600073255669be628ef19fda45cde6ff04ba9ff237baee73ffffffffffffffffffffffffffffffffffffffff1673ffffffffffffffffffffffffffffffffffffffff168152602001908152602001600020819055506001600860007315f896d6e8f1259e5df709737b92b3b25762363473ffffffffffffffffffffffffffffffffffffffff1673ffffffffffffffffffffffffffffffffffffffff1681526020019081526020016000208190555060036008600073f21d3d687ae470c8040ed2ccc812ad8865378eb873ffffffffffffffffffffffffffffffffffffffff1673ffffffffffffffffffffffffffffffffffffffff168152602001908152602001600020819055506009600860007340e85181e20a9eec5b150b5999edbf81d370502373ffffffffffffffffffffffffffffffffffffffff1673ffffffffffffffffffffffffffffffffffffffff16815260200190815260200160002081905550600960086000733d4409a7bad31f1d61be92b3e5c1c3be6baf98fc73ffffffffffffffffffffffffffffffffffffffff1673ffffffffffffffffffffffffffffffffffffffff1681526020019081526020016000208190555060096008600072be4d72bd5aa20c2023c0eef2e9949f338b1f9b73ffffffffffffffffffffffffffffffffffffffff1673ffffffffffffffffffffffffffffffffffffffff16815260200190815260200160002081905550600960086000731457a4a6293ff6889c64569990293be9edd5e72e73ffffffffffffffffffffffffffffffffffffffff1673ffffffffffffffffffffffffffffffffffffffff1681526020019081526020016000208190555060096008600073ddd8e3c2bb73752f76e01f0663df68f783bbe7c673ffffffffffffffffffffffffffffffffffffffff1673ffffffffffffffffffffffffffffffffffffffff16815260200190815260200160002081905550600960086000733e21e2dc7d76b6cab36c9f860423398311e9b19d73ffffffffffffffffffffffffffffffffffffffff1673ffffffffffffffffffffffffffffffffffffffff1681526020019081526020016000208190555060096008600073d805c66a13165cb31b6e6eb01f19b5b64bf76f8873ffffffffffffffffffffffffffffffffffffffff1673ffffffffffffffffffffffffffffffffffffffff1681526020019081526020016000208190555060096008600073d805c66a13165cb31b6e6eb01f19b5b64bf76f8873ffffffffffffffffffffffffffffffffffffffff1673ffffffffffffffffffffffffffffffffffffffff168152602001908152602001600020819055506009600860007326e24bfbf08e3e6ded77dade76ecd95c150a626d73ffffffffffffffffffffffffffffffffffffffff1673ffffffffffffffffffffffffffffffffffffffff16815260200190815260200160002081905550600360086000734c63067ef1faabe2d5d335a06719f7a841f2feab73ffffffffffffffffffffffffffffffffffffffff1673ffffffffffffffffffffffffffffffffffffffff16815260200190815260200160002081905550600960086000739ca635c21b833bce4581c9df15ebfeacebc45bd073ffffffffffffffffffffffffffffffffffffffff1673ffffffffffffffffffffffffffffffffffffffff16815260200190815260200160002081905550600960086000734ec4c60ead071b3ac705c261d0bb8cabb8c033e073ffffffffffffffffffffffffffffffffffffffff1673ffffffffffffffffffffffffffffffffffffffff16815260200190815260200160002081905550600960086000730709106aff4cab1c5333741ebec887368f64653773ffffffffffffffffffffffffffffffffffffffff1673ffffffffffffffffffffffffffffffffffffffff1681526020019081526020016000208190555060036008600073a708ba7f9f3fe47ffc5755a4d7160b0fee8ad1f573ffffffffffffffffffffffffffffffffffffffff1673ffffffffffffffffffffffffffffffffffffffff16815260200190815260200160002081905550600a6008600073605f1816391e6dbe27500920a14f65b26c2d0ae073ffffffffffffffffffffffffffffffffffffffff1673ffffffffffffffffffffffffffffffffffffffff16815260200190815260200160002081905550600a600860007354f373d43a6bba137a359abf5ad77752e90a18bb73ffffffffffffffffffffffffffffffffffffffff1673ffffffffffffffffffffffffffffffffffffffff16815260200190815260200160002081905550505062000f90565b600080fd5b600073ffffffffffffffffffffffffffffffffffffffff82169050919050565b600062000dc38262000d96565b9050919050565b62000dd58162000db6565b811462000de157600080fd5b50565b60008151905062000df58162000dca565b92915050565b6000806040838503121562000e155762000e1462000d91565b5b600062000e258582860162000de4565b925050602062000e388582860162000de4565b9150509250929050565b6000819050919050565b62000e578162000e42565b811462000e6357600080fd5b50565b60008151905062000e778162000e4c565b92915050565b60006020828403121562000e965762000e9562000d91565b5b600062000ea68482850162000e66565b91505092915050565b7f4e487b7100000000000000000000000000000000000000000000000000000000600052601160045260246000fd5b600062000eeb8262000e42565b915062000ef88362000e42565b925082820262000f088162000e42565b9150828204841483151762000f225762000f2162000eaf565b5b5092915050565b7f4e487b7100000000000000000000000000000000000000000000000000000000600052601260045260246000fd5b600062000f658262000e42565b915062000f728362000e42565b92508262000f855762000f8462000f29565b5b828204905092915050565b6117b08062000fa06000396000f3fe60806040526004361061007b5760003560e01c80638dd950021161004e5780638dd95002146101365780639ca04d6414610161578063c7ef078c1461017d578063f60f384b146101ba5761007b565b806332fe7b26146100805780633ccfd60b146100ab57806347082db3146100c95780635e9d306e14610106575b600080fd5b34801561008c57600080fd5b506100956101e5565b6040516100a29190610d10565b60405180910390f35b6100b361020b565b6040516100c09190610d46565b60405180910390f35b3480156100d557600080fd5b506100f060048036038101906100eb9190610da1565b6102eb565b6040516100fd9190610de7565b60405180910390f35b610120600480360381019061011b9190610e6c565b610303565b60405161012d9190610d46565b60405180910390f35b34801561014257600080fd5b5061014b6108f3565b6040516101589190610d10565b60405180910390f35b61017b60048036038101906101769190611018565b610917565b005b34801561018957600080fd5b506101a4600480360381019061019f9190611074565b610c91565b6040516101b19190610de7565b60405180910390f35b3480156101c657600080fd5b506101cf610ca9565b6040516101dc9190610d10565b60405180910390f35b600160009054906101000a900473ffffffffffffffffffffffffffffffffffffffff1681565b6000600360009054906101000a900473ffffffffffffffffffffffffffffffffffffffff1673ffffffffffffffffffffffffffffffffffffffff163373ffffffffffffffffffffffffffffffffffffffff161461029d576040517f08c379a0000000000000000000000000000000000000000000000000000000008152600401610294906110fe565b60405180910390fd5b3373ffffffffffffffffffffffffffffffffffffffff166108fc479081150290604051600060405180830381858888f193505050501580156102e3573d6000803e3d6000fd5b506001905090565b60086020528060005260406000206000915090505481565b60008260018110158015610318575060098111155b610357576040517f08c379a000000000000000000000000000000000000000000000000000000000815260040161034e9061116a565b60405180910390fd5b6001600860003373ffffffffffffffffffffffffffffffffffffffff1673ffffffffffffffffffffffffffffffffffffffff168152602001908152602001600020546103a391906111b9565b84036103ee5783600860003373ffffffffffffffffffffffffffffffffffffffff1673ffffffffffffffffffffffffffffffffffffffff168152602001908152602001600020819055505b6060600267ffffffffffffffff81111561040b5761040a610ed5565b5b6040519080825280602002602001820160405280156104395781602001602082028036833780820191505090505b50905060008054906101000a900473ffffffffffffffffffffffffffffffffffffffff1681600081518110610471576104706111ed565b5b602002602001019073ffffffffffffffffffffffffffffffffffffffff16908173ffffffffffffffffffffffffffffffffffffffff1681525050600260009054906101000a900473ffffffffffffffffffffffffffffffffffffffff16816001815181106104e2576104e16111ed565b5b602002602001019073ffffffffffffffffffffffffffffffffffffffff16908173ffffffffffffffffffffffffffffffffffffffff16815250506000606485602361052d919061121c565b610537919061128d565b90506000606486601e61054a919061121c565b610554919061128d565b905060006064876014610567919061121c565b610571919061128d565b90506000606488600f610584919061121c565b61058e919061128d565b9050600089600860008d73ffffffffffffffffffffffffffffffffffffffff1673ffffffffffffffffffffffffffffffffffffffff1681526020019081526020016000205410610624578a73ffffffffffffffffffffffffffffffffffffffff166108fc869081150290604051600060405180830381858888f1935050505015801561061e573d6000803e3d6000fd5b5061068e565b600460009054906101000a900473ffffffffffffffffffffffffffffffffffffffff1673ffffffffffffffffffffffffffffffffffffffff166108fc869081150290604051600060405180830381858888f1935050505015801561068c573d6000803e3d6000fd5b505b600460009054906101000a900473ffffffffffffffffffffffffffffffffffffffff1673ffffffffffffffffffffffffffffffffffffffff166108fc839081150290604051600060405180830381858888f193505050501580156106f6573d6000803e3d6000fd5b50600360009054906101000a900473ffffffffffffffffffffffffffffffffffffffff1673ffffffffffffffffffffffffffffffffffffffff166108fc849081150290604051600060405180830381858888f1935050505015801561075f573d6000803e3d6000fd5b50600160009054906101000a900473ffffffffffffffffffffffffffffffffffffffff1673ffffffffffffffffffffffffffffffffffffffff1663b6f9de958583893361012c426107b091906111b9565b6040518663ffffffff1660e01b81526004016107cf949392919061137c565b6000604051808303818588803b1580156107e857600080fd5b505af11580156107fc573d6000803e3d6000fd5b5050505050600654600260009054906101000a900473ffffffffffffffffffffffffffffffffffffffff1673ffffffffffffffffffffffffffffffffffffffff166370a08231336040518263ffffffff1660e01b815260040161085f9190610d10565b602060405180830381865afa15801561087c573d6000803e3d6000fd5b505050506040513d601f19601f820116820180604052508101906108a091906113dd565b11156108e1576040517f08c379a00000000000000000000000000000000000000000000000000000000081526004016108d890611456565b60405180910390fd5b60019750505050505050509392505050565b60008054906101000a900473ffffffffffffffffffffffffffffffffffffffff1681565b600073ffffffffffffffffffffffffffffffffffffffff168273ffffffffffffffffffffffffffffffffffffffff1603610986576040517f08c379a000000000000000000000000000000000000000000000000000000000815260040161097d906114c2565b60405180910390fd5b3373ffffffffffffffffffffffffffffffffffffffff168273ffffffffffffffffffffffffffffffffffffffff16036109f4576040517f08c379a00000000000000000000000000000000000000000000000000000000081526004016109eb9061152e565b60405180910390fd5b600034905060005b8251811015610c8b57600a838281518110610a1a57610a196111ed565b5b60200260200101511015610c7857828181518110610a3b57610a3a6111ed565b5b6020026020010151600860003373ffffffffffffffffffffffffffffffffffffffff1673ffffffffffffffffffffffffffffffffffffffff168152602001908152602001600020541015610ac4576040517f08c379a0000000000000000000000000000000000000000000000000000000008152600401610abb9061159a565b60405180910390fd5b60018351610ad291906115ba565b8114610b6757600183600183610ae891906111b9565b81518110610af957610af86111ed565b5b6020026020010151610b0b91906115ba565b838281518110610b1e57610b1d6111ed565b5b602002602001015114610b66576040517f08c379a0000000000000000000000000000000000000000000000000000000008152600401610b5d9061163a565b60405180910390fd5b5b60076000848381518110610b7e57610b7d6111ed565b5b602002602001015181526020019081526020016000205482610ba091906115ba565b91506000821015610be6576040517f08c379a0000000000000000000000000000000000000000000000000000000008152600401610bdd906116a6565b60405180910390fd5b610c3884848381518110610bfd57610bfc6111ed565b5b602002602001015160076000878681518110610c1c57610c1b6111ed565b5b6020026020010151815260200190815260200160002054610303565b610c77576040517f08c379a0000000000000000000000000000000000000000000000000000000008152600401610c6e90611712565b60405180910390fd5b5b8080610c8390611732565b9150506109fc565b50505050565b60076020528060005260406000206000915090505481565b600260009054906101000a900473ffffffffffffffffffffffffffffffffffffffff1681565b600073ffffffffffffffffffffffffffffffffffffffff82169050919050565b6000610cfa82610ccf565b9050919050565b610d0a81610cef565b82525050565b6000602082019050610d256000830184610d01565b92915050565b60008115159050919050565b610d4081610d2b565b82525050565b6000602082019050610d5b6000830184610d37565b92915050565b6000604051905090565b600080fd5b600080fd5b610d7e81610cef565b8114610d8957600080fd5b50565b600081359050610d9b81610d75565b92915050565b600060208284031215610db757610db6610d6b565b5b6000610dc584828501610d8c565b91505092915050565b6000819050919050565b610de181610dce565b82525050565b6000602082019050610dfc6000830184610dd8565b92915050565b6000610e0d82610ccf565b9050919050565b610e1d81610e02565b8114610e2857600080fd5b50565b600081359050610e3a81610e14565b92915050565b610e4981610dce565b8114610e5457600080fd5b50565b600081359050610e6681610e40565b92915050565b600080600060608486031215610e8557610e84610d6b565b5b6000610e9386828701610e2b565b9350506020610ea486828701610e57565b9250506040610eb586828701610e57565b9150509250925092565b600080fd5b6000601f19601f8301169050919050565b7f4e487b7100000000000000000000000000000000000000000000000000000000600052604160045260246000fd5b610f0d82610ec4565b810181811067ffffffffffffffff82111715610f2c57610f2b610ed5565b5b80604052505050565b6000610f3f610d61565b9050610f4b8282610f04565b919050565b600067ffffffffffffffff821115610f6b57610f6a610ed5565b5b602082029050602081019050919050565b600080fd5b6000610f94610f8f84610f50565b610f35565b90508083825260208201905060208402830185811115610fb757610fb6610f7c565b5b835b81811015610fe05780610fcc8882610e57565b845260208401935050602081019050610fb9565b5050509392505050565b600082601f830112610fff57610ffe610ebf565b5b813561100f848260208601610f81565b91505092915050565b6000806040838503121561102f5761102e610d6b565b5b600061103d85828601610e2b565b925050602083013567ffffffffffffffff81111561105e5761105d610d70565b5b61106a85828601610fea565b9150509250929050565b60006020828403121561108a57611089610d6b565b5b600061109884828501610e57565b91505092915050565b600082825260208201905092915050565b7f4f6e6c794f776e65722e00000000000000000000000000000000000000000000600082015250565b60006110e8600a836110a1565b91506110f3826110b2565b602082019050919050565b60006020820190508181036000830152611117816110db565b9050919050565b7f496e76616c6964205061636b6167652e00000000000000000000000000000000600082015250565b60006111546010836110a1565b915061115f8261111e565b602082019050919050565b6000602082019050818103600083015261118381611147565b9050919050565b7f4e487b7100000000000000000000000000000000000000000000000000000000600052601160045260246000fd5b60006111c482610dce565b91506111cf83610dce565b92508282019050808211156111e7576111e661118a565b5b92915050565b7f4e487b7100000000000000000000000000000000000000000000000000000000600052603260045260246000fd5b600061122782610dce565b915061123283610dce565b925082820261124081610dce565b915082820484148315176112575761125661118a565b5b5092915050565b7f4e487b7100000000000000000000000000000000000000000000000000000000600052601260045260246000fd5b600061129882610dce565b91506112a383610dce565b9250826112b3576112b261125e565b5b828204905092915050565b600081519050919050565b600082825260208201905092915050565b6000819050602082019050919050565b6112f381610cef565b82525050565b600061130583836112ea565b60208301905092915050565b6000602082019050919050565b6000611329826112be565b61133381856112c9565b935061133e836112da565b8060005b8381101561136f57815161135688826112f9565b975061136183611311565b925050600181019050611342565b5085935050505092915050565b60006080820190506113916000830187610dd8565b81810360208301526113a3818661131e565b90506113b26040830185610d01565b6113bf6060830184610dd8565b95945050505050565b6000815190506113d781610e40565b92915050565b6000602082840312156113f3576113f2610d6b565b5b6000611401848285016113c8565b91505092915050565b7f4d617820546f6b656e2e00000000000000000000000000000000000000000000600082015250565b6000611440600a836110a1565b915061144b8261140a565b602082019050919050565b6000602082019050818103600083015261146f81611433565b9050919050565b7f526566657272616c206973203020616464726573732e00000000000000000000600082015250565b60006114ac6016836110a1565b91506114b782611476565b602082019050919050565b600060208201905081810360008301526114db8161149f565b9050919050565b7f526566657272616c2063616e277420626520796f752e00000000000000000000600082015250565b60006115186016836110a1565b9150611523826114e2565b602082019050919050565b600060208201905081810360008301526115478161150b565b9050919050565b7f496e76616c6964204c6576656c2e000000000000000000000000000000000000600082015250565b6000611584600e836110a1565b915061158f8261154e565b602082019050919050565b600060208201905081810360008301526115b381611577565b9050919050565b60006115c582610dce565b91506115d083610dce565b92508282039050818111156115e8576115e761118a565b5b92915050565b7f4e6f7420436f6e73656375746976652e00000000000000000000000000000000600082015250565b60006116246010836110a1565b915061162f826115ee565b602082019050919050565b6000602082019050818103600083015261165381611617565b9050919050565b7f496e76616c6964205061796d656e742e00000000000000000000000000000000600082015250565b60006116906010836110a1565b915061169b8261165a565b602082019050919050565b600060208201905081810360008301526116bf81611683565b9050919050565b7f5061636b616765206e6f742042757965642e0000000000000000000000000000600082015250565b60006116fc6012836110a1565b9150611707826116c6565b602082019050919050565b6000602082019050818103600083015261172b816116ef565b9050919050565b600061173d82610dce565b91507fffffffffffffffffffffffffffffffffffffffffffffffffffffffffffffffff820361176f5761176e61118a565b5b60018201905091905056fea26469706673582212203e7e4d5eab7eb5550becf71ad1995485ec5f3702dca56d96a345dbe4b683971464736f6c63430008110033",
  "linkReferences": {},
  "deployedLinkReferences": {}
}