{
  "_format": "hh-sol-artifact-1",
  "contractName": "ShibAfrica",
  "sourceName": "contracts/ShibaAfrica.sol",
  "abi": [
    {
      "inputs": [
        {
          "internalType": "address",
          "name": "_owner",
          "type": "address"
        },
        {
          "internalType": "address",
          "name": "_buyback",
          "type": "address"
        }
      ],
      "stateMutability": "nonpayable",
      "type": "constructor"
    },
    {
      "inputs": [
        {
          "internalType": "uint256",
          "name": "",
          "type": "uint256"
        }
      ],
      "name": "Packages",
      "outputs": [
        {
          "internalType": "uint256",
          "name": "",
          "type": "uint256"
        }
      ],
      "stateMutability": "view",
      "type": "function"
    },
    {
      "inputs": [],
      "name": "ROUTER",
      "outputs": [
        {
          "internalType": "address",
          "name": "",
          "type": "address"
        }
      ],
      "stateMutability": "view",
      "type": "function"
    },
    {
      "inputs": [],
      "name": "WBNB",
      "outputs": [
        {
          "internalType": "address",
          "name": "",
          "type": "address"
        }
      ],
      "stateMutability": "view",
      "type": "function"
    },
    {
      "inputs": [
        {
          "internalType": "address payable",
          "name": "referral",
          "type": "address"
        },
        {
          "internalType": "uint256",
          "name": "package",
          "type": "uint256"
        },
        {
          "internalType": "uint256",
          "name": "amount",
          "type": "uint256"
        }
      ],
      "name": "buyPackage",
      "outputs": [
        {
          "internalType": "bool",
          "name": "",
          "type": "bool"
        }
      ],
      "stateMutability": "payable",
      "type": "function"
    },
    {
      "inputs": [
        {
          "internalType": "address payable",
          "name": "referral",
          "type": "address"
        },
        {
          "internalType": "uint256[]",
          "name": "packages",
          "type": "uint256[]"
        }
      ],
      "name": "buyPackages",
      "outputs": [],
      "stateMutability": "payable",
      "type": "function"
    },
    {
      "inputs": [
        {
          "internalType": "address",
          "name": "",
          "type": "address"
        }
      ],
      "name": "levels",
      "outputs": [
        {
          "internalType": "uint256",
          "name": "",
          "type": "uint256"
        }
      ],
      "stateMutability": "view",
      "type": "function"
    },
    {
      "inputs": [
        {
          "internalType": "address",
          "name": "user",
          "type": "address"
        },
        {
          "internalType": "uint256",
          "name": "level",
          "type": "uint256"
        }
      ],
      "name": "setLevel",
      "outputs": [],
      "stateMutability": "nonpayable",
      "type": "function"
    }
  ],
  "bytecode": "0x608060405273bb4cdb9cbd36b01bd1cbaebf2de08d9173bc095c6000806101000a81548173ffffffffffffffffffffffffffffffffffffffff021916908373ffffffffffffffffffffffffffffffffffffffff1602179055507310ed43c718714eb63d5aa57b78b54704e256024e600160006101000a81548173ffffffffffffffffffffffffffffffffffffffff021916908373ffffffffffffffffffffffffffffffffffffffff1602179055503480156100b957600080fd5b5060405161102e38038061102e833981810160405260408110156100dc57600080fd5b81019080805190602001909291908051906020019092919050505081600260006101000a81548173ffffffffffffffffffffffffffffffffffffffff021916908373ffffffffffffffffffffffffffffffffffffffff16021790555061016b600260009054906101000a900473ffffffffffffffffffffffffffffffffffffffff16600a6102b960201b60201c565b80600360006101000a81548173ffffffffffffffffffffffffffffffffffffffff021916908373ffffffffffffffffffffffffffffffffffffffff160217905550600160046000600181526020019081526020016000208190555060026004600060028152602001908152602001600020819055506005600460006003815260200190815260200160002081905550600a60046000600481526020019081526020016000208190555060146004600060058152602001908152602001600020819055506032600460006006815260200190815260200160002081905550606460046000600781526020019081526020016000208190555060c860046000600881526020019081526020016000208190555061019060046000600981526020019081526020016000208190555061032060046000600a815260200190815260200160002081905550505061044a565b600260009054906101000a900473ffffffffffffffffffffffffffffffffffffffff1673ffffffffffffffffffffffffffffffffffffffff163373ffffffffffffffffffffffffffffffffffffffff161461037c576040517f08c379a000000000000000000000000000000000000000000000000000000000815260040180806020018281038252600a8152602001807f4f6e6c794f776e65722e0000000000000000000000000000000000000000000081525060200191505060405180910390fd5b806001811015801561038f575060098111155b610401576040517f08c379a00000000000000000000000000000000000000000000000000000000081526004018080602001828103825260108152602001807f496e76616c6964205061636b6167652e0000000000000000000000000000000081525060200191505060405180910390fd5b81600560008573ffffffffffffffffffffffffffffffffffffffff1673ffffffffffffffffffffffffffffffffffffffff16815260200190815260200160002081905550505050565b610bd5806104596000396000f3fe6080604052600436106100705760003560e01c8063722dcd8f1161004e578063722dcd8f146101a15780638dd95002146101fc5780639ca04d6414610253578063c7ef078c1461032b57610070565b806332fe7b261461007557806347082db3146100cc5780635e9d306e14610131575b600080fd5b34801561008157600080fd5b5061008a61037a565b604051808273ffffffffffffffffffffffffffffffffffffffff1673ffffffffffffffffffffffffffffffffffffffff16815260200191505060405180910390f35b3480156100d857600080fd5b5061011b600480360360208110156100ef57600080fd5b81019080803573ffffffffffffffffffffffffffffffffffffffff1690602001909291905050506103a0565b6040518082815260200191505060405180910390f35b6101876004803603606081101561014757600080fd5b81019080803573ffffffffffffffffffffffffffffffffffffffff16906020019092919080359060200190929190803590602001909291905050506103b8565b604051808215151515815260200191505060405180910390f35b3480156101ad57600080fd5b506101fa600480360360408110156101c457600080fd5b81019080803573ffffffffffffffffffffffffffffffffffffffff169060200190929190803590602001909291905050506106f4565b005b34801561020857600080fd5b50610211610885565b604051808273ffffffffffffffffffffffffffffffffffffffff1673ffffffffffffffffffffffffffffffffffffffff16815260200191505060405180910390f35b6103296004803603604081101561026957600080fd5b81019080803573ffffffffffffffffffffffffffffffffffffffff169060200190929190803590602001906401000000008111156102a657600080fd5b8201836020820111156102b857600080fd5b803590602001918460208302840111640100000000831117156102da57600080fd5b919080806020026020016040519081016040528093929190818152602001838360200280828437600081840152601f19601f8201169050808301925050505050505091929192905050506108aa565b005b34801561033757600080fd5b506103646004803603602081101561034e57600080fd5b8101908080359060200190929190505050610b87565b6040518082815260200191505060405180910390f35b600160009054906101000a900473ffffffffffffffffffffffffffffffffffffffff1681565b60056020528060005260406000206000915090505481565b600082600181101580156103cd575060098111155b61043f576040517f08c379a00000000000000000000000000000000000000000000000000000000081526004018080602001828103825260108152602001807f496e76616c6964205061636b6167652e0000000000000000000000000000000081525060200191505060405180910390fd5b6001600560003373ffffffffffffffffffffffffffffffffffffffff1673ffffffffffffffffffffffffffffffffffffffff16815260200190815260200160002054018414156104ce5783600560003373ffffffffffffffffffffffffffffffffffffffff1673ffffffffffffffffffffffffffffffffffffffff168152602001908152602001600020819055505b6000606484602302816104dd57fe5b0490506000606485601e02816104ef57fe5b04905060006064866014028161050157fe5b0490506000606487600f028161051357fe5b04905087600560008b73ffffffffffffffffffffffffffffffffffffffff1673ffffffffffffffffffffffffffffffffffffffff16815260200190815260200160002054106105a8578873ffffffffffffffffffffffffffffffffffffffff166108fc859081150290604051600060405180830381858888f193505050501580156105a2573d6000803e3d6000fd5b50610612565b600360009054906101000a900473ffffffffffffffffffffffffffffffffffffffff1673ffffffffffffffffffffffffffffffffffffffff166108fc859081150290604051600060405180830381858888f19350505050158015610610573d6000803e3d6000fd5b505b600360009054906101000a900473ffffffffffffffffffffffffffffffffffffffff1673ffffffffffffffffffffffffffffffffffffffff166108fc829081150290604051600060405180830381858888f1935050505015801561067a573d6000803e3d6000fd5b50600260009054906101000a900473ffffffffffffffffffffffffffffffffffffffff1673ffffffffffffffffffffffffffffffffffffffff166108fc839081150290604051600060405180830381858888f193505050501580156106e3573d6000803e3d6000fd5b506001955050505050509392505050565b600260009054906101000a900473ffffffffffffffffffffffffffffffffffffffff1673ffffffffffffffffffffffffffffffffffffffff163373ffffffffffffffffffffffffffffffffffffffff16146107b7576040517f08c379a000000000000000000000000000000000000000000000000000000000815260040180806020018281038252600a8152602001807f4f6e6c794f776e65722e0000000000000000000000000000000000000000000081525060200191505060405180910390fd5b80600181101580156107ca575060098111155b61083c576040517f08c379a00000000000000000000000000000000000000000000000000000000081526004018080602001828103825260108152602001807f496e76616c6964205061636b6167652e0000000000000000000000000000000081525060200191505060405180910390fd5b81600560008573ffffffffffffffffffffffffffffffffffffffff1673ffffffffffffffffffffffffffffffffffffffff16815260200190815260200160002081905550505050565b6000809054906101000a900473ffffffffffffffffffffffffffffffffffffffff1681565b600034905060005b8251811015610b815760098382815181106108c957fe5b6020026020010151111580156108f3575060008382815181106108e857fe5b602002602001015110155b610965576040517f08c379a00000000000000000000000000000000000000000000000000000000081526004018080602001828103825260108152602001807f496e76616c6964205061636b6167652e0000000000000000000000000000000081525060200191505060405180910390fd5b60018351038114610a1257600183600183018151811061098157fe5b60200260200101510383828151811061099657fe5b602002602001015114610a11576040517f08c379a00000000000000000000000000000000000000000000000000000000081526004018080602001828103825260108152602001807f4e6f7420436f6e73656375746976652e0000000000000000000000000000000081525060200191505060405180910390fd5b5b6064600560046000600185018152602001908152602001600020540281610a3557fe5b04820391506000821015610ab1576040517f08c379a00000000000000000000000000000000000000000000000000000000081526004018080602001828103825260108152602001807f496e76616c6964205061796d656e742e0000000000000000000000000000000081525060200191505060405180910390fd5b610b0284848381518110610ac157fe5b60200260200101516064600560046000898881518110610add57fe5b60200260200101518152602001908152602001600020540281610afc57fe5b046103b8565b610b74576040517f08c379a00000000000000000000000000000000000000000000000000000000081526004018080602001828103825260128152602001807f5061636b616765206e6f742042757965642e000000000000000000000000000081525060200191505060405180910390fd5b80806001019150506108b2565b50505050565b6004602052806000526040600020600091509050548156fea264697066735822122065b5408ad25c159339f4e24d98e1105b6ca29d511814f61722041485358d6c8464736f6c63430006060033",
  "linkReferences": {},
  "deployedLinkReferences": {}
}