{
  "_format": "hh-sol-artifact-1",
  "contractName": "ShibAfrica",
  "sourceName": "contracts/ShibaAfrica.sol",
  "abi": [
    {
      "inputs": [
        {
          "internalType": "address",
          "name": "_owner",
          "type": "address"
        },
        {
          "internalType": "address",
          "name": "_buyback",
          "type": "address"
        }
      ],
      "stateMutability": "nonpayable",
      "type": "constructor"
    },
    {
      "inputs": [
        {
          "internalType": "uint256",
          "name": "",
          "type": "uint256"
        }
      ],
      "name": "Packages",
      "outputs": [
        {
          "internalType": "uint256",
          "name": "",
          "type": "uint256"
        }
      ],
      "stateMutability": "view",
      "type": "function"
    },
    {
      "inputs": [],
      "name": "ROUTER",
      "outputs": [
        {
          "internalType": "address",
          "name": "",
          "type": "address"
        }
      ],
      "stateMutability": "view",
      "type": "function"
    },
    {
      "inputs": [],
      "name": "SHIBAFRICA",
      "outputs": [
        {
          "internalType": "address",
          "name": "",
          "type": "address"
        }
      ],
      "stateMutability": "view",
      "type": "function"
    },
    {
      "inputs": [],
      "name": "WBNB",
      "outputs": [
        {
          "internalType": "address",
          "name": "",
          "type": "address"
        }
      ],
      "stateMutability": "view",
      "type": "function"
    },
    {
      "inputs": [
        {
          "internalType": "address payable",
          "name": "referral",
          "type": "address"
        },
        {
          "internalType": "uint256",
          "name": "package",
          "type": "uint256"
        },
        {
          "internalType": "uint256",
          "name": "amount",
          "type": "uint256"
        }
      ],
      "name": "buyPackage",
      "outputs": [
        {
          "internalType": "bool",
          "name": "",
          "type": "bool"
        }
      ],
      "stateMutability": "payable",
      "type": "function"
    },
    {
      "inputs": [
        {
          "internalType": "address payable",
          "name": "referral",
          "type": "address"
        },
        {
          "internalType": "uint256[]",
          "name": "packages",
          "type": "uint256[]"
        }
      ],
      "name": "buyPackages",
      "outputs": [],
      "stateMutability": "payable",
      "type": "function"
    },
    {
      "inputs": [
        {
          "internalType": "address",
          "name": "",
          "type": "address"
        }
      ],
      "name": "levels",
      "outputs": [
        {
          "internalType": "uint256",
          "name": "",
          "type": "uint256"
        }
      ],
      "stateMutability": "view",
      "type": "function"
    },
    {
      "inputs": [
        {
          "internalType": "address",
          "name": "user",
          "type": "address"
        },
        {
          "internalType": "uint256",
          "name": "level",
          "type": "uint256"
        }
      ],
      "name": "setLevel",
      "outputs": [],
      "stateMutability": "nonpayable",
      "type": "function"
    }
  ],
  "bytecode": "0x608060405273bb4cdb9cbd36b01bd1cbaebf2de08d9173bc095c6000806101000a81548173ffffffffffffffffffffffffffffffffffffffff021916908373ffffffffffffffffffffffffffffffffffffffff1602179055507310ed43c718714eb63d5aa57b78b54704e256024e600160006101000a81548173ffffffffffffffffffffffffffffffffffffffff021916908373ffffffffffffffffffffffffffffffffffffffff16021790555073e31013216cdc0cf54a9da564e69c213a30435f1d600260006101000a81548173ffffffffffffffffffffffffffffffffffffffff021916908373ffffffffffffffffffffffffffffffffffffffff1602179055503480156200010f57600080fd5b5060405162001c3b38038062001c3b833981810160405281019062000135919062000495565b81600360006101000a81548173ffffffffffffffffffffffffffffffffffffffff021916908373ffffffffffffffffffffffffffffffffffffffff160217905550620001ab600360009054906101000a900473ffffffffffffffffffffffffffffffffffffffff16600a620002f960201b60201c565b80600460006101000a81548173ffffffffffffffffffffffffffffffffffffffff021916908373ffffffffffffffffffffffffffffffffffffffff1602179055506001600560006001815260200190815260200160002081905550600260056000600281526020019081526020016000208190555060058060006003815260200190815260200160002081905550600a60056000600481526020019081526020016000208190555060146005600060058152602001908152602001600020819055506032600560006006815260200190815260200160002081905550606460056000600781526020019081526020016000208190555060c860056000600881526020019081526020016000208190555061019060056000600981526020019081526020016000208190555061032060056000600a8152602001908152602001600020819055505050620005d1565b600360009054906101000a900473ffffffffffffffffffffffffffffffffffffffff1673ffffffffffffffffffffffffffffffffffffffff163373ffffffffffffffffffffffffffffffffffffffff16146200038c576040517f08c379a000000000000000000000000000000000000000000000000000000000815260040162000383906200053d565b60405180910390fd5b8060018110158015620003a0575060098111155b620003e2576040517f08c379a0000000000000000000000000000000000000000000000000000000008152600401620003d990620005af565b60405180910390fd5b81600660008573ffffffffffffffffffffffffffffffffffffffff1673ffffffffffffffffffffffffffffffffffffffff16815260200190815260200160002081905550505050565b600080fd5b600073ffffffffffffffffffffffffffffffffffffffff82169050919050565b60006200045d8262000430565b9050919050565b6200046f8162000450565b81146200047b57600080fd5b50565b6000815190506200048f8162000464565b92915050565b60008060408385031215620004af57620004ae6200042b565b5b6000620004bf858286016200047e565b9250506020620004d2858286016200047e565b9150509250929050565b600082825260208201905092915050565b7f4f6e6c794f776e65722e00000000000000000000000000000000000000000000600082015250565b600062000525600a83620004dc565b91506200053282620004ed565b602082019050919050565b60006020820190508181036000830152620005588162000516565b9050919050565b7f496e76616c6964205061636b6167652e00000000000000000000000000000000600082015250565b600062000597601083620004dc565b9150620005a4826200055f565b602082019050919050565b60006020820190508181036000830152620005ca8162000588565b9050919050565b61165a80620005e16000396000f3fe60806040526004361061007b5760003560e01c80638dd950021161004e5780638dd95002146101415780639ca04d641461016c578063c7ef078c14610188578063f60f384b146101c55761007b565b806332fe7b261461008057806347082db3146100ab5780635e9d306e146100e8578063722dcd8f14610118575b600080fd5b34801561008c57600080fd5b506100956101f0565b6040516100a29190610bc6565b60405180910390f35b3480156100b757600080fd5b506100d260048036038101906100cd9190610c21565b610216565b6040516100df9190610c67565b60405180910390f35b61010260048036038101906100fd9190610cec565b61022e565b60405161010f9190610d5a565b60405180910390f35b34801561012457600080fd5b5061013f600480360381019061013a9190610d75565b61075e565b005b34801561014d57600080fd5b50610156610889565b6040516101639190610bc6565b60405180910390f35b61018660048036038101906101819190610f0e565b6108ad565b005b34801561019457600080fd5b506101af60048036038101906101aa9190610f6a565b610b47565b6040516101bc9190610c67565b60405180910390f35b3480156101d157600080fd5b506101da610b5f565b6040516101e79190610bc6565b60405180910390f35b600160009054906101000a900473ffffffffffffffffffffffffffffffffffffffff1681565b60066020528060005260406000206000915090505481565b60008260018110158015610243575060098111155b610282576040517f08c379a000000000000000000000000000000000000000000000000000000000815260040161027990610ff4565b60405180910390fd5b6001600660003373ffffffffffffffffffffffffffffffffffffffff1673ffffffffffffffffffffffffffffffffffffffff168152602001908152602001600020546102ce9190611043565b84036103195783600660003373ffffffffffffffffffffffffffffffffffffffff1673ffffffffffffffffffffffffffffffffffffffff168152602001908152602001600020819055505b6000606484602361032a9190611077565b61033491906110e8565b90506000606485601e6103479190611077565b61035191906110e8565b9050600060648660146103649190611077565b61036e91906110e8565b90506000606487600f6103819190611077565b61038b91906110e8565b905087600660008b73ffffffffffffffffffffffffffffffffffffffff1673ffffffffffffffffffffffffffffffffffffffff168152602001908152602001600020541061041f578873ffffffffffffffffffffffffffffffffffffffff166108fc859081150290604051600060405180830381858888f19350505050158015610419573d6000803e3d6000fd5b50610489565b600460009054906101000a900473ffffffffffffffffffffffffffffffffffffffff1673ffffffffffffffffffffffffffffffffffffffff166108fc859081150290604051600060405180830381858888f19350505050158015610487573d6000803e3d6000fd5b505b600460009054906101000a900473ffffffffffffffffffffffffffffffffffffffff1673ffffffffffffffffffffffffffffffffffffffff166108fc829081150290604051600060405180830381858888f193505050501580156104f1573d6000803e3d6000fd5b50600360009054906101000a900473ffffffffffffffffffffffffffffffffffffffff1673ffffffffffffffffffffffffffffffffffffffff166108fc839081150290604051600060405180830381858888f1935050505015801561055a573d6000803e3d6000fd5b506060600267ffffffffffffffff81111561057857610577610dcb565b5b6040519080825280602002602001820160405280156105a65781602001602082028036833780820191505090505b50905060008054906101000a900473ffffffffffffffffffffffffffffffffffffffff16816000815181106105de576105dd611119565b5b602002602001019073ffffffffffffffffffffffffffffffffffffffff16908173ffffffffffffffffffffffffffffffffffffffff1681525050600260009054906101000a900473ffffffffffffffffffffffffffffffffffffffff168160018151811061064f5761064e611119565b5b602002602001019073ffffffffffffffffffffffffffffffffffffffff16908173ffffffffffffffffffffffffffffffffffffffff1681525050600160009054906101000a900473ffffffffffffffffffffffffffffffffffffffff1673ffffffffffffffffffffffffffffffffffffffff16637ff36ab589600084336103e8426106da91906110e8565b426106e59190611043565b6040518663ffffffff1660e01b8152600401610704949392919061124b565b60006040518083038185885af1158015610722573d6000803e3d6000fd5b50505050506040513d6000823e3d601f19601f8201168201806040525081019061074c9190611343565b50600196505050505050509392505050565b600360009054906101000a900473ffffffffffffffffffffffffffffffffffffffff1673ffffffffffffffffffffffffffffffffffffffff163373ffffffffffffffffffffffffffffffffffffffff16146107ee576040517f08c379a00000000000000000000000000000000000000000000000000000000081526004016107e5906113d8565b60405180910390fd5b8060018110158015610801575060098111155b610840576040517f08c379a000000000000000000000000000000000000000000000000000000000815260040161083790610ff4565b60405180910390fd5b81600660008573ffffffffffffffffffffffffffffffffffffffff1673ffffffffffffffffffffffffffffffffffffffff16815260200190815260200160002081905550505050565b60008054906101000a900473ffffffffffffffffffffffffffffffffffffffff1681565b6000349050600660003373ffffffffffffffffffffffffffffffffffffffff1673ffffffffffffffffffffffffffffffffffffffff168152602001908152602001600020548260008151811061090657610905611119565b5b6020026020010151101561094f576040517f08c379a000000000000000000000000000000000000000000000000000000000815260040161094690611444565b60405180910390fd5b60005b8251811015610b4157600183516109699190611464565b81146109fe5760018360018361097f9190611043565b815181106109905761098f611119565b5b60200260200101516109a29190611464565b8382815181106109b5576109b4611119565b5b6020026020010151146109fd576040517f08c379a00000000000000000000000000000000000000000000000000000000081526004016109f4906114e4565b60405180910390fd5b5b60646005806000600185610a129190611043565b815260200190815260200160002054610a2b9190611077565b610a3591906110e8565b82610a409190611464565b91506000821015610a86576040517f08c379a0000000000000000000000000000000000000000000000000000000008152600401610a7d90611550565b60405180910390fd5b610aef84848381518110610a9d57610a9c611119565b5b602002602001015160646005806000898881518110610abf57610abe611119565b5b6020026020010151815260200190815260200160002054610ae09190611077565b610aea91906110e8565b61022e565b610b2e576040517f08c379a0000000000000000000000000000000000000000000000000000000008152600401610b25906115bc565b60405180910390fd5b8080610b39906115dc565b915050610952565b50505050565b60056020528060005260406000206000915090505481565b600260009054906101000a900473ffffffffffffffffffffffffffffffffffffffff1681565b600073ffffffffffffffffffffffffffffffffffffffff82169050919050565b6000610bb082610b85565b9050919050565b610bc081610ba5565b82525050565b6000602082019050610bdb6000830184610bb7565b92915050565b6000604051905090565b600080fd5b600080fd5b610bfe81610ba5565b8114610c0957600080fd5b50565b600081359050610c1b81610bf5565b92915050565b600060208284031215610c3757610c36610beb565b5b6000610c4584828501610c0c565b91505092915050565b6000819050919050565b610c6181610c4e565b82525050565b6000602082019050610c7c6000830184610c58565b92915050565b6000610c8d82610b85565b9050919050565b610c9d81610c82565b8114610ca857600080fd5b50565b600081359050610cba81610c94565b92915050565b610cc981610c4e565b8114610cd457600080fd5b50565b600081359050610ce681610cc0565b92915050565b600080600060608486031215610d0557610d04610beb565b5b6000610d1386828701610cab565b9350506020610d2486828701610cd7565b9250506040610d3586828701610cd7565b9150509250925092565b60008115159050919050565b610d5481610d3f565b82525050565b6000602082019050610d6f6000830184610d4b565b92915050565b60008060408385031215610d8c57610d8b610beb565b5b6000610d9a85828601610c0c565b9250506020610dab85828601610cd7565b9150509250929050565b600080fd5b6000601f19601f8301169050919050565b7f4e487b7100000000000000000000000000000000000000000000000000000000600052604160045260246000fd5b610e0382610dba565b810181811067ffffffffffffffff82111715610e2257610e21610dcb565b5b80604052505050565b6000610e35610be1565b9050610e418282610dfa565b919050565b600067ffffffffffffffff821115610e6157610e60610dcb565b5b602082029050602081019050919050565b600080fd5b6000610e8a610e8584610e46565b610e2b565b90508083825260208201905060208402830185811115610ead57610eac610e72565b5b835b81811015610ed65780610ec28882610cd7565b845260208401935050602081019050610eaf565b5050509392505050565b600082601f830112610ef557610ef4610db5565b5b8135610f05848260208601610e77565b91505092915050565b60008060408385031215610f2557610f24610beb565b5b6000610f3385828601610cab565b925050602083013567ffffffffffffffff811115610f5457610f53610bf0565b5b610f6085828601610ee0565b9150509250929050565b600060208284031215610f8057610f7f610beb565b5b6000610f8e84828501610cd7565b91505092915050565b600082825260208201905092915050565b7f496e76616c6964205061636b6167652e00000000000000000000000000000000600082015250565b6000610fde601083610f97565b9150610fe982610fa8565b602082019050919050565b6000602082019050818103600083015261100d81610fd1565b9050919050565b7f4e487b7100000000000000000000000000000000000000000000000000000000600052601160045260246000fd5b600061104e82610c4e565b915061105983610c4e565b925082820190508082111561107157611070611014565b5b92915050565b600061108282610c4e565b915061108d83610c4e565b925082820261109b81610c4e565b915082820484148315176110b2576110b1611014565b5b5092915050565b7f4e487b7100000000000000000000000000000000000000000000000000000000600052601260045260246000fd5b60006110f382610c4e565b91506110fe83610c4e565b92508261110e5761110d6110b9565b5b828204905092915050565b7f4e487b7100000000000000000000000000000000000000000000000000000000600052603260045260246000fd5b6000819050919050565b6000819050919050565b600061117761117261116d84611148565b611152565b610c4e565b9050919050565b6111878161115c565b82525050565b600081519050919050565b600082825260208201905092915050565b6000819050602082019050919050565b6111c281610ba5565b82525050565b60006111d483836111b9565b60208301905092915050565b6000602082019050919050565b60006111f88261118d565b6112028185611198565b935061120d836111a9565b8060005b8381101561123e57815161122588826111c8565b9750611230836111e0565b925050600181019050611211565b5085935050505092915050565b6000608082019050611260600083018761117e565b818103602083015261127281866111ed565b90506112816040830185610bb7565b61128e6060830184610c58565b95945050505050565b6000815190506112a681610cc0565b92915050565b60006112bf6112ba84610e46565b610e2b565b905080838252602082019050602084028301858111156112e2576112e1610e72565b5b835b8181101561130b57806112f78882611297565b8452602084019350506020810190506112e4565b5050509392505050565b600082601f83011261132a57611329610db5565b5b815161133a8482602086016112ac565b91505092915050565b60006020828403121561135957611358610beb565b5b600082015167ffffffffffffffff81111561137757611376610bf0565b5b61138384828501611315565b91505092915050565b7f4f6e6c794f776e65722e00000000000000000000000000000000000000000000600082015250565b60006113c2600a83610f97565b91506113cd8261138c565b602082019050919050565b600060208201905081810360008301526113f1816113b5565b9050919050565b7f496e76616c6964204c6576656c2e000000000000000000000000000000000000600082015250565b600061142e600e83610f97565b9150611439826113f8565b602082019050919050565b6000602082019050818103600083015261145d81611421565b9050919050565b600061146f82610c4e565b915061147a83610c4e565b925082820390508181111561149257611491611014565b5b92915050565b7f4e6f7420436f6e73656375746976652e00000000000000000000000000000000600082015250565b60006114ce601083610f97565b91506114d982611498565b602082019050919050565b600060208201905081810360008301526114fd816114c1565b9050919050565b7f496e76616c6964205061796d656e742e00000000000000000000000000000000600082015250565b600061153a601083610f97565b915061154582611504565b602082019050919050565b600060208201905081810360008301526115698161152d565b9050919050565b7f5061636b616765206e6f742042757965642e0000000000000000000000000000600082015250565b60006115a6601283610f97565b91506115b182611570565b602082019050919050565b600060208201905081810360008301526115d581611599565b9050919050565b60006115e782610c4e565b91507fffffffffffffffffffffffffffffffffffffffffffffffffffffffffffffffff820361161957611618611014565b5b60018201905091905056fea264697066735822122056f61c14fd5facfbe169c8ab4b70f96d8dde097557afcefab81e4b0f58109c4764736f6c63430008110033",
  "linkReferences": {},
  "deployedLinkReferences": {}
}