{
  "_format": "hh-sol-artifact-1",
  "contractName": "ShibAfrica",
  "sourceName": "contracts/ShibaAfrica.sol",
  "abi": [
    {
      "inputs": [
        {
          "internalType": "address",
          "name": "_owner",
          "type": "address"
        },
        {
          "internalType": "address",
          "name": "_buyback",
          "type": "address"
        }
      ],
      "stateMutability": "nonpayable",
      "type": "constructor"
    },
    {
      "inputs": [
        {
          "internalType": "uint256",
          "name": "",
          "type": "uint256"
        }
      ],
      "name": "Packages",
      "outputs": [
        {
          "internalType": "uint256",
          "name": "",
          "type": "uint256"
        }
      ],
      "stateMutability": "view",
      "type": "function"
    },
    {
      "inputs": [],
      "name": "ROUTER",
      "outputs": [
        {
          "internalType": "address",
          "name": "",
          "type": "address"
        }
      ],
      "stateMutability": "view",
      "type": "function"
    },
    {
      "inputs": [],
      "name": "SHIBAFRICA",
      "outputs": [
        {
          "internalType": "address",
          "name": "",
          "type": "address"
        }
      ],
      "stateMutability": "view",
      "type": "function"
    },
    {
      "inputs": [],
      "name": "WBNB",
      "outputs": [
        {
          "internalType": "address",
          "name": "",
          "type": "address"
        }
      ],
      "stateMutability": "view",
      "type": "function"
    },
    {
      "inputs": [
        {
          "internalType": "address payable",
          "name": "referral",
          "type": "address"
        },
        {
          "internalType": "uint256",
          "name": "package",
          "type": "uint256"
        },
        {
          "internalType": "uint256",
          "name": "amount",
          "type": "uint256"
        }
      ],
      "name": "buyPackage",
      "outputs": [
        {
          "internalType": "bool",
          "name": "",
          "type": "bool"
        }
      ],
      "stateMutability": "payable",
      "type": "function"
    },
    {
      "inputs": [
        {
          "internalType": "address payable",
          "name": "referral",
          "type": "address"
        },
        {
          "internalType": "uint256[]",
          "name": "packages",
          "type": "uint256[]"
        }
      ],
      "name": "buyPackages",
      "outputs": [],
      "stateMutability": "payable",
      "type": "function"
    },
    {
      "inputs": [
        {
          "internalType": "address",
          "name": "",
          "type": "address"
        }
      ],
      "name": "levels",
      "outputs": [
        {
          "internalType": "uint256",
          "name": "",
          "type": "uint256"
        }
      ],
      "stateMutability": "view",
      "type": "function"
    }
  ],
  "bytecode": "0x608060405273bb4cdb9cbd36b01bd1cbaebf2de08d9173bc095c6000806101000a81548173ffffffffffffffffffffffffffffffffffffffff021916908373ffffffffffffffffffffffffffffffffffffffff1602179055507310ed43c718714eb63d5aa57b78b54704e256024e600160006101000a81548173ffffffffffffffffffffffffffffffffffffffff021916908373ffffffffffffffffffffffffffffffffffffffff16021790555073e31013216cdc0cf54a9da564e69c213a30435f1d600260006101000a81548173ffffffffffffffffffffffffffffffffffffffff021916908373ffffffffffffffffffffffffffffffffffffffff1602179055503480156200010f57600080fd5b5060405162001fb738038062001fb7833981810160405281019062000135919062000c8a565b81600360006101000a81548173ffffffffffffffffffffffffffffffffffffffff021916908373ffffffffffffffffffffffffffffffffffffffff160217905550600a60066000600360009054906101000a900473ffffffffffffffffffffffffffffffffffffffff1673ffffffffffffffffffffffffffffffffffffffff1673ffffffffffffffffffffffffffffffffffffffff1681526020019081526020016000208190555080600460006101000a81548173ffffffffffffffffffffffffffffffffffffffff021916908373ffffffffffffffffffffffffffffffffffffffff16021790555066b1a2bc2ec50000600560008081526020019081526020016000208190555067016345785d8a00006005600060018152602001908152602001600020819055506703782dace9d900006005600060028152602001908152602001600020819055506706f05b59d3b20000600560006003815260200190815260200160002081905550670de0b6b3a7640000600560006004815260200190815260200160002081905550671bc16d674ec80000600560006005815260200190815260200160002081905550674563918244f40000600560006006815260200190815260200160002081905550678ac7230489e800006005600060078152602001908152602001600020819055506801158e460913d0000060056000600881526020019081526020016000208190555068022b1c8c1227a000006005600060098152602001908152602001600020819055506009600660007340568e2c3632c2c54ce7a76fe4a132c2d2785d2b73ffffffffffffffffffffffffffffffffffffffff1673ffffffffffffffffffffffffffffffffffffffff1681526020019081526020016000208190555060096006600073c18dccfb00bdd894deb06cce23586bb57978239b73ffffffffffffffffffffffffffffffffffffffff1673ffffffffffffffffffffffffffffffffffffffff168152602001908152602001600020819055506009600660007374d2ffe54401f30538cfebc524f64846f8bb037c73ffffffffffffffffffffffffffffffffffffffff1673ffffffffffffffffffffffffffffffffffffffff16815260200190815260200160002081905550600960066000739a67cac5fd39f9419aec4dd0b6aca690126b0f0173ffffffffffffffffffffffffffffffffffffffff1673ffffffffffffffffffffffffffffffffffffffff1681526020019081526020016000208190555060096006600073b8a676fc48da2ea87cfb9d87a4310a14091dd10173ffffffffffffffffffffffffffffffffffffffff1673ffffffffffffffffffffffffffffffffffffffff1681526020019081526020016000208190555060096006600073ced31b5df37e13065ce9a800ef85ecd48f80f57e73ffffffffffffffffffffffffffffffffffffffff1673ffffffffffffffffffffffffffffffffffffffff16815260200190815260200160002081905550600360066000730915e78b173b1c5920eab355e5a4b95faba44f7e73ffffffffffffffffffffffffffffffffffffffff1673ffffffffffffffffffffffffffffffffffffffff16815260200190815260200160002081905550600960066000737d708f78bb312badbb6a2d9b10e643b6a2276c6e73ffffffffffffffffffffffffffffffffffffffff1673ffffffffffffffffffffffffffffffffffffffff1681526020019081526020016000208190555060046006600073255669be628ef19fda45cde6ff04ba9ff237baee73ffffffffffffffffffffffffffffffffffffffff1673ffffffffffffffffffffffffffffffffffffffff168152602001908152602001600020819055506001600660007315f896d6e8f1259e5df709737b92b3b25762363473ffffffffffffffffffffffffffffffffffffffff1673ffffffffffffffffffffffffffffffffffffffff1681526020019081526020016000208190555060036006600073f21d3d687ae470c8040ed2ccc812ad8865378eb873ffffffffffffffffffffffffffffffffffffffff1673ffffffffffffffffffffffffffffffffffffffff168152602001908152602001600020819055506009600660007340e85181e20a9eec5b150b5999edbf81d370502373ffffffffffffffffffffffffffffffffffffffff1673ffffffffffffffffffffffffffffffffffffffff16815260200190815260200160002081905550600960066000733d4409a7bad31f1d61be92b3e5c1c3be6baf98fc73ffffffffffffffffffffffffffffffffffffffff1673ffffffffffffffffffffffffffffffffffffffff1681526020019081526020016000208190555060096006600072be4d72bd5aa20c2023c0eef2e9949f338b1f9b73ffffffffffffffffffffffffffffffffffffffff1673ffffffffffffffffffffffffffffffffffffffff16815260200190815260200160002081905550600960066000731457a4a6293ff6889c64569990293be9edd5e72e73ffffffffffffffffffffffffffffffffffffffff1673ffffffffffffffffffffffffffffffffffffffff1681526020019081526020016000208190555060096006600073ddd8e3c2bb73752f76e01f0663df68f783bbe7c673ffffffffffffffffffffffffffffffffffffffff1673ffffffffffffffffffffffffffffffffffffffff16815260200190815260200160002081905550600960066000733e21e2dc7d76b6cab36c9f860423398311e9b19d73ffffffffffffffffffffffffffffffffffffffff1673ffffffffffffffffffffffffffffffffffffffff1681526020019081526020016000208190555060096006600073d805c66a13165cb31b6e6eb01f19b5b64bf76f8873ffffffffffffffffffffffffffffffffffffffff1673ffffffffffffffffffffffffffffffffffffffff1681526020019081526020016000208190555060096006600073d805c66a13165cb31b6e6eb01f19b5b64bf76f8873ffffffffffffffffffffffffffffffffffffffff1673ffffffffffffffffffffffffffffffffffffffff168152602001908152602001600020819055506009600660007326e24bfbf08e3e6ded77dade76ecd95c150a626d73ffffffffffffffffffffffffffffffffffffffff1673ffffffffffffffffffffffffffffffffffffffff16815260200190815260200160002081905550600360066000734c63067ef1faabe2d5d335a06719f7a841f2feab73ffffffffffffffffffffffffffffffffffffffff1673ffffffffffffffffffffffffffffffffffffffff16815260200190815260200160002081905550600960066000739ca635c21b833bce4581c9df15ebfeacebc45bd073ffffffffffffffffffffffffffffffffffffffff1673ffffffffffffffffffffffffffffffffffffffff16815260200190815260200160002081905550600960066000734ec4c60ead071b3ac705c261d0bb8cabb8c033e073ffffffffffffffffffffffffffffffffffffffff1673ffffffffffffffffffffffffffffffffffffffff16815260200190815260200160002081905550600960066000730709106aff4cab1c5333741ebec887368f64653773ffffffffffffffffffffffffffffffffffffffff1673ffffffffffffffffffffffffffffffffffffffff1681526020019081526020016000208190555060036006600073a708ba7f9f3fe47ffc5755a4d7160b0fee8ad1f573ffffffffffffffffffffffffffffffffffffffff1673ffffffffffffffffffffffffffffffffffffffff16815260200190815260200160002081905550505062000cd1565b600080fd5b600073ffffffffffffffffffffffffffffffffffffffff82169050919050565b600062000c528262000c25565b9050919050565b62000c648162000c45565b811462000c7057600080fd5b50565b60008151905062000c848162000c59565b92915050565b6000806040838503121562000ca45762000ca362000c20565b5b600062000cb48582860162000c73565b925050602062000cc78582860162000c73565b9150509250929050565b6112d68062000ce16000396000f3fe6080604052600436106100705760003560e01c80638dd950021161004e5780638dd950021461010d5780639ca04d6414610138578063c7ef078c14610154578063f60f384b1461019157610070565b806332fe7b261461007557806347082db3146100a05780635e9d306e146100dd575b600080fd5b34801561008157600080fd5b5061008a6101bc565b6040516100979190610a28565b60405180910390f35b3480156100ac57600080fd5b506100c760048036038101906100c29190610a83565b6101e2565b6040516100d49190610ac9565b60405180910390f35b6100f760048036038101906100f29190610b4e565b6101fa565b6040516101049190610bbc565b60405180910390f35b34801561011957600080fd5b50610122610725565b60405161012f9190610a28565b60405180910390f35b610152600480360381019061014d9190610d30565b610749565b005b34801561016057600080fd5b5061017b60048036038101906101769190610d8c565b6109a9565b6040516101889190610ac9565b60405180910390f35b34801561019d57600080fd5b506101a66109c1565b6040516101b39190610a28565b60405180910390f35b600160009054906101000a900473ffffffffffffffffffffffffffffffffffffffff1681565b60066020528060005260406000206000915090505481565b6000826001811015801561020f575060098111155b61024e576040517f08c379a000000000000000000000000000000000000000000000000000000000815260040161024590610e16565b60405180910390fd5b6001600660003373ffffffffffffffffffffffffffffffffffffffff1673ffffffffffffffffffffffffffffffffffffffff1681526020019081526020016000205461029a9190610e65565b84036102e55783600660003373ffffffffffffffffffffffffffffffffffffffff1673ffffffffffffffffffffffffffffffffffffffff168152602001908152602001600020819055505b6060600267ffffffffffffffff81111561030257610301610bed565b5b6040519080825280602002602001820160405280156103305781602001602082028036833780820191505090505b50905060008054906101000a900473ffffffffffffffffffffffffffffffffffffffff168160008151811061036857610367610e99565b5b602002602001019073ffffffffffffffffffffffffffffffffffffffff16908173ffffffffffffffffffffffffffffffffffffffff1681525050600260009054906101000a900473ffffffffffffffffffffffffffffffffffffffff16816001815181106103d9576103d8610e99565b5b602002602001019073ffffffffffffffffffffffffffffffffffffffff16908173ffffffffffffffffffffffffffffffffffffffff1681525050600060648560236104249190610ec8565b61042e9190610f39565b90506000606486601e6104419190610ec8565b61044b9190610f39565b90506000606487601461045e9190610ec8565b6104689190610f39565b90506000606488600f61047b9190610ec8565b6104859190610f39565b9050600060648460316104989190610ec8565b6104a29190610f39565b905089600660008d73ffffffffffffffffffffffffffffffffffffffff1673ffffffffffffffffffffffffffffffffffffffff1681526020019081526020016000205410610536578a73ffffffffffffffffffffffffffffffffffffffff166108fc869081150290604051600060405180830381858888f19350505050158015610530573d6000803e3d6000fd5b506105a0565b600460009054906101000a900473ffffffffffffffffffffffffffffffffffffffff1673ffffffffffffffffffffffffffffffffffffffff166108fc869081150290604051600060405180830381858888f1935050505015801561059e573d6000803e3d6000fd5b505b600460009054906101000a900473ffffffffffffffffffffffffffffffffffffffff1673ffffffffffffffffffffffffffffffffffffffff166108fc839081150290604051600060405180830381858888f19350505050158015610608573d6000803e3d6000fd5b50600360009054906101000a900473ffffffffffffffffffffffffffffffffffffffff1673ffffffffffffffffffffffffffffffffffffffff166108fc849081150290604051600060405180830381858888f19350505050158015610671573d6000803e3d6000fd5b50600160009054906101000a900473ffffffffffffffffffffffffffffffffffffffff1673ffffffffffffffffffffffffffffffffffffffff1663b6f9de958583893361012c426106c29190610e65565b6040518663ffffffff1660e01b81526004016106e19493929190611028565b6000604051808303818588803b1580156106fa57600080fd5b505af115801561070e573d6000803e3d6000fd5b505050505060019750505050505050509392505050565b60008054906101000a900473ffffffffffffffffffffffffffffffffffffffff1681565b6000349050600660003373ffffffffffffffffffffffffffffffffffffffff1673ffffffffffffffffffffffffffffffffffffffff16815260200190815260200160002054826000815181106107a2576107a1610e99565b5b602002602001015110156107eb576040517f08c379a00000000000000000000000000000000000000000000000000000000081526004016107e2906110c0565b60405180910390fd5b60005b82518110156109a3576001835161080591906110e0565b811461089a5760018360018361081b9190610e65565b8151811061082c5761082b610e99565b5b602002602001015161083e91906110e0565b83828151811061085157610850610e99565b5b602002602001015114610899576040517f08c379a000000000000000000000000000000000000000000000000000000000815260040161089090611160565b60405180910390fd5b5b6005600082815260200190815260200160002054826108b991906110e0565b915060008210156108ff576040517f08c379a00000000000000000000000000000000000000000000000000000000081526004016108f6906111cc565b60405180910390fd5b6109518484838151811061091657610915610e99565b5b60200260200101516005600087868151811061093557610934610e99565b5b60200260200101518152602001908152602001600020546101fa565b610990576040517f08c379a000000000000000000000000000000000000000000000000000000000815260040161098790611238565b60405180910390fd5b808061099b90611258565b9150506107ee565b50505050565b60056020528060005260406000206000915090505481565b600260009054906101000a900473ffffffffffffffffffffffffffffffffffffffff1681565b600073ffffffffffffffffffffffffffffffffffffffff82169050919050565b6000610a12826109e7565b9050919050565b610a2281610a07565b82525050565b6000602082019050610a3d6000830184610a19565b92915050565b6000604051905090565b600080fd5b600080fd5b610a6081610a07565b8114610a6b57600080fd5b50565b600081359050610a7d81610a57565b92915050565b600060208284031215610a9957610a98610a4d565b5b6000610aa784828501610a6e565b91505092915050565b6000819050919050565b610ac381610ab0565b82525050565b6000602082019050610ade6000830184610aba565b92915050565b6000610aef826109e7565b9050919050565b610aff81610ae4565b8114610b0a57600080fd5b50565b600081359050610b1c81610af6565b92915050565b610b2b81610ab0565b8114610b3657600080fd5b50565b600081359050610b4881610b22565b92915050565b600080600060608486031215610b6757610b66610a4d565b5b6000610b7586828701610b0d565b9350506020610b8686828701610b39565b9250506040610b9786828701610b39565b9150509250925092565b60008115159050919050565b610bb681610ba1565b82525050565b6000602082019050610bd16000830184610bad565b92915050565b600080fd5b6000601f19601f8301169050919050565b7f4e487b7100000000000000000000000000000000000000000000000000000000600052604160045260246000fd5b610c2582610bdc565b810181811067ffffffffffffffff82111715610c4457610c43610bed565b5b80604052505050565b6000610c57610a43565b9050610c638282610c1c565b919050565b600067ffffffffffffffff821115610c8357610c82610bed565b5b602082029050602081019050919050565b600080fd5b6000610cac610ca784610c68565b610c4d565b90508083825260208201905060208402830185811115610ccf57610cce610c94565b5b835b81811015610cf85780610ce48882610b39565b845260208401935050602081019050610cd1565b5050509392505050565b600082601f830112610d1757610d16610bd7565b5b8135610d27848260208601610c99565b91505092915050565b60008060408385031215610d4757610d46610a4d565b5b6000610d5585828601610b0d565b925050602083013567ffffffffffffffff811115610d7657610d75610a52565b5b610d8285828601610d02565b9150509250929050565b600060208284031215610da257610da1610a4d565b5b6000610db084828501610b39565b91505092915050565b600082825260208201905092915050565b7f496e76616c6964205061636b6167652e00000000000000000000000000000000600082015250565b6000610e00601083610db9565b9150610e0b82610dca565b602082019050919050565b60006020820190508181036000830152610e2f81610df3565b9050919050565b7f4e487b7100000000000000000000000000000000000000000000000000000000600052601160045260246000fd5b6000610e7082610ab0565b9150610e7b83610ab0565b9250828201905080821115610e9357610e92610e36565b5b92915050565b7f4e487b7100000000000000000000000000000000000000000000000000000000600052603260045260246000fd5b6000610ed382610ab0565b9150610ede83610ab0565b9250828202610eec81610ab0565b91508282048414831517610f0357610f02610e36565b5b5092915050565b7f4e487b7100000000000000000000000000000000000000000000000000000000600052601260045260246000fd5b6000610f4482610ab0565b9150610f4f83610ab0565b925082610f5f57610f5e610f0a565b5b828204905092915050565b600081519050919050565b600082825260208201905092915050565b6000819050602082019050919050565b610f9f81610a07565b82525050565b6000610fb18383610f96565b60208301905092915050565b6000602082019050919050565b6000610fd582610f6a565b610fdf8185610f75565b9350610fea83610f86565b8060005b8381101561101b5781516110028882610fa5565b975061100d83610fbd565b925050600181019050610fee565b5085935050505092915050565b600060808201905061103d6000830187610aba565b818103602083015261104f8186610fca565b905061105e6040830185610a19565b61106b6060830184610aba565b95945050505050565b7f496e76616c6964204c6576656c2e000000000000000000000000000000000000600082015250565b60006110aa600e83610db9565b91506110b582611074565b602082019050919050565b600060208201905081810360008301526110d98161109d565b9050919050565b60006110eb82610ab0565b91506110f683610ab0565b925082820390508181111561110e5761110d610e36565b5b92915050565b7f4e6f7420436f6e73656375746976652e00000000000000000000000000000000600082015250565b600061114a601083610db9565b915061115582611114565b602082019050919050565b600060208201905081810360008301526111798161113d565b9050919050565b7f496e76616c6964205061796d656e742e00000000000000000000000000000000600082015250565b60006111b6601083610db9565b91506111c182611180565b602082019050919050565b600060208201905081810360008301526111e5816111a9565b9050919050565b7f5061636b616765206e6f742042757965642e0000000000000000000000000000600082015250565b6000611222601283610db9565b915061122d826111ec565b602082019050919050565b6000602082019050818103600083015261125181611215565b9050919050565b600061126382610ab0565b91507fffffffffffffffffffffffffffffffffffffffffffffffffffffffffffffffff820361129557611294610e36565b5b60018201905091905056fea264697066735822122035823ef43e69e0e7e4420f3f7a8edbd2be2c947542a469231de4b98266ba7aee64736f6c63430008110033",
  "linkReferences": {},
  "deployedLinkReferences": {}
}