{
  "_format": "hh-sol-artifact-1",
  "contractName": "Shiba2R",
  "sourceName": "contracts/Shiba2R.sol",
  "abi": [
    {
      "inputs": [],
      "stateMutability": "nonpayable",
      "type": "constructor"
    },
    {
      "anonymous": false,
      "inputs": [
        {
          "indexed": true,
          "internalType": "address",
          "name": "owner",
          "type": "address"
        },
        {
          "indexed": true,
          "internalType": "address",
          "name": "spender",
          "type": "address"
        },
        {
          "indexed": false,
          "internalType": "uint256",
          "name": "value",
          "type": "uint256"
        }
      ],
      "name": "Approval",
      "type": "event"
    },
    {
      "anonymous": false,
      "inputs": [
        {
          "indexed": false,
          "internalType": "uint256",
          "name": "amountCRO",
          "type": "uint256"
        },
        {
          "indexed": false,
          "internalType": "uint256",
          "name": "amountBOG",
          "type": "uint256"
        }
      ],
      "name": "AutoLiquify",
      "type": "event"
    },
    {
      "anonymous": false,
      "inputs": [
        {
          "indexed": false,
          "internalType": "address",
          "name": "botAddress",
          "type": "address"
        },
        {
          "indexed": true,
          "internalType": "bool",
          "name": "value",
          "type": "bool"
        }
      ],
      "name": "BlacklistedUser",
      "type": "event"
    },
    {
      "anonymous": false,
      "inputs": [
        {
          "indexed": false,
          "internalType": "address",
          "name": "owner",
          "type": "address"
        }
      ],
      "name": "OwnershipTransferred",
      "type": "event"
    },
    {
      "anonymous": false,
      "inputs": [
        {
          "indexed": true,
          "internalType": "address",
          "name": "from",
          "type": "address"
        },
        {
          "indexed": true,
          "internalType": "address",
          "name": "to",
          "type": "address"
        },
        {
          "indexed": false,
          "internalType": "uint256",
          "name": "value",
          "type": "uint256"
        }
      ],
      "name": "Transfer",
      "type": "event"
    },
    {
      "inputs": [
        {
          "internalType": "uint256",
          "name": "amount",
          "type": "uint256"
        },
        {
          "internalType": "address payable",
          "name": "receiver",
          "type": "address"
        }
      ],
      "name": "RescueTokens",
      "outputs": [],
      "stateMutability": "nonpayable",
      "type": "function"
    },
    {
      "inputs": [],
      "name": "_maxTxAmount",
      "outputs": [
        {
          "internalType": "uint256",
          "name": "",
          "type": "uint256"
        }
      ],
      "stateMutability": "view",
      "type": "function"
    },
    {
      "inputs": [],
      "name": "_walletMax",
      "outputs": [
        {
          "internalType": "uint256",
          "name": "",
          "type": "uint256"
        }
      ],
      "stateMutability": "view",
      "type": "function"
    },
    {
      "inputs": [
        {
          "internalType": "address",
          "name": "holder",
          "type": "address"
        },
        {
          "internalType": "address",
          "name": "spender",
          "type": "address"
        }
      ],
      "name": "allowance",
      "outputs": [
        {
          "internalType": "uint256",
          "name": "",
          "type": "uint256"
        }
      ],
      "stateMutability": "view",
      "type": "function"
    },
    {
      "inputs": [
        {
          "internalType": "address",
          "name": "spender",
          "type": "address"
        },
        {
          "internalType": "uint256",
          "name": "amount",
          "type": "uint256"
        }
      ],
      "name": "approve",
      "outputs": [
        {
          "internalType": "bool",
          "name": "",
          "type": "bool"
        }
      ],
      "stateMutability": "nonpayable",
      "type": "function"
    },
    {
      "inputs": [
        {
          "internalType": "address",
          "name": "spender",
          "type": "address"
        }
      ],
      "name": "approveMax",
      "outputs": [
        {
          "internalType": "bool",
          "name": "",
          "type": "bool"
        }
      ],
      "stateMutability": "nonpayable",
      "type": "function"
    },
    {
      "inputs": [
        {
          "internalType": "address",
          "name": "adr",
          "type": "address"
        }
      ],
      "name": "authorize",
      "outputs": [],
      "stateMutability": "nonpayable",
      "type": "function"
    },
    {
      "inputs": [],
      "name": "autoLiquidityReceiver",
      "outputs": [
        {
          "internalType": "address",
          "name": "",
          "type": "address"
        }
      ],
      "stateMutability": "view",
      "type": "function"
    },
    {
      "inputs": [
        {
          "internalType": "address",
          "name": "account",
          "type": "address"
        }
      ],
      "name": "balanceOf",
      "outputs": [
        {
          "internalType": "uint256",
          "name": "",
          "type": "uint256"
        }
      ],
      "stateMutability": "view",
      "type": "function"
    },
    {
      "inputs": [
        {
          "internalType": "address",
          "name": "botAddress",
          "type": "address"
        },
        {
          "internalType": "bool",
          "name": "isban",
          "type": "bool"
        }
      ],
      "name": "blacklistSniper",
      "outputs": [],
      "stateMutability": "nonpayable",
      "type": "function"
    },
    {
      "inputs": [
        {
          "internalType": "uint256",
          "name": "newinPeriod",
          "type": "uint256"
        },
        {
          "internalType": "uint256",
          "name": "newMinDistribution",
          "type": "uint256"
        }
      ],
      "name": "changeDistributionCriteria",
      "outputs": [],
      "stateMutability": "nonpayable",
      "type": "function"
    },
    {
      "inputs": [
        {
          "internalType": "uint256",
          "name": "gas",
          "type": "uint256"
        }
      ],
      "name": "changeDistributorSettings",
      "outputs": [],
      "stateMutability": "nonpayable",
      "type": "function"
    },
    {
      "inputs": [
        {
          "internalType": "address",
          "name": "newLiquidityReceiver",
          "type": "address"
        },
        {
          "internalType": "address",
          "name": "newMarketingWallet",
          "type": "address"
        },
        {
          "internalType": "address",
          "name": "newteamWallet",
          "type": "address"
        }
      ],
      "name": "changeFeeReceivers",
      "outputs": [],
      "stateMutability": "nonpayable",
      "type": "function"
    },
    {
      "inputs": [
        {
          "internalType": "uint256",
          "name": "newLiqFee",
          "type": "uint256"
        },
        {
          "internalType": "uint256",
          "name": "newRewardFee",
          "type": "uint256"
        },
        {
          "internalType": "uint256",
          "name": "newMarketingFee",
          "type": "uint256"
        },
        {
          "internalType": "uint256",
          "name": "newteamFee",
          "type": "uint256"
        }
      ],
      "name": "changeFees",
      "outputs": [],
      "stateMutability": "nonpayable",
      "type": "function"
    },
    {
      "inputs": [
        {
          "internalType": "uint256",
          "name": "newLiqFeeSell",
          "type": "uint256"
        },
        {
          "internalType": "uint256",
          "name": "newRewardFeeSell",
          "type": "uint256"
        },
        {
          "internalType": "uint256",
          "name": "newMarketingFeeSell",
          "type": "uint256"
        },
        {
          "internalType": "uint256",
          "name": "newteamFeeSell",
          "type": "uint256"
        }
      ],
      "name": "changeFeesSell",
      "outputs": [],
      "stateMutability": "nonpayable",
      "type": "function"
    },
    {
      "inputs": [
        {
          "internalType": "address",
          "name": "holder",
          "type": "address"
        },
        {
          "internalType": "bool",
          "name": "exempt",
          "type": "bool"
        }
      ],
      "name": "changeIsDividendExempt",
      "outputs": [],
      "stateMutability": "nonpayable",
      "type": "function"
    },
    {
      "inputs": [
        {
          "internalType": "address",
          "name": "holder",
          "type": "address"
        },
        {
          "internalType": "bool",
          "name": "exempt",
          "type": "bool"
        }
      ],
      "name": "changeIsNoTax",
      "outputs": [],
      "stateMutability": "nonpayable",
      "type": "function"
    },
    {
      "inputs": [
        {
          "internalType": "address",
          "name": "holder",
          "type": "address"
        },
        {
          "internalType": "bool",
          "name": "exempt",
          "type": "bool"
        }
      ],
      "name": "changeIsTxLimitExempt",
      "outputs": [],
      "stateMutability": "nonpayable",
      "type": "function"
    },
    {
      "inputs": [
        {
          "internalType": "bool",
          "name": "newValue",
          "type": "bool"
        }
      ],
      "name": "changeNoBigGuys",
      "outputs": [],
      "stateMutability": "nonpayable",
      "type": "function"
    },
    {
      "inputs": [
        {
          "internalType": "bool",
          "name": "enableSwapBack",
          "type": "bool"
        },
        {
          "internalType": "uint256",
          "name": "newSwapBackLimit",
          "type": "uint256"
        },
        {
          "internalType": "bool",
          "name": "swapByLimitOnly",
          "type": "bool"
        }
      ],
      "name": "changeSwapBackSettings",
      "outputs": [],
      "stateMutability": "nonpayable",
      "type": "function"
    },
    {
      "inputs": [
        {
          "internalType": "uint256",
          "name": "newLimit",
          "type": "uint256"
        }
      ],
      "name": "changeTxLimit",
      "outputs": [],
      "stateMutability": "nonpayable",
      "type": "function"
    },
    {
      "inputs": [
        {
          "internalType": "uint256",
          "name": "newLimit",
          "type": "uint256"
        }
      ],
      "name": "changeWalletLimit",
      "outputs": [],
      "stateMutability": "nonpayable",
      "type": "function"
    },
    {
      "inputs": [],
      "name": "decimals",
      "outputs": [
        {
          "internalType": "uint8",
          "name": "",
          "type": "uint8"
        }
      ],
      "stateMutability": "pure",
      "type": "function"
    },
    {
      "inputs": [],
      "name": "dividendDistributor",
      "outputs": [
        {
          "internalType": "contract DividendDistributor",
          "name": "",
          "type": "address"
        }
      ],
      "stateMutability": "view",
      "type": "function"
    },
    {
      "inputs": [],
      "name": "getCirculatingSupply",
      "outputs": [
        {
          "internalType": "uint256",
          "name": "",
          "type": "uint256"
        }
      ],
      "stateMutability": "view",
      "type": "function"
    },
    {
      "inputs": [],
      "name": "getOwner",
      "outputs": [
        {
          "internalType": "address",
          "name": "",
          "type": "address"
        }
      ],
      "stateMutability": "view",
      "type": "function"
    },
    {
      "inputs": [
        {
          "internalType": "address",
          "name": "adr",
          "type": "address"
        }
      ],
      "name": "isAuthorized",
      "outputs": [
        {
          "internalType": "bool",
          "name": "",
          "type": "bool"
        }
      ],
      "stateMutability": "view",
      "type": "function"
    },
    {
      "inputs": [
        {
          "internalType": "address",
          "name": "",
          "type": "address"
        }
      ],
      "name": "isBot",
      "outputs": [
        {
          "internalType": "bool",
          "name": "",
          "type": "bool"
        }
      ],
      "stateMutability": "view",
      "type": "function"
    },
    {
      "inputs": [
        {
          "internalType": "address",
          "name": "",
          "type": "address"
        }
      ],
      "name": "isDividendExempt",
      "outputs": [
        {
          "internalType": "bool",
          "name": "",
          "type": "bool"
        }
      ],
      "stateMutability": "view",
      "type": "function"
    },
    {
      "inputs": [
        {
          "internalType": "address",
          "name": "",
          "type": "address"
        }
      ],
      "name": "isFeeExempt",
      "outputs": [
        {
          "internalType": "bool",
          "name": "",
          "type": "bool"
        }
      ],
      "stateMutability": "view",
      "type": "function"
    },
    {
      "inputs": [
        {
          "internalType": "address",
          "name": "account",
          "type": "address"
        }
      ],
      "name": "isOwner",
      "outputs": [
        {
          "internalType": "bool",
          "name": "",
          "type": "bool"
        }
      ],
      "stateMutability": "view",
      "type": "function"
    },
    {
      "inputs": [
        {
          "internalType": "address",
          "name": "",
          "type": "address"
        }
      ],
      "name": "isTxLimitExempt",
      "outputs": [
        {
          "internalType": "bool",
          "name": "",
          "type": "bool"
        }
      ],
      "stateMutability": "view",
      "type": "function"
    },
    {
      "inputs": [],
      "name": "launchedAt",
      "outputs": [
        {
          "internalType": "uint256",
          "name": "",
          "type": "uint256"
        }
      ],
      "stateMutability": "view",
      "type": "function"
    },
    {
      "inputs": [],
      "name": "liquidityFee",
      "outputs": [
        {
          "internalType": "uint256",
          "name": "",
          "type": "uint256"
        }
      ],
      "stateMutability": "view",
      "type": "function"
    },
    {
      "inputs": [],
      "name": "liquidityFeeSell",
      "outputs": [
        {
          "internalType": "uint256",
          "name": "",
          "type": "uint256"
        }
      ],
      "stateMutability": "view",
      "type": "function"
    },
    {
      "inputs": [],
      "name": "marketingFee",
      "outputs": [
        {
          "internalType": "uint256",
          "name": "",
          "type": "uint256"
        }
      ],
      "stateMutability": "view",
      "type": "function"
    },
    {
      "inputs": [],
      "name": "marketingFeeSell",
      "outputs": [
        {
          "internalType": "uint256",
          "name": "",
          "type": "uint256"
        }
      ],
      "stateMutability": "view",
      "type": "function"
    },
    {
      "inputs": [],
      "name": "marketingWallet",
      "outputs": [
        {
          "internalType": "address",
          "name": "",
          "type": "address"
        }
      ],
      "stateMutability": "view",
      "type": "function"
    },
    {
      "inputs": [],
      "name": "name",
      "outputs": [
        {
          "internalType": "string",
          "name": "",
          "type": "string"
        }
      ],
      "stateMutability": "pure",
      "type": "function"
    },
    {
      "inputs": [],
      "name": "pair",
      "outputs": [
        {
          "internalType": "address",
          "name": "",
          "type": "address"
        }
      ],
      "stateMutability": "view",
      "type": "function"
    },
    {
      "inputs": [],
      "name": "restrictWhales",
      "outputs": [
        {
          "internalType": "bool",
          "name": "",
          "type": "bool"
        }
      ],
      "stateMutability": "view",
      "type": "function"
    },
    {
      "inputs": [],
      "name": "rewardsFee",
      "outputs": [
        {
          "internalType": "uint256",
          "name": "",
          "type": "uint256"
        }
      ],
      "stateMutability": "view",
      "type": "function"
    },
    {
      "inputs": [],
      "name": "rewardsFeeSell",
      "outputs": [
        {
          "internalType": "uint256",
          "name": "",
          "type": "uint256"
        }
      ],
      "stateMutability": "view",
      "type": "function"
    },
    {
      "inputs": [],
      "name": "router",
      "outputs": [
        {
          "internalType": "contract IPancakeRouter02",
          "name": "",
          "type": "address"
        }
      ],
      "stateMutability": "view",
      "type": "function"
    },
    {
      "inputs": [],
      "name": "swapAndLiquifyByLimitOnly",
      "outputs": [
        {
          "internalType": "bool",
          "name": "",
          "type": "bool"
        }
      ],
      "stateMutability": "view",
      "type": "function"
    },
    {
      "inputs": [],
      "name": "swapAndLiquifyEnabled",
      "outputs": [
        {
          "internalType": "bool",
          "name": "",
          "type": "bool"
        }
      ],
      "stateMutability": "view",
      "type": "function"
    },
    {
      "inputs": [],
      "name": "swapThreshold",
      "outputs": [
        {
          "internalType": "uint256",
          "name": "",
          "type": "uint256"
        }
      ],
      "stateMutability": "view",
      "type": "function"
    },
    {
      "inputs": [],
      "name": "symbol",
      "outputs": [
        {
          "internalType": "string",
          "name": "",
          "type": "string"
        }
      ],
      "stateMutability": "pure",
      "type": "function"
    },
    {
      "inputs": [],
      "name": "teamFee",
      "outputs": [
        {
          "internalType": "uint256",
          "name": "",
          "type": "uint256"
        }
      ],
      "stateMutability": "view",
      "type": "function"
    },
    {
      "inputs": [],
      "name": "teamFeeSell",
      "outputs": [
        {
          "internalType": "uint256",
          "name": "",
          "type": "uint256"
        }
      ],
      "stateMutability": "view",
      "type": "function"
    },
    {
      "inputs": [],
      "name": "timeToWait",
      "outputs": [
        {
          "internalType": "uint256",
          "name": "",
          "type": "uint256"
        }
      ],
      "stateMutability": "view",
      "type": "function"
    },
    {
      "inputs": [],
      "name": "totalFee",
      "outputs": [
        {
          "internalType": "uint256",
          "name": "",
          "type": "uint256"
        }
      ],
      "stateMutability": "view",
      "type": "function"
    },
    {
      "inputs": [],
      "name": "totalFeeSell",
      "outputs": [
        {
          "internalType": "uint256",
          "name": "",
          "type": "uint256"
        }
      ],
      "stateMutability": "view",
      "type": "function"
    },
    {
      "inputs": [],
      "name": "totalSupply",
      "outputs": [
        {
          "internalType": "uint256",
          "name": "",
          "type": "uint256"
        }
      ],
      "stateMutability": "view",
      "type": "function"
    },
    {
      "inputs": [],
      "name": "tradingOpen",
      "outputs": [
        {
          "internalType": "bool",
          "name": "",
          "type": "bool"
        }
      ],
      "stateMutability": "view",
      "type": "function"
    },
    {
      "inputs": [
        {
          "internalType": "bool",
          "name": "newStatus",
          "type": "bool"
        }
      ],
      "name": "tradingStatus",
      "outputs": [],
      "stateMutability": "nonpayable",
      "type": "function"
    },
    {
      "inputs": [
        {
          "internalType": "address",
          "name": "recipient",
          "type": "address"
        },
        {
          "internalType": "uint256",
          "name": "amount",
          "type": "uint256"
        }
      ],
      "name": "transfer",
      "outputs": [
        {
          "internalType": "bool",
          "name": "",
          "type": "bool"
        }
      ],
      "stateMutability": "nonpayable",
      "type": "function"
    },
    {
      "inputs": [
        {
          "internalType": "address",
          "name": "sender",
          "type": "address"
        },
        {
          "internalType": "address",
          "name": "recipient",
          "type": "address"
        },
        {
          "internalType": "uint256",
          "name": "amount",
          "type": "uint256"
        }
      ],
      "name": "transferFrom",
      "outputs": [
        {
          "internalType": "bool",
          "name": "",
          "type": "bool"
        }
      ],
      "stateMutability": "nonpayable",
      "type": "function"
    },
    {
      "inputs": [
        {
          "internalType": "address payable",
          "name": "adr",
          "type": "address"
        }
      ],
      "name": "transferOwnership",
      "outputs": [],
      "stateMutability": "nonpayable",
      "type": "function"
    },
    {
      "inputs": [
        {
          "internalType": "address",
          "name": "adr",
          "type": "address"
        }
      ],
      "name": "unauthorize",
      "outputs": [],
      "stateMutability": "nonpayable",
      "type": "function"
    },
    {
      "stateMutability": "payable",
      "type": "receive"
    }
  ],
  "bytecode": "0x608060405261dead600260006101000a81548173ffffffffffffffffffffffffffffffffffffffff021916908373ffffffffffffffffffffffffffffffffffffffff1602179055506000600360006101000a81548173ffffffffffffffffffffffffffffffffffffffff021916908373ffffffffffffffffffffffffffffffffffffffff1602179055506002600a62000099919062000f19565b6305f5e100620000aa919062000f6a565b6004556002600a620000bd919062000f19565b6209eb10620000cd919062000f6a565b6005556002600a620000e0919062000f19565b621e8480620000f0919062000f6a565b6006556001600760006101000a81548160ff0219169083151502179055506002600e556004600f556000601055600460115560006012556004601355600260145560006015556004601655600c60175530601860006101000a81548173ffffffffffffffffffffffffffffffffffffffff021916908373ffffffffffffffffffffffffffffffffffffffff16021790555073b16815663ec1817868706fbcd58262bb1254179a601960006101000a81548173ffffffffffffffffffffffffffffffffffffffff021916908373ffffffffffffffffffffffffffffffffffffffff16021790555073b16815663ec1817868706fbcd58262bb1254179a601a60006101000a81548173ffffffffffffffffffffffffffffffffffffffff021916908373ffffffffffffffffffffffffffffffffffffffff1602179055506000601e60006101000a81548160ff0219169083151502179055506207a120601f556001602060016101000a81548160ff0219169083151502179055506000602060026101000a81548160ff0219169083151502179055506002600a62000293919062000f19565b6008620002a1919062000f6a565b6021556006602255348015620002b657600080fd5b5033806000806101000a81548173ffffffffffffffffffffffffffffffffffffffff021916908373ffffffffffffffffffffffffffffffffffffffff16021790555060018060008373ffffffffffffffffffffffffffffffffffffffff1673ffffffffffffffffffffffffffffffffffffffff16815260200190815260200160002060006101000a81548160ff0219169083151502179055505060007310ed43c718714eb63d5aa57b78b54704e256024e905080601b60006101000a81548173ffffffffffffffffffffffffffffffffffffffff021916908373ffffffffffffffffffffffffffffffffffffffff160217905550601b60009054906101000a900473ffffffffffffffffffffffffffffffffffffffff1673ffffffffffffffffffffffffffffffffffffffff1663c45a01556040518163ffffffff1660e01b8152600401602060405180830381865afa15801562000418573d6000803e3d6000fd5b505050506040513d601f19601f820116820180604052508101906200043e91906200101f565b73ffffffffffffffffffffffffffffffffffffffff1663c9c65396601b60009054906101000a900473ffffffffffffffffffffffffffffffffffffffff1673ffffffffffffffffffffffffffffffffffffffff1663ad5c46486040518163ffffffff1660e01b8152600401602060405180830381865afa158015620004c7573d6000803e3d6000fd5b505050506040513d601f19601f82011682018060405250810190620004ed91906200101f565b306040518363ffffffff1660e01b81526004016200050d92919062001062565b6020604051808303816000875af11580156200052d573d6000803e3d6000fd5b505050506040513d601f19601f820116820180604052508101906200055391906200101f565b601c60006101000a81548173ffffffffffffffffffffffffffffffffffffffff021916908373ffffffffffffffffffffffffffffffffffffffff1602179055507fffffffffffffffffffffffffffffffffffffffffffffffffffffffffffffffff600960003073ffffffffffffffffffffffffffffffffffffffff1673ffffffffffffffffffffffffffffffffffffffff1681526020019081526020016000206000601b60009054906101000a900473ffffffffffffffffffffffffffffffffffffffff1673ffffffffffffffffffffffffffffffffffffffff1673ffffffffffffffffffffffffffffffffffffffff16815260200190815260200160002081905550601b60009054906101000a900473ffffffffffffffffffffffffffffffffffffffff16604051620006879062000d71565b620006939190620010fa565b604051809103906000f080158015620006b0573d6000803e3d6000fd5b50601e60016101000a81548173ffffffffffffffffffffffffffffffffffffffff021916908373ffffffffffffffffffffffffffffffffffffffff1602179055506001600a60003373ffffffffffffffffffffffffffffffffffffffff1673ffffffffffffffffffffffffffffffffffffffff16815260200190815260200160002060006101000a81548160ff0219169083151502179055506001600a60003073ffffffffffffffffffffffffffffffffffffffff1673ffffffffffffffffffffffffffffffffffffffff16815260200190815260200160002060006101000a81548160ff0219169083151502179055506001600a6000601960009054906101000a900473ffffffffffffffffffffffffffffffffffffffff1673ffffffffffffffffffffffffffffffffffffffff1673ffffffffffffffffffffffffffffffffffffffff16815260200190815260200160002060006101000a81548160ff0219169083151502179055506001600a6000601a60009054906101000a900473ffffffffffffffffffffffffffffffffffffffff1673ffffffffffffffffffffffffffffffffffffffff1673ffffffffffffffffffffffffffffffffffffffff16815260200190815260200160002060006101000a81548160ff0219169083151502179055506001600b60003373ffffffffffffffffffffffffffffffffffffffff1673ffffffffffffffffffffffffffffffffffffffff16815260200190815260200160002060006101000a81548160ff0219169083151502179055506001600b6000601960009054906101000a900473ffffffffffffffffffffffffffffffffffffffff1673ffffffffffffffffffffffffffffffffffffffff1673ffffffffffffffffffffffffffffffffffffffff16815260200190815260200160002060006101000a81548160ff0219169083151502179055506001600b6000601c60009054906101000a900473ffffffffffffffffffffffffffffffffffffffff1673ffffffffffffffffffffffffffffffffffffffff1673ffffffffffffffffffffffffffffffffffffffff16815260200190815260200160002060006101000a81548160ff0219169083151502179055506001600c6000601c60009054906101000a900473ffffffffffffffffffffffffffffffffffffffff1673ffffffffffffffffffffffffffffffffffffffff1673ffffffffffffffffffffffffffffffffffffffff16815260200190815260200160002060006101000a81548160ff0219169083151502179055506001600c60003373ffffffffffffffffffffffffffffffffffffffff1673ffffffffffffffffffffffffffffffffffffffff16815260200190815260200160002060006101000a81548160ff0219169083151502179055506001600c60003073ffffffffffffffffffffffffffffffffffffffff1673ffffffffffffffffffffffffffffffffffffffff16815260200190815260200160002060006101000a81548160ff0219169083151502179055506001600c6000600260009054906101000a900473ffffffffffffffffffffffffffffffffffffffff1673ffffffffffffffffffffffffffffffffffffffff1673ffffffffffffffffffffffffffffffffffffffff16815260200190815260200160002060006101000a81548160ff0219169083151502179055506001600c6000600360009054906101000a900473ffffffffffffffffffffffffffffffffffffffff1673ffffffffffffffffffffffffffffffffffffffff1673ffffffffffffffffffffffffffffffffffffffff16815260200190815260200160002060006101000a81548160ff0219169083151502179055506001600c6000601a60009054906101000a900473ffffffffffffffffffffffffffffffffffffffff1673ffffffffffffffffffffffffffffffffffffffff1673ffffffffffffffffffffffffffffffffffffffff16815260200190815260200160002060006101000a81548160ff02191690831515021790555030601860006101000a81548173ffffffffffffffffffffffffffffffffffffffff021916908373ffffffffffffffffffffffffffffffffffffffff160217905550600454600860003373ffffffffffffffffffffffffffffffffffffffff1673ffffffffffffffffffffffffffffffffffffffff168152602001908152602001600020819055503373ffffffffffffffffffffffffffffffffffffffff16600073ffffffffffffffffffffffffffffffffffffffff167fddf252ad1be2c89b69c2b068fc378daa952ba7f163c4a11628f55a4df523b3ef60045460405162000d62919062001128565b60405180910390a35062001145565b6116b98062005f9683390190565b7f4e487b7100000000000000000000000000000000000000000000000000000000600052601160045260246000fd5b60008160011c9050919050565b6000808291508390505b600185111562000e0d5780860481111562000de55762000de462000d7f565b5b600185161562000df55780820291505b808102905062000e058562000dae565b945062000dc5565b94509492505050565b60008262000e28576001905062000efb565b8162000e38576000905062000efb565b816001811462000e51576002811462000e5c5762000e92565b600191505062000efb565b60ff84111562000e715762000e7062000d7f565b5b8360020a91508482111562000e8b5762000e8a62000d7f565b5b5062000efb565b5060208310610133831016604e8410600b841016171562000ecc5782820a90508381111562000ec65762000ec562000d7f565b5b62000efb565b62000edb848484600162000dbb565b9250905081840481111562000ef55762000ef462000d7f565b5b81810290505b9392505050565b6000819050919050565b600060ff82169050919050565b600062000f268262000f02565b915062000f338362000f0c565b925062000f627fffffffffffffffffffffffffffffffffffffffffffffffffffffffffffffffff848462000e16565b905092915050565b600062000f778262000f02565b915062000f848362000f02565b925082820262000f948162000f02565b9150828204841483151762000fae5762000fad62000d7f565b5b5092915050565b600080fd5b600073ffffffffffffffffffffffffffffffffffffffff82169050919050565b600062000fe78262000fba565b9050919050565b62000ff98162000fda565b81146200100557600080fd5b50565b600081519050620010198162000fee565b92915050565b60006020828403121562001038576200103762000fb5565b5b6000620010488482850162001008565b91505092915050565b6200105c8162000fda565b82525050565b600060408201905062001079600083018562001051565b62001088602083018462001051565b9392505050565b6000819050919050565b6000620010ba620010b4620010ae8462000fba565b6200108f565b62000fba565b9050919050565b6000620010ce8262001099565b9050919050565b6000620010e282620010c1565b9050919050565b620010f481620010d5565b82525050565b6000602082019050620011116000830184620010e9565b92915050565b620011228162000f02565b82525050565b60006020820190506200113f600083018462001117565b92915050565b614e4180620011556000396000f3fe60806040526004361061039b5760003560e01c8063773fcb5c116101dc578063bf56b37111610102578063dd62ed3e116100a0578063f887ea401161006f578063f887ea4014610db3578063fabe628314610dde578063fe9fbb8014610e07578063ffb54a9914610e44576103a2565b8063dd62ed3e14610cfb578063e2dd8ca014610d38578063f0b37c0414610d61578063f2fde38b14610d8a576103a2565b8063d829d3f8116100dc578063d829d3f814610c53578063d920334e14610c7c578063da00097d14610ca5578063dbe1c4d514610cd0576103a2565b8063bf56b37114610bd2578063ca33e64c14610bfd578063d7c94efd14610c28576103a2565b806395d89b411161017a578063a9f7864b11610149578063a9f7864b14610b2c578063b0a616a914610b55578063b6a5d7de14610b7e578063bad3ea6a14610ba7576103a2565b806395d89b4114610a6e57806398118cb414610a99578063a8aa1b3114610ac4578063a9059cbb14610aef576103a2565b8063807c2d9c116101b6578063807c2d9c146109b057806384f6820a146109db578063893d20e814610a065780638b42507f14610a31576103a2565b8063773fcb5c146109335780637d1db4a51461095c5780637db1342c14610987576103a2565b8063315dca29116102c1578063479f66d81161025f578063650c42261161022e578063650c4226146108775780636b67c4df146108a057806370a08231146108cb57806375f0a87414610908576103a2565b8063479f66d8146107bb5780634a74bb02146107e4578063531484161461080f578063571ac8b01461083a576103a2565b80633f4218e01161029b5780633f4218e0146106ed5780634102eedc1461072a5780634355855a1461075357806344de2e4c14610790576103a2565b8063315dca291461065e57806334c70889146106875780633bbac579146106b0576103a2565b806313374e7a116103395780632b112e49116103085780632b112e49146105a05780632bb14e1d146105cb5780632f54bf6e146105f6578063313ce56714610633576103a2565b806313374e7a146104e257806318160ddd1461050d5780631df4ccfc1461053857806323b872dd14610563576103a2565b8063095ea7b311610375578063095ea7b31461042857806309ad803d146104655780630d2959801461048e5780631107b3a5146104b7576103a2565b806303898c17146103a75780630445b667146103d257806306fdde03146103fd576103a2565b366103a257005b600080fd5b3480156103b357600080fd5b506103bc610e6f565b6040516103c99190613c06565b60405180910390f35b3480156103de57600080fd5b506103e7610e75565b6040516103f49190613c06565b60405180910390f35b34801561040957600080fd5b50610412610e7b565b60405161041f9190613cb1565b60405180910390f35b34801561043457600080fd5b5061044f600480360381019061044a9190613d62565b610eb8565b60405161045c9190613dbd565b60405180910390f35b34801561047157600080fd5b5061048c60048036038101906104879190613dd8565b610faa565b005b34801561049a57600080fd5b506104b560048036038101906104b09190613e6b565b611169565b005b3480156104c357600080fd5b506104cc6111d6565b6040516104d99190613c06565b60405180910390f35b3480156104ee57600080fd5b506104f76111dc565b6040516105049190613c06565b60405180910390f35b34801561051957600080fd5b506105226111e2565b60405161052f9190613c06565b60405180910390f35b34801561054457600080fd5b5061054d6111ec565b60405161055a9190613c06565b60405180910390f35b34801561056f57600080fd5b5061058a60048036038101906105859190613e98565b6111f2565b6040516105979190613dbd565b60405180910390f35b3480156105ac57600080fd5b506105b56113f2565b6040516105c29190613c06565b60405180910390f35b3480156105d757600080fd5b506105e0611474565b6040516105ed9190613c06565b60405180910390f35b34801561060257600080fd5b5061061d60048036038101906106189190613eeb565b61147a565b60405161062a9190613dbd565b60405180910390f35b34801561063f57600080fd5b506106486114d3565b6040516106559190613f34565b60405180910390f35b34801561066a57600080fd5b5061068560048036038101906106809190613f4f565b6114dc565b005b34801561069357600080fd5b506106ae60048036038101906106a99190613fa2565b6115ec565b005b3480156106bc57600080fd5b506106d760048036038101906106d29190613eeb565b611674565b6040516106e49190613dbd565b60405180910390f35b3480156106f957600080fd5b50610714600480360381019061070f9190613eeb565b611694565b6040516107219190613dbd565b60405180910390f35b34801561073657600080fd5b50610751600480360381019061074c9190613ff5565b6116b4565b005b34801561075f57600080fd5b5061077a60048036038101906107759190613eeb565b611757565b6040516107879190613dbd565b60405180910390f35b34801561079c57600080fd5b506107a5611777565b6040516107b29190613dbd565b60405180910390f35b3480156107c757600080fd5b506107e260048036038101906107dd9190614035565b61178a565b005b3480156107f057600080fd5b506107f96117eb565b6040516108069190613dbd565b60405180910390f35b34801561081b57600080fd5b506108246117fe565b6040516108319190613c06565b60405180910390f35b34801561084657600080fd5b50610861600480360381019061085c9190613eeb565b611804565b60405161086e9190613dbd565b60405180910390f35b34801561088357600080fd5b5061089e60048036038101906108999190613dd8565b611837565b005b3480156108ac57600080fd5b506108b56119f6565b6040516108c29190613c06565b60405180910390f35b3480156108d757600080fd5b506108f260048036038101906108ed9190613eeb565b6119fc565b6040516108ff9190613c06565b60405180910390f35b34801561091457600080fd5b5061091d611a45565b60405161092a9190614071565b60405180910390f35b34801561093f57600080fd5b5061095a60048036038101906109559190613ff5565b611a6b565b005b34801561096857600080fd5b50610971611d0b565b60405161097e9190613c06565b60405180910390f35b34801561099357600080fd5b506109ae60048036038101906109a99190614035565b611d11565b005b3480156109bc57600080fd5b506109c5611d63565b6040516109d29190613c06565b60405180910390f35b3480156109e757600080fd5b506109f0611d69565b6040516109fd9190613c06565b60405180910390f35b348015610a1257600080fd5b50610a1b611d6f565b604051610a289190614071565b60405180910390f35b348015610a3d57600080fd5b50610a586004803603810190610a539190613eeb565b611d98565b604051610a659190613dbd565b60405180910390f35b348015610a7a57600080fd5b50610a83611db8565b604051610a909190613cb1565b60405180910390f35b348015610aa557600080fd5b50610aae611df5565b604051610abb9190613c06565b60405180910390f35b348015610ad057600080fd5b50610ad9611dfb565b604051610ae69190614071565b60405180910390f35b348015610afb57600080fd5b50610b166004803603810190610b119190613d62565b611e21565b604051610b239190613dbd565b60405180910390f35b348015610b3857600080fd5b50610b536004803603810190610b4e919061408c565b611e36565b005b348015610b6157600080fd5b50610b7c6004803603810190610b77919061410a565b611f11565b005b348015610b8a57600080fd5b50610ba56004803603810190610ba09190613eeb565b611fec565b005b348015610bb357600080fd5b50610bbc61208e565b604051610bc991906141a9565b60405180910390f35b348015610bde57600080fd5b50610be76120b4565b604051610bf49190613c06565b60405180910390f35b348015610c0957600080fd5b50610c126120ba565b604051610c1f9190614071565b60405180910390f35b348015610c3457600080fd5b50610c3d6120e0565b604051610c4a9190613c06565b60405180910390f35b348015610c5f57600080fd5b50610c7a6004803603810190610c759190613e6b565b6120e6565b005b348015610c8857600080fd5b50610ca36004803603810190610c9e9190614035565b61214b565b005b348015610cb157600080fd5b50610cba61219d565b604051610cc79190613dbd565b60405180910390f35b348015610cdc57600080fd5b50610ce56121b0565b604051610cf29190613c06565b60405180910390f35b348015610d0757600080fd5b50610d226004803603810190610d1d91906141c4565b6121b6565b604051610d2f9190613c06565b60405180910390f35b348015610d4457600080fd5b50610d5f6004803603810190610d5a9190613ff5565b61223d565b005b348015610d6d57600080fd5b50610d886004803603810190610d839190613eeb565b6122e0565b005b348015610d9657600080fd5b50610db16004803603810190610dac9190614204565b612383565b005b348015610dbf57600080fd5b50610dc861249c565b604051610dd59190614252565b60405180910390f35b348015610dea57600080fd5b50610e056004803603810190610e009190613ff5565b6124c2565b005b348015610e1357600080fd5b50610e2e6004803603810190610e299190613eeb565b612565565b604051610e3b9190613dbd565b60405180910390f35b348015610e5057600080fd5b50610e596125bb565b604051610e669190613dbd565b60405180910390f35b60135481565b60215481565b60606040518060400160405280600d81526020017f534849424132524556454e474500000000000000000000000000000000000000815250905090565b600081600960003373ffffffffffffffffffffffffffffffffffffffff1673ffffffffffffffffffffffffffffffffffffffff16815260200190815260200160002060008573ffffffffffffffffffffffffffffffffffffffff1673ffffffffffffffffffffffffffffffffffffffff168152602001908152602001600020819055508273ffffffffffffffffffffffffffffffffffffffff163373ffffffffffffffffffffffffffffffffffffffff167f8c5be1e5ebec7d5bd14f71427d1e84f3dd0314c0f7b2291e5b200ac8c7c3b92584604051610f989190613c06565b60405180910390a36001905092915050565b610fb333612565565b610ff2576040517f08c379a0000000000000000000000000000000000000000000000000000000008152600401610fe9906142b9565b60405180910390fd5b600a841115611036576040517f08c379a000000000000000000000000000000000000000000000000000000000815260040161102d9061434b565b60405180910390fd5b600a82111561107a576040517f08c379a0000000000000000000000000000000000000000000000000000000008152600401611071906143dd565b60405180910390fd5b60008110156110be576040517f08c379a00000000000000000000000000000000000000000000000000000000081526004016110b59061446f565b60405180910390fd5b6000831015611102576040517f08c379a00000000000000000000000000000000000000000000000000000000081526004016110f990614501565b60405180910390fd5b83600f8190555082601381905550816011819055508060158190555061115d60135461114f601554611141601154600f546125ce90919063ffffffff16565b6125ce90919063ffffffff16565b6125ce90919063ffffffff16565b60178190555050505050565b6111723361147a565b6111b1576040517f08c379a00000000000000000000000000000000000000000000000000000000081526004016111a89061456d565b60405180910390fd5b80601e60006101000a81548160ff0219169083151502179055506111d36125e4565b50565b600f5481565b60115481565b6000600454905090565b60165481565b60007fffffffffffffffffffffffffffffffffffffffffffffffffffffffffffffffff600960008673ffffffffffffffffffffffffffffffffffffffff1673ffffffffffffffffffffffffffffffffffffffff16815260200190815260200160002060003373ffffffffffffffffffffffffffffffffffffffff1673ffffffffffffffffffffffffffffffffffffffff16815260200190815260200160002054146113de5761135d826040518060400160405280601681526020017f496e73756666696369656e7420416c6c6f77616e636500000000000000000000815250600960008873ffffffffffffffffffffffffffffffffffffffff1673ffffffffffffffffffffffffffffffffffffffff16815260200190815260200160002060003373ffffffffffffffffffffffffffffffffffffffff1673ffffffffffffffffffffffffffffffffffffffff168152602001908152602001600020546125ed9092919063ffffffff16565b600960008673ffffffffffffffffffffffffffffffffffffffff1673ffffffffffffffffffffffffffffffffffffffff16815260200190815260200160002060003373ffffffffffffffffffffffffffffffffffffffff1673ffffffffffffffffffffffffffffffffffffffff168152602001908152602001600020819055505b6113e9848484612642565b90509392505050565b600061146f611422600360009054906101000a900473ffffffffffffffffffffffffffffffffffffffff166119fc565b611461611450600260009054906101000a900473ffffffffffffffffffffffffffffffffffffffff166119fc565b6004546130ae90919063ffffffff16565b6130ae90919063ffffffff16565b905090565b60125481565b60008060009054906101000a900473ffffffffffffffffffffffffffffffffffffffff1673ffffffffffffffffffffffffffffffffffffffff168273ffffffffffffffffffffffffffffffffffffffff16149050919050565b60006002905090565b6114e533612565565b611524576040517f08c379a000000000000000000000000000000000000000000000000000000000815260040161151b906142b9565b60405180910390fd5b82601860006101000a81548173ffffffffffffffffffffffffffffffffffffffff021916908373ffffffffffffffffffffffffffffffffffffffff16021790555081601960006101000a81548173ffffffffffffffffffffffffffffffffffffffff021916908373ffffffffffffffffffffffffffffffffffffffff16021790555080601a60006101000a81548173ffffffffffffffffffffffffffffffffffffffff021916908373ffffffffffffffffffffffffffffffffffffffff160217905550505050565b6115f533612565565b611634576040517f08c379a000000000000000000000000000000000000000000000000000000000815260040161162b906142b9565b60405180910390fd5b82602060016101000a81548160ff0219169083151502179055508160218190555080602060026101000a81548160ff021916908315150217905550505050565b600d6020528060005260406000206000915054906101000a900460ff1681565b600a6020528060005260406000206000915054906101000a900460ff1681565b6116bd33612565565b6116fc576040517f08c379a00000000000000000000000000000000000000000000000000000000081526004016116f3906142b9565b60405180910390fd5b80600a60008473ffffffffffffffffffffffffffffffffffffffff1673ffffffffffffffffffffffffffffffffffffffff16815260200190815260200160002060006101000a81548160ff0219169083151502179055505050565b600c6020528060005260406000206000915054906101000a900460ff1681565b600760009054906101000a900460ff1681565b61179333612565565b6117d2576040517f08c379a00000000000000000000000000000000000000000000000000000000081526004016117c9906142b9565b60405180910390fd5b620b71b081106117e157600080fd5b80601f8190555050565b602060019054906101000a900460ff1681565b60175481565b6000611830827fffffffffffffffffffffffffffffffffffffffffffffffffffffffffffffffff610eb8565b9050919050565b61184033612565565b61187f576040517f08c379a0000000000000000000000000000000000000000000000000000000008152600401611876906142b9565b60405180910390fd5b600a8411156118c3576040517f08c379a00000000000000000000000000000000000000000000000000000000081526004016118ba906145ff565b60405180910390fd5b600a821115611907576040517f08c379a00000000000000000000000000000000000000000000000000000000081526004016118fe90614691565b60405180910390fd5b600081101561194b576040517f08c379a000000000000000000000000000000000000000000000000000000000815260040161194290614723565b60405180910390fd5b600083101561198f576040517f08c379a0000000000000000000000000000000000000000000000000000000008152600401611986906147b5565b60405180910390fd5b83600e819055508260128190555081601081905550806014819055506119ea6012546119dc6014546119ce601054600e546125ce90919063ffffffff16565b6125ce90919063ffffffff16565b6125ce90919063ffffffff16565b60168190555050505050565b60105481565b6000600860008373ffffffffffffffffffffffffffffffffffffffff1673ffffffffffffffffffffffffffffffffffffffff168152602001908152602001600020549050919050565b601960009054906101000a900473ffffffffffffffffffffffffffffffffffffffff1681565b611a7433612565565b611ab3576040517f08c379a0000000000000000000000000000000000000000000000000000000008152600401611aaa906142b9565b60405180910390fd5b3073ffffffffffffffffffffffffffffffffffffffff168273ffffffffffffffffffffffffffffffffffffffff1614158015611b3d5750601c60009054906101000a900473ffffffffffffffffffffffffffffffffffffffff1673ffffffffffffffffffffffffffffffffffffffff168273ffffffffffffffffffffffffffffffffffffffff1614155b611b4657600080fd5b80600c60008473ffffffffffffffffffffffffffffffffffffffff1673ffffffffffffffffffffffffffffffffffffffff16815260200190815260200160002060006101000a81548160ff0219169083151502179055508015611c3857601e60019054906101000a900473ffffffffffffffffffffffffffffffffffffffff1673ffffffffffffffffffffffffffffffffffffffff166314b6ca968360006040518363ffffffff1660e01b8152600401611c01929190614810565b600060405180830381600087803b158015611c1b57600080fd5b505af1158015611c2f573d6000803e3d6000fd5b50505050611d07565b601e60019054906101000a900473ffffffffffffffffffffffffffffffffffffffff1673ffffffffffffffffffffffffffffffffffffffff166314b6ca9683600860008673ffffffffffffffffffffffffffffffffffffffff1673ffffffffffffffffffffffffffffffffffffffff168152602001908152602001600020546040518363ffffffff1660e01b8152600401611cd4929190614839565b600060405180830381600087803b158015611cee57600080fd5b505af1158015611d02573d6000803e3d6000fd5b505050505b5050565b60055481565b611d1a33612565565b611d59576040517f08c379a0000000000000000000000000000000000000000000000000000000008152600401611d50906142b9565b60405180910390fd5b8060068190555050565b60065481565b60155481565b60008060009054906101000a900473ffffffffffffffffffffffffffffffffffffffff16905090565b600b6020528060005260406000206000915054906101000a900460ff1681565b60606040518060400160405280600381526020017f5332520000000000000000000000000000000000000000000000000000000000815250905090565b600e5481565b601c60009054906101000a900473ffffffffffffffffffffffffffffffffffffffff1681565b6000611e2e338484612642565b905092915050565b611e3f33612565565b611e7e576040517f08c379a0000000000000000000000000000000000000000000000000000000008152600401611e75906142b9565b60405180910390fd5b601e60019054906101000a900473ffffffffffffffffffffffffffffffffffffffff1673ffffffffffffffffffffffffffffffffffffffff16632d48e89683836040518363ffffffff1660e01b8152600401611edb929190614862565b600060405180830381600087803b158015611ef557600080fd5b505af1158015611f09573d6000803e3d6000fd5b505050505050565b611f1a3361147a565b611f59576040517f08c379a0000000000000000000000000000000000000000000000000000000008152600401611f509061456d565b60405180910390fd5b6000479050828111611fa0576040517f08c379a0000000000000000000000000000000000000000000000000000000008152600401611f97906148d7565b60405180910390fd5b8173ffffffffffffffffffffffffffffffffffffffff166108fc849081150290604051600060405180830381858888f19350505050158015611fe6573d6000803e3d6000fd5b50505050565b611ff53361147a565b612034576040517f08c379a000000000000000000000000000000000000000000000000000000000815260040161202b9061456d565b60405180910390fd5b60018060008373ffffffffffffffffffffffffffffffffffffffff1673ffffffffffffffffffffffffffffffffffffffff16815260200190815260200160002060006101000a81548160ff02191690831515021790555050565b601e60019054906101000a900473ffffffffffffffffffffffffffffffffffffffff1681565b601d5481565b601860009054906101000a900473ffffffffffffffffffffffffffffffffffffffff1681565b60145481565b6120ef33612565565b61212e576040517f08c379a0000000000000000000000000000000000000000000000000000000008152600401612125906142b9565b60405180910390fd5b80600760006101000a81548160ff02191690831515021790555050565b61215433612565565b612193576040517f08c379a000000000000000000000000000000000000000000000000000000000815260040161218a906142b9565b60405180910390fd5b8060058190555050565b602060029054906101000a900460ff1681565b60225481565b6000600960008473ffffffffffffffffffffffffffffffffffffffff1673ffffffffffffffffffffffffffffffffffffffff16815260200190815260200160002060008373ffffffffffffffffffffffffffffffffffffffff1673ffffffffffffffffffffffffffffffffffffffff16815260200190815260200160002054905092915050565b6122463361147a565b612285576040517f08c379a000000000000000000000000000000000000000000000000000000000815260040161227c9061456d565b60405180910390fd5b80600d60008473ffffffffffffffffffffffffffffffffffffffff1673ffffffffffffffffffffffffffffffffffffffff16815260200190815260200160002060006101000a81548160ff0219169083151502179055505050565b6122e93361147a565b612328576040517f08c379a000000000000000000000000000000000000000000000000000000000815260040161231f9061456d565b60405180910390fd5b6000600160008373ffffffffffffffffffffffffffffffffffffffff1673ffffffffffffffffffffffffffffffffffffffff16815260200190815260200160002060006101000a81548160ff02191690831515021790555050565b61238c3361147a565b6123cb576040517f08c379a00000000000000000000000000000000000000000000000000000000081526004016123c29061456d565b60405180910390fd5b806000806101000a81548173ffffffffffffffffffffffffffffffffffffffff021916908373ffffffffffffffffffffffffffffffffffffffff16021790555060018060008373ffffffffffffffffffffffffffffffffffffffff1673ffffffffffffffffffffffffffffffffffffffff16815260200190815260200160002060006101000a81548160ff0219169083151502179055507f04dba622d284ed0014ee4b9a6a68386be1a4c08a4913ae272de89199cc686163816040516124919190614918565b60405180910390a150565b601b60009054906101000a900473ffffffffffffffffffffffffffffffffffffffff1681565b6124cb33612565565b61250a576040517f08c379a0000000000000000000000000000000000000000000000000000000008152600401612501906142b9565b60405180910390fd5b80600b60008473ffffffffffffffffffffffffffffffffffffffff1673ffffffffffffffffffffffffffffffffffffffff16815260200190815260200160002060006101000a81548160ff0219169083151502179055505050565b6000600160008373ffffffffffffffffffffffffffffffffffffffff1673ffffffffffffffffffffffffffffffffffffffff16815260200190815260200160002060009054906101000a900460ff169050919050565b601e60009054906101000a900460ff1681565b600081836125dc9190614962565b905092915050565b42601d81905550565b6000838311158290612635576040517f08c379a000000000000000000000000000000000000000000000000000000000815260040161262c9190613cb1565b60405180910390fd5b5082840390509392505050565b6000602060009054906101000a900460ff161561266b576126648484846130c4565b90506130a7565b600160008573ffffffffffffffffffffffffffffffffffffffff1673ffffffffffffffffffffffffffffffffffffffff16815260200190815260200160002060009054906101000a900460ff1615801561270f5750600160008473ffffffffffffffffffffffffffffffffffffffff1673ffffffffffffffffffffffffffffffffffffffff16815260200190815260200160002060009054906101000a900460ff16155b1561276457601e60009054906101000a900460ff16612763576040517f08c379a000000000000000000000000000000000000000000000000000000000815260040161275a906149e2565b60405180910390fd5b5b600554821115806127be5750600b60008473ffffffffffffffffffffffffffffffffffffffff1673ffffffffffffffffffffffffffffffffffffffff16815260200190815260200160002060009054906101000a900460ff165b6127fd576040517f08c379a00000000000000000000000000000000000000000000000000000000081526004016127f490614a4e565b60405180910390fd5b601c60009054906101000a900473ffffffffffffffffffffffffffffffffffffffff1673ffffffffffffffffffffffffffffffffffffffff163373ffffffffffffffffffffffffffffffffffffffff16141580156128685750602060009054906101000a900460ff16155b80156128805750602060019054906101000a900460ff165b80156128cd5750602154600860003073ffffffffffffffffffffffffffffffffffffffff1673ffffffffffffffffffffffffffffffffffffffff1681526020019081526020016000205410155b156128db576128da613297565b5b6128e361394d565b15801561293d5750601c60009054906101000a900473ffffffffffffffffffffffffffffffffffffffff1673ffffffffffffffffffffffffffffffffffffffff168373ffffffffffffffffffffffffffffffffffffffff16145b1561298f576000600860008673ffffffffffffffffffffffffffffffffffffffff1673ffffffffffffffffffffffffffffffffffffffff168152602001908152602001600020541161298e57600080fd5b5b602254601d5461299f9190614962565b421080156129fb5750601c60009054906101000a900473ffffffffffffffffffffffffffffffffffffffff1673ffffffffffffffffffffffffffffffffffffffff168373ffffffffffffffffffffffffffffffffffffffff1614155b15612a94576001600d60008573ffffffffffffffffffffffffffffffffffffffff1673ffffffffffffffffffffffffffffffffffffffff16815260200190815260200160002060006101000a81548160ff021916908315150217905550600115157f3159dadbd8e2d720a851b412e3358e7e44bb11734c9bfd5715340e21798e8b2584604051612a8b9190614071565b60405180910390a25b612b1d826040518060400160405280601481526020017f496e73756666696369656e742042616c616e6365000000000000000000000000815250600860008873ffffffffffffffffffffffffffffffffffffffff1673ffffffffffffffffffffffffffffffffffffffff168152602001908152602001600020546125ed9092919063ffffffff16565b600860008673ffffffffffffffffffffffffffffffffffffffff1673ffffffffffffffffffffffffffffffffffffffff16815260200190815260200160002081905550600b60008473ffffffffffffffffffffffffffffffffffffffff1673ffffffffffffffffffffffffffffffffffffffff16815260200190815260200160002060009054906101000a900460ff16158015612bc65750600760009054906101000a900460ff165b15612c2c57600654612c2083600860008773ffffffffffffffffffffffffffffffffffffffff1673ffffffffffffffffffffffffffffffffffffffff168152602001908152602001600020546125ce90919063ffffffff16565b1115612c2b57600080fd5b5b6000600a60008673ffffffffffffffffffffffffffffffffffffffff1673ffffffffffffffffffffffffffffffffffffffff16815260200190815260200160002060009054906101000a900460ff16158015612cd25750600a60008573ffffffffffffffffffffffffffffffffffffffff1673ffffffffffffffffffffffffffffffffffffffff16815260200190815260200160002060009054906101000a900460ff16155b612cdc5782612ce8565b612ce785858561395a565b5b9050612d3c81600860008773ffffffffffffffffffffffffffffffffffffffff1673ffffffffffffffffffffffffffffffffffffffff168152602001908152602001600020546125ce90919063ffffffff16565b600860008673ffffffffffffffffffffffffffffffffffffffff1673ffffffffffffffffffffffffffffffffffffffff16815260200190815260200160002081905550600c60008673ffffffffffffffffffffffffffffffffffffffff1673ffffffffffffffffffffffffffffffffffffffff16815260200190815260200160002060009054906101000a900460ff16612e9957601e60019054906101000a900473ffffffffffffffffffffffffffffffffffffffff1673ffffffffffffffffffffffffffffffffffffffff166314b6ca9686600860008973ffffffffffffffffffffffffffffffffffffffff1673ffffffffffffffffffffffffffffffffffffffff168152602001908152602001600020546040518363ffffffff1660e01b8152600401612e6c929190614839565b600060405180830381600087803b158015612e8657600080fd5b505af1925050508015612e97575060015b505b600c60008573ffffffffffffffffffffffffffffffffffffffff1673ffffffffffffffffffffffffffffffffffffffff16815260200190815260200160002060009054906101000a900460ff16612fb357601e60019054906101000a900473ffffffffffffffffffffffffffffffffffffffff1673ffffffffffffffffffffffffffffffffffffffff166314b6ca9685600860008873ffffffffffffffffffffffffffffffffffffffff1673ffffffffffffffffffffffffffffffffffffffff168152602001908152602001600020546040518363ffffffff1660e01b8152600401612f86929190614839565b600060405180830381600087803b158015612fa057600080fd5b505af1925050508015612fb1575060015b505b601e60019054906101000a900473ffffffffffffffffffffffffffffffffffffffff1673ffffffffffffffffffffffffffffffffffffffff1663ffb2c479601f546040518263ffffffff1660e01b81526004016130109190613c06565b600060405180830381600087803b15801561302a57600080fd5b505af192505050801561303b575060015b508373ffffffffffffffffffffffffffffffffffffffff168573ffffffffffffffffffffffffffffffffffffffff167fddf252ad1be2c89b69c2b068fc378daa952ba7f163c4a11628f55a4df523b3ef836040516130999190613c06565b60405180910390a360019150505b9392505050565b600081836130bc9190614a6e565b905092915050565b600061314f826040518060400160405280601481526020017f496e73756666696369656e742042616c616e6365000000000000000000000000815250600860008873ffffffffffffffffffffffffffffffffffffffff1673ffffffffffffffffffffffffffffffffffffffff168152602001908152602001600020546125ed9092919063ffffffff16565b600860008673ffffffffffffffffffffffffffffffffffffffff1673ffffffffffffffffffffffffffffffffffffffff168152602001908152602001600020819055506131e482600860008673ffffffffffffffffffffffffffffffffffffffff1673ffffffffffffffffffffffffffffffffffffffff168152602001908152602001600020546125ce90919063ffffffff16565b600860008573ffffffffffffffffffffffffffffffffffffffff1673ffffffffffffffffffffffffffffffffffffffff168152602001908152602001600020819055508273ffffffffffffffffffffffffffffffffffffffff168473ffffffffffffffffffffffffffffffffffffffff167fddf252ad1be2c89b69c2b068fc378daa952ba7f163c4a11628f55a4df523b3ef846040516132849190613c06565b60405180910390a3600190509392505050565b6001602060006101000a81548160ff0219169083151502179055506000600860003073ffffffffffffffffffffffffffffffffffffffff1673ffffffffffffffffffffffffffffffffffffffff16815260200190815260200160002054905060006133346002613326601654613318600e5487613bc190919063ffffffff16565b613bd790919063ffffffff16565b613bd790919063ffffffff16565b9050600061334b82846130ae90919063ffffffff16565b90506000600267ffffffffffffffff81111561336a57613369614aa2565b5b6040519080825280602002602001820160405280156133985781602001602082028036833780820191505090505b50905030816000815181106133b0576133af614ad1565b5b602002602001019073ffffffffffffffffffffffffffffffffffffffff16908173ffffffffffffffffffffffffffffffffffffffff1681525050601b60009054906101000a900473ffffffffffffffffffffffffffffffffffffffff1673ffffffffffffffffffffffffffffffffffffffff1663ad5c46486040518163ffffffff1660e01b8152600401602060405180830381865afa158015613457573d6000803e3d6000fd5b505050506040513d601f19601f8201168201806040525081019061347b9190614b15565b8160018151811061348f5761348e614ad1565b5b602002602001019073ffffffffffffffffffffffffffffffffffffffff16908173ffffffffffffffffffffffffffffffffffffffff1681525050601b60009054906101000a900473ffffffffffffffffffffffffffffffffffffffff1673ffffffffffffffffffffffffffffffffffffffff1663791ac9478360008430426040518663ffffffff1660e01b815260040161352d959493929190614c00565b600060405180830381600087803b15801561354757600080fd5b505af115801561355b573d6000803e3d6000fd5b505050506000479050600061359061357f6002600e54613bd790919063ffffffff16565b6016546130ae90919063ffffffff16565b905060006135ce60026135c0846135b2600e5488613bc190919063ffffffff16565b613bd790919063ffffffff16565b613bd790919063ffffffff16565b905060006135f9836135eb60125487613bc190919063ffffffff16565b613bd790919063ffffffff16565b905060006136228261361485886130ae90919063ffffffff16565b6130ae90919063ffffffff16565b9050601e60019054906101000a900473ffffffffffffffffffffffffffffffffffffffff1673ffffffffffffffffffffffffffffffffffffffff1663d0e30db0836040518263ffffffff1660e01b81526004016000604051808303818588803b15801561368e57600080fd5b505af1935050505080156136a0575060015b5060006136ca856136bc60145489613bc190919063ffffffff16565b613bd790919063ffffffff16565b905060006136e182846130ae90919063ffffffff16565b90506000601960009054906101000a900473ffffffffffffffffffffffffffffffffffffffff1673ffffffffffffffffffffffffffffffffffffffff16826175309060405161372f90614c8b565b600060405180830381858888f193505050503d806000811461376d576040519150601f19603f3d011682016040523d82523d6000602084013e613772565b606091505b505090506000601a60009054906101000a900473ffffffffffffffffffffffffffffffffffffffff1673ffffffffffffffffffffffffffffffffffffffff1684617530906040516137c290614c8b565b600060405180830381858888f193505050503d8060008114613800576040519150601f19603f3d011682016040523d82523d6000602084013e613805565b606091505b50509050600091506000905060008c111561392357601b60009054906101000a900473ffffffffffffffffffffffffffffffffffffffff1673ffffffffffffffffffffffffffffffffffffffff1663f305d71988308f600080601860009054906101000a900473ffffffffffffffffffffffffffffffffffffffff16426040518863ffffffff1660e01b81526004016138a396959493929190614ca0565b60606040518083038185885af11580156138c1573d6000803e3d6000fd5b50505050506040513d601f19601f820116820180604052508101906138e69190614d16565b5050507f424db2872186fa7e7afa7a5e902ed3b49a2ef19c2f5431e672462495dd6b4506878d60405161391a929190614862565b60405180910390a15b505050505050505050505050506000602060006101000a81548160ff021916908315150217905550565b600080601d541415905090565b6000808373ffffffffffffffffffffffffffffffffffffffff16601c60009054906101000a900473ffffffffffffffffffffffffffffffffffffffff1673ffffffffffffffffffffffffffffffffffffffff16146139ba576016546139be565b6017545b905060011515600d60008673ffffffffffffffffffffffffffffffffffffffff1673ffffffffffffffffffffffffffffffffffffffff16815260200190815260200160002060009054906101000a900460ff16151503613a215760639050613a7f565b60011515600d60008773ffffffffffffffffffffffffffffffffffffffff1673ffffffffffffffffffffffffffffffffffffffff16815260200190815260200160002060009054906101000a900460ff16151503613a7e57606390505b5b6000613aa76064613a998487613bc190919063ffffffff16565b613bd790919063ffffffff16565b9050613afb81600860003073ffffffffffffffffffffffffffffffffffffffff1673ffffffffffffffffffffffffffffffffffffffff168152602001908152602001600020546125ce90919063ffffffff16565b600860003073ffffffffffffffffffffffffffffffffffffffff1673ffffffffffffffffffffffffffffffffffffffff168152602001908152602001600020819055503073ffffffffffffffffffffffffffffffffffffffff168673ffffffffffffffffffffffffffffffffffffffff167fddf252ad1be2c89b69c2b068fc378daa952ba7f163c4a11628f55a4df523b3ef83604051613b9b9190613c06565b60405180910390a3613bb681856130ae90919063ffffffff16565b925050509392505050565b60008183613bcf9190614d69565b905092915050565b60008183613be59190614dda565b905092915050565b6000819050919050565b613c0081613bed565b82525050565b6000602082019050613c1b6000830184613bf7565b92915050565b600081519050919050565b600082825260208201905092915050565b60005b83811015613c5b578082015181840152602081019050613c40565b60008484015250505050565b6000601f19601f8301169050919050565b6000613c8382613c21565b613c8d8185613c2c565b9350613c9d818560208601613c3d565b613ca681613c67565b840191505092915050565b60006020820190508181036000830152613ccb8184613c78565b905092915050565b600080fd5b600073ffffffffffffffffffffffffffffffffffffffff82169050919050565b6000613d0382613cd8565b9050919050565b613d1381613cf8565b8114613d1e57600080fd5b50565b600081359050613d3081613d0a565b92915050565b613d3f81613bed565b8114613d4a57600080fd5b50565b600081359050613d5c81613d36565b92915050565b60008060408385031215613d7957613d78613cd3565b5b6000613d8785828601613d21565b9250506020613d9885828601613d4d565b9150509250929050565b60008115159050919050565b613db781613da2565b82525050565b6000602082019050613dd26000830184613dae565b92915050565b60008060008060808587031215613df257613df1613cd3565b5b6000613e0087828801613d4d565b9450506020613e1187828801613d4d565b9350506040613e2287828801613d4d565b9250506060613e3387828801613d4d565b91505092959194509250565b613e4881613da2565b8114613e5357600080fd5b50565b600081359050613e6581613e3f565b92915050565b600060208284031215613e8157613e80613cd3565b5b6000613e8f84828501613e56565b91505092915050565b600080600060608486031215613eb157613eb0613cd3565b5b6000613ebf86828701613d21565b9350506020613ed086828701613d21565b9250506040613ee186828701613d4d565b9150509250925092565b600060208284031215613f0157613f00613cd3565b5b6000613f0f84828501613d21565b91505092915050565b600060ff82169050919050565b613f2e81613f18565b82525050565b6000602082019050613f496000830184613f25565b92915050565b600080600060608486031215613f6857613f67613cd3565b5b6000613f7686828701613d21565b9350506020613f8786828701613d21565b9250506040613f9886828701613d21565b9150509250925092565b600080600060608486031215613fbb57613fba613cd3565b5b6000613fc986828701613e56565b9350506020613fda86828701613d4d565b9250506040613feb86828701613e56565b9150509250925092565b6000806040838503121561400c5761400b613cd3565b5b600061401a85828601613d21565b925050602061402b85828601613e56565b9150509250929050565b60006020828403121561404b5761404a613cd3565b5b600061405984828501613d4d565b91505092915050565b61406b81613cf8565b82525050565b60006020820190506140866000830184614062565b92915050565b600080604083850312156140a3576140a2613cd3565b5b60006140b185828601613d4d565b92505060206140c285828601613d4d565b9150509250929050565b60006140d782613cd8565b9050919050565b6140e7816140cc565b81146140f257600080fd5b50565b600081359050614104816140de565b92915050565b6000806040838503121561412157614120613cd3565b5b600061412f85828601613d4d565b9250506020614140858286016140f5565b9150509250929050565b6000819050919050565b600061416f61416a61416584613cd8565b61414a565b613cd8565b9050919050565b600061418182614154565b9050919050565b600061419382614176565b9050919050565b6141a381614188565b82525050565b60006020820190506141be600083018461419a565b92915050565b600080604083850312156141db576141da613cd3565b5b60006141e985828601613d21565b92505060206141fa85828601613d21565b9150509250929050565b60006020828403121561421a57614219613cd3565b5b6000614228848285016140f5565b91505092915050565b600061423c82614176565b9050919050565b61424c81614231565b82525050565b60006020820190506142676000830184614243565b92915050565b7f21415554484f52495a4544000000000000000000000000000000000000000000600082015250565b60006142a3600b83613c2c565b91506142ae8261426d565b602082019050919050565b600060208201905081810360008301526142d281614296565b9050919050565b7f4c5020546178206f6e2073656c6c732063616e206e6f7420626520686967686560008201527f72207468616e2031302500000000000000000000000000000000000000000000602082015250565b6000614335602a83613c2c565b9150614340826142d9565b604082019050919050565b6000602082019050818103600083015261436481614328565b9050919050565b7f4d61726b6574696e6720546178206f6e2073656c6c732063616e206e6f74206260008201527f6520686967686572207468616e20313025000000000000000000000000000000602082015250565b60006143c7603183613c2c565b91506143d28261436b565b604082019050919050565b600060208201905081810360008301526143f6816143ba565b9050919050565b7f5465616d20546178206f6e2073656c6c732063616e206e6f74206265206c6f7760008201527f6572207468616e20302500000000000000000000000000000000000000000000602082015250565b6000614459602a83613c2c565b9150614464826143fd565b604082019050919050565b600060208201905081810360008301526144888161444c565b9050919050565b7f5265776172647320546178206f6e2073656c6c732063616e206e6f742062652060008201527f6c6f776572207468616e20302500000000000000000000000000000000000000602082015250565b60006144eb602d83613c2c565b91506144f68261448f565b604082019050919050565b6000602082019050818103600083015261451a816144de565b9050919050565b7f214f574e45520000000000000000000000000000000000000000000000000000600082015250565b6000614557600683613c2c565b915061456282614521565b602082019050919050565b600060208201905081810360008301526145868161454a565b9050919050565b7f4c5020546178206f6e20627579732063616e206e6f742062652068696768657260008201527f207468616e203130250000000000000000000000000000000000000000000000602082015250565b60006145e9602983613c2c565b91506145f48261458d565b604082019050919050565b60006020820190508181036000830152614618816145dc565b9050919050565b7f4d61726b6574696e6720546178206f6e20627579732063616e206e6f7420626560008201527f20686967686572207468616e2031302500000000000000000000000000000000602082015250565b600061467b603083613c2c565b91506146868261461f565b604082019050919050565b600060208201905081810360008301526146aa8161466e565b9050919050565b7f5465616d20546178206f6e20627579732063616e206e6f74206265206c6f776560008201527f72207468616e2030250000000000000000000000000000000000000000000000602082015250565b600061470d602983613c2c565b9150614718826146b1565b604082019050919050565b6000602082019050818103600083015261473c81614700565b9050919050565b7f5265776172647320546178206f6e20627579732063616e206e6f74206265206c60008201527f6f776572207468616e2030250000000000000000000000000000000000000000602082015250565b600061479f602c83613c2c565b91506147aa82614743565b604082019050919050565b600060208201905081810360008301526147ce81614792565b9050919050565b6000819050919050565b60006147fa6147f56147f0846147d5565b61414a565b613bed565b9050919050565b61480a816147df565b82525050565b60006040820190506148256000830185614062565b6148326020830184614801565b9392505050565b600060408201905061484e6000830185614062565b61485b6020830184613bf7565b9392505050565b60006040820190506148776000830185613bf7565b6148846020830184613bf7565b9392505050565b7f496e73756666696369656e742043524f00000000000000000000000000000000600082015250565b60006148c1601083613c2c565b91506148cc8261488b565b602082019050919050565b600060208201905081810360008301526148f0816148b4565b9050919050565b600061490282614176565b9050919050565b614912816148f7565b82525050565b600060208201905061492d6000830184614909565b92915050565b7f4e487b7100000000000000000000000000000000000000000000000000000000600052601160045260246000fd5b600061496d82613bed565b915061497883613bed565b92508282019050808211156149905761498f614933565b5b92915050565b7f54726164696e67206e6f74206f70656e20796574000000000000000000000000600082015250565b60006149cc601483613c2c565b91506149d782614996565b602082019050919050565b600060208201905081810360008301526149fb816149bf565b9050919050565b7f5458204c696d6974204578636565646564000000000000000000000000000000600082015250565b6000614a38601183613c2c565b9150614a4382614a02565b602082019050919050565b60006020820190508181036000830152614a6781614a2b565b9050919050565b6000614a7982613bed565b9150614a8483613bed565b9250828203905081811115614a9c57614a9b614933565b5b92915050565b7f4e487b7100000000000000000000000000000000000000000000000000000000600052604160045260246000fd5b7f4e487b7100000000000000000000000000000000000000000000000000000000600052603260045260246000fd5b600081519050614b0f81613d0a565b92915050565b600060208284031215614b2b57614b2a613cd3565b5b6000614b3984828501614b00565b91505092915050565b600081519050919050565b600082825260208201905092915050565b6000819050602082019050919050565b614b7781613cf8565b82525050565b6000614b898383614b6e565b60208301905092915050565b6000602082019050919050565b6000614bad82614b42565b614bb78185614b4d565b9350614bc283614b5e565b8060005b83811015614bf3578151614bda8882614b7d565b9750614be583614b95565b925050600181019050614bc6565b5085935050505092915050565b600060a082019050614c156000830188613bf7565b614c226020830187614801565b8181036040830152614c348186614ba2565b9050614c436060830185614062565b614c506080830184613bf7565b9695505050505050565b600081905092915050565b50565b6000614c75600083614c5a565b9150614c8082614c65565b600082019050919050565b6000614c9682614c68565b9150819050919050565b600060c082019050614cb56000830189614062565b614cc26020830188613bf7565b614ccf6040830187614801565b614cdc6060830186614801565b614ce96080830185614062565b614cf660a0830184613bf7565b979650505050505050565b600081519050614d1081613d36565b92915050565b600080600060608486031215614d2f57614d2e613cd3565b5b6000614d3d86828701614d01565b9350506020614d4e86828701614d01565b9250506040614d5f86828701614d01565b9150509250925092565b6000614d7482613bed565b9150614d7f83613bed565b9250828202614d8d81613bed565b91508282048414831517614da457614da3614933565b5b5092915050565b7f4e487b7100000000000000000000000000000000000000000000000000000000600052601260045260246000fd5b6000614de582613bed565b9150614df083613bed565b925082614e0057614dff614dab565b5b82820490509291505056fea2646970667358221220225233d5dba3cceabaf681386471332e6e0a4cc0e908207b4dc045839a1e105d64736f6c6343000811003360806040526ec097ce7bc90715b34b9f1000000000600a55610e10600b556001600c553480156200002f57600080fd5b50604051620016b9380380620016b983398181016040528101906200005591906200015b565b80600160006101000a81548173ffffffffffffffffffffffffffffffffffffffff021916908373ffffffffffffffffffffffffffffffffffffffff160217905550336000806101000a81548173ffffffffffffffffffffffffffffffffffffffff021916908373ffffffffffffffffffffffffffffffffffffffff160217905550506200018d565b600080fd5b600073ffffffffffffffffffffffffffffffffffffffff82169050919050565b60006200010f82620000e2565b9050919050565b6000620001238262000102565b9050919050565b620001358162000116565b81146200014157600080fd5b50565b60008151905062000155816200012a565b92915050565b600060208284031215620001745762000173620000dd565b5b6000620001848482850162000144565b91505092915050565b61151c806200019d6000396000f3fe6080604052600436106100dd5760003560e01c8063ce7c2ac21161007f578063efca2eed11610059578063efca2eed14610291578063f0fc6bca146102bc578063ffb2c479146102d3578063ffd49c84146102fc576100dd565b8063ce7c2ac21461021d578063d0e30db01461025c578063e2d2e21914610266576100dd565b80632d48e896116100bb5780632d48e896146101735780633a98ef391461019c5780634fab0ae8146101c7578063997664d7146101f2576100dd565b806311ce023d146100e257806314b6ca961461010d57806328fd319814610136575b600080fd5b3480156100ee57600080fd5b506100f7610327565b6040516101049190611089565b60405180910390f35b34801561011957600080fd5b50610134600480360381019061012f9190611133565b61032d565b005b34801561014257600080fd5b5061015d60048036038101906101589190611173565b6105ec565b60405161016a9190611089565b60405180910390f35b34801561017f57600080fd5b5061019a600480360381019061019591906111a0565b610705565b005b3480156101a857600080fd5b506101b161076f565b6040516101be9190611089565b60405180910390f35b3480156101d357600080fd5b506101dc610775565b6040516101e99190611089565b60405180910390f35b3480156101fe57600080fd5b5061020761077b565b6040516102149190611089565b60405180910390f35b34801561022957600080fd5b50610244600480360381019061023f9190611173565b610781565b604051610253939291906111e0565b60405180910390f35b6102646107ab565b005b34801561027257600080fd5b5061027b610863565b6040516102889190611089565b60405180910390f35b34801561029d57600080fd5b506102a6610869565b6040516102b39190611089565b60405180910390f35b3480156102c857600080fd5b506102d161086f565b005b3480156102df57600080fd5b506102fa60048036038101906102f59190611217565b6108c2565b005b34801561030857600080fd5b50610311610a55565b60405161031e9190611089565b60405180910390f35b600a5481565b60008054906101000a900473ffffffffffffffffffffffffffffffffffffffff1673ffffffffffffffffffffffffffffffffffffffff163373ffffffffffffffffffffffffffffffffffffffff161461038557600080fd5b6000600560008473ffffffffffffffffffffffffffffffffffffffff1673ffffffffffffffffffffffffffffffffffffffff1681526020019081526020016000206000015411156103da576103d982610a5b565b5b60008111801561042c57506000600560008473ffffffffffffffffffffffffffffffffffffffff1673ffffffffffffffffffffffffffffffffffffffff16815260200190815260200160002060000154145b1561043f5761043a82610cc3565b6104a1565b60008114801561049157506000600560008473ffffffffffffffffffffffffffffffffffffffff1673ffffffffffffffffffffffffffffffffffffffff16815260200190815260200160002060000154115b156104a05761049f82610d72565b5b5b61050a816104fc600560008673ffffffffffffffffffffffffffffffffffffffff1673ffffffffffffffffffffffffffffffffffffffff16815260200190815260200160002060000154600654610f7990919063ffffffff16565b610f8f90919063ffffffff16565b60068190555080600560008473ffffffffffffffffffffffffffffffffffffffff1673ffffffffffffffffffffffffffffffffffffffff168152602001908152602001600020600001819055506105a2600560008473ffffffffffffffffffffffffffffffffffffffff1673ffffffffffffffffffffffffffffffffffffffff16815260200190815260200160002060000154610fa5565b600560008473ffffffffffffffffffffffffffffffffffffffff1673ffffffffffffffffffffffffffffffffffffffff168152602001908152602001600020600101819055505050565b600080600560008473ffffffffffffffffffffffffffffffffffffffff1673ffffffffffffffffffffffffffffffffffffffff16815260200190815260200160002060000154036106405760009050610700565b600061068d600560008573ffffffffffffffffffffffffffffffffffffffff1673ffffffffffffffffffffffffffffffffffffffff16815260200190815260200160002060000154610fa5565b90506000600560008573ffffffffffffffffffffffffffffffffffffffff1673ffffffffffffffffffffffffffffffffffffffff1681526020019081526020016000206001015490508082116106e857600092505050610700565b6106fb8183610f7990919063ffffffff16565b925050505b919050565b60008054906101000a900473ffffffffffffffffffffffffffffffffffffffff1673ffffffffffffffffffffffffffffffffffffffff163373ffffffffffffffffffffffffffffffffffffffff161461075d57600080fd5b81600b8190555080600c819055505050565b60065481565b600c5481565b60075481565b60056020528060005260406000206000915090508060000154908060010154908060020154905083565b60008054906101000a900473ffffffffffffffffffffffffffffffffffffffff1673ffffffffffffffffffffffffffffffffffffffff163373ffffffffffffffffffffffffffffffffffffffff161461080357600080fd5b61081834600754610f8f90919063ffffffff16565b60078190555061085b61084a60065461083c34600a54610fd790919063ffffffff16565b610fed90919063ffffffff16565b600954610f8f90919063ffffffff16565b600981905550565b60095481565b60085481565b61087833611003565b6108b7576040517f08c379a00000000000000000000000000000000000000000000000000000000081526004016108ae906112a1565b60405180910390fd5b6108c033610a5b565b565b60008054906101000a900473ffffffffffffffffffffffffffffffffffffffff1673ffffffffffffffffffffffffffffffffffffffff163373ffffffffffffffffffffffffffffffffffffffff161461091a57600080fd5b60006002805490509050600081036109325750610a52565b60008060005a90505b848210801561094957508383105b15610a4d5783600d5410610960576000600d819055505b6109a96002600d5481548110610979576109786112c1565b5b9060005260206000200160009054906101000a900473ffffffffffffffffffffffffffffffffffffffff16611003565b156109f8576109f76002600d54815481106109c7576109c66112c1565b5b9060005260206000200160009054906101000a900473ffffffffffffffffffffffffffffffffffffffff16610a5b565b5b610a1d610a0e5a83610f7990919063ffffffff16565b83610f8f90919063ffffffff16565b91505a9050600d6000815480929190610a359061131f565b91905055508280610a459061131f565b93505061093b565b505050505b50565b600b5481565b6000600560008373ffffffffffffffffffffffffffffffffffffffff1673ffffffffffffffffffffffffffffffffffffffff168152602001908152602001600020600001540315610cc0576000610ab1826105ec565b90506000811115610cbe57610ad181600854610f8f90919063ffffffff16565b60088190555060008273ffffffffffffffffffffffffffffffffffffffff168261753090604051610b0190611398565b600060405180830381858888f193505050503d8060008114610b3f576040519150601f19603f3d011682016040523d82523d6000602084013e610b44565b606091505b505090506000905042600460008573ffffffffffffffffffffffffffffffffffffffff1673ffffffffffffffffffffffffffffffffffffffff16815260200190815260200160002081905550610be582600560008673ffffffffffffffffffffffffffffffffffffffff1673ffffffffffffffffffffffffffffffffffffffff16815260200190815260200160002060020154610f8f90919063ffffffff16565b600560008573ffffffffffffffffffffffffffffffffffffffff1673ffffffffffffffffffffffffffffffffffffffff16815260200190815260200160002060020181905550610c76600560008573ffffffffffffffffffffffffffffffffffffffff1673ffffffffffffffffffffffffffffffffffffffff16815260200190815260200160002060000154610fa5565b600560008573ffffffffffffffffffffffffffffffffffffffff1673ffffffffffffffffffffffffffffffffffffffff16815260200190815260200160002060010181905550505b505b50565b600280549050600360008373ffffffffffffffffffffffffffffffffffffffff1673ffffffffffffffffffffffffffffffffffffffff168152602001908152602001600020819055506002819080600181540180825580915050600190039060005260206000200160009091909190916101000a81548173ffffffffffffffffffffffffffffffffffffffff021916908373ffffffffffffffffffffffffffffffffffffffff16021790555050565b60026001600280549050610d8691906113ad565b81548110610d9757610d966112c1565b5b9060005260206000200160009054906101000a900473ffffffffffffffffffffffffffffffffffffffff166002600360008473ffffffffffffffffffffffffffffffffffffffff1673ffffffffffffffffffffffffffffffffffffffff1681526020019081526020016000205481548110610e1557610e146112c1565b5b9060005260206000200160006101000a81548173ffffffffffffffffffffffffffffffffffffffff021916908373ffffffffffffffffffffffffffffffffffffffff160217905550600360008273ffffffffffffffffffffffffffffffffffffffff1673ffffffffffffffffffffffffffffffffffffffff168152602001908152602001600020546003600060026001600280549050610eb591906113ad565b81548110610ec657610ec56112c1565b5b9060005260206000200160009054906101000a900473ffffffffffffffffffffffffffffffffffffffff1673ffffffffffffffffffffffffffffffffffffffff1673ffffffffffffffffffffffffffffffffffffffff168152602001908152602001600020819055506002805480610f4157610f406113e1565b5b6001900381819060005260206000200160006101000a81549073ffffffffffffffffffffffffffffffffffffffff0219169055905550565b60008183610f8791906113ad565b905092915050565b60008183610f9d9190611410565b905092915050565b6000610fd0600a54610fc260095485610fd790919063ffffffff16565b610fed90919063ffffffff16565b9050919050565b60008183610fe59190611444565b905092915050565b60008183610ffb91906114b5565b905092915050565b600042600b54600460008573ffffffffffffffffffffffffffffffffffffffff1673ffffffffffffffffffffffffffffffffffffffff168152602001908152602001600020546110539190611410565b1080156110695750600c54611067836105ec565b115b9050919050565b6000819050919050565b61108381611070565b82525050565b600060208201905061109e600083018461107a565b92915050565b600080fd5b600073ffffffffffffffffffffffffffffffffffffffff82169050919050565b60006110d4826110a9565b9050919050565b6110e4816110c9565b81146110ef57600080fd5b50565b600081359050611101816110db565b92915050565b61111081611070565b811461111b57600080fd5b50565b60008135905061112d81611107565b92915050565b6000806040838503121561114a576111496110a4565b5b6000611158858286016110f2565b92505060206111698582860161111e565b9150509250929050565b600060208284031215611189576111886110a4565b5b6000611197848285016110f2565b91505092915050565b600080604083850312156111b7576111b66110a4565b5b60006111c58582860161111e565b92505060206111d68582860161111e565b9150509250929050565b60006060820190506111f5600083018661107a565b611202602083018561107a565b61120f604083018461107a565b949350505050565b60006020828403121561122d5761122c6110a4565b5b600061123b8482850161111e565b91505092915050565b600082825260208201905092915050565b7f546f6f20736f6f6e2e204e65656420746f207761697421000000000000000000600082015250565b600061128b601783611244565b915061129682611255565b602082019050919050565b600060208201905081810360008301526112ba8161127e565b9050919050565b7f4e487b7100000000000000000000000000000000000000000000000000000000600052603260045260246000fd5b7f4e487b7100000000000000000000000000000000000000000000000000000000600052601160045260246000fd5b600061132a82611070565b91507fffffffffffffffffffffffffffffffffffffffffffffffffffffffffffffffff820361135c5761135b6112f0565b5b600182019050919050565b600081905092915050565b50565b6000611382600083611367565b915061138d82611372565b600082019050919050565b60006113a382611375565b9150819050919050565b60006113b882611070565b91506113c383611070565b92508282039050818111156113db576113da6112f0565b5b92915050565b7f4e487b7100000000000000000000000000000000000000000000000000000000600052603160045260246000fd5b600061141b82611070565b915061142683611070565b925082820190508082111561143e5761143d6112f0565b5b92915050565b600061144f82611070565b915061145a83611070565b925082820261146881611070565b9150828204841483151761147f5761147e6112f0565b5b5092915050565b7f4e487b7100000000000000000000000000000000000000000000000000000000600052601260045260246000fd5b60006114c082611070565b91506114cb83611070565b9250826114db576114da611486565b5b82820490509291505056fea264697066735822122011fb8e1045ed207ed99210acad16c23bec3872417e54521616aaad23796bd93864736f6c63430008110033",
  "linkReferences": {},
  "deployedLinkReferences": {}
}