{"contracts/ShibaAfrica.sol":{"ShibAfrica":{"abi":[{"inputs":[{"internalType":"address","name":"_owner","type":"address"},{"internalType":"address","name":"_buyback","type":"address"}],"stateMutability":"nonpayable","type":"constructor"},{"inputs":[{"internalType":"uint256","name":"","type":"uint256"}],"name":"Packages","outputs":[{"internalType":"uint256","name":"","type":"uint256"}],"stateMutability":"view","type":"function"},{"inputs":[],"name":"ROUTER","outputs":[{"internalType":"address","name":"","type":"address"}],"stateMutability":"view","type":"function"},{"inputs":[],"name":"SHIBAFRICA","outputs":[{"internalType":"address","name":"","type":"address"}],"stateMutability":"view","type":"function"},{"inputs":[],"name":"WBNB","outputs":[{"internalType":"address","name":"","type":"address"}],"stateMutability":"view","type":"function"},{"inputs":[{"internalType":"address payable","name":"referral","type":"address"},{"internalType":"uint256","name":"package","type":"uint256"},{"internalType":"uint256","name":"amount","type":"uint256"}],"name":"buyPackage","outputs":[{"internalType":"bool","name":"","type":"bool"}],"stateMutability":"payable","type":"function"},{"inputs":[{"internalType":"address payable","name":"referral","type":"address"},{"internalType":"uint256[]","name":"packages","type":"uint256[]"}],"name":"buyPackages","outputs":[],"stateMutability":"payable","type":"function"},{"inputs":[{"internalType":"address","name":"","type":"address"}],"name":"levels","outputs":[{"internalType":"uint256","name":"","type":"uint256"}],"stateMutability":"view","type":"function"},{"inputs":[],"name":"withdraw","outputs":[{"internalType":"bool","name":"","type":"bool"}],"stateMutability":"payable","type":"function"}],"evm":{"bytecode":{"linkReferences":{},"object":"608060405273bb4cdb9cbd36b01bd1cbaebf2de08d9173bc095c6000806101000a81548173ffffffffffffffffffffffffffffffffffffffff021916908373ffffffffffffffffffffffffffffffffffffffff1602179055507310ed43c718714eb63d5aa57b78b54704e256024e600160006101000a81548173ffffffffffffffffffffffffffffffffffffffff021916908373ffffffffffffffffffffffffffffffffffffffff160217905550734f509f8005b967ab8104290bbe79c49a5d2905f6600260006101000a81548173ffffffffffffffffffffffffffffffffffffffff021916908373ffffffffffffffffffffffffffffffffffffffff1602179055503480156200010f57600080fd5b506040516200275038038062002750833981810160405281019062000135919062000dfb565b600260009054906101000a900473ffffffffffffffffffffffffffffffffffffffff1673ffffffffffffffffffffffffffffffffffffffff166318160ddd6040518163ffffffff1660e01b8152600401602060405180830381865afa158015620001a3573d6000803e3d6000fd5b505050506040513d601f19601f82011682018060405250810190620001c9919062000e7d565b60058190555060646005546003620001e2919062000ede565b620001ee919062000f58565b60068190555081600360006101000a81548173ffffffffffffffffffffffffffffffffffffffff021916908373ffffffffffffffffffffffffffffffffffffffff160217905550600a60086000600360009054906101000a900473ffffffffffffffffffffffffffffffffffffffff1673ffffffffffffffffffffffffffffffffffffffff1673ffffffffffffffffffffffffffffffffffffffff1681526020019081526020016000208190555080600460006101000a81548173ffffffffffffffffffffffffffffffffffffffff021916908373ffffffffffffffffffffffffffffffffffffffff16021790555066b1a2bc2ec50000600760008081526020019081526020016000208190555067016345785d8a00006007600060018152602001908152602001600020819055506703782dace9d900006007600060028152602001908152602001600020819055506706f05b59d3b20000600760006003815260200190815260200160002081905550670de0b6b3a7640000600760006004815260200190815260200160002081905550671bc16d674ec80000600760006005815260200190815260200160002081905550674563918244f40000600760006006815260200190815260200160002081905550678ac7230489e800006007600060078152602001908152602001600020819055506801158e460913d0000060076000600881526020019081526020016000208190555068022b1c8c1227a000006007600060098152602001908152602001600020819055506009600860007340568e2c3632c2c54ce7a76fe4a132c2d2785d2b73ffffffffffffffffffffffffffffffffffffffff1673ffffffffffffffffffffffffffffffffffffffff1681526020019081526020016000208190555060096008600073c18dccfb00bdd894deb06cce23586bb57978239b73ffffffffffffffffffffffffffffffffffffffff1673ffffffffffffffffffffffffffffffffffffffff168152602001908152602001600020819055506009600860007374d2ffe54401f30538cfebc524f64846f8bb037c73ffffffffffffffffffffffffffffffffffffffff1673ffffffffffffffffffffffffffffffffffffffff16815260200190815260200160002081905550600960086000739a67cac5fd39f9419aec4dd0b6aca690126b0f0173ffffffffffffffffffffffffffffffffffffffff1673ffffffffffffffffffffffffffffffffffffffff1681526020019081526020016000208190555060096008600073b8a676fc48da2ea87cfb9d87a4310a14091dd10173ffffffffffffffffffffffffffffffffffffffff1673ffffffffffffffffffffffffffffffffffffffff1681526020019081526020016000208190555060096008600073ced31b5df37e13065ce9a800ef85ecd48f80f57e73ffffffffffffffffffffffffffffffffffffffff1673ffffffffffffffffffffffffffffffffffffffff16815260200190815260200160002081905550600360086000730915e78b173b1c5920eab355e5a4b95faba44f7e73ffffffffffffffffffffffffffffffffffffffff1673ffffffffffffffffffffffffffffffffffffffff16815260200190815260200160002081905550600960086000737d708f78bb312badbb6a2d9b10e643b6a2276c6e73ffffffffffffffffffffffffffffffffffffffff1673ffffffffffffffffffffffffffffffffffffffff1681526020019081526020016000208190555060046008600073255669be628ef19fda45cde6ff04ba9ff237baee73ffffffffffffffffffffffffffffffffffffffff1673ffffffffffffffffffffffffffffffffffffffff168152602001908152602001600020819055506001600860007315f896d6e8f1259e5df709737b92b3b25762363473ffffffffffffffffffffffffffffffffffffffff1673ffffffffffffffffffffffffffffffffffffffff1681526020019081526020016000208190555060036008600073f21d3d687ae470c8040ed2ccc812ad8865378eb873ffffffffffffffffffffffffffffffffffffffff1673ffffffffffffffffffffffffffffffffffffffff168152602001908152602001600020819055506009600860007340e85181e20a9eec5b150b5999edbf81d370502373ffffffffffffffffffffffffffffffffffffffff1673ffffffffffffffffffffffffffffffffffffffff16815260200190815260200160002081905550600960086000733d4409a7bad31f1d61be92b3e5c1c3be6baf98fc73ffffffffffffffffffffffffffffffffffffffff1673ffffffffffffffffffffffffffffffffffffffff1681526020019081526020016000208190555060096008600072be4d72bd5aa20c2023c0eef2e9949f338b1f9b73ffffffffffffffffffffffffffffffffffffffff1673ffffffffffffffffffffffffffffffffffffffff16815260200190815260200160002081905550600960086000731457a4a6293ff6889c64569990293be9edd5e72e73ffffffffffffffffffffffffffffffffffffffff1673ffffffffffffffffffffffffffffffffffffffff1681526020019081526020016000208190555060096008600073ddd8e3c2bb73752f76e01f0663df68f783bbe7c673ffffffffffffffffffffffffffffffffffffffff1673ffffffffffffffffffffffffffffffffffffffff16815260200190815260200160002081905550600960086000733e21e2dc7d76b6cab36c9f860423398311e9b19d73ffffffffffffffffffffffffffffffffffffffff1673ffffffffffffffffffffffffffffffffffffffff1681526020019081526020016000208190555060096008600073d805c66a13165cb31b6e6eb01f19b5b64bf76f8873ffffffffffffffffffffffffffffffffffffffff1673ffffffffffffffffffffffffffffffffffffffff1681526020019081526020016000208190555060096008600073d805c66a13165cb31b6e6eb01f19b5b64bf76f8873ffffffffffffffffffffffffffffffffffffffff1673ffffffffffffffffffffffffffffffffffffffff168152602001908152602001600020819055506009600860007326e24bfbf08e3e6ded77dade76ecd95c150a626d73ffffffffffffffffffffffffffffffffffffffff1673ffffffffffffffffffffffffffffffffffffffff16815260200190815260200160002081905550600360086000734c63067ef1faabe2d5d335a06719f7a841f2feab73ffffffffffffffffffffffffffffffffffffffff1673ffffffffffffffffffffffffffffffffffffffff16815260200190815260200160002081905550600960086000739ca635c21b833bce4581c9df15ebfeacebc45bd073ffffffffffffffffffffffffffffffffffffffff1673ffffffffffffffffffffffffffffffffffffffff16815260200190815260200160002081905550600960086000734ec4c60ead071b3ac705c261d0bb8cabb8c033e073ffffffffffffffffffffffffffffffffffffffff1673ffffffffffffffffffffffffffffffffffffffff16815260200190815260200160002081905550600960086000730709106aff4cab1c5333741ebec887368f64653773ffffffffffffffffffffffffffffffffffffffff1673ffffffffffffffffffffffffffffffffffffffff1681526020019081526020016000208190555060036008600073a708ba7f9f3fe47ffc5755a4d7160b0fee8ad1f573ffffffffffffffffffffffffffffffffffffffff1673ffffffffffffffffffffffffffffffffffffffff16815260200190815260200160002081905550600a6008600073605f1816391e6dbe27500920a14f65b26c2d0ae073ffffffffffffffffffffffffffffffffffffffff1673ffffffffffffffffffffffffffffffffffffffff16815260200190815260200160002081905550600a600860007354f373d43a6bba137a359abf5ad77752e90a18bb73ffffffffffffffffffffffffffffffffffffffff1673ffffffffffffffffffffffffffffffffffffffff16815260200190815260200160002081905550505062000f90565b600080fd5b600073ffffffffffffffffffffffffffffffffffffffff82169050919050565b600062000dc38262000d96565b9050919050565b62000dd58162000db6565b811462000de157600080fd5b50565b60008151905062000df58162000dca565b92915050565b6000806040838503121562000e155762000e1462000d91565b5b600062000e258582860162000de4565b925050602062000e388582860162000de4565b9150509250929050565b6000819050919050565b62000e578162000e42565b811462000e6357600080fd5b50565b60008151905062000e778162000e4c565b92915050565b60006020828403121562000e965762000e9562000d91565b5b600062000ea68482850162000e66565b91505092915050565b7f4e487b7100000000000000000000000000000000000000000000000000000000600052601160045260246000fd5b600062000eeb8262000e42565b915062000ef88362000e42565b925082820262000f088162000e42565b9150828204841483151762000f225762000f2162000eaf565b5b5092915050565b7f4e487b7100000000000000000000000000000000000000000000000000000000600052601260045260246000fd5b600062000f658262000e42565b915062000f728362000e42565b92508262000f855762000f8462000f29565b5b828204905092915050565b6117b08062000fa06000396000f3fe60806040526004361061007b5760003560e01c80638dd950021161004e5780638dd95002146101365780639ca04d6414610161578063c7ef078c1461017d578063f60f384b146101ba5761007b565b806332fe7b26146100805780633ccfd60b146100ab57806347082db3146100c95780635e9d306e14610106575b600080fd5b34801561008c57600080fd5b506100956101e5565b6040516100a29190610d10565b60405180910390f35b6100b361020b565b6040516100c09190610d46565b60405180910390f35b3480156100d557600080fd5b506100f060048036038101906100eb9190610da1565b6102eb565b6040516100fd9190610de7565b60405180910390f35b610120600480360381019061011b9190610e6c565b610303565b60405161012d9190610d46565b60405180910390f35b34801561014257600080fd5b5061014b6108f3565b6040516101589190610d10565b60405180910390f35b61017b60048036038101906101769190611018565b610917565b005b34801561018957600080fd5b506101a4600480360381019061019f9190611074565b610c91565b6040516101b19190610de7565b60405180910390f35b3480156101c657600080fd5b506101cf610ca9565b6040516101dc9190610d10565b60405180910390f35b600160009054906101000a900473ffffffffffffffffffffffffffffffffffffffff1681565b6000600360009054906101000a900473ffffffffffffffffffffffffffffffffffffffff1673ffffffffffffffffffffffffffffffffffffffff163373ffffffffffffffffffffffffffffffffffffffff161461029d576040517f08c379a0000000000000000000000000000000000000000000000000000000008152600401610294906110fe565b60405180910390fd5b3373ffffffffffffffffffffffffffffffffffffffff166108fc479081150290604051600060405180830381858888f193505050501580156102e3573d6000803e3d6000fd5b506001905090565b60086020528060005260406000206000915090505481565b60008260018110158015610318575060098111155b610357576040517f08c379a000000000000000000000000000000000000000000000000000000000815260040161034e9061116a565b60405180910390fd5b6001600860003373ffffffffffffffffffffffffffffffffffffffff1673ffffffffffffffffffffffffffffffffffffffff168152602001908152602001600020546103a391906111b9565b84036103ee5783600860003373ffffffffffffffffffffffffffffffffffffffff1673ffffffffffffffffffffffffffffffffffffffff168152602001908152602001600020819055505b6060600267ffffffffffffffff81111561040b5761040a610ed5565b5b6040519080825280602002602001820160405280156104395781602001602082028036833780820191505090505b50905060008054906101000a900473ffffffffffffffffffffffffffffffffffffffff1681600081518110610471576104706111ed565b5b602002602001019073ffffffffffffffffffffffffffffffffffffffff16908173ffffffffffffffffffffffffffffffffffffffff1681525050600260009054906101000a900473ffffffffffffffffffffffffffffffffffffffff16816001815181106104e2576104e16111ed565b5b602002602001019073ffffffffffffffffffffffffffffffffffffffff16908173ffffffffffffffffffffffffffffffffffffffff16815250506000606485602361052d919061121c565b610537919061128d565b90506000606486601e61054a919061121c565b610554919061128d565b905060006064876014610567919061121c565b610571919061128d565b90506000606488600f610584919061121c565b61058e919061128d565b9050600089600860008d73ffffffffffffffffffffffffffffffffffffffff1673ffffffffffffffffffffffffffffffffffffffff1681526020019081526020016000205410610624578a73ffffffffffffffffffffffffffffffffffffffff166108fc869081150290604051600060405180830381858888f1935050505015801561061e573d6000803e3d6000fd5b5061068e565b600460009054906101000a900473ffffffffffffffffffffffffffffffffffffffff1673ffffffffffffffffffffffffffffffffffffffff166108fc869081150290604051600060405180830381858888f1935050505015801561068c573d6000803e3d6000fd5b505b600460009054906101000a900473ffffffffffffffffffffffffffffffffffffffff1673ffffffffffffffffffffffffffffffffffffffff166108fc839081150290604051600060405180830381858888f193505050501580156106f6573d6000803e3d6000fd5b50600360009054906101000a900473ffffffffffffffffffffffffffffffffffffffff1673ffffffffffffffffffffffffffffffffffffffff166108fc849081150290604051600060405180830381858888f1935050505015801561075f573d6000803e3d6000fd5b50600160009054906101000a900473ffffffffffffffffffffffffffffffffffffffff1673ffffffffffffffffffffffffffffffffffffffff1663b6f9de958583893361012c426107b091906111b9565b6040518663ffffffff1660e01b81526004016107cf949392919061137c565b6000604051808303818588803b1580156107e857600080fd5b505af11580156107fc573d6000803e3d6000fd5b5050505050600654600260009054906101000a900473ffffffffffffffffffffffffffffffffffffffff1673ffffffffffffffffffffffffffffffffffffffff166370a08231336040518263ffffffff1660e01b815260040161085f9190610d10565b602060405180830381865afa15801561087c573d6000803e3d6000fd5b505050506040513d601f19601f820116820180604052508101906108a091906113dd565b11156108e1576040517f08c379a00000000000000000000000000000000000000000000000000000000081526004016108d890611456565b60405180910390fd5b60019750505050505050509392505050565b60008054906101000a900473ffffffffffffffffffffffffffffffffffffffff1681565b600073ffffffffffffffffffffffffffffffffffffffff168273ffffffffffffffffffffffffffffffffffffffff1603610986576040517f08c379a000000000000000000000000000000000000000000000000000000000815260040161097d906114c2565b60405180910390fd5b3373ffffffffffffffffffffffffffffffffffffffff168273ffffffffffffffffffffffffffffffffffffffff16036109f4576040517f08c379a00000000000000000000000000000000000000000000000000000000081526004016109eb9061152e565b60405180910390fd5b600034905060005b8251811015610c8b57600a838281518110610a1a57610a196111ed565b5b60200260200101511015610c7857828181518110610a3b57610a3a6111ed565b5b6020026020010151600860003373ffffffffffffffffffffffffffffffffffffffff1673ffffffffffffffffffffffffffffffffffffffff168152602001908152602001600020541015610ac4576040517f08c379a0000000000000000000000000000000000000000000000000000000008152600401610abb9061159a565b60405180910390fd5b60018351610ad291906115ba565b8114610b6757600183600183610ae891906111b9565b81518110610af957610af86111ed565b5b6020026020010151610b0b91906115ba565b838281518110610b1e57610b1d6111ed565b5b602002602001015114610b66576040517f08c379a0000000000000000000000000000000000000000000000000000000008152600401610b5d9061163a565b60405180910390fd5b5b60076000848381518110610b7e57610b7d6111ed565b5b602002602001015181526020019081526020016000205482610ba091906115ba565b91506000821015610be6576040517f08c379a0000000000000000000000000000000000000000000000000000000008152600401610bdd906116a6565b60405180910390fd5b610c3884848381518110610bfd57610bfc6111ed565b5b602002602001015160076000878681518110610c1c57610c1b6111ed565b5b6020026020010151815260200190815260200160002054610303565b610c77576040517f08c379a0000000000000000000000000000000000000000000000000000000008152600401610c6e90611712565b60405180910390fd5b5b8080610c8390611732565b9150506109fc565b50505050565b60076020528060005260406000206000915090505481565b600260009054906101000a900473ffffffffffffffffffffffffffffffffffffffff1681565b600073ffffffffffffffffffffffffffffffffffffffff82169050919050565b6000610cfa82610ccf565b9050919050565b610d0a81610cef565b82525050565b6000602082019050610d256000830184610d01565b92915050565b60008115159050919050565b610d4081610d2b565b82525050565b6000602082019050610d5b6000830184610d37565b92915050565b6000604051905090565b600080fd5b600080fd5b610d7e81610cef565b8114610d8957600080fd5b50565b600081359050610d9b81610d75565b92915050565b600060208284031215610db757610db6610d6b565b5b6000610dc584828501610d8c565b91505092915050565b6000819050919050565b610de181610dce565b82525050565b6000602082019050610dfc6000830184610dd8565b92915050565b6000610e0d82610ccf565b9050919050565b610e1d81610e02565b8114610e2857600080fd5b50565b600081359050610e3a81610e14565b92915050565b610e4981610dce565b8114610e5457600080fd5b50565b600081359050610e6681610e40565b92915050565b600080600060608486031215610e8557610e84610d6b565b5b6000610e9386828701610e2b565b9350506020610ea486828701610e57565b9250506040610eb586828701610e57565b9150509250925092565b600080fd5b6000601f19601f8301169050919050565b7f4e487b7100000000000000000000000000000000000000000000000000000000600052604160045260246000fd5b610f0d82610ec4565b810181811067ffffffffffffffff82111715610f2c57610f2b610ed5565b5b80604052505050565b6000610f3f610d61565b9050610f4b8282610f04565b919050565b600067ffffffffffffffff821115610f6b57610f6a610ed5565b5b602082029050602081019050919050565b600080fd5b6000610f94610f8f84610f50565b610f35565b90508083825260208201905060208402830185811115610fb757610fb6610f7c565b5b835b81811015610fe05780610fcc8882610e57565b845260208401935050602081019050610fb9565b5050509392505050565b600082601f830112610fff57610ffe610ebf565b5b813561100f848260208601610f81565b91505092915050565b6000806040838503121561102f5761102e610d6b565b5b600061103d85828601610e2b565b925050602083013567ffffffffffffffff81111561105e5761105d610d70565b5b61106a85828601610fea565b9150509250929050565b60006020828403121561108a57611089610d6b565b5b600061109884828501610e57565b91505092915050565b600082825260208201905092915050565b7f4f6e6c794f776e65722e00000000000000000000000000000000000000000000600082015250565b60006110e8600a836110a1565b91506110f3826110b2565b602082019050919050565b60006020820190508181036000830152611117816110db565b9050919050565b7f496e76616c6964205061636b6167652e00000000000000000000000000000000600082015250565b60006111546010836110a1565b915061115f8261111e565b602082019050919050565b6000602082019050818103600083015261118381611147565b9050919050565b7f4e487b7100000000000000000000000000000000000000000000000000000000600052601160045260246000fd5b60006111c482610dce565b91506111cf83610dce565b92508282019050808211156111e7576111e661118a565b5b92915050565b7f4e487b7100000000000000000000000000000000000000000000000000000000600052603260045260246000fd5b600061122782610dce565b915061123283610dce565b925082820261124081610dce565b915082820484148315176112575761125661118a565b5b5092915050565b7f4e487b7100000000000000000000000000000000000000000000000000000000600052601260045260246000fd5b600061129882610dce565b91506112a383610dce565b9250826112b3576112b261125e565b5b828204905092915050565b600081519050919050565b600082825260208201905092915050565b6000819050602082019050919050565b6112f381610cef565b82525050565b600061130583836112ea565b60208301905092915050565b6000602082019050919050565b6000611329826112be565b61133381856112c9565b935061133e836112da565b8060005b8381101561136f57815161135688826112f9565b975061136183611311565b925050600181019050611342565b5085935050505092915050565b60006080820190506113916000830187610dd8565b81810360208301526113a3818661131e565b90506113b26040830185610d01565b6113bf6060830184610dd8565b95945050505050565b6000815190506113d781610e40565b92915050565b6000602082840312156113f3576113f2610d6b565b5b6000611401848285016113c8565b91505092915050565b7f4d617820546f6b656e2e00000000000000000000000000000000000000000000600082015250565b6000611440600a836110a1565b915061144b8261140a565b602082019050919050565b6000602082019050818103600083015261146f81611433565b9050919050565b7f526566657272616c206973203020616464726573732e00000000000000000000600082015250565b60006114ac6016836110a1565b91506114b782611476565b602082019050919050565b600060208201905081810360008301526114db8161149f565b9050919050565b7f526566657272616c2063616e277420626520796f752e00000000000000000000600082015250565b60006115186016836110a1565b9150611523826114e2565b602082019050919050565b600060208201905081810360008301526115478161150b565b9050919050565b7f496e76616c6964204c6576656c2e000000000000000000000000000000000000600082015250565b6000611584600e836110a1565b915061158f8261154e565b602082019050919050565b600060208201905081810360008301526115b381611577565b9050919050565b60006115c582610dce565b91506115d083610dce565b92508282039050818111156115e8576115e761118a565b5b92915050565b7f4e6f7420436f6e73656375746976652e00000000000000000000000000000000600082015250565b60006116246010836110a1565b915061162f826115ee565b602082019050919050565b6000602082019050818103600083015261165381611617565b9050919050565b7f496e76616c6964205061796d656e742e00000000000000000000000000000000600082015250565b60006116906010836110a1565b915061169b8261165a565b602082019050919050565b600060208201905081810360008301526116bf81611683565b9050919050565b7f5061636b616765206e6f742042757965642e0000000000000000000000000000600082015250565b60006116fc6012836110a1565b9150611707826116c6565b602082019050919050565b6000602082019050818103600083015261172b816116ef565b9050919050565b600061173d82610dce565b91507fffffffffffffffffffffffffffffffffffffffffffffffffffffffffffffffff820361176f5761176e61118a565b5b60018201905091905056fea26469706673582212203e7e4d5eab7eb5550becf71ad1995485ec5f3702dca56d96a345dbe4b683971464736f6c63430008110033","opcodes":"PUSH1 0x80 PUSH1 0x40 MSTORE PUSH20 0xBB4CDB9CBD36B01BD1CBAEBF2DE08D9173BC095C PUSH1 0x0 DUP1 PUSH2 0x100 EXP DUP2 SLOAD DUP2 PUSH20 0xFFFFFFFFFFFFFFFFFFFFFFFFFFFFFFFFFFFFFFFF MUL NOT AND SWAP1 DUP4 PUSH20 0xFFFFFFFFFFFFFFFFFFFFFFFFFFFFFFFFFFFFFFFF AND MUL OR SWAP1 SSTORE POP PUSH20 0x10ED43C718714EB63D5AA57B78B54704E256024E PUSH1 0x1 PUSH1 0x0 PUSH2 0x100 EXP DUP2 SLOAD DUP2 PUSH20 0xFFFFFFFFFFFFFFFFFFFFFFFFFFFFFFFFFFFFFFFF MUL NOT AND SWAP1 DUP4 PUSH20 0xFFFFFFFFFFFFFFFFFFFFFFFFFFFFFFFFFFFFFFFF AND MUL OR SWAP1 SSTORE POP PUSH20 0x4F509F8005B967AB8104290BBE79C49A5D2905F6 PUSH1 0x2 PUSH1 0x0 PUSH2 0x100 EXP DUP2 SLOAD DUP2 PUSH20 0xFFFFFFFFFFFFFFFFFFFFFFFFFFFFFFFFFFFFFFFF MUL NOT AND SWAP1 DUP4 PUSH20 0xFFFFFFFFFFFFFFFFFFFFFFFFFFFFFFFFFFFFFFFF AND MUL OR SWAP1 SSTORE POP CALLVALUE DUP1 ISZERO PUSH3 0x10F JUMPI PUSH1 0x0 DUP1 REVERT JUMPDEST POP PUSH1 0x40 MLOAD PUSH3 0x2750 CODESIZE SUB DUP1 PUSH3 0x2750 DUP4 CODECOPY DUP2 DUP2 ADD PUSH1 0x40 MSTORE DUP2 ADD SWAP1 PUSH3 0x135 SWAP2 SWAP1 PUSH3 0xDFB JUMP JUMPDEST PUSH1 0x2 PUSH1 0x0 SWAP1 SLOAD SWAP1 PUSH2 0x100 EXP SWAP1 DIV PUSH20 0xFFFFFFFFFFFFFFFFFFFFFFFFFFFFFFFFFFFFFFFF AND PUSH20 0xFFFFFFFFFFFFFFFFFFFFFFFFFFFFFFFFFFFFFFFF AND PUSH4 0x18160DDD PUSH1 0x40 MLOAD DUP2 PUSH4 0xFFFFFFFF AND PUSH1 0xE0 SHL DUP2 MSTORE PUSH1 0x4 ADD PUSH1 0x20 PUSH1 0x40 MLOAD DUP1 DUP4 SUB DUP2 DUP7 GAS STATICCALL ISZERO DUP1 ISZERO PUSH3 0x1A3 JUMPI RETURNDATASIZE PUSH1 0x0 DUP1 RETURNDATACOPY RETURNDATASIZE PUSH1 0x0 REVERT JUMPDEST POP POP POP POP PUSH1 0x40 MLOAD RETURNDATASIZE PUSH1 0x1F NOT PUSH1 0x1F DUP3 ADD AND DUP3 ADD DUP1 PUSH1 0x40 MSTORE POP DUP2 ADD SWAP1 PUSH3 0x1C9 SWAP2 SWAP1 PUSH3 0xE7D JUMP JUMPDEST PUSH1 0x5 DUP2 SWAP1 SSTORE POP PUSH1 0x64 PUSH1 0x5 SLOAD PUSH1 0x3 PUSH3 0x1E2 SWAP2 SWAP1 PUSH3 0xEDE JUMP JUMPDEST PUSH3 0x1EE SWAP2 SWAP1 PUSH3 0xF58 JUMP JUMPDEST PUSH1 0x6 DUP2 SWAP1 SSTORE POP DUP2 PUSH1 0x3 PUSH1 0x0 PUSH2 0x100 EXP DUP2 SLOAD DUP2 PUSH20 0xFFFFFFFFFFFFFFFFFFFFFFFFFFFFFFFFFFFFFFFF MUL NOT AND SWAP1 DUP4 PUSH20 0xFFFFFFFFFFFFFFFFFFFFFFFFFFFFFFFFFFFFFFFF AND MUL OR SWAP1 SSTORE POP PUSH1 0xA PUSH1 0x8 PUSH1 0x0 PUSH1 0x3 PUSH1 0x0 SWAP1 SLOAD SWAP1 PUSH2 0x100 EXP SWAP1 DIV PUSH20 0xFFFFFFFFFFFFFFFFFFFFFFFFFFFFFFFFFFFFFFFF AND PUSH20 0xFFFFFFFFFFFFFFFFFFFFFFFFFFFFFFFFFFFFFFFF AND PUSH20 0xFFFFFFFFFFFFFFFFFFFFFFFFFFFFFFFFFFFFFFFF AND DUP2 MSTORE PUSH1 0x20 ADD SWAP1 DUP2 MSTORE PUSH1 0x20 ADD PUSH1 0x0 KECCAK256 DUP2 SWAP1 SSTORE POP DUP1 PUSH1 0x4 PUSH1 0x0 PUSH2 0x100 EXP DUP2 SLOAD DUP2 PUSH20 0xFFFFFFFFFFFFFFFFFFFFFFFFFFFFFFFFFFFFFFFF MUL NOT AND SWAP1 DUP4 PUSH20 0xFFFFFFFFFFFFFFFFFFFFFFFFFFFFFFFFFFFFFFFF AND MUL OR SWAP1 SSTORE POP PUSH7 0xB1A2BC2EC50000 PUSH1 0x7 PUSH1 0x0 DUP1 DUP2 MSTORE PUSH1 0x20 ADD SWAP1 DUP2 MSTORE PUSH1 0x20 ADD PUSH1 0x0 KECCAK256 DUP2 SWAP1 SSTORE POP PUSH8 0x16345785D8A0000 PUSH1 0x7 PUSH1 0x0 PUSH1 0x1 DUP2 MSTORE PUSH1 0x20 ADD SWAP1 DUP2 MSTORE PUSH1 0x20 ADD PUSH1 0x0 KECCAK256 DUP2 SWAP1 SSTORE POP PUSH8 0x3782DACE9D90000 PUSH1 0x7 PUSH1 0x0 PUSH1 0x2 DUP2 MSTORE PUSH1 0x20 ADD SWAP1 DUP2 MSTORE PUSH1 0x20 ADD PUSH1 0x0 KECCAK256 DUP2 SWAP1 SSTORE POP PUSH8 0x6F05B59D3B20000 PUSH1 0x7 PUSH1 0x0 PUSH1 0x3 DUP2 MSTORE PUSH1 0x20 ADD SWAP1 DUP2 MSTORE PUSH1 0x20 ADD PUSH1 0x0 KECCAK256 DUP2 SWAP1 SSTORE POP PUSH8 0xDE0B6B3A7640000 PUSH1 0x7 PUSH1 0x0 PUSH1 0x4 DUP2 MSTORE PUSH1 0x20 ADD SWAP1 DUP2 MSTORE PUSH1 0x20 ADD PUSH1 0x0 KECCAK256 DUP2 SWAP1 SSTORE POP PUSH8 0x1BC16D674EC80000 PUSH1 0x7 PUSH1 0x0 PUSH1 0x5 DUP2 MSTORE PUSH1 0x20 ADD SWAP1 DUP2 MSTORE PUSH1 0x20 ADD PUSH1 0x0 KECCAK256 DUP2 SWAP1 SSTORE POP PUSH8 0x4563918244F40000 PUSH1 0x7 PUSH1 0x0 PUSH1 0x6 DUP2 MSTORE PUSH1 0x20 ADD SWAP1 DUP2 MSTORE PUSH1 0x20 ADD PUSH1 0x0 KECCAK256 DUP2 SWAP1 SSTORE POP PUSH8 0x8AC7230489E80000 PUSH1 0x7 PUSH1 0x0 PUSH1 0x7 DUP2 MSTORE PUSH1 0x20 ADD SWAP1 DUP2 MSTORE PUSH1 0x20 ADD PUSH1 0x0 KECCAK256 DUP2 SWAP1 SSTORE POP PUSH9 0x1158E460913D00000 PUSH1 0x7 PUSH1 0x0 PUSH1 0x8 DUP2 MSTORE PUSH1 0x20 ADD SWAP1 DUP2 MSTORE PUSH1 0x20 ADD PUSH1 0x0 KECCAK256 DUP2 SWAP1 SSTORE POP PUSH9 0x22B1C8C1227A00000 PUSH1 0x7 PUSH1 0x0 PUSH1 0x9 DUP2 MSTORE PUSH1 0x20 ADD SWAP1 DUP2 MSTORE PUSH1 0x20 ADD PUSH1 0x0 KECCAK256 DUP2 SWAP1 SSTORE POP PUSH1 0x9 PUSH1 0x8 PUSH1 0x0 PUSH20 0x40568E2C3632C2C54CE7A76FE4A132C2D2785D2B PUSH20 0xFFFFFFFFFFFFFFFFFFFFFFFFFFFFFFFFFFFFFFFF AND PUSH20 0xFFFFFFFFFFFFFFFFFFFFFFFFFFFFFFFFFFFFFFFF AND DUP2 MSTORE PUSH1 0x20 ADD SWAP1 DUP2 MSTORE PUSH1 0x20 ADD PUSH1 0x0 KECCAK256 DUP2 SWAP1 SSTORE POP PUSH1 0x9 PUSH1 0x8 PUSH1 0x0 PUSH20 0xC18DCCFB00BDD894DEB06CCE23586BB57978239B PUSH20 0xFFFFFFFFFFFFFFFFFFFFFFFFFFFFFFFFFFFFFFFF AND PUSH20 0xFFFFFFFFFFFFFFFFFFFFFFFFFFFFFFFFFFFFFFFF AND DUP2 MSTORE PUSH1 0x20 ADD SWAP1 DUP2 MSTORE PUSH1 0x20 ADD PUSH1 0x0 KECCAK256 DUP2 SWAP1 SSTORE POP PUSH1 0x9 PUSH1 0x8 PUSH1 0x0 PUSH20 0x74D2FFE54401F30538CFEBC524F64846F8BB037C PUSH20 0xFFFFFFFFFFFFFFFFFFFFFFFFFFFFFFFFFFFFFFFF AND PUSH20 0xFFFFFFFFFFFFFFFFFFFFFFFFFFFFFFFFFFFFFFFF AND DUP2 MSTORE PUSH1 0x20 ADD SWAP1 DUP2 MSTORE PUSH1 0x20 ADD PUSH1 0x0 KECCAK256 DUP2 SWAP1 SSTORE POP PUSH1 0x9 PUSH1 0x8 PUSH1 0x0 PUSH20 0x9A67CAC5FD39F9419AEC4DD0B6ACA690126B0F01 PUSH20 0xFFFFFFFFFFFFFFFFFFFFFFFFFFFFFFFFFFFFFFFF AND PUSH20 0xFFFFFFFFFFFFFFFFFFFFFFFFFFFFFFFFFFFFFFFF AND DUP2 MSTORE PUSH1 0x20 ADD SWAP1 DUP2 MSTORE PUSH1 0x20 ADD PUSH1 0x0 KECCAK256 DUP2 SWAP1 SSTORE POP PUSH1 0x9 PUSH1 0x8 PUSH1 0x0 PUSH20 0xB8A676FC48DA2EA87CFB9D87A4310A14091DD101 PUSH20 0xFFFFFFFFFFFFFFFFFFFFFFFFFFFFFFFFFFFFFFFF AND PUSH20 0xFFFFFFFFFFFFFFFFFFFFFFFFFFFFFFFFFFFFFFFF AND DUP2 MSTORE PUSH1 0x20 ADD SWAP1 DUP2 MSTORE PUSH1 0x20 ADD PUSH1 0x0 KECCAK256 DUP2 SWAP1 SSTORE POP PUSH1 0x9 PUSH1 0x8 PUSH1 0x0 PUSH20 0xCED31B5DF37E13065CE9A800EF85ECD48F80F57E PUSH20 0xFFFFFFFFFFFFFFFFFFFFFFFFFFFFFFFFFFFFFFFF AND PUSH20 0xFFFFFFFFFFFFFFFFFFFFFFFFFFFFFFFFFFFFFFFF AND DUP2 MSTORE PUSH1 0x20 ADD SWAP1 DUP2 MSTORE PUSH1 0x20 ADD PUSH1 0x0 KECCAK256 DUP2 SWAP1 SSTORE POP PUSH1 0x3 PUSH1 0x8 PUSH1 0x0 PUSH20 0x915E78B173B1C5920EAB355E5A4B95FABA44F7E PUSH20 0xFFFFFFFFFFFFFFFFFFFFFFFFFFFFFFFFFFFFFFFF AND PUSH20 0xFFFFFFFFFFFFFFFFFFFFFFFFFFFFFFFFFFFFFFFF AND DUP2 MSTORE PUSH1 0x20 ADD SWAP1 DUP2 MSTORE PUSH1 0x20 ADD PUSH1 0x0 KECCAK256 DUP2 SWAP1 SSTORE POP PUSH1 0x9 PUSH1 0x8 PUSH1 0x0 PUSH20 0x7D708F78BB312BADBB6A2D9B10E643B6A2276C6E PUSH20 0xFFFFFFFFFFFFFFFFFFFFFFFFFFFFFFFFFFFFFFFF AND PUSH20 0xFFFFFFFFFFFFFFFFFFFFFFFFFFFFFFFFFFFFFFFF AND DUP2 MSTORE PUSH1 0x20 ADD SWAP1 DUP2 MSTORE PUSH1 0x20 ADD PUSH1 0x0 KECCAK256 DUP2 SWAP1 SSTORE POP PUSH1 0x4 PUSH1 0x8 PUSH1 0x0 PUSH20 0x255669BE628EF19FDA45CDE6FF04BA9FF237BAEE PUSH20 0xFFFFFFFFFFFFFFFFFFFFFFFFFFFFFFFFFFFFFFFF AND PUSH20 0xFFFFFFFFFFFFFFFFFFFFFFFFFFFFFFFFFFFFFFFF AND DUP2 MSTORE PUSH1 0x20 ADD SWAP1 DUP2 MSTORE PUSH1 0x20 ADD PUSH1 0x0 KECCAK256 DUP2 SWAP1 SSTORE POP PUSH1 0x1 PUSH1 0x8 PUSH1 0x0 PUSH20 0x15F896D6E8F1259E5DF709737B92B3B257623634 PUSH20 0xFFFFFFFFFFFFFFFFFFFFFFFFFFFFFFFFFFFFFFFF AND PUSH20 0xFFFFFFFFFFFFFFFFFFFFFFFFFFFFFFFFFFFFFFFF AND DUP2 MSTORE PUSH1 0x20 ADD SWAP1 DUP2 MSTORE PUSH1 0x20 ADD PUSH1 0x0 KECCAK256 DUP2 SWAP1 SSTORE POP PUSH1 0x3 PUSH1 0x8 PUSH1 0x0 PUSH20 0xF21D3D687AE470C8040ED2CCC812AD8865378EB8 PUSH20 0xFFFFFFFFFFFFFFFFFFFFFFFFFFFFFFFFFFFFFFFF AND PUSH20 0xFFFFFFFFFFFFFFFFFFFFFFFFFFFFFFFFFFFFFFFF AND DUP2 MSTORE PUSH1 0x20 ADD SWAP1 DUP2 MSTORE PUSH1 0x20 ADD PUSH1 0x0 KECCAK256 DUP2 SWAP1 SSTORE POP PUSH1 0x9 PUSH1 0x8 PUSH1 0x0 PUSH20 0x40E85181E20A9EEC5B150B5999EDBF81D3705023 PUSH20 0xFFFFFFFFFFFFFFFFFFFFFFFFFFFFFFFFFFFFFFFF AND PUSH20 0xFFFFFFFFFFFFFFFFFFFFFFFFFFFFFFFFFFFFFFFF AND DUP2 MSTORE PUSH1 0x20 ADD SWAP1 DUP2 MSTORE PUSH1 0x20 ADD PUSH1 0x0 KECCAK256 DUP2 SWAP1 SSTORE POP PUSH1 0x9 PUSH1 0x8 PUSH1 0x0 PUSH20 0x3D4409A7BAD31F1D61BE92B3E5C1C3BE6BAF98FC PUSH20 0xFFFFFFFFFFFFFFFFFFFFFFFFFFFFFFFFFFFFFFFF AND PUSH20 0xFFFFFFFFFFFFFFFFFFFFFFFFFFFFFFFFFFFFFFFF AND DUP2 MSTORE PUSH1 0x20 ADD SWAP1 DUP2 MSTORE PUSH1 0x20 ADD PUSH1 0x0 KECCAK256 DUP2 SWAP1 SSTORE POP PUSH1 0x9 PUSH1 0x8 PUSH1 0x0 PUSH19 0xBE4D72BD5AA20C2023C0EEF2E9949F338B1F9B PUSH20 0xFFFFFFFFFFFFFFFFFFFFFFFFFFFFFFFFFFFFFFFF AND PUSH20 0xFFFFFFFFFFFFFFFFFFFFFFFFFFFFFFFFFFFFFFFF AND DUP2 MSTORE PUSH1 0x20 ADD SWAP1 DUP2 MSTORE PUSH1 0x20 ADD PUSH1 0x0 KECCAK256 DUP2 SWAP1 SSTORE POP PUSH1 0x9 PUSH1 0x8 PUSH1 0x0 PUSH20 0x1457A4A6293FF6889C64569990293BE9EDD5E72E PUSH20 0xFFFFFFFFFFFFFFFFFFFFFFFFFFFFFFFFFFFFFFFF AND PUSH20 0xFFFFFFFFFFFFFFFFFFFFFFFFFFFFFFFFFFFFFFFF AND DUP2 MSTORE PUSH1 0x20 ADD SWAP1 DUP2 MSTORE PUSH1 0x20 ADD PUSH1 0x0 KECCAK256 DUP2 SWAP1 SSTORE POP PUSH1 0x9 PUSH1 0x8 PUSH1 0x0 PUSH20 0xDDD8E3C2BB73752F76E01F0663DF68F783BBE7C6 PUSH20 0xFFFFFFFFFFFFFFFFFFFFFFFFFFFFFFFFFFFFFFFF AND PUSH20 0xFFFFFFFFFFFFFFFFFFFFFFFFFFFFFFFFFFFFFFFF AND DUP2 MSTORE PUSH1 0x20 ADD SWAP1 DUP2 MSTORE PUSH1 0x20 ADD PUSH1 0x0 KECCAK256 DUP2 SWAP1 SSTORE POP PUSH1 0x9 PUSH1 0x8 PUSH1 0x0 PUSH20 0x3E21E2DC7D76B6CAB36C9F860423398311E9B19D PUSH20 0xFFFFFFFFFFFFFFFFFFFFFFFFFFFFFFFFFFFFFFFF AND PUSH20 0xFFFFFFFFFFFFFFFFFFFFFFFFFFFFFFFFFFFFFFFF AND DUP2 MSTORE PUSH1 0x20 ADD SWAP1 DUP2 MSTORE PUSH1 0x20 ADD PUSH1 0x0 KECCAK256 DUP2 SWAP1 SSTORE POP PUSH1 0x9 PUSH1 0x8 PUSH1 0x0 PUSH20 0xD805C66A13165CB31B6E6EB01F19B5B64BF76F88 PUSH20 0xFFFFFFFFFFFFFFFFFFFFFFFFFFFFFFFFFFFFFFFF AND PUSH20 0xFFFFFFFFFFFFFFFFFFFFFFFFFFFFFFFFFFFFFFFF AND DUP2 MSTORE PUSH1 0x20 ADD SWAP1 DUP2 MSTORE PUSH1 0x20 ADD PUSH1 0x0 KECCAK256 DUP2 SWAP1 SSTORE POP PUSH1 0x9 PUSH1 0x8 PUSH1 0x0 PUSH20 0xD805C66A13165CB31B6E6EB01F19B5B64BF76F88 PUSH20 0xFFFFFFFFFFFFFFFFFFFFFFFFFFFFFFFFFFFFFFFF AND PUSH20 0xFFFFFFFFFFFFFFFFFFFFFFFFFFFFFFFFFFFFFFFF AND DUP2 MSTORE PUSH1 0x20 ADD SWAP1 DUP2 MSTORE PUSH1 0x20 ADD PUSH1 0x0 KECCAK256 DUP2 SWAP1 SSTORE POP PUSH1 0x9 PUSH1 0x8 PUSH1 0x0 PUSH20 0x26E24BFBF08E3E6DED77DADE76ECD95C150A626D PUSH20 0xFFFFFFFFFFFFFFFFFFFFFFFFFFFFFFFFFFFFFFFF AND PUSH20 0xFFFFFFFFFFFFFFFFFFFFFFFFFFFFFFFFFFFFFFFF AND DUP2 MSTORE PUSH1 0x20 ADD SWAP1 DUP2 MSTORE PUSH1 0x20 ADD PUSH1 0x0 KECCAK256 DUP2 SWAP1 SSTORE POP PUSH1 0x3 PUSH1 0x8 PUSH1 0x0 PUSH20 0x4C63067EF1FAABE2D5D335A06719F7A841F2FEAB PUSH20 0xFFFFFFFFFFFFFFFFFFFFFFFFFFFFFFFFFFFFFFFF AND PUSH20 0xFFFFFFFFFFFFFFFFFFFFFFFFFFFFFFFFFFFFFFFF AND DUP2 MSTORE PUSH1 0x20 ADD SWAP1 DUP2 MSTORE PUSH1 0x20 ADD PUSH1 0x0 KECCAK256 DUP2 SWAP1 SSTORE POP PUSH1 0x9 PUSH1 0x8 PUSH1 0x0 PUSH20 0x9CA635C21B833BCE4581C9DF15EBFEACEBC45BD0 PUSH20 0xFFFFFFFFFFFFFFFFFFFFFFFFFFFFFFFFFFFFFFFF AND PUSH20 0xFFFFFFFFFFFFFFFFFFFFFFFFFFFFFFFFFFFFFFFF AND DUP2 MSTORE PUSH1 0x20 ADD SWAP1 DUP2 MSTORE PUSH1 0x20 ADD PUSH1 0x0 KECCAK256 DUP2 SWAP1 SSTORE POP PUSH1 0x9 PUSH1 0x8 PUSH1 0x0 PUSH20 0x4EC4C60EAD071B3AC705C261D0BB8CABB8C033E0 PUSH20 0xFFFFFFFFFFFFFFFFFFFFFFFFFFFFFFFFFFFFFFFF AND PUSH20 0xFFFFFFFFFFFFFFFFFFFFFFFFFFFFFFFFFFFFFFFF AND DUP2 MSTORE PUSH1 0x20 ADD SWAP1 DUP2 MSTORE PUSH1 0x20 ADD PUSH1 0x0 KECCAK256 DUP2 SWAP1 SSTORE POP PUSH1 0x9 PUSH1 0x8 PUSH1 0x0 PUSH20 0x709106AFF4CAB1C5333741EBEC887368F646537 PUSH20 0xFFFFFFFFFFFFFFFFFFFFFFFFFFFFFFFFFFFFFFFF AND PUSH20 0xFFFFFFFFFFFFFFFFFFFFFFFFFFFFFFFFFFFFFFFF AND DUP2 MSTORE PUSH1 0x20 ADD SWAP1 DUP2 MSTORE PUSH1 0x20 ADD PUSH1 0x0 KECCAK256 DUP2 SWAP1 SSTORE POP PUSH1 0x3 PUSH1 0x8 PUSH1 0x0 PUSH20 0xA708BA7F9F3FE47FFC5755A4D7160B0FEE8AD1F5 PUSH20 0xFFFFFFFFFFFFFFFFFFFFFFFFFFFFFFFFFFFFFFFF AND PUSH20 0xFFFFFFFFFFFFFFFFFFFFFFFFFFFFFFFFFFFFFFFF AND DUP2 MSTORE PUSH1 0x20 ADD SWAP1 DUP2 MSTORE PUSH1 0x20 ADD PUSH1 0x0 KECCAK256 DUP2 SWAP1 SSTORE POP PUSH1 0xA PUSH1 0x8 PUSH1 0x0 PUSH20 0x605F1816391E6DBE27500920A14F65B26C2D0AE0 PUSH20 0xFFFFFFFFFFFFFFFFFFFFFFFFFFFFFFFFFFFFFFFF AND PUSH20 0xFFFFFFFFFFFFFFFFFFFFFFFFFFFFFFFFFFFFFFFF AND DUP2 MSTORE PUSH1 0x20 ADD SWAP1 DUP2 MSTORE PUSH1 0x20 ADD PUSH1 0x0 KECCAK256 DUP2 SWAP1 SSTORE POP PUSH1 0xA PUSH1 0x8 PUSH1 0x0 PUSH20 0x54F373D43A6BBA137A359ABF5AD77752E90A18BB PUSH20 0xFFFFFFFFFFFFFFFFFFFFFFFFFFFFFFFFFFFFFFFF AND PUSH20 0xFFFFFFFFFFFFFFFFFFFFFFFFFFFFFFFFFFFFFFFF AND DUP2 MSTORE PUSH1 0x20 ADD SWAP1 DUP2 MSTORE PUSH1 0x20 ADD PUSH1 0x0 KECCAK256 DUP2 SWAP1 SSTORE POP POP POP PUSH3 0xF90 JUMP JUMPDEST PUSH1 0x0 DUP1 REVERT JUMPDEST PUSH1 0x0 PUSH20 0xFFFFFFFFFFFFFFFFFFFFFFFFFFFFFFFFFFFFFFFF DUP3 AND SWAP1 POP SWAP2 SWAP1 POP JUMP JUMPDEST PUSH1 0x0 PUSH3 0xDC3 DUP3 PUSH3 0xD96 JUMP JUMPDEST SWAP1 POP SWAP2 SWAP1 POP JUMP JUMPDEST PUSH3 0xDD5 DUP2 PUSH3 0xDB6 JUMP JUMPDEST DUP2 EQ PUSH3 0xDE1 JUMPI PUSH1 0x0 DUP1 REVERT JUMPDEST POP JUMP JUMPDEST PUSH1 0x0 DUP2 MLOAD SWAP1 POP PUSH3 0xDF5 DUP2 PUSH3 0xDCA JUMP JUMPDEST SWAP3 SWAP2 POP POP JUMP JUMPDEST PUSH1 0x0 DUP1 PUSH1 0x40 DUP4 DUP6 SUB SLT ISZERO PUSH3 0xE15 JUMPI PUSH3 0xE14 PUSH3 0xD91 JUMP JUMPDEST JUMPDEST PUSH1 0x0 PUSH3 0xE25 DUP6 DUP3 DUP7 ADD PUSH3 0xDE4 JUMP JUMPDEST SWAP3 POP POP PUSH1 0x20 PUSH3 0xE38 DUP6 DUP3 DUP7 ADD PUSH3 0xDE4 JUMP JUMPDEST SWAP2 POP POP SWAP3 POP SWAP3 SWAP1 POP JUMP JUMPDEST PUSH1 0x0 DUP2 SWAP1 POP SWAP2 SWAP1 POP JUMP JUMPDEST PUSH3 0xE57 DUP2 PUSH3 0xE42 JUMP JUMPDEST DUP2 EQ PUSH3 0xE63 JUMPI PUSH1 0x0 DUP1 REVERT JUMPDEST POP JUMP JUMPDEST PUSH1 0x0 DUP2 MLOAD SWAP1 POP PUSH3 0xE77 DUP2 PUSH3 0xE4C JUMP JUMPDEST SWAP3 SWAP2 POP POP JUMP JUMPDEST PUSH1 0x0 PUSH1 0x20 DUP3 DUP5 SUB SLT ISZERO PUSH3 0xE96 JUMPI PUSH3 0xE95 PUSH3 0xD91 JUMP JUMPDEST JUMPDEST PUSH1 0x0 PUSH3 0xEA6 DUP5 DUP3 DUP6 ADD PUSH3 0xE66 JUMP JUMPDEST SWAP2 POP POP SWAP3 SWAP2 POP POP JUMP JUMPDEST PUSH32 0x4E487B7100000000000000000000000000000000000000000000000000000000 PUSH1 0x0 MSTORE PUSH1 0x11 PUSH1 0x4 MSTORE PUSH1 0x24 PUSH1 0x0 REVERT JUMPDEST PUSH1 0x0 PUSH3 0xEEB DUP3 PUSH3 0xE42 JUMP JUMPDEST SWAP2 POP PUSH3 0xEF8 DUP4 PUSH3 0xE42 JUMP JUMPDEST SWAP3 POP DUP3 DUP3 MUL PUSH3 0xF08 DUP2 PUSH3 0xE42 JUMP JUMPDEST SWAP2 POP DUP3 DUP3 DIV DUP5 EQ DUP4 ISZERO OR PUSH3 0xF22 JUMPI PUSH3 0xF21 PUSH3 0xEAF JUMP JUMPDEST JUMPDEST POP SWAP3 SWAP2 POP POP JUMP JUMPDEST PUSH32 0x4E487B7100000000000000000000000000000000000000000000000000000000 PUSH1 0x0 MSTORE PUSH1 0x12 PUSH1 0x4 MSTORE PUSH1 0x24 PUSH1 0x0 REVERT JUMPDEST PUSH1 0x0 PUSH3 0xF65 DUP3 PUSH3 0xE42 JUMP JUMPDEST SWAP2 POP PUSH3 0xF72 DUP4 PUSH3 0xE42 JUMP JUMPDEST SWAP3 POP DUP3 PUSH3 0xF85 JUMPI PUSH3 0xF84 PUSH3 0xF29 JUMP JUMPDEST JUMPDEST DUP3 DUP3 DIV SWAP1 POP SWAP3 SWAP2 POP POP JUMP JUMPDEST PUSH2 0x17B0 DUP1 PUSH3 0xFA0 PUSH1 0x0 CODECOPY PUSH1 0x0 RETURN INVALID PUSH1 0x80 PUSH1 0x40 MSTORE PUSH1 0x4 CALLDATASIZE LT PUSH2 0x7B JUMPI PUSH1 0x0 CALLDATALOAD PUSH1 0xE0 SHR DUP1 PUSH4 0x8DD95002 GT PUSH2 0x4E JUMPI DUP1 PUSH4 0x8DD95002 EQ PUSH2 0x136 JUMPI DUP1 PUSH4 0x9CA04D64 EQ PUSH2 0x161 JUMPI DUP1 PUSH4 0xC7EF078C EQ PUSH2 0x17D JUMPI DUP1 PUSH4 0xF60F384B EQ PUSH2 0x1BA JUMPI PUSH2 0x7B JUMP JUMPDEST DUP1 PUSH4 0x32FE7B26 EQ PUSH2 0x80 JUMPI DUP1 PUSH4 0x3CCFD60B EQ PUSH2 0xAB JUMPI DUP1 PUSH4 0x47082DB3 EQ PUSH2 0xC9 JUMPI DUP1 PUSH4 0x5E9D306E EQ PUSH2 0x106 JUMPI JUMPDEST PUSH1 0x0 DUP1 REVERT JUMPDEST CALLVALUE DUP1 ISZERO PUSH2 0x8C JUMPI PUSH1 0x0 DUP1 REVERT JUMPDEST POP PUSH2 0x95 PUSH2 0x1E5 JUMP JUMPDEST PUSH1 0x40 MLOAD PUSH2 0xA2 SWAP2 SWAP1 PUSH2 0xD10 JUMP JUMPDEST PUSH1 0x40 MLOAD DUP1 SWAP2 SUB SWAP1 RETURN JUMPDEST PUSH2 0xB3 PUSH2 0x20B JUMP JUMPDEST PUSH1 0x40 MLOAD PUSH2 0xC0 SWAP2 SWAP1 PUSH2 0xD46 JUMP JUMPDEST PUSH1 0x40 MLOAD DUP1 SWAP2 SUB SWAP1 RETURN JUMPDEST CALLVALUE DUP1 ISZERO PUSH2 0xD5 JUMPI PUSH1 0x0 DUP1 REVERT JUMPDEST POP PUSH2 0xF0 PUSH1 0x4 DUP1 CALLDATASIZE SUB DUP2 ADD SWAP1 PUSH2 0xEB SWAP2 SWAP1 PUSH2 0xDA1 JUMP JUMPDEST PUSH2 0x2EB JUMP JUMPDEST PUSH1 0x40 MLOAD PUSH2 0xFD SWAP2 SWAP1 PUSH2 0xDE7 JUMP JUMPDEST PUSH1 0x40 MLOAD DUP1 SWAP2 SUB SWAP1 RETURN JUMPDEST PUSH2 0x120 PUSH1 0x4 DUP1 CALLDATASIZE SUB DUP2 ADD SWAP1 PUSH2 0x11B SWAP2 SWAP1 PUSH2 0xE6C JUMP JUMPDEST PUSH2 0x303 JUMP JUMPDEST PUSH1 0x40 MLOAD PUSH2 0x12D SWAP2 SWAP1 PUSH2 0xD46 JUMP JUMPDEST PUSH1 0x40 MLOAD DUP1 SWAP2 SUB SWAP1 RETURN JUMPDEST CALLVALUE DUP1 ISZERO PUSH2 0x142 JUMPI PUSH1 0x0 DUP1 REVERT JUMPDEST POP PUSH2 0x14B PUSH2 0x8F3 JUMP JUMPDEST PUSH1 0x40 MLOAD PUSH2 0x158 SWAP2 SWAP1 PUSH2 0xD10 JUMP JUMPDEST PUSH1 0x40 MLOAD DUP1 SWAP2 SUB SWAP1 RETURN JUMPDEST PUSH2 0x17B PUSH1 0x4 DUP1 CALLDATASIZE SUB DUP2 ADD SWAP1 PUSH2 0x176 SWAP2 SWAP1 PUSH2 0x1018 JUMP JUMPDEST PUSH2 0x917 JUMP JUMPDEST STOP JUMPDEST CALLVALUE DUP1 ISZERO PUSH2 0x189 JUMPI PUSH1 0x0 DUP1 REVERT JUMPDEST POP PUSH2 0x1A4 PUSH1 0x4 DUP1 CALLDATASIZE SUB DUP2 ADD SWAP1 PUSH2 0x19F SWAP2 SWAP1 PUSH2 0x1074 JUMP JUMPDEST PUSH2 0xC91 JUMP JUMPDEST PUSH1 0x40 MLOAD PUSH2 0x1B1 SWAP2 SWAP1 PUSH2 0xDE7 JUMP JUMPDEST PUSH1 0x40 MLOAD DUP1 SWAP2 SUB SWAP1 RETURN JUMPDEST CALLVALUE DUP1 ISZERO PUSH2 0x1C6 JUMPI PUSH1 0x0 DUP1 REVERT JUMPDEST POP PUSH2 0x1CF PUSH2 0xCA9 JUMP JUMPDEST PUSH1 0x40 MLOAD PUSH2 0x1DC SWAP2 SWAP1 PUSH2 0xD10 JUMP JUMPDEST PUSH1 0x40 MLOAD DUP1 SWAP2 SUB SWAP1 RETURN JUMPDEST PUSH1 0x1 PUSH1 0x0 SWAP1 SLOAD SWAP1 PUSH2 0x100 EXP SWAP1 DIV PUSH20 0xFFFFFFFFFFFFFFFFFFFFFFFFFFFFFFFFFFFFFFFF AND DUP2 JUMP JUMPDEST PUSH1 0x0 PUSH1 0x3 PUSH1 0x0 SWAP1 SLOAD SWAP1 PUSH2 0x100 EXP SWAP1 DIV PUSH20 0xFFFFFFFFFFFFFFFFFFFFFFFFFFFFFFFFFFFFFFFF AND PUSH20 0xFFFFFFFFFFFFFFFFFFFFFFFFFFFFFFFFFFFFFFFF AND CALLER PUSH20 0xFFFFFFFFFFFFFFFFFFFFFFFFFFFFFFFFFFFFFFFF AND EQ PUSH2 0x29D JUMPI PUSH1 0x40 MLOAD PUSH32 0x8C379A000000000000000000000000000000000000000000000000000000000 DUP2 MSTORE PUSH1 0x4 ADD PUSH2 0x294 SWAP1 PUSH2 0x10FE JUMP JUMPDEST PUSH1 0x40 MLOAD DUP1 SWAP2 SUB SWAP1 REVERT JUMPDEST CALLER PUSH20 0xFFFFFFFFFFFFFFFFFFFFFFFFFFFFFFFFFFFFFFFF AND PUSH2 0x8FC SELFBALANCE SWAP1 DUP2 ISZERO MUL SWAP1 PUSH1 0x40 MLOAD PUSH1 0x0 PUSH1 0x40 MLOAD DUP1 DUP4 SUB DUP2 DUP6 DUP9 DUP9 CALL SWAP4 POP POP POP POP ISZERO DUP1 ISZERO PUSH2 0x2E3 JUMPI RETURNDATASIZE PUSH1 0x0 DUP1 RETURNDATACOPY RETURNDATASIZE PUSH1 0x0 REVERT JUMPDEST POP PUSH1 0x1 SWAP1 POP SWAP1 JUMP JUMPDEST PUSH1 0x8 PUSH1 0x20 MSTORE DUP1 PUSH1 0x0 MSTORE PUSH1 0x40 PUSH1 0x0 KECCAK256 PUSH1 0x0 SWAP2 POP SWAP1 POP SLOAD DUP2 JUMP JUMPDEST PUSH1 0x0 DUP3 PUSH1 0x1 DUP2 LT ISZERO DUP1 ISZERO PUSH2 0x318 JUMPI POP PUSH1 0x9 DUP2 GT ISZERO JUMPDEST PUSH2 0x357 JUMPI PUSH1 0x40 MLOAD PUSH32 0x8C379A000000000000000000000000000000000000000000000000000000000 DUP2 MSTORE PUSH1 0x4 ADD PUSH2 0x34E SWAP1 PUSH2 0x116A JUMP JUMPDEST PUSH1 0x40 MLOAD DUP1 SWAP2 SUB SWAP1 REVERT JUMPDEST PUSH1 0x1 PUSH1 0x8 PUSH1 0x0 CALLER PUSH20 0xFFFFFFFFFFFFFFFFFFFFFFFFFFFFFFFFFFFFFFFF AND PUSH20 0xFFFFFFFFFFFFFFFFFFFFFFFFFFFFFFFFFFFFFFFF AND DUP2 MSTORE PUSH1 0x20 ADD SWAP1 DUP2 MSTORE PUSH1 0x20 ADD PUSH1 0x0 KECCAK256 SLOAD PUSH2 0x3A3 SWAP2 SWAP1 PUSH2 0x11B9 JUMP JUMPDEST DUP5 SUB PUSH2 0x3EE JUMPI DUP4 PUSH1 0x8 PUSH1 0x0 CALLER PUSH20 0xFFFFFFFFFFFFFFFFFFFFFFFFFFFFFFFFFFFFFFFF AND PUSH20 0xFFFFFFFFFFFFFFFFFFFFFFFFFFFFFFFFFFFFFFFF AND DUP2 MSTORE PUSH1 0x20 ADD SWAP1 DUP2 MSTORE PUSH1 0x20 ADD PUSH1 0x0 KECCAK256 DUP2 SWAP1 SSTORE POP JUMPDEST PUSH1 0x60 PUSH1 0x2 PUSH8 0xFFFFFFFFFFFFFFFF DUP2 GT ISZERO PUSH2 0x40B JUMPI PUSH2 0x40A PUSH2 0xED5 JUMP JUMPDEST JUMPDEST PUSH1 0x40 MLOAD SWAP1 DUP1 DUP3 MSTORE DUP1 PUSH1 0x20 MUL PUSH1 0x20 ADD DUP3 ADD PUSH1 0x40 MSTORE DUP1 ISZERO PUSH2 0x439 JUMPI DUP2 PUSH1 0x20 ADD PUSH1 0x20 DUP3 MUL DUP1 CALLDATASIZE DUP4 CALLDATACOPY DUP1 DUP3 ADD SWAP2 POP POP SWAP1 POP JUMPDEST POP SWAP1 POP PUSH1 0x0 DUP1 SLOAD SWAP1 PUSH2 0x100 EXP SWAP1 DIV PUSH20 0xFFFFFFFFFFFFFFFFFFFFFFFFFFFFFFFFFFFFFFFF AND DUP2 PUSH1 0x0 DUP2 MLOAD DUP2 LT PUSH2 0x471 JUMPI PUSH2 0x470 PUSH2 0x11ED JUMP JUMPDEST JUMPDEST PUSH1 0x20 MUL PUSH1 0x20 ADD ADD SWAP1 PUSH20 0xFFFFFFFFFFFFFFFFFFFFFFFFFFFFFFFFFFFFFFFF AND SWAP1 DUP2 PUSH20 0xFFFFFFFFFFFFFFFFFFFFFFFFFFFFFFFFFFFFFFFF AND DUP2 MSTORE POP POP PUSH1 0x2 PUSH1 0x0 SWAP1 SLOAD SWAP1 PUSH2 0x100 EXP SWAP1 DIV PUSH20 0xFFFFFFFFFFFFFFFFFFFFFFFFFFFFFFFFFFFFFFFF AND DUP2 PUSH1 0x1 DUP2 MLOAD DUP2 LT PUSH2 0x4E2 JUMPI PUSH2 0x4E1 PUSH2 0x11ED JUMP JUMPDEST JUMPDEST PUSH1 0x20 MUL PUSH1 0x20 ADD ADD SWAP1 PUSH20 0xFFFFFFFFFFFFFFFFFFFFFFFFFFFFFFFFFFFFFFFF AND SWAP1 DUP2 PUSH20 0xFFFFFFFFFFFFFFFFFFFFFFFFFFFFFFFFFFFFFFFF AND DUP2 MSTORE POP POP PUSH1 0x0 PUSH1 0x64 DUP6 PUSH1 0x23 PUSH2 0x52D SWAP2 SWAP1 PUSH2 0x121C JUMP JUMPDEST PUSH2 0x537 SWAP2 SWAP1 PUSH2 0x128D JUMP JUMPDEST SWAP1 POP PUSH1 0x0 PUSH1 0x64 DUP7 PUSH1 0x1E PUSH2 0x54A SWAP2 SWAP1 PUSH2 0x121C JUMP JUMPDEST PUSH2 0x554 SWAP2 SWAP1 PUSH2 0x128D JUMP JUMPDEST SWAP1 POP PUSH1 0x0 PUSH1 0x64 DUP8 PUSH1 0x14 PUSH2 0x567 SWAP2 SWAP1 PUSH2 0x121C JUMP JUMPDEST PUSH2 0x571 SWAP2 SWAP1 PUSH2 0x128D JUMP JUMPDEST SWAP1 POP PUSH1 0x0 PUSH1 0x64 DUP9 PUSH1 0xF PUSH2 0x584 SWAP2 SWAP1 PUSH2 0x121C JUMP JUMPDEST PUSH2 0x58E SWAP2 SWAP1 PUSH2 0x128D JUMP JUMPDEST SWAP1 POP PUSH1 0x0 DUP10 PUSH1 0x8 PUSH1 0x0 DUP14 PUSH20 0xFFFFFFFFFFFFFFFFFFFFFFFFFFFFFFFFFFFFFFFF AND PUSH20 0xFFFFFFFFFFFFFFFFFFFFFFFFFFFFFFFFFFFFFFFF AND DUP2 MSTORE PUSH1 0x20 ADD SWAP1 DUP2 MSTORE PUSH1 0x20 ADD PUSH1 0x0 KECCAK256 SLOAD LT PUSH2 0x624 JUMPI DUP11 PUSH20 0xFFFFFFFFFFFFFFFFFFFFFFFFFFFFFFFFFFFFFFFF AND PUSH2 0x8FC DUP7 SWAP1 DUP2 ISZERO MUL SWAP1 PUSH1 0x40 MLOAD PUSH1 0x0 PUSH1 0x40 MLOAD DUP1 DUP4 SUB DUP2 DUP6 DUP9 DUP9 CALL SWAP4 POP POP POP POP ISZERO DUP1 ISZERO PUSH2 0x61E JUMPI RETURNDATASIZE PUSH1 0x0 DUP1 RETURNDATACOPY RETURNDATASIZE PUSH1 0x0 REVERT JUMPDEST POP PUSH2 0x68E JUMP JUMPDEST PUSH1 0x4 PUSH1 0x0 SWAP1 SLOAD SWAP1 PUSH2 0x100 EXP SWAP1 DIV PUSH20 0xFFFFFFFFFFFFFFFFFFFFFFFFFFFFFFFFFFFFFFFF AND PUSH20 0xFFFFFFFFFFFFFFFFFFFFFFFFFFFFFFFFFFFFFFFF AND PUSH2 0x8FC DUP7 SWAP1 DUP2 ISZERO MUL SWAP1 PUSH1 0x40 MLOAD PUSH1 0x0 PUSH1 0x40 MLOAD DUP1 DUP4 SUB DUP2 DUP6 DUP9 DUP9 CALL SWAP4 POP POP POP POP ISZERO DUP1 ISZERO PUSH2 0x68C JUMPI RETURNDATASIZE PUSH1 0x0 DUP1 RETURNDATACOPY RETURNDATASIZE PUSH1 0x0 REVERT JUMPDEST POP JUMPDEST PUSH1 0x4 PUSH1 0x0 SWAP1 SLOAD SWAP1 PUSH2 0x100 EXP SWAP1 DIV PUSH20 0xFFFFFFFFFFFFFFFFFFFFFFFFFFFFFFFFFFFFFFFF AND PUSH20 0xFFFFFFFFFFFFFFFFFFFFFFFFFFFFFFFFFFFFFFFF AND PUSH2 0x8FC DUP4 SWAP1 DUP2 ISZERO MUL SWAP1 PUSH1 0x40 MLOAD PUSH1 0x0 PUSH1 0x40 MLOAD DUP1 DUP4 SUB DUP2 DUP6 DUP9 DUP9 CALL SWAP4 POP POP POP POP ISZERO DUP1 ISZERO PUSH2 0x6F6 JUMPI RETURNDATASIZE PUSH1 0x0 DUP1 RETURNDATACOPY RETURNDATASIZE PUSH1 0x0 REVERT JUMPDEST POP PUSH1 0x3 PUSH1 0x0 SWAP1 SLOAD SWAP1 PUSH2 0x100 EXP SWAP1 DIV PUSH20 0xFFFFFFFFFFFFFFFFFFFFFFFFFFFFFFFFFFFFFFFF AND PUSH20 0xFFFFFFFFFFFFFFFFFFFFFFFFFFFFFFFFFFFFFFFF AND PUSH2 0x8FC DUP5 SWAP1 DUP2 ISZERO MUL SWAP1 PUSH1 0x40 MLOAD PUSH1 0x0 PUSH1 0x40 MLOAD DUP1 DUP4 SUB DUP2 DUP6 DUP9 DUP9 CALL SWAP4 POP POP POP POP ISZERO DUP1 ISZERO PUSH2 0x75F JUMPI RETURNDATASIZE PUSH1 0x0 DUP1 RETURNDATACOPY RETURNDATASIZE PUSH1 0x0 REVERT JUMPDEST POP PUSH1 0x1 PUSH1 0x0 SWAP1 SLOAD SWAP1 PUSH2 0x100 EXP SWAP1 DIV PUSH20 0xFFFFFFFFFFFFFFFFFFFFFFFFFFFFFFFFFFFFFFFF AND PUSH20 0xFFFFFFFFFFFFFFFFFFFFFFFFFFFFFFFFFFFFFFFF AND PUSH4 0xB6F9DE95 DUP6 DUP4 DUP10 CALLER PUSH2 0x12C TIMESTAMP PUSH2 0x7B0 SWAP2 SWAP1 PUSH2 0x11B9 JUMP JUMPDEST PUSH1 0x40 MLOAD DUP7 PUSH4 0xFFFFFFFF AND PUSH1 0xE0 SHL DUP2 MSTORE PUSH1 0x4 ADD PUSH2 0x7CF SWAP5 SWAP4 SWAP3 SWAP2 SWAP1 PUSH2 0x137C JUMP JUMPDEST PUSH1 0x0 PUSH1 0x40 MLOAD DUP1 DUP4 SUB DUP2 DUP6 DUP9 DUP1 EXTCODESIZE ISZERO DUP1 ISZERO PUSH2 0x7E8 JUMPI PUSH1 0x0 DUP1 REVERT JUMPDEST POP GAS CALL ISZERO DUP1 ISZERO PUSH2 0x7FC JUMPI RETURNDATASIZE PUSH1 0x0 DUP1 RETURNDATACOPY RETURNDATASIZE PUSH1 0x0 REVERT JUMPDEST POP POP POP POP POP PUSH1 0x6 SLOAD PUSH1 0x2 PUSH1 0x0 SWAP1 SLOAD SWAP1 PUSH2 0x100 EXP SWAP1 DIV PUSH20 0xFFFFFFFFFFFFFFFFFFFFFFFFFFFFFFFFFFFFFFFF AND PUSH20 0xFFFFFFFFFFFFFFFFFFFFFFFFFFFFFFFFFFFFFFFF AND PUSH4 0x70A08231 CALLER PUSH1 0x40 MLOAD DUP3 PUSH4 0xFFFFFFFF AND PUSH1 0xE0 SHL DUP2 MSTORE PUSH1 0x4 ADD PUSH2 0x85F SWAP2 SWAP1 PUSH2 0xD10 JUMP JUMPDEST PUSH1 0x20 PUSH1 0x40 MLOAD DUP1 DUP4 SUB DUP2 DUP7 GAS STATICCALL ISZERO DUP1 ISZERO PUSH2 0x87C JUMPI RETURNDATASIZE PUSH1 0x0 DUP1 RETURNDATACOPY RETURNDATASIZE PUSH1 0x0 REVERT JUMPDEST POP POP POP POP PUSH1 0x40 MLOAD RETURNDATASIZE PUSH1 0x1F NOT PUSH1 0x1F DUP3 ADD AND DUP3 ADD DUP1 PUSH1 0x40 MSTORE POP DUP2 ADD SWAP1 PUSH2 0x8A0 SWAP2 SWAP1 PUSH2 0x13DD JUMP JUMPDEST GT ISZERO PUSH2 0x8E1 JUMPI PUSH1 0x40 MLOAD PUSH32 0x8C379A000000000000000000000000000000000000000000000000000000000 DUP2 MSTORE PUSH1 0x4 ADD PUSH2 0x8D8 SWAP1 PUSH2 0x1456 JUMP JUMPDEST PUSH1 0x40 MLOAD DUP1 SWAP2 SUB SWAP1 REVERT JUMPDEST PUSH1 0x1 SWAP8 POP POP POP POP POP POP POP POP SWAP4 SWAP3 POP POP POP JUMP JUMPDEST PUSH1 0x0 DUP1 SLOAD SWAP1 PUSH2 0x100 EXP SWAP1 DIV PUSH20 0xFFFFFFFFFFFFFFFFFFFFFFFFFFFFFFFFFFFFFFFF AND DUP2 JUMP JUMPDEST PUSH1 0x0 PUSH20 0xFFFFFFFFFFFFFFFFFFFFFFFFFFFFFFFFFFFFFFFF AND DUP3 PUSH20 0xFFFFFFFFFFFFFFFFFFFFFFFFFFFFFFFFFFFFFFFF AND SUB PUSH2 0x986 JUMPI PUSH1 0x40 MLOAD PUSH32 0x8C379A000000000000000000000000000000000000000000000000000000000 DUP2 MSTORE PUSH1 0x4 ADD PUSH2 0x97D SWAP1 PUSH2 0x14C2 JUMP JUMPDEST PUSH1 0x40 MLOAD DUP1 SWAP2 SUB SWAP1 REVERT JUMPDEST CALLER PUSH20 0xFFFFFFFFFFFFFFFFFFFFFFFFFFFFFFFFFFFFFFFF AND DUP3 PUSH20 0xFFFFFFFFFFFFFFFFFFFFFFFFFFFFFFFFFFFFFFFF AND SUB PUSH2 0x9F4 JUMPI PUSH1 0x40 MLOAD PUSH32 0x8C379A000000000000000000000000000000000000000000000000000000000 DUP2 MSTORE PUSH1 0x4 ADD PUSH2 0x9EB SWAP1 PUSH2 0x152E JUMP JUMPDEST PUSH1 0x40 MLOAD DUP1 SWAP2 SUB SWAP1 REVERT JUMPDEST PUSH1 0x0 CALLVALUE SWAP1 POP PUSH1 0x0 JUMPDEST DUP3 MLOAD DUP2 LT ISZERO PUSH2 0xC8B JUMPI PUSH1 0xA DUP4 DUP3 DUP2 MLOAD DUP2 LT PUSH2 0xA1A JUMPI PUSH2 0xA19 PUSH2 0x11ED JUMP JUMPDEST JUMPDEST PUSH1 0x20 MUL PUSH1 0x20 ADD ADD MLOAD LT ISZERO PUSH2 0xC78 JUMPI DUP3 DUP2 DUP2 MLOAD DUP2 LT PUSH2 0xA3B JUMPI PUSH2 0xA3A PUSH2 0x11ED JUMP JUMPDEST JUMPDEST PUSH1 0x20 MUL PUSH1 0x20 ADD ADD MLOAD PUSH1 0x8 PUSH1 0x0 CALLER PUSH20 0xFFFFFFFFFFFFFFFFFFFFFFFFFFFFFFFFFFFFFFFF AND PUSH20 0xFFFFFFFFFFFFFFFFFFFFFFFFFFFFFFFFFFFFFFFF AND DUP2 MSTORE PUSH1 0x20 ADD SWAP1 DUP2 MSTORE PUSH1 0x20 ADD PUSH1 0x0 KECCAK256 SLOAD LT ISZERO PUSH2 0xAC4 JUMPI PUSH1 0x40 MLOAD PUSH32 0x8C379A000000000000000000000000000000000000000000000000000000000 DUP2 MSTORE PUSH1 0x4 ADD PUSH2 0xABB SWAP1 PUSH2 0x159A JUMP JUMPDEST PUSH1 0x40 MLOAD DUP1 SWAP2 SUB SWAP1 REVERT JUMPDEST PUSH1 0x1 DUP4 MLOAD PUSH2 0xAD2 SWAP2 SWAP1 PUSH2 0x15BA JUMP JUMPDEST DUP2 EQ PUSH2 0xB67 JUMPI PUSH1 0x1 DUP4 PUSH1 0x1 DUP4 PUSH2 0xAE8 SWAP2 SWAP1 PUSH2 0x11B9 JUMP JUMPDEST DUP2 MLOAD DUP2 LT PUSH2 0xAF9 JUMPI PUSH2 0xAF8 PUSH2 0x11ED JUMP JUMPDEST JUMPDEST PUSH1 0x20 MUL PUSH1 0x20 ADD ADD MLOAD PUSH2 0xB0B SWAP2 SWAP1 PUSH2 0x15BA JUMP JUMPDEST DUP4 DUP3 DUP2 MLOAD DUP2 LT PUSH2 0xB1E JUMPI PUSH2 0xB1D PUSH2 0x11ED JUMP JUMPDEST JUMPDEST PUSH1 0x20 MUL PUSH1 0x20 ADD ADD MLOAD EQ PUSH2 0xB66 JUMPI PUSH1 0x40 MLOAD PUSH32 0x8C379A000000000000000000000000000000000000000000000000000000000 DUP2 MSTORE PUSH1 0x4 ADD PUSH2 0xB5D SWAP1 PUSH2 0x163A JUMP JUMPDEST PUSH1 0x40 MLOAD DUP1 SWAP2 SUB SWAP1 REVERT JUMPDEST JUMPDEST PUSH1 0x7 PUSH1 0x0 DUP5 DUP4 DUP2 MLOAD DUP2 LT PUSH2 0xB7E JUMPI PUSH2 0xB7D PUSH2 0x11ED JUMP JUMPDEST JUMPDEST PUSH1 0x20 MUL PUSH1 0x20 ADD ADD MLOAD DUP2 MSTORE PUSH1 0x20 ADD SWAP1 DUP2 MSTORE PUSH1 0x20 ADD PUSH1 0x0 KECCAK256 SLOAD DUP3 PUSH2 0xBA0 SWAP2 SWAP1 PUSH2 0x15BA JUMP JUMPDEST SWAP2 POP PUSH1 0x0 DUP3 LT ISZERO PUSH2 0xBE6 JUMPI PUSH1 0x40 MLOAD PUSH32 0x8C379A000000000000000000000000000000000000000000000000000000000 DUP2 MSTORE PUSH1 0x4 ADD PUSH2 0xBDD SWAP1 PUSH2 0x16A6 JUMP JUMPDEST PUSH1 0x40 MLOAD DUP1 SWAP2 SUB SWAP1 REVERT JUMPDEST PUSH2 0xC38 DUP5 DUP5 DUP4 DUP2 MLOAD DUP2 LT PUSH2 0xBFD JUMPI PUSH2 0xBFC PUSH2 0x11ED JUMP JUMPDEST JUMPDEST PUSH1 0x20 MUL PUSH1 0x20 ADD ADD MLOAD PUSH1 0x7 PUSH1 0x0 DUP8 DUP7 DUP2 MLOAD DUP2 LT PUSH2 0xC1C JUMPI PUSH2 0xC1B PUSH2 0x11ED JUMP JUMPDEST JUMPDEST PUSH1 0x20 MUL PUSH1 0x20 ADD ADD MLOAD DUP2 MSTORE PUSH1 0x20 ADD SWAP1 DUP2 MSTORE PUSH1 0x20 ADD PUSH1 0x0 KECCAK256 SLOAD PUSH2 0x303 JUMP JUMPDEST PUSH2 0xC77 JUMPI PUSH1 0x40 MLOAD PUSH32 0x8C379A000000000000000000000000000000000000000000000000000000000 DUP2 MSTORE PUSH1 0x4 ADD PUSH2 0xC6E SWAP1 PUSH2 0x1712 JUMP JUMPDEST PUSH1 0x40 MLOAD DUP1 SWAP2 SUB SWAP1 REVERT JUMPDEST JUMPDEST DUP1 DUP1 PUSH2 0xC83 SWAP1 PUSH2 0x1732 JUMP JUMPDEST SWAP2 POP POP PUSH2 0x9FC JUMP JUMPDEST POP POP POP POP JUMP JUMPDEST PUSH1 0x7 PUSH1 0x20 MSTORE DUP1 PUSH1 0x0 MSTORE PUSH1 0x40 PUSH1 0x0 KECCAK256 PUSH1 0x0 SWAP2 POP SWAP1 POP SLOAD DUP2 JUMP JUMPDEST PUSH1 0x2 PUSH1 0x0 SWAP1 SLOAD SWAP1 PUSH2 0x100 EXP SWAP1 DIV PUSH20 0xFFFFFFFFFFFFFFFFFFFFFFFFFFFFFFFFFFFFFFFF AND DUP2 JUMP JUMPDEST PUSH1 0x0 PUSH20 0xFFFFFFFFFFFFFFFFFFFFFFFFFFFFFFFFFFFFFFFF DUP3 AND SWAP1 POP SWAP2 SWAP1 POP JUMP JUMPDEST PUSH1 0x0 PUSH2 0xCFA DUP3 PUSH2 0xCCF JUMP JUMPDEST SWAP1 POP SWAP2 SWAP1 POP JUMP JUMPDEST PUSH2 0xD0A DUP2 PUSH2 0xCEF JUMP JUMPDEST DUP3 MSTORE POP POP JUMP JUMPDEST PUSH1 0x0 PUSH1 0x20 DUP3 ADD SWAP1 POP PUSH2 0xD25 PUSH1 0x0 DUP4 ADD DUP5 PUSH2 0xD01 JUMP JUMPDEST SWAP3 SWAP2 POP POP JUMP JUMPDEST PUSH1 0x0 DUP2 ISZERO ISZERO SWAP1 POP SWAP2 SWAP1 POP JUMP JUMPDEST PUSH2 0xD40 DUP2 PUSH2 0xD2B JUMP JUMPDEST DUP3 MSTORE POP POP JUMP JUMPDEST PUSH1 0x0 PUSH1 0x20 DUP3 ADD SWAP1 POP PUSH2 0xD5B PUSH1 0x0 DUP4 ADD DUP5 PUSH2 0xD37 JUMP JUMPDEST SWAP3 SWAP2 POP POP JUMP JUMPDEST PUSH1 0x0 PUSH1 0x40 MLOAD SWAP1 POP SWAP1 JUMP JUMPDEST PUSH1 0x0 DUP1 REVERT JUMPDEST PUSH1 0x0 DUP1 REVERT JUMPDEST PUSH2 0xD7E DUP2 PUSH2 0xCEF JUMP JUMPDEST DUP2 EQ PUSH2 0xD89 JUMPI PUSH1 0x0 DUP1 REVERT JUMPDEST POP JUMP JUMPDEST PUSH1 0x0 DUP2 CALLDATALOAD SWAP1 POP PUSH2 0xD9B DUP2 PUSH2 0xD75 JUMP JUMPDEST SWAP3 SWAP2 POP POP JUMP JUMPDEST PUSH1 0x0 PUSH1 0x20 DUP3 DUP5 SUB SLT ISZERO PUSH2 0xDB7 JUMPI PUSH2 0xDB6 PUSH2 0xD6B JUMP JUMPDEST JUMPDEST PUSH1 0x0 PUSH2 0xDC5 DUP5 DUP3 DUP6 ADD PUSH2 0xD8C JUMP JUMPDEST SWAP2 POP POP SWAP3 SWAP2 POP POP JUMP JUMPDEST PUSH1 0x0 DUP2 SWAP1 POP SWAP2 SWAP1 POP JUMP JUMPDEST PUSH2 0xDE1 DUP2 PUSH2 0xDCE JUMP JUMPDEST DUP3 MSTORE POP POP JUMP JUMPDEST PUSH1 0x0 PUSH1 0x20 DUP3 ADD SWAP1 POP PUSH2 0xDFC PUSH1 0x0 DUP4 ADD DUP5 PUSH2 0xDD8 JUMP JUMPDEST SWAP3 SWAP2 POP POP JUMP JUMPDEST PUSH1 0x0 PUSH2 0xE0D DUP3 PUSH2 0xCCF JUMP JUMPDEST SWAP1 POP SWAP2 SWAP1 POP JUMP JUMPDEST PUSH2 0xE1D DUP2 PUSH2 0xE02 JUMP JUMPDEST DUP2 EQ PUSH2 0xE28 JUMPI PUSH1 0x0 DUP1 REVERT JUMPDEST POP JUMP JUMPDEST PUSH1 0x0 DUP2 CALLDATALOAD SWAP1 POP PUSH2 0xE3A DUP2 PUSH2 0xE14 JUMP JUMPDEST SWAP3 SWAP2 POP POP JUMP JUMPDEST PUSH2 0xE49 DUP2 PUSH2 0xDCE JUMP JUMPDEST DUP2 EQ PUSH2 0xE54 JUMPI PUSH1 0x0 DUP1 REVERT JUMPDEST POP JUMP JUMPDEST PUSH1 0x0 DUP2 CALLDATALOAD SWAP1 POP PUSH2 0xE66 DUP2 PUSH2 0xE40 JUMP JUMPDEST SWAP3 SWAP2 POP POP JUMP JUMPDEST PUSH1 0x0 DUP1 PUSH1 0x0 PUSH1 0x60 DUP5 DUP7 SUB SLT ISZERO PUSH2 0xE85 JUMPI PUSH2 0xE84 PUSH2 0xD6B JUMP JUMPDEST JUMPDEST PUSH1 0x0 PUSH2 0xE93 DUP7 DUP3 DUP8 ADD PUSH2 0xE2B JUMP JUMPDEST SWAP4 POP POP PUSH1 0x20 PUSH2 0xEA4 DUP7 DUP3 DUP8 ADD PUSH2 0xE57 JUMP JUMPDEST SWAP3 POP POP PUSH1 0x40 PUSH2 0xEB5 DUP7 DUP3 DUP8 ADD PUSH2 0xE57 JUMP JUMPDEST SWAP2 POP POP SWAP3 POP SWAP3 POP SWAP3 JUMP JUMPDEST PUSH1 0x0 DUP1 REVERT JUMPDEST PUSH1 0x0 PUSH1 0x1F NOT PUSH1 0x1F DUP4 ADD AND SWAP1 POP SWAP2 SWAP1 POP JUMP JUMPDEST PUSH32 0x4E487B7100000000000000000000000000000000000000000000000000000000 PUSH1 0x0 MSTORE PUSH1 0x41 PUSH1 0x4 MSTORE PUSH1 0x24 PUSH1 0x0 REVERT JUMPDEST PUSH2 0xF0D DUP3 PUSH2 0xEC4 JUMP JUMPDEST DUP2 ADD DUP2 DUP2 LT PUSH8 0xFFFFFFFFFFFFFFFF DUP3 GT OR ISZERO PUSH2 0xF2C JUMPI PUSH2 0xF2B PUSH2 0xED5 JUMP JUMPDEST JUMPDEST DUP1 PUSH1 0x40 MSTORE POP POP POP JUMP JUMPDEST PUSH1 0x0 PUSH2 0xF3F PUSH2 0xD61 JUMP JUMPDEST SWAP1 POP PUSH2 0xF4B DUP3 DUP3 PUSH2 0xF04 JUMP JUMPDEST SWAP2 SWAP1 POP JUMP JUMPDEST PUSH1 0x0 PUSH8 0xFFFFFFFFFFFFFFFF DUP3 GT ISZERO PUSH2 0xF6B JUMPI PUSH2 0xF6A PUSH2 0xED5 JUMP JUMPDEST JUMPDEST PUSH1 0x20 DUP3 MUL SWAP1 POP PUSH1 0x20 DUP2 ADD SWAP1 POP SWAP2 SWAP1 POP JUMP JUMPDEST PUSH1 0x0 DUP1 REVERT JUMPDEST PUSH1 0x0 PUSH2 0xF94 PUSH2 0xF8F DUP5 PUSH2 0xF50 JUMP JUMPDEST PUSH2 0xF35 JUMP JUMPDEST SWAP1 POP DUP1 DUP4 DUP3 MSTORE PUSH1 0x20 DUP3 ADD SWAP1 POP PUSH1 0x20 DUP5 MUL DUP4 ADD DUP6 DUP2 GT ISZERO PUSH2 0xFB7 JUMPI PUSH2 0xFB6 PUSH2 0xF7C JUMP JUMPDEST JUMPDEST DUP4 JUMPDEST DUP2 DUP2 LT ISZERO PUSH2 0xFE0 JUMPI DUP1 PUSH2 0xFCC DUP9 DUP3 PUSH2 0xE57 JUMP JUMPDEST DUP5 MSTORE PUSH1 0x20 DUP5 ADD SWAP4 POP POP PUSH1 0x20 DUP2 ADD SWAP1 POP PUSH2 0xFB9 JUMP JUMPDEST POP POP POP SWAP4 SWAP3 POP POP POP JUMP JUMPDEST PUSH1 0x0 DUP3 PUSH1 0x1F DUP4 ADD SLT PUSH2 0xFFF JUMPI PUSH2 0xFFE PUSH2 0xEBF JUMP JUMPDEST JUMPDEST DUP2 CALLDATALOAD PUSH2 0x100F DUP5 DUP3 PUSH1 0x20 DUP7 ADD PUSH2 0xF81 JUMP JUMPDEST SWAP2 POP POP SWAP3 SWAP2 POP POP JUMP JUMPDEST PUSH1 0x0 DUP1 PUSH1 0x40 DUP4 DUP6 SUB SLT ISZERO PUSH2 0x102F JUMPI PUSH2 0x102E PUSH2 0xD6B JUMP JUMPDEST JUMPDEST PUSH1 0x0 PUSH2 0x103D DUP6 DUP3 DUP7 ADD PUSH2 0xE2B JUMP JUMPDEST SWAP3 POP POP PUSH1 0x20 DUP4 ADD CALLDATALOAD PUSH8 0xFFFFFFFFFFFFFFFF DUP2 GT ISZERO PUSH2 0x105E JUMPI PUSH2 0x105D PUSH2 0xD70 JUMP JUMPDEST JUMPDEST PUSH2 0x106A DUP6 DUP3 DUP7 ADD PUSH2 0xFEA JUMP JUMPDEST SWAP2 POP POP SWAP3 POP SWAP3 SWAP1 POP JUMP JUMPDEST PUSH1 0x0 PUSH1 0x20 DUP3 DUP5 SUB SLT ISZERO PUSH2 0x108A JUMPI PUSH2 0x1089 PUSH2 0xD6B JUMP JUMPDEST JUMPDEST PUSH1 0x0 PUSH2 0x1098 DUP5 DUP3 DUP6 ADD PUSH2 0xE57 JUMP JUMPDEST SWAP2 POP POP SWAP3 SWAP2 POP POP JUMP JUMPDEST PUSH1 0x0 DUP3 DUP3 MSTORE PUSH1 0x20 DUP3 ADD SWAP1 POP SWAP3 SWAP2 POP POP JUMP JUMPDEST PUSH32 0x4F6E6C794F776E65722E00000000000000000000000000000000000000000000 PUSH1 0x0 DUP3 ADD MSTORE POP JUMP JUMPDEST PUSH1 0x0 PUSH2 0x10E8 PUSH1 0xA DUP4 PUSH2 0x10A1 JUMP JUMPDEST SWAP2 POP PUSH2 0x10F3 DUP3 PUSH2 0x10B2 JUMP JUMPDEST PUSH1 0x20 DUP3 ADD SWAP1 POP SWAP2 SWAP1 POP JUMP JUMPDEST PUSH1 0x0 PUSH1 0x20 DUP3 ADD SWAP1 POP DUP2 DUP2 SUB PUSH1 0x0 DUP4 ADD MSTORE PUSH2 0x1117 DUP2 PUSH2 0x10DB JUMP JUMPDEST SWAP1 POP SWAP2 SWAP1 POP JUMP JUMPDEST PUSH32 0x496E76616C6964205061636B6167652E00000000000000000000000000000000 PUSH1 0x0 DUP3 ADD MSTORE POP JUMP JUMPDEST PUSH1 0x0 PUSH2 0x1154 PUSH1 0x10 DUP4 PUSH2 0x10A1 JUMP JUMPDEST SWAP2 POP PUSH2 0x115F DUP3 PUSH2 0x111E JUMP JUMPDEST PUSH1 0x20 DUP3 ADD SWAP1 POP SWAP2 SWAP1 POP JUMP JUMPDEST PUSH1 0x0 PUSH1 0x20 DUP3 ADD SWAP1 POP DUP2 DUP2 SUB PUSH1 0x0 DUP4 ADD MSTORE PUSH2 0x1183 DUP2 PUSH2 0x1147 JUMP JUMPDEST SWAP1 POP SWAP2 SWAP1 POP JUMP JUMPDEST PUSH32 0x4E487B7100000000000000000000000000000000000000000000000000000000 PUSH1 0x0 MSTORE PUSH1 0x11 PUSH1 0x4 MSTORE PUSH1 0x24 PUSH1 0x0 REVERT JUMPDEST PUSH1 0x0 PUSH2 0x11C4 DUP3 PUSH2 0xDCE JUMP JUMPDEST SWAP2 POP PUSH2 0x11CF DUP4 PUSH2 0xDCE JUMP JUMPDEST SWAP3 POP DUP3 DUP3 ADD SWAP1 POP DUP1 DUP3 GT ISZERO PUSH2 0x11E7 JUMPI PUSH2 0x11E6 PUSH2 0x118A JUMP JUMPDEST JUMPDEST SWAP3 SWAP2 POP POP JUMP JUMPDEST PUSH32 0x4E487B7100000000000000000000000000000000000000000000000000000000 PUSH1 0x0 MSTORE PUSH1 0x32 PUSH1 0x4 MSTORE PUSH1 0x24 PUSH1 0x0 REVERT JUMPDEST PUSH1 0x0 PUSH2 0x1227 DUP3 PUSH2 0xDCE JUMP JUMPDEST SWAP2 POP PUSH2 0x1232 DUP4 PUSH2 0xDCE JUMP JUMPDEST SWAP3 POP DUP3 DUP3 MUL PUSH2 0x1240 DUP2 PUSH2 0xDCE JUMP JUMPDEST SWAP2 POP DUP3 DUP3 DIV DUP5 EQ DUP4 ISZERO OR PUSH2 0x1257 JUMPI PUSH2 0x1256 PUSH2 0x118A JUMP JUMPDEST JUMPDEST POP SWAP3 SWAP2 POP POP JUMP JUMPDEST PUSH32 0x4E487B7100000000000000000000000000000000000000000000000000000000 PUSH1 0x0 MSTORE PUSH1 0x12 PUSH1 0x4 MSTORE PUSH1 0x24 PUSH1 0x0 REVERT JUMPDEST PUSH1 0x0 PUSH2 0x1298 DUP3 PUSH2 0xDCE JUMP JUMPDEST SWAP2 POP PUSH2 0x12A3 DUP4 PUSH2 0xDCE JUMP JUMPDEST SWAP3 POP DUP3 PUSH2 0x12B3 JUMPI PUSH2 0x12B2 PUSH2 0x125E JUMP JUMPDEST JUMPDEST DUP3 DUP3 DIV SWAP1 POP SWAP3 SWAP2 POP POP JUMP JUMPDEST PUSH1 0x0 DUP2 MLOAD SWAP1 POP SWAP2 SWAP1 POP JUMP JUMPDEST PUSH1 0x0 DUP3 DUP3 MSTORE PUSH1 0x20 DUP3 ADD SWAP1 POP SWAP3 SWAP2 POP POP JUMP JUMPDEST PUSH1 0x0 DUP2 SWAP1 POP PUSH1 0x20 DUP3 ADD SWAP1 POP SWAP2 SWAP1 POP JUMP JUMPDEST PUSH2 0x12F3 DUP2 PUSH2 0xCEF JUMP JUMPDEST DUP3 MSTORE POP POP JUMP JUMPDEST PUSH1 0x0 PUSH2 0x1305 DUP4 DUP4 PUSH2 0x12EA JUMP JUMPDEST PUSH1 0x20 DUP4 ADD SWAP1 POP SWAP3 SWAP2 POP POP JUMP JUMPDEST PUSH1 0x0 PUSH1 0x20 DUP3 ADD SWAP1 POP SWAP2 SWAP1 POP JUMP JUMPDEST PUSH1 0x0 PUSH2 0x1329 DUP3 PUSH2 0x12BE JUMP JUMPDEST PUSH2 0x1333 DUP2 DUP6 PUSH2 0x12C9 JUMP JUMPDEST SWAP4 POP PUSH2 0x133E DUP4 PUSH2 0x12DA JUMP JUMPDEST DUP1 PUSH1 0x0 JUMPDEST DUP4 DUP2 LT ISZERO PUSH2 0x136F JUMPI DUP2 MLOAD PUSH2 0x1356 DUP9 DUP3 PUSH2 0x12F9 JUMP JUMPDEST SWAP8 POP PUSH2 0x1361 DUP4 PUSH2 0x1311 JUMP JUMPDEST SWAP3 POP POP PUSH1 0x1 DUP2 ADD SWAP1 POP PUSH2 0x1342 JUMP JUMPDEST POP DUP6 SWAP4 POP POP POP POP SWAP3 SWAP2 POP POP JUMP JUMPDEST PUSH1 0x0 PUSH1 0x80 DUP3 ADD SWAP1 POP PUSH2 0x1391 PUSH1 0x0 DUP4 ADD DUP8 PUSH2 0xDD8 JUMP JUMPDEST DUP2 DUP2 SUB PUSH1 0x20 DUP4 ADD MSTORE PUSH2 0x13A3 DUP2 DUP7 PUSH2 0x131E JUMP JUMPDEST SWAP1 POP PUSH2 0x13B2 PUSH1 0x40 DUP4 ADD DUP6 PUSH2 0xD01 JUMP JUMPDEST PUSH2 0x13BF PUSH1 0x60 DUP4 ADD DUP5 PUSH2 0xDD8 JUMP JUMPDEST SWAP6 SWAP5 POP POP POP POP POP JUMP JUMPDEST PUSH1 0x0 DUP2 MLOAD SWAP1 POP PUSH2 0x13D7 DUP2 PUSH2 0xE40 JUMP JUMPDEST SWAP3 SWAP2 POP POP JUMP JUMPDEST PUSH1 0x0 PUSH1 0x20 DUP3 DUP5 SUB SLT ISZERO PUSH2 0x13F3 JUMPI PUSH2 0x13F2 PUSH2 0xD6B JUMP JUMPDEST JUMPDEST PUSH1 0x0 PUSH2 0x1401 DUP5 DUP3 DUP6 ADD PUSH2 0x13C8 JUMP JUMPDEST SWAP2 POP POP SWAP3 SWAP2 POP POP JUMP JUMPDEST PUSH32 0x4D617820546F6B656E2E00000000000000000000000000000000000000000000 PUSH1 0x0 DUP3 ADD MSTORE POP JUMP JUMPDEST PUSH1 0x0 PUSH2 0x1440 PUSH1 0xA DUP4 PUSH2 0x10A1 JUMP JUMPDEST SWAP2 POP PUSH2 0x144B DUP3 PUSH2 0x140A JUMP JUMPDEST PUSH1 0x20 DUP3 ADD SWAP1 POP SWAP2 SWAP1 POP JUMP JUMPDEST PUSH1 0x0 PUSH1 0x20 DUP3 ADD SWAP1 POP DUP2 DUP2 SUB PUSH1 0x0 DUP4 ADD MSTORE PUSH2 0x146F DUP2 PUSH2 0x1433 JUMP JUMPDEST SWAP1 POP SWAP2 SWAP1 POP JUMP JUMPDEST PUSH32 0x526566657272616C206973203020616464726573732E00000000000000000000 PUSH1 0x0 DUP3 ADD MSTORE POP JUMP JUMPDEST PUSH1 0x0 PUSH2 0x14AC PUSH1 0x16 DUP4 PUSH2 0x10A1 JUMP JUMPDEST SWAP2 POP PUSH2 0x14B7 DUP3 PUSH2 0x1476 JUMP JUMPDEST PUSH1 0x20 DUP3 ADD SWAP1 POP SWAP2 SWAP1 POP JUMP JUMPDEST PUSH1 0x0 PUSH1 0x20 DUP3 ADD SWAP1 POP DUP2 DUP2 SUB PUSH1 0x0 DUP4 ADD MSTORE PUSH2 0x14DB DUP2 PUSH2 0x149F JUMP JUMPDEST SWAP1 POP SWAP2 SWAP1 POP JUMP JUMPDEST PUSH32 0x526566657272616C2063616E277420626520796F752E00000000000000000000 PUSH1 0x0 DUP3 ADD MSTORE POP JUMP JUMPDEST PUSH1 0x0 PUSH2 0x1518 PUSH1 0x16 DUP4 PUSH2 0x10A1 JUMP JUMPDEST SWAP2 POP PUSH2 0x1523 DUP3 PUSH2 0x14E2 JUMP JUMPDEST PUSH1 0x20 DUP3 ADD SWAP1 POP SWAP2 SWAP1 POP JUMP JUMPDEST PUSH1 0x0 PUSH1 0x20 DUP3 ADD SWAP1 POP DUP2 DUP2 SUB PUSH1 0x0 DUP4 ADD MSTORE PUSH2 0x1547 DUP2 PUSH2 0x150B JUMP JUMPDEST SWAP1 POP SWAP2 SWAP1 POP JUMP JUMPDEST PUSH32 0x496E76616C6964204C6576656C2E000000000000000000000000000000000000 PUSH1 0x0 DUP3 ADD MSTORE POP JUMP JUMPDEST PUSH1 0x0 PUSH2 0x1584 PUSH1 0xE DUP4 PUSH2 0x10A1 JUMP JUMPDEST SWAP2 POP PUSH2 0x158F DUP3 PUSH2 0x154E JUMP JUMPDEST PUSH1 0x20 DUP3 ADD SWAP1 POP SWAP2 SWAP1 POP JUMP JUMPDEST PUSH1 0x0 PUSH1 0x20 DUP3 ADD SWAP1 POP DUP2 DUP2 SUB PUSH1 0x0 DUP4 ADD MSTORE PUSH2 0x15B3 DUP2 PUSH2 0x1577 JUMP JUMPDEST SWAP1 POP SWAP2 SWAP1 POP JUMP JUMPDEST PUSH1 0x0 PUSH2 0x15C5 DUP3 PUSH2 0xDCE JUMP JUMPDEST SWAP2 POP PUSH2 0x15D0 DUP4 PUSH2 0xDCE JUMP JUMPDEST SWAP3 POP DUP3 DUP3 SUB SWAP1 POP DUP2 DUP2 GT ISZERO PUSH2 0x15E8 JUMPI PUSH2 0x15E7 PUSH2 0x118A JUMP JUMPDEST JUMPDEST SWAP3 SWAP2 POP POP JUMP JUMPDEST PUSH32 0x4E6F7420436F6E73656375746976652E00000000000000000000000000000000 PUSH1 0x0 DUP3 ADD MSTORE POP JUMP JUMPDEST PUSH1 0x0 PUSH2 0x1624 PUSH1 0x10 DUP4 PUSH2 0x10A1 JUMP JUMPDEST SWAP2 POP PUSH2 0x162F DUP3 PUSH2 0x15EE JUMP JUMPDEST PUSH1 0x20 DUP3 ADD SWAP1 POP SWAP2 SWAP1 POP JUMP JUMPDEST PUSH1 0x0 PUSH1 0x20 DUP3 ADD SWAP1 POP DUP2 DUP2 SUB PUSH1 0x0 DUP4 ADD MSTORE PUSH2 0x1653 DUP2 PUSH2 0x1617 JUMP JUMPDEST SWAP1 POP SWAP2 SWAP1 POP JUMP JUMPDEST PUSH32 0x496E76616C6964205061796D656E742E00000000000000000000000000000000 PUSH1 0x0 DUP3 ADD MSTORE POP JUMP JUMPDEST PUSH1 0x0 PUSH2 0x1690 PUSH1 0x10 DUP4 PUSH2 0x10A1 JUMP JUMPDEST SWAP2 POP PUSH2 0x169B DUP3 PUSH2 0x165A JUMP JUMPDEST PUSH1 0x20 DUP3 ADD SWAP1 POP SWAP2 SWAP1 POP JUMP JUMPDEST PUSH1 0x0 PUSH1 0x20 DUP3 ADD SWAP1 POP DUP2 DUP2 SUB PUSH1 0x0 DUP4 ADD MSTORE PUSH2 0x16BF DUP2 PUSH2 0x1683 JUMP JUMPDEST SWAP1 POP SWAP2 SWAP1 POP JUMP JUMPDEST PUSH32 0x5061636B616765206E6F742042757965642E0000000000000000000000000000 PUSH1 0x0 DUP3 ADD MSTORE POP JUMP JUMPDEST PUSH1 0x0 PUSH2 0x16FC PUSH1 0x12 DUP4 PUSH2 0x10A1 JUMP JUMPDEST SWAP2 POP PUSH2 0x1707 DUP3 PUSH2 0x16C6 JUMP JUMPDEST PUSH1 0x20 DUP3 ADD SWAP1 POP SWAP2 SWAP1 POP JUMP JUMPDEST PUSH1 0x0 PUSH1 0x20 DUP3 ADD SWAP1 POP DUP2 DUP2 SUB PUSH1 0x0 DUP4 ADD MSTORE PUSH2 0x172B DUP2 PUSH2 0x16EF JUMP JUMPDEST SWAP1 POP SWAP2 SWAP1 POP JUMP JUMPDEST PUSH1 0x0 PUSH2 0x173D DUP3 PUSH2 0xDCE JUMP JUMPDEST SWAP2 POP PUSH32 0xFFFFFFFFFFFFFFFFFFFFFFFFFFFFFFFFFFFFFFFFFFFFFFFFFFFFFFFFFFFFFFFF DUP3 SUB PUSH2 0x176F JUMPI PUSH2 0x176E PUSH2 0x118A JUMP JUMPDEST JUMPDEST PUSH1 0x1 DUP3 ADD SWAP1 POP SWAP2 SWAP1 POP JUMP INVALID LOG2 PUSH5 0x6970667358 0x22 SLT KECCAK256 RETURNDATACOPY PUSH31 0x4D5EAB7EB5550BECF71AD1995485EC5F3702DCA56D96A345DBE4B683971464 PUSH20 0x6F6C634300081100330000000000000000000000 "},"methodIdentifiers":{"Packages(uint256)":"c7ef078c","ROUTER()":"32fe7b26","SHIBAFRICA()":"f60f384b","WBNB()":"8dd95002","buyPackage(address,uint256,uint256)":"5e9d306e","buyPackages(address,uint256[])":"9ca04d64","levels(address)":"47082db3","withdraw()":"3ccfd60b"}}}}}