{"contracts/ShibaAfrica.sol":{"ShibAfrica":{"abi":[{"inputs":[{"internalType":"address","name":"_owner","type":"address"},{"internalType":"address","name":"_buyback","type":"address"}],"stateMutability":"nonpayable","type":"constructor"},{"inputs":[{"internalType":"uint256","name":"","type":"uint256"}],"name":"Packages","outputs":[{"internalType":"uint256","name":"","type":"uint256"}],"stateMutability":"view","type":"function"},{"inputs":[],"name":"ROUTER","outputs":[{"internalType":"address","name":"","type":"address"}],"stateMutability":"view","type":"function"},{"inputs":[],"name":"SHIBAFRICA","outputs":[{"internalType":"address","name":"","type":"address"}],"stateMutability":"view","type":"function"},{"inputs":[],"name":"WBNB","outputs":[{"internalType":"address","name":"","type":"address"}],"stateMutability":"view","type":"function"},{"inputs":[{"internalType":"address payable","name":"referral","type":"address"},{"internalType":"uint256","name":"package","type":"uint256"},{"internalType":"uint256","name":"amount","type":"uint256"}],"name":"buyPackage","outputs":[{"internalType":"bool","name":"","type":"bool"}],"stateMutability":"payable","type":"function"},{"inputs":[{"internalType":"address payable","name":"referral","type":"address"},{"internalType":"uint256[]","name":"packages","type":"uint256[]"}],"name":"buyPackages","outputs":[],"stateMutability":"payable","type":"function"},{"inputs":[{"internalType":"address","name":"","type":"address"}],"name":"levels","outputs":[{"internalType":"uint256","name":"","type":"uint256"}],"stateMutability":"view","type":"function"},{"inputs":[{"internalType":"address","name":"user","type":"address"},{"internalType":"uint256","name":"level","type":"uint256"}],"name":"setLevel","outputs":[],"stateMutability":"nonpayable","type":"function"}],"evm":{"bytecode":{"linkReferences":{},"object":"608060405273bb4cdb9cbd36b01bd1cbaebf2de08d9173bc095c6000806101000a81548173ffffffffffffffffffffffffffffffffffffffff021916908373ffffffffffffffffffffffffffffffffffffffff1602179055507310ed43c718714eb63d5aa57b78b54704e256024e600160006101000a81548173ffffffffffffffffffffffffffffffffffffffff021916908373ffffffffffffffffffffffffffffffffffffffff16021790555073e31013216cdc0cf54a9da564e69c213a30435f1d600260006101000a81548173ffffffffffffffffffffffffffffffffffffffff021916908373ffffffffffffffffffffffffffffffffffffffff1602179055503480156200010f57600080fd5b5060405162001c3b38038062001c3b833981810160405281019062000135919062000495565b81600360006101000a81548173ffffffffffffffffffffffffffffffffffffffff021916908373ffffffffffffffffffffffffffffffffffffffff160217905550620001ab600360009054906101000a900473ffffffffffffffffffffffffffffffffffffffff16600a620002f960201b60201c565b80600460006101000a81548173ffffffffffffffffffffffffffffffffffffffff021916908373ffffffffffffffffffffffffffffffffffffffff1602179055506001600560006001815260200190815260200160002081905550600260056000600281526020019081526020016000208190555060058060006003815260200190815260200160002081905550600a60056000600481526020019081526020016000208190555060146005600060058152602001908152602001600020819055506032600560006006815260200190815260200160002081905550606460056000600781526020019081526020016000208190555060c860056000600881526020019081526020016000208190555061019060056000600981526020019081526020016000208190555061032060056000600a8152602001908152602001600020819055505050620005d1565b600360009054906101000a900473ffffffffffffffffffffffffffffffffffffffff1673ffffffffffffffffffffffffffffffffffffffff163373ffffffffffffffffffffffffffffffffffffffff16146200038c576040517f08c379a000000000000000000000000000000000000000000000000000000000815260040162000383906200053d565b60405180910390fd5b8060018110158015620003a0575060098111155b620003e2576040517f08c379a0000000000000000000000000000000000000000000000000000000008152600401620003d990620005af565b60405180910390fd5b81600660008573ffffffffffffffffffffffffffffffffffffffff1673ffffffffffffffffffffffffffffffffffffffff16815260200190815260200160002081905550505050565b600080fd5b600073ffffffffffffffffffffffffffffffffffffffff82169050919050565b60006200045d8262000430565b9050919050565b6200046f8162000450565b81146200047b57600080fd5b50565b6000815190506200048f8162000464565b92915050565b60008060408385031215620004af57620004ae6200042b565b5b6000620004bf858286016200047e565b9250506020620004d2858286016200047e565b9150509250929050565b600082825260208201905092915050565b7f4f6e6c794f776e65722e00000000000000000000000000000000000000000000600082015250565b600062000525600a83620004dc565b91506200053282620004ed565b602082019050919050565b60006020820190508181036000830152620005588162000516565b9050919050565b7f496e76616c6964205061636b6167652e00000000000000000000000000000000600082015250565b600062000597601083620004dc565b9150620005a4826200055f565b602082019050919050565b60006020820190508181036000830152620005ca8162000588565b9050919050565b61165a80620005e16000396000f3fe60806040526004361061007b5760003560e01c80638dd950021161004e5780638dd95002146101415780639ca04d641461016c578063c7ef078c14610188578063f60f384b146101c55761007b565b806332fe7b261461008057806347082db3146100ab5780635e9d306e146100e8578063722dcd8f14610118575b600080fd5b34801561008c57600080fd5b506100956101f0565b6040516100a29190610bc6565b60405180910390f35b3480156100b757600080fd5b506100d260048036038101906100cd9190610c21565b610216565b6040516100df9190610c67565b60405180910390f35b61010260048036038101906100fd9190610cec565b61022e565b60405161010f9190610d5a565b60405180910390f35b34801561012457600080fd5b5061013f600480360381019061013a9190610d75565b61075e565b005b34801561014d57600080fd5b50610156610889565b6040516101639190610bc6565b60405180910390f35b61018660048036038101906101819190610f0e565b6108ad565b005b34801561019457600080fd5b506101af60048036038101906101aa9190610f6a565b610b47565b6040516101bc9190610c67565b60405180910390f35b3480156101d157600080fd5b506101da610b5f565b6040516101e79190610bc6565b60405180910390f35b600160009054906101000a900473ffffffffffffffffffffffffffffffffffffffff1681565b60066020528060005260406000206000915090505481565b60008260018110158015610243575060098111155b610282576040517f08c379a000000000000000000000000000000000000000000000000000000000815260040161027990610ff4565b60405180910390fd5b6001600660003373ffffffffffffffffffffffffffffffffffffffff1673ffffffffffffffffffffffffffffffffffffffff168152602001908152602001600020546102ce9190611043565b84036103195783600660003373ffffffffffffffffffffffffffffffffffffffff1673ffffffffffffffffffffffffffffffffffffffff168152602001908152602001600020819055505b6000606484602361032a9190611077565b61033491906110e8565b90506000606485601e6103479190611077565b61035191906110e8565b9050600060648660146103649190611077565b61036e91906110e8565b90506000606487600f6103819190611077565b61038b91906110e8565b905087600660008b73ffffffffffffffffffffffffffffffffffffffff1673ffffffffffffffffffffffffffffffffffffffff168152602001908152602001600020541061041f578873ffffffffffffffffffffffffffffffffffffffff166108fc859081150290604051600060405180830381858888f19350505050158015610419573d6000803e3d6000fd5b50610489565b600460009054906101000a900473ffffffffffffffffffffffffffffffffffffffff1673ffffffffffffffffffffffffffffffffffffffff166108fc859081150290604051600060405180830381858888f19350505050158015610487573d6000803e3d6000fd5b505b600460009054906101000a900473ffffffffffffffffffffffffffffffffffffffff1673ffffffffffffffffffffffffffffffffffffffff166108fc829081150290604051600060405180830381858888f193505050501580156104f1573d6000803e3d6000fd5b50600360009054906101000a900473ffffffffffffffffffffffffffffffffffffffff1673ffffffffffffffffffffffffffffffffffffffff166108fc839081150290604051600060405180830381858888f1935050505015801561055a573d6000803e3d6000fd5b506060600267ffffffffffffffff81111561057857610577610dcb565b5b6040519080825280602002602001820160405280156105a65781602001602082028036833780820191505090505b50905060008054906101000a900473ffffffffffffffffffffffffffffffffffffffff16816000815181106105de576105dd611119565b5b602002602001019073ffffffffffffffffffffffffffffffffffffffff16908173ffffffffffffffffffffffffffffffffffffffff1681525050600260009054906101000a900473ffffffffffffffffffffffffffffffffffffffff168160018151811061064f5761064e611119565b5b602002602001019073ffffffffffffffffffffffffffffffffffffffff16908173ffffffffffffffffffffffffffffffffffffffff1681525050600160009054906101000a900473ffffffffffffffffffffffffffffffffffffffff1673ffffffffffffffffffffffffffffffffffffffff16637ff36ab589600084336103e8426106da91906110e8565b426106e59190611043565b6040518663ffffffff1660e01b8152600401610704949392919061124b565b60006040518083038185885af1158015610722573d6000803e3d6000fd5b50505050506040513d6000823e3d601f19601f8201168201806040525081019061074c9190611343565b50600196505050505050509392505050565b600360009054906101000a900473ffffffffffffffffffffffffffffffffffffffff1673ffffffffffffffffffffffffffffffffffffffff163373ffffffffffffffffffffffffffffffffffffffff16146107ee576040517f08c379a00000000000000000000000000000000000000000000000000000000081526004016107e5906113d8565b60405180910390fd5b8060018110158015610801575060098111155b610840576040517f08c379a000000000000000000000000000000000000000000000000000000000815260040161083790610ff4565b60405180910390fd5b81600660008573ffffffffffffffffffffffffffffffffffffffff1673ffffffffffffffffffffffffffffffffffffffff16815260200190815260200160002081905550505050565b60008054906101000a900473ffffffffffffffffffffffffffffffffffffffff1681565b6000349050600660003373ffffffffffffffffffffffffffffffffffffffff1673ffffffffffffffffffffffffffffffffffffffff168152602001908152602001600020548260008151811061090657610905611119565b5b6020026020010151101561094f576040517f08c379a000000000000000000000000000000000000000000000000000000000815260040161094690611444565b60405180910390fd5b60005b8251811015610b4157600183516109699190611464565b81146109fe5760018360018361097f9190611043565b815181106109905761098f611119565b5b60200260200101516109a29190611464565b8382815181106109b5576109b4611119565b5b6020026020010151146109fd576040517f08c379a00000000000000000000000000000000000000000000000000000000081526004016109f4906114e4565b60405180910390fd5b5b60646005806000600185610a129190611043565b815260200190815260200160002054610a2b9190611077565b610a3591906110e8565b82610a409190611464565b91506000821015610a86576040517f08c379a0000000000000000000000000000000000000000000000000000000008152600401610a7d90611550565b60405180910390fd5b610aef84848381518110610a9d57610a9c611119565b5b602002602001015160646005806000898881518110610abf57610abe611119565b5b6020026020010151815260200190815260200160002054610ae09190611077565b610aea91906110e8565b61022e565b610b2e576040517f08c379a0000000000000000000000000000000000000000000000000000000008152600401610b25906115bc565b60405180910390fd5b8080610b39906115dc565b915050610952565b50505050565b60056020528060005260406000206000915090505481565b600260009054906101000a900473ffffffffffffffffffffffffffffffffffffffff1681565b600073ffffffffffffffffffffffffffffffffffffffff82169050919050565b6000610bb082610b85565b9050919050565b610bc081610ba5565b82525050565b6000602082019050610bdb6000830184610bb7565b92915050565b6000604051905090565b600080fd5b600080fd5b610bfe81610ba5565b8114610c0957600080fd5b50565b600081359050610c1b81610bf5565b92915050565b600060208284031215610c3757610c36610beb565b5b6000610c4584828501610c0c565b91505092915050565b6000819050919050565b610c6181610c4e565b82525050565b6000602082019050610c7c6000830184610c58565b92915050565b6000610c8d82610b85565b9050919050565b610c9d81610c82565b8114610ca857600080fd5b50565b600081359050610cba81610c94565b92915050565b610cc981610c4e565b8114610cd457600080fd5b50565b600081359050610ce681610cc0565b92915050565b600080600060608486031215610d0557610d04610beb565b5b6000610d1386828701610cab565b9350506020610d2486828701610cd7565b9250506040610d3586828701610cd7565b9150509250925092565b60008115159050919050565b610d5481610d3f565b82525050565b6000602082019050610d6f6000830184610d4b565b92915050565b60008060408385031215610d8c57610d8b610beb565b5b6000610d9a85828601610c0c565b9250506020610dab85828601610cd7565b9150509250929050565b600080fd5b6000601f19601f8301169050919050565b7f4e487b7100000000000000000000000000000000000000000000000000000000600052604160045260246000fd5b610e0382610dba565b810181811067ffffffffffffffff82111715610e2257610e21610dcb565b5b80604052505050565b6000610e35610be1565b9050610e418282610dfa565b919050565b600067ffffffffffffffff821115610e6157610e60610dcb565b5b602082029050602081019050919050565b600080fd5b6000610e8a610e8584610e46565b610e2b565b90508083825260208201905060208402830185811115610ead57610eac610e72565b5b835b81811015610ed65780610ec28882610cd7565b845260208401935050602081019050610eaf565b5050509392505050565b600082601f830112610ef557610ef4610db5565b5b8135610f05848260208601610e77565b91505092915050565b60008060408385031215610f2557610f24610beb565b5b6000610f3385828601610cab565b925050602083013567ffffffffffffffff811115610f5457610f53610bf0565b5b610f6085828601610ee0565b9150509250929050565b600060208284031215610f8057610f7f610beb565b5b6000610f8e84828501610cd7565b91505092915050565b600082825260208201905092915050565b7f496e76616c6964205061636b6167652e00000000000000000000000000000000600082015250565b6000610fde601083610f97565b9150610fe982610fa8565b602082019050919050565b6000602082019050818103600083015261100d81610fd1565b9050919050565b7f4e487b7100000000000000000000000000000000000000000000000000000000600052601160045260246000fd5b600061104e82610c4e565b915061105983610c4e565b925082820190508082111561107157611070611014565b5b92915050565b600061108282610c4e565b915061108d83610c4e565b925082820261109b81610c4e565b915082820484148315176110b2576110b1611014565b5b5092915050565b7f4e487b7100000000000000000000000000000000000000000000000000000000600052601260045260246000fd5b60006110f382610c4e565b91506110fe83610c4e565b92508261110e5761110d6110b9565b5b828204905092915050565b7f4e487b7100000000000000000000000000000000000000000000000000000000600052603260045260246000fd5b6000819050919050565b6000819050919050565b600061117761117261116d84611148565b611152565b610c4e565b9050919050565b6111878161115c565b82525050565b600081519050919050565b600082825260208201905092915050565b6000819050602082019050919050565b6111c281610ba5565b82525050565b60006111d483836111b9565b60208301905092915050565b6000602082019050919050565b60006111f88261118d565b6112028185611198565b935061120d836111a9565b8060005b8381101561123e57815161122588826111c8565b9750611230836111e0565b925050600181019050611211565b5085935050505092915050565b6000608082019050611260600083018761117e565b818103602083015261127281866111ed565b90506112816040830185610bb7565b61128e6060830184610c58565b95945050505050565b6000815190506112a681610cc0565b92915050565b60006112bf6112ba84610e46565b610e2b565b905080838252602082019050602084028301858111156112e2576112e1610e72565b5b835b8181101561130b57806112f78882611297565b8452602084019350506020810190506112e4565b5050509392505050565b600082601f83011261132a57611329610db5565b5b815161133a8482602086016112ac565b91505092915050565b60006020828403121561135957611358610beb565b5b600082015167ffffffffffffffff81111561137757611376610bf0565b5b61138384828501611315565b91505092915050565b7f4f6e6c794f776e65722e00000000000000000000000000000000000000000000600082015250565b60006113c2600a83610f97565b91506113cd8261138c565b602082019050919050565b600060208201905081810360008301526113f1816113b5565b9050919050565b7f496e76616c6964204c6576656c2e000000000000000000000000000000000000600082015250565b600061142e600e83610f97565b9150611439826113f8565b602082019050919050565b6000602082019050818103600083015261145d81611421565b9050919050565b600061146f82610c4e565b915061147a83610c4e565b925082820390508181111561149257611491611014565b5b92915050565b7f4e6f7420436f6e73656375746976652e00000000000000000000000000000000600082015250565b60006114ce601083610f97565b91506114d982611498565b602082019050919050565b600060208201905081810360008301526114fd816114c1565b9050919050565b7f496e76616c6964205061796d656e742e00000000000000000000000000000000600082015250565b600061153a601083610f97565b915061154582611504565b602082019050919050565b600060208201905081810360008301526115698161152d565b9050919050565b7f5061636b616765206e6f742042757965642e0000000000000000000000000000600082015250565b60006115a6601283610f97565b91506115b182611570565b602082019050919050565b600060208201905081810360008301526115d581611599565b9050919050565b60006115e782610c4e565b91507fffffffffffffffffffffffffffffffffffffffffffffffffffffffffffffffff820361161957611618611014565b5b60018201905091905056fea264697066735822122056f61c14fd5facfbe169c8ab4b70f96d8dde097557afcefab81e4b0f58109c4764736f6c63430008110033","opcodes":"PUSH1 0x80 PUSH1 0x40 MSTORE PUSH20 0xBB4CDB9CBD36B01BD1CBAEBF2DE08D9173BC095C PUSH1 0x0 DUP1 PUSH2 0x100 EXP DUP2 SLOAD DUP2 PUSH20 0xFFFFFFFFFFFFFFFFFFFFFFFFFFFFFFFFFFFFFFFF MUL NOT AND SWAP1 DUP4 PUSH20 0xFFFFFFFFFFFFFFFFFFFFFFFFFFFFFFFFFFFFFFFF AND MUL OR SWAP1 SSTORE POP PUSH20 0x10ED43C718714EB63D5AA57B78B54704E256024E PUSH1 0x1 PUSH1 0x0 PUSH2 0x100 EXP DUP2 SLOAD DUP2 PUSH20 0xFFFFFFFFFFFFFFFFFFFFFFFFFFFFFFFFFFFFFFFF MUL NOT AND SWAP1 DUP4 PUSH20 0xFFFFFFFFFFFFFFFFFFFFFFFFFFFFFFFFFFFFFFFF AND MUL OR SWAP1 SSTORE POP PUSH20 0xE31013216CDC0CF54A9DA564E69C213A30435F1D PUSH1 0x2 PUSH1 0x0 PUSH2 0x100 EXP DUP2 SLOAD DUP2 PUSH20 0xFFFFFFFFFFFFFFFFFFFFFFFFFFFFFFFFFFFFFFFF MUL NOT AND SWAP1 DUP4 PUSH20 0xFFFFFFFFFFFFFFFFFFFFFFFFFFFFFFFFFFFFFFFF AND MUL OR SWAP1 SSTORE POP CALLVALUE DUP1 ISZERO PUSH3 0x10F JUMPI PUSH1 0x0 DUP1 REVERT JUMPDEST POP PUSH1 0x40 MLOAD PUSH3 0x1C3B CODESIZE SUB DUP1 PUSH3 0x1C3B DUP4 CODECOPY DUP2 DUP2 ADD PUSH1 0x40 MSTORE DUP2 ADD SWAP1 PUSH3 0x135 SWAP2 SWAP1 PUSH3 0x495 JUMP JUMPDEST DUP2 PUSH1 0x3 PUSH1 0x0 PUSH2 0x100 EXP DUP2 SLOAD DUP2 PUSH20 0xFFFFFFFFFFFFFFFFFFFFFFFFFFFFFFFFFFFFFFFF MUL NOT AND SWAP1 DUP4 PUSH20 0xFFFFFFFFFFFFFFFFFFFFFFFFFFFFFFFFFFFFFFFF AND MUL OR SWAP1 SSTORE POP PUSH3 0x1AB PUSH1 0x3 PUSH1 0x0 SWAP1 SLOAD SWAP1 PUSH2 0x100 EXP SWAP1 DIV PUSH20 0xFFFFFFFFFFFFFFFFFFFFFFFFFFFFFFFFFFFFFFFF AND PUSH1 0xA PUSH3 0x2F9 PUSH1 0x20 SHL PUSH1 0x20 SHR JUMP JUMPDEST DUP1 PUSH1 0x4 PUSH1 0x0 PUSH2 0x100 EXP DUP2 SLOAD DUP2 PUSH20 0xFFFFFFFFFFFFFFFFFFFFFFFFFFFFFFFFFFFFFFFF MUL NOT AND SWAP1 DUP4 PUSH20 0xFFFFFFFFFFFFFFFFFFFFFFFFFFFFFFFFFFFFFFFF AND MUL OR SWAP1 SSTORE POP PUSH1 0x1 PUSH1 0x5 PUSH1 0x0 PUSH1 0x1 DUP2 MSTORE PUSH1 0x20 ADD SWAP1 DUP2 MSTORE PUSH1 0x20 ADD PUSH1 0x0 KECCAK256 DUP2 SWAP1 SSTORE POP PUSH1 0x2 PUSH1 0x5 PUSH1 0x0 PUSH1 0x2 DUP2 MSTORE PUSH1 0x20 ADD SWAP1 DUP2 MSTORE PUSH1 0x20 ADD PUSH1 0x0 KECCAK256 DUP2 SWAP1 SSTORE POP PUSH1 0x5 DUP1 PUSH1 0x0 PUSH1 0x3 DUP2 MSTORE PUSH1 0x20 ADD SWAP1 DUP2 MSTORE PUSH1 0x20 ADD PUSH1 0x0 KECCAK256 DUP2 SWAP1 SSTORE POP PUSH1 0xA PUSH1 0x5 PUSH1 0x0 PUSH1 0x4 DUP2 MSTORE PUSH1 0x20 ADD SWAP1 DUP2 MSTORE PUSH1 0x20 ADD PUSH1 0x0 KECCAK256 DUP2 SWAP1 SSTORE POP PUSH1 0x14 PUSH1 0x5 PUSH1 0x0 PUSH1 0x5 DUP2 MSTORE PUSH1 0x20 ADD SWAP1 DUP2 MSTORE PUSH1 0x20 ADD PUSH1 0x0 KECCAK256 DUP2 SWAP1 SSTORE POP PUSH1 0x32 PUSH1 0x5 PUSH1 0x0 PUSH1 0x6 DUP2 MSTORE PUSH1 0x20 ADD SWAP1 DUP2 MSTORE PUSH1 0x20 ADD PUSH1 0x0 KECCAK256 DUP2 SWAP1 SSTORE POP PUSH1 0x64 PUSH1 0x5 PUSH1 0x0 PUSH1 0x7 DUP2 MSTORE PUSH1 0x20 ADD SWAP1 DUP2 MSTORE PUSH1 0x20 ADD PUSH1 0x0 KECCAK256 DUP2 SWAP1 SSTORE POP PUSH1 0xC8 PUSH1 0x5 PUSH1 0x0 PUSH1 0x8 DUP2 MSTORE PUSH1 0x20 ADD SWAP1 DUP2 MSTORE PUSH1 0x20 ADD PUSH1 0x0 KECCAK256 DUP2 SWAP1 SSTORE POP PUSH2 0x190 PUSH1 0x5 PUSH1 0x0 PUSH1 0x9 DUP2 MSTORE PUSH1 0x20 ADD SWAP1 DUP2 MSTORE PUSH1 0x20 ADD PUSH1 0x0 KECCAK256 DUP2 SWAP1 SSTORE POP PUSH2 0x320 PUSH1 0x5 PUSH1 0x0 PUSH1 0xA DUP2 MSTORE PUSH1 0x20 ADD SWAP1 DUP2 MSTORE PUSH1 0x20 ADD PUSH1 0x0 KECCAK256 DUP2 SWAP1 SSTORE POP POP POP PUSH3 0x5D1 JUMP JUMPDEST PUSH1 0x3 PUSH1 0x0 SWAP1 SLOAD SWAP1 PUSH2 0x100 EXP SWAP1 DIV PUSH20 0xFFFFFFFFFFFFFFFFFFFFFFFFFFFFFFFFFFFFFFFF AND PUSH20 0xFFFFFFFFFFFFFFFFFFFFFFFFFFFFFFFFFFFFFFFF AND CALLER PUSH20 0xFFFFFFFFFFFFFFFFFFFFFFFFFFFFFFFFFFFFFFFF AND EQ PUSH3 0x38C JUMPI PUSH1 0x40 MLOAD PUSH32 0x8C379A000000000000000000000000000000000000000000000000000000000 DUP2 MSTORE PUSH1 0x4 ADD PUSH3 0x383 SWAP1 PUSH3 0x53D JUMP JUMPDEST PUSH1 0x40 MLOAD DUP1 SWAP2 SUB SWAP1 REVERT JUMPDEST DUP1 PUSH1 0x1 DUP2 LT ISZERO DUP1 ISZERO PUSH3 0x3A0 JUMPI POP PUSH1 0x9 DUP2 GT ISZERO JUMPDEST PUSH3 0x3E2 JUMPI PUSH1 0x40 MLOAD PUSH32 0x8C379A000000000000000000000000000000000000000000000000000000000 DUP2 MSTORE PUSH1 0x4 ADD PUSH3 0x3D9 SWAP1 PUSH3 0x5AF JUMP JUMPDEST PUSH1 0x40 MLOAD DUP1 SWAP2 SUB SWAP1 REVERT JUMPDEST DUP2 PUSH1 0x6 PUSH1 0x0 DUP6 PUSH20 0xFFFFFFFFFFFFFFFFFFFFFFFFFFFFFFFFFFFFFFFF AND PUSH20 0xFFFFFFFFFFFFFFFFFFFFFFFFFFFFFFFFFFFFFFFF AND DUP2 MSTORE PUSH1 0x20 ADD SWAP1 DUP2 MSTORE PUSH1 0x20 ADD PUSH1 0x0 KECCAK256 DUP2 SWAP1 SSTORE POP POP POP POP JUMP JUMPDEST PUSH1 0x0 DUP1 REVERT JUMPDEST PUSH1 0x0 PUSH20 0xFFFFFFFFFFFFFFFFFFFFFFFFFFFFFFFFFFFFFFFF DUP3 AND SWAP1 POP SWAP2 SWAP1 POP JUMP JUMPDEST PUSH1 0x0 PUSH3 0x45D DUP3 PUSH3 0x430 JUMP JUMPDEST SWAP1 POP SWAP2 SWAP1 POP JUMP JUMPDEST PUSH3 0x46F DUP2 PUSH3 0x450 JUMP JUMPDEST DUP2 EQ PUSH3 0x47B JUMPI PUSH1 0x0 DUP1 REVERT JUMPDEST POP JUMP JUMPDEST PUSH1 0x0 DUP2 MLOAD SWAP1 POP PUSH3 0x48F DUP2 PUSH3 0x464 JUMP JUMPDEST SWAP3 SWAP2 POP POP JUMP JUMPDEST PUSH1 0x0 DUP1 PUSH1 0x40 DUP4 DUP6 SUB SLT ISZERO PUSH3 0x4AF JUMPI PUSH3 0x4AE PUSH3 0x42B JUMP JUMPDEST JUMPDEST PUSH1 0x0 PUSH3 0x4BF DUP6 DUP3 DUP7 ADD PUSH3 0x47E JUMP JUMPDEST SWAP3 POP POP PUSH1 0x20 PUSH3 0x4D2 DUP6 DUP3 DUP7 ADD PUSH3 0x47E JUMP JUMPDEST SWAP2 POP POP SWAP3 POP SWAP3 SWAP1 POP JUMP JUMPDEST PUSH1 0x0 DUP3 DUP3 MSTORE PUSH1 0x20 DUP3 ADD SWAP1 POP SWAP3 SWAP2 POP POP JUMP JUMPDEST PUSH32 0x4F6E6C794F776E65722E00000000000000000000000000000000000000000000 PUSH1 0x0 DUP3 ADD MSTORE POP JUMP JUMPDEST PUSH1 0x0 PUSH3 0x525 PUSH1 0xA DUP4 PUSH3 0x4DC JUMP JUMPDEST SWAP2 POP PUSH3 0x532 DUP3 PUSH3 0x4ED JUMP JUMPDEST PUSH1 0x20 DUP3 ADD SWAP1 POP SWAP2 SWAP1 POP JUMP JUMPDEST PUSH1 0x0 PUSH1 0x20 DUP3 ADD SWAP1 POP DUP2 DUP2 SUB PUSH1 0x0 DUP4 ADD MSTORE PUSH3 0x558 DUP2 PUSH3 0x516 JUMP JUMPDEST SWAP1 POP SWAP2 SWAP1 POP JUMP JUMPDEST PUSH32 0x496E76616C6964205061636B6167652E00000000000000000000000000000000 PUSH1 0x0 DUP3 ADD MSTORE POP JUMP JUMPDEST PUSH1 0x0 PUSH3 0x597 PUSH1 0x10 DUP4 PUSH3 0x4DC JUMP JUMPDEST SWAP2 POP PUSH3 0x5A4 DUP3 PUSH3 0x55F JUMP JUMPDEST PUSH1 0x20 DUP3 ADD SWAP1 POP SWAP2 SWAP1 POP JUMP JUMPDEST PUSH1 0x0 PUSH1 0x20 DUP3 ADD SWAP1 POP DUP2 DUP2 SUB PUSH1 0x0 DUP4 ADD MSTORE PUSH3 0x5CA DUP2 PUSH3 0x588 JUMP JUMPDEST SWAP1 POP SWAP2 SWAP1 POP JUMP JUMPDEST PUSH2 0x165A DUP1 PUSH3 0x5E1 PUSH1 0x0 CODECOPY PUSH1 0x0 RETURN INVALID PUSH1 0x80 PUSH1 0x40 MSTORE PUSH1 0x4 CALLDATASIZE LT PUSH2 0x7B JUMPI PUSH1 0x0 CALLDATALOAD PUSH1 0xE0 SHR DUP1 PUSH4 0x8DD95002 GT PUSH2 0x4E JUMPI DUP1 PUSH4 0x8DD95002 EQ PUSH2 0x141 JUMPI DUP1 PUSH4 0x9CA04D64 EQ PUSH2 0x16C JUMPI DUP1 PUSH4 0xC7EF078C EQ PUSH2 0x188 JUMPI DUP1 PUSH4 0xF60F384B EQ PUSH2 0x1C5 JUMPI PUSH2 0x7B JUMP JUMPDEST DUP1 PUSH4 0x32FE7B26 EQ PUSH2 0x80 JUMPI DUP1 PUSH4 0x47082DB3 EQ PUSH2 0xAB JUMPI DUP1 PUSH4 0x5E9D306E EQ PUSH2 0xE8 JUMPI DUP1 PUSH4 0x722DCD8F EQ PUSH2 0x118 JUMPI JUMPDEST PUSH1 0x0 DUP1 REVERT JUMPDEST CALLVALUE DUP1 ISZERO PUSH2 0x8C JUMPI PUSH1 0x0 DUP1 REVERT JUMPDEST POP PUSH2 0x95 PUSH2 0x1F0 JUMP JUMPDEST PUSH1 0x40 MLOAD PUSH2 0xA2 SWAP2 SWAP1 PUSH2 0xBC6 JUMP JUMPDEST PUSH1 0x40 MLOAD DUP1 SWAP2 SUB SWAP1 RETURN JUMPDEST CALLVALUE DUP1 ISZERO PUSH2 0xB7 JUMPI PUSH1 0x0 DUP1 REVERT JUMPDEST POP PUSH2 0xD2 PUSH1 0x4 DUP1 CALLDATASIZE SUB DUP2 ADD SWAP1 PUSH2 0xCD SWAP2 SWAP1 PUSH2 0xC21 JUMP JUMPDEST PUSH2 0x216 JUMP JUMPDEST PUSH1 0x40 MLOAD PUSH2 0xDF SWAP2 SWAP1 PUSH2 0xC67 JUMP JUMPDEST PUSH1 0x40 MLOAD DUP1 SWAP2 SUB SWAP1 RETURN JUMPDEST PUSH2 0x102 PUSH1 0x4 DUP1 CALLDATASIZE SUB DUP2 ADD SWAP1 PUSH2 0xFD SWAP2 SWAP1 PUSH2 0xCEC JUMP JUMPDEST PUSH2 0x22E JUMP JUMPDEST PUSH1 0x40 MLOAD PUSH2 0x10F SWAP2 SWAP1 PUSH2 0xD5A JUMP JUMPDEST PUSH1 0x40 MLOAD DUP1 SWAP2 SUB SWAP1 RETURN JUMPDEST CALLVALUE DUP1 ISZERO PUSH2 0x124 JUMPI PUSH1 0x0 DUP1 REVERT JUMPDEST POP PUSH2 0x13F PUSH1 0x4 DUP1 CALLDATASIZE SUB DUP2 ADD SWAP1 PUSH2 0x13A SWAP2 SWAP1 PUSH2 0xD75 JUMP JUMPDEST PUSH2 0x75E JUMP JUMPDEST STOP JUMPDEST CALLVALUE DUP1 ISZERO PUSH2 0x14D JUMPI PUSH1 0x0 DUP1 REVERT JUMPDEST POP PUSH2 0x156 PUSH2 0x889 JUMP JUMPDEST PUSH1 0x40 MLOAD PUSH2 0x163 SWAP2 SWAP1 PUSH2 0xBC6 JUMP JUMPDEST PUSH1 0x40 MLOAD DUP1 SWAP2 SUB SWAP1 RETURN JUMPDEST PUSH2 0x186 PUSH1 0x4 DUP1 CALLDATASIZE SUB DUP2 ADD SWAP1 PUSH2 0x181 SWAP2 SWAP1 PUSH2 0xF0E JUMP JUMPDEST PUSH2 0x8AD JUMP JUMPDEST STOP JUMPDEST CALLVALUE DUP1 ISZERO PUSH2 0x194 JUMPI PUSH1 0x0 DUP1 REVERT JUMPDEST POP PUSH2 0x1AF PUSH1 0x4 DUP1 CALLDATASIZE SUB DUP2 ADD SWAP1 PUSH2 0x1AA SWAP2 SWAP1 PUSH2 0xF6A JUMP JUMPDEST PUSH2 0xB47 JUMP JUMPDEST PUSH1 0x40 MLOAD PUSH2 0x1BC SWAP2 SWAP1 PUSH2 0xC67 JUMP JUMPDEST PUSH1 0x40 MLOAD DUP1 SWAP2 SUB SWAP1 RETURN JUMPDEST CALLVALUE DUP1 ISZERO PUSH2 0x1D1 JUMPI PUSH1 0x0 DUP1 REVERT JUMPDEST POP PUSH2 0x1DA PUSH2 0xB5F JUMP JUMPDEST PUSH1 0x40 MLOAD PUSH2 0x1E7 SWAP2 SWAP1 PUSH2 0xBC6 JUMP JUMPDEST PUSH1 0x40 MLOAD DUP1 SWAP2 SUB SWAP1 RETURN JUMPDEST PUSH1 0x1 PUSH1 0x0 SWAP1 SLOAD SWAP1 PUSH2 0x100 EXP SWAP1 DIV PUSH20 0xFFFFFFFFFFFFFFFFFFFFFFFFFFFFFFFFFFFFFFFF AND DUP2 JUMP JUMPDEST PUSH1 0x6 PUSH1 0x20 MSTORE DUP1 PUSH1 0x0 MSTORE PUSH1 0x40 PUSH1 0x0 KECCAK256 PUSH1 0x0 SWAP2 POP SWAP1 POP SLOAD DUP2 JUMP JUMPDEST PUSH1 0x0 DUP3 PUSH1 0x1 DUP2 LT ISZERO DUP1 ISZERO PUSH2 0x243 JUMPI POP PUSH1 0x9 DUP2 GT ISZERO JUMPDEST PUSH2 0x282 JUMPI PUSH1 0x40 MLOAD PUSH32 0x8C379A000000000000000000000000000000000000000000000000000000000 DUP2 MSTORE PUSH1 0x4 ADD PUSH2 0x279 SWAP1 PUSH2 0xFF4 JUMP JUMPDEST PUSH1 0x40 MLOAD DUP1 SWAP2 SUB SWAP1 REVERT JUMPDEST PUSH1 0x1 PUSH1 0x6 PUSH1 0x0 CALLER PUSH20 0xFFFFFFFFFFFFFFFFFFFFFFFFFFFFFFFFFFFFFFFF AND PUSH20 0xFFFFFFFFFFFFFFFFFFFFFFFFFFFFFFFFFFFFFFFF AND DUP2 MSTORE PUSH1 0x20 ADD SWAP1 DUP2 MSTORE PUSH1 0x20 ADD PUSH1 0x0 KECCAK256 SLOAD PUSH2 0x2CE SWAP2 SWAP1 PUSH2 0x1043 JUMP JUMPDEST DUP5 SUB PUSH2 0x319 JUMPI DUP4 PUSH1 0x6 PUSH1 0x0 CALLER PUSH20 0xFFFFFFFFFFFFFFFFFFFFFFFFFFFFFFFFFFFFFFFF AND PUSH20 0xFFFFFFFFFFFFFFFFFFFFFFFFFFFFFFFFFFFFFFFF AND DUP2 MSTORE PUSH1 0x20 ADD SWAP1 DUP2 MSTORE PUSH1 0x20 ADD PUSH1 0x0 KECCAK256 DUP2 SWAP1 SSTORE POP JUMPDEST PUSH1 0x0 PUSH1 0x64 DUP5 PUSH1 0x23 PUSH2 0x32A SWAP2 SWAP1 PUSH2 0x1077 JUMP JUMPDEST PUSH2 0x334 SWAP2 SWAP1 PUSH2 0x10E8 JUMP JUMPDEST SWAP1 POP PUSH1 0x0 PUSH1 0x64 DUP6 PUSH1 0x1E PUSH2 0x347 SWAP2 SWAP1 PUSH2 0x1077 JUMP JUMPDEST PUSH2 0x351 SWAP2 SWAP1 PUSH2 0x10E8 JUMP JUMPDEST SWAP1 POP PUSH1 0x0 PUSH1 0x64 DUP7 PUSH1 0x14 PUSH2 0x364 SWAP2 SWAP1 PUSH2 0x1077 JUMP JUMPDEST PUSH2 0x36E SWAP2 SWAP1 PUSH2 0x10E8 JUMP JUMPDEST SWAP1 POP PUSH1 0x0 PUSH1 0x64 DUP8 PUSH1 0xF PUSH2 0x381 SWAP2 SWAP1 PUSH2 0x1077 JUMP JUMPDEST PUSH2 0x38B SWAP2 SWAP1 PUSH2 0x10E8 JUMP JUMPDEST SWAP1 POP DUP8 PUSH1 0x6 PUSH1 0x0 DUP12 PUSH20 0xFFFFFFFFFFFFFFFFFFFFFFFFFFFFFFFFFFFFFFFF AND PUSH20 0xFFFFFFFFFFFFFFFFFFFFFFFFFFFFFFFFFFFFFFFF AND DUP2 MSTORE PUSH1 0x20 ADD SWAP1 DUP2 MSTORE PUSH1 0x20 ADD PUSH1 0x0 KECCAK256 SLOAD LT PUSH2 0x41F JUMPI DUP9 PUSH20 0xFFFFFFFFFFFFFFFFFFFFFFFFFFFFFFFFFFFFFFFF AND PUSH2 0x8FC DUP6 SWAP1 DUP2 ISZERO MUL SWAP1 PUSH1 0x40 MLOAD PUSH1 0x0 PUSH1 0x40 MLOAD DUP1 DUP4 SUB DUP2 DUP6 DUP9 DUP9 CALL SWAP4 POP POP POP POP ISZERO DUP1 ISZERO PUSH2 0x419 JUMPI RETURNDATASIZE PUSH1 0x0 DUP1 RETURNDATACOPY RETURNDATASIZE PUSH1 0x0 REVERT JUMPDEST POP PUSH2 0x489 JUMP JUMPDEST PUSH1 0x4 PUSH1 0x0 SWAP1 SLOAD SWAP1 PUSH2 0x100 EXP SWAP1 DIV PUSH20 0xFFFFFFFFFFFFFFFFFFFFFFFFFFFFFFFFFFFFFFFF AND PUSH20 0xFFFFFFFFFFFFFFFFFFFFFFFFFFFFFFFFFFFFFFFF AND PUSH2 0x8FC DUP6 SWAP1 DUP2 ISZERO MUL SWAP1 PUSH1 0x40 MLOAD PUSH1 0x0 PUSH1 0x40 MLOAD DUP1 DUP4 SUB DUP2 DUP6 DUP9 DUP9 CALL SWAP4 POP POP POP POP ISZERO DUP1 ISZERO PUSH2 0x487 JUMPI RETURNDATASIZE PUSH1 0x0 DUP1 RETURNDATACOPY RETURNDATASIZE PUSH1 0x0 REVERT JUMPDEST POP JUMPDEST PUSH1 0x4 PUSH1 0x0 SWAP1 SLOAD SWAP1 PUSH2 0x100 EXP SWAP1 DIV PUSH20 0xFFFFFFFFFFFFFFFFFFFFFFFFFFFFFFFFFFFFFFFF AND PUSH20 0xFFFFFFFFFFFFFFFFFFFFFFFFFFFFFFFFFFFFFFFF AND PUSH2 0x8FC DUP3 SWAP1 DUP2 ISZERO MUL SWAP1 PUSH1 0x40 MLOAD PUSH1 0x0 PUSH1 0x40 MLOAD DUP1 DUP4 SUB DUP2 DUP6 DUP9 DUP9 CALL SWAP4 POP POP POP POP ISZERO DUP1 ISZERO PUSH2 0x4F1 JUMPI RETURNDATASIZE PUSH1 0x0 DUP1 RETURNDATACOPY RETURNDATASIZE PUSH1 0x0 REVERT JUMPDEST POP PUSH1 0x3 PUSH1 0x0 SWAP1 SLOAD SWAP1 PUSH2 0x100 EXP SWAP1 DIV PUSH20 0xFFFFFFFFFFFFFFFFFFFFFFFFFFFFFFFFFFFFFFFF AND PUSH20 0xFFFFFFFFFFFFFFFFFFFFFFFFFFFFFFFFFFFFFFFF AND PUSH2 0x8FC DUP4 SWAP1 DUP2 ISZERO MUL SWAP1 PUSH1 0x40 MLOAD PUSH1 0x0 PUSH1 0x40 MLOAD DUP1 DUP4 SUB DUP2 DUP6 DUP9 DUP9 CALL SWAP4 POP POP POP POP ISZERO DUP1 ISZERO PUSH2 0x55A JUMPI RETURNDATASIZE PUSH1 0x0 DUP1 RETURNDATACOPY RETURNDATASIZE PUSH1 0x0 REVERT JUMPDEST POP PUSH1 0x60 PUSH1 0x2 PUSH8 0xFFFFFFFFFFFFFFFF DUP2 GT ISZERO PUSH2 0x578 JUMPI PUSH2 0x577 PUSH2 0xDCB JUMP JUMPDEST JUMPDEST PUSH1 0x40 MLOAD SWAP1 DUP1 DUP3 MSTORE DUP1 PUSH1 0x20 MUL PUSH1 0x20 ADD DUP3 ADD PUSH1 0x40 MSTORE DUP1 ISZERO PUSH2 0x5A6 JUMPI DUP2 PUSH1 0x20 ADD PUSH1 0x20 DUP3 MUL DUP1 CALLDATASIZE DUP4 CALLDATACOPY DUP1 DUP3 ADD SWAP2 POP POP SWAP1 POP JUMPDEST POP SWAP1 POP PUSH1 0x0 DUP1 SLOAD SWAP1 PUSH2 0x100 EXP SWAP1 DIV PUSH20 0xFFFFFFFFFFFFFFFFFFFFFFFFFFFFFFFFFFFFFFFF AND DUP2 PUSH1 0x0 DUP2 MLOAD DUP2 LT PUSH2 0x5DE JUMPI PUSH2 0x5DD PUSH2 0x1119 JUMP JUMPDEST JUMPDEST PUSH1 0x20 MUL PUSH1 0x20 ADD ADD SWAP1 PUSH20 0xFFFFFFFFFFFFFFFFFFFFFFFFFFFFFFFFFFFFFFFF AND SWAP1 DUP2 PUSH20 0xFFFFFFFFFFFFFFFFFFFFFFFFFFFFFFFFFFFFFFFF AND DUP2 MSTORE POP POP PUSH1 0x2 PUSH1 0x0 SWAP1 SLOAD SWAP1 PUSH2 0x100 EXP SWAP1 DIV PUSH20 0xFFFFFFFFFFFFFFFFFFFFFFFFFFFFFFFFFFFFFFFF AND DUP2 PUSH1 0x1 DUP2 MLOAD DUP2 LT PUSH2 0x64F JUMPI PUSH2 0x64E PUSH2 0x1119 JUMP JUMPDEST JUMPDEST PUSH1 0x20 MUL PUSH1 0x20 ADD ADD SWAP1 PUSH20 0xFFFFFFFFFFFFFFFFFFFFFFFFFFFFFFFFFFFFFFFF AND SWAP1 DUP2 PUSH20 0xFFFFFFFFFFFFFFFFFFFFFFFFFFFFFFFFFFFFFFFF AND DUP2 MSTORE POP POP PUSH1 0x1 PUSH1 0x0 SWAP1 SLOAD SWAP1 PUSH2 0x100 EXP SWAP1 DIV PUSH20 0xFFFFFFFFFFFFFFFFFFFFFFFFFFFFFFFFFFFFFFFF AND PUSH20 0xFFFFFFFFFFFFFFFFFFFFFFFFFFFFFFFFFFFFFFFF AND PUSH4 0x7FF36AB5 DUP10 PUSH1 0x0 DUP5 CALLER PUSH2 0x3E8 TIMESTAMP PUSH2 0x6DA SWAP2 SWAP1 PUSH2 0x10E8 JUMP JUMPDEST TIMESTAMP PUSH2 0x6E5 SWAP2 SWAP1 PUSH2 0x1043 JUMP JUMPDEST PUSH1 0x40 MLOAD DUP7 PUSH4 0xFFFFFFFF AND PUSH1 0xE0 SHL DUP2 MSTORE PUSH1 0x4 ADD PUSH2 0x704 SWAP5 SWAP4 SWAP3 SWAP2 SWAP1 PUSH2 0x124B JUMP JUMPDEST PUSH1 0x0 PUSH1 0x40 MLOAD DUP1 DUP4 SUB DUP2 DUP6 DUP9 GAS CALL ISZERO DUP1 ISZERO PUSH2 0x722 JUMPI RETURNDATASIZE PUSH1 0x0 DUP1 RETURNDATACOPY RETURNDATASIZE PUSH1 0x0 REVERT JUMPDEST POP POP POP POP POP PUSH1 0x40 MLOAD RETURNDATASIZE PUSH1 0x0 DUP3 RETURNDATACOPY RETURNDATASIZE PUSH1 0x1F NOT PUSH1 0x1F DUP3 ADD AND DUP3 ADD DUP1 PUSH1 0x40 MSTORE POP DUP2 ADD SWAP1 PUSH2 0x74C SWAP2 SWAP1 PUSH2 0x1343 JUMP JUMPDEST POP PUSH1 0x1 SWAP7 POP POP POP POP POP POP POP SWAP4 SWAP3 POP POP POP JUMP JUMPDEST PUSH1 0x3 PUSH1 0x0 SWAP1 SLOAD SWAP1 PUSH2 0x100 EXP SWAP1 DIV PUSH20 0xFFFFFFFFFFFFFFFFFFFFFFFFFFFFFFFFFFFFFFFF AND PUSH20 0xFFFFFFFFFFFFFFFFFFFFFFFFFFFFFFFFFFFFFFFF AND CALLER PUSH20 0xFFFFFFFFFFFFFFFFFFFFFFFFFFFFFFFFFFFFFFFF AND EQ PUSH2 0x7EE JUMPI PUSH1 0x40 MLOAD PUSH32 0x8C379A000000000000000000000000000000000000000000000000000000000 DUP2 MSTORE PUSH1 0x4 ADD PUSH2 0x7E5 SWAP1 PUSH2 0x13D8 JUMP JUMPDEST PUSH1 0x40 MLOAD DUP1 SWAP2 SUB SWAP1 REVERT JUMPDEST DUP1 PUSH1 0x1 DUP2 LT ISZERO DUP1 ISZERO PUSH2 0x801 JUMPI POP PUSH1 0x9 DUP2 GT ISZERO JUMPDEST PUSH2 0x840 JUMPI PUSH1 0x40 MLOAD PUSH32 0x8C379A000000000000000000000000000000000000000000000000000000000 DUP2 MSTORE PUSH1 0x4 ADD PUSH2 0x837 SWAP1 PUSH2 0xFF4 JUMP JUMPDEST PUSH1 0x40 MLOAD DUP1 SWAP2 SUB SWAP1 REVERT JUMPDEST DUP2 PUSH1 0x6 PUSH1 0x0 DUP6 PUSH20 0xFFFFFFFFFFFFFFFFFFFFFFFFFFFFFFFFFFFFFFFF AND PUSH20 0xFFFFFFFFFFFFFFFFFFFFFFFFFFFFFFFFFFFFFFFF AND DUP2 MSTORE PUSH1 0x20 ADD SWAP1 DUP2 MSTORE PUSH1 0x20 ADD PUSH1 0x0 KECCAK256 DUP2 SWAP1 SSTORE POP POP POP POP JUMP JUMPDEST PUSH1 0x0 DUP1 SLOAD SWAP1 PUSH2 0x100 EXP SWAP1 DIV PUSH20 0xFFFFFFFFFFFFFFFFFFFFFFFFFFFFFFFFFFFFFFFF AND DUP2 JUMP JUMPDEST PUSH1 0x0 CALLVALUE SWAP1 POP PUSH1 0x6 PUSH1 0x0 CALLER PUSH20 0xFFFFFFFFFFFFFFFFFFFFFFFFFFFFFFFFFFFFFFFF AND PUSH20 0xFFFFFFFFFFFFFFFFFFFFFFFFFFFFFFFFFFFFFFFF AND DUP2 MSTORE PUSH1 0x20 ADD SWAP1 DUP2 MSTORE PUSH1 0x20 ADD PUSH1 0x0 KECCAK256 SLOAD DUP3 PUSH1 0x0 DUP2 MLOAD DUP2 LT PUSH2 0x906 JUMPI PUSH2 0x905 PUSH2 0x1119 JUMP JUMPDEST JUMPDEST PUSH1 0x20 MUL PUSH1 0x20 ADD ADD MLOAD LT ISZERO PUSH2 0x94F JUMPI PUSH1 0x40 MLOAD PUSH32 0x8C379A000000000000000000000000000000000000000000000000000000000 DUP2 MSTORE PUSH1 0x4 ADD PUSH2 0x946 SWAP1 PUSH2 0x1444 JUMP JUMPDEST PUSH1 0x40 MLOAD DUP1 SWAP2 SUB SWAP1 REVERT JUMPDEST PUSH1 0x0 JUMPDEST DUP3 MLOAD DUP2 LT ISZERO PUSH2 0xB41 JUMPI PUSH1 0x1 DUP4 MLOAD PUSH2 0x969 SWAP2 SWAP1 PUSH2 0x1464 JUMP JUMPDEST DUP2 EQ PUSH2 0x9FE JUMPI PUSH1 0x1 DUP4 PUSH1 0x1 DUP4 PUSH2 0x97F SWAP2 SWAP1 PUSH2 0x1043 JUMP JUMPDEST DUP2 MLOAD DUP2 LT PUSH2 0x990 JUMPI PUSH2 0x98F PUSH2 0x1119 JUMP JUMPDEST JUMPDEST PUSH1 0x20 MUL PUSH1 0x20 ADD ADD MLOAD PUSH2 0x9A2 SWAP2 SWAP1 PUSH2 0x1464 JUMP JUMPDEST DUP4 DUP3 DUP2 MLOAD DUP2 LT PUSH2 0x9B5 JUMPI PUSH2 0x9B4 PUSH2 0x1119 JUMP JUMPDEST JUMPDEST PUSH1 0x20 MUL PUSH1 0x20 ADD ADD MLOAD EQ PUSH2 0x9FD JUMPI PUSH1 0x40 MLOAD PUSH32 0x8C379A000000000000000000000000000000000000000000000000000000000 DUP2 MSTORE PUSH1 0x4 ADD PUSH2 0x9F4 SWAP1 PUSH2 0x14E4 JUMP JUMPDEST PUSH1 0x40 MLOAD DUP1 SWAP2 SUB SWAP1 REVERT JUMPDEST JUMPDEST PUSH1 0x64 PUSH1 0x5 DUP1 PUSH1 0x0 PUSH1 0x1 DUP6 PUSH2 0xA12 SWAP2 SWAP1 PUSH2 0x1043 JUMP JUMPDEST DUP2 MSTORE PUSH1 0x20 ADD SWAP1 DUP2 MSTORE PUSH1 0x20 ADD PUSH1 0x0 KECCAK256 SLOAD PUSH2 0xA2B SWAP2 SWAP1 PUSH2 0x1077 JUMP JUMPDEST PUSH2 0xA35 SWAP2 SWAP1 PUSH2 0x10E8 JUMP JUMPDEST DUP3 PUSH2 0xA40 SWAP2 SWAP1 PUSH2 0x1464 JUMP JUMPDEST SWAP2 POP PUSH1 0x0 DUP3 LT ISZERO PUSH2 0xA86 JUMPI PUSH1 0x40 MLOAD PUSH32 0x8C379A000000000000000000000000000000000000000000000000000000000 DUP2 MSTORE PUSH1 0x4 ADD PUSH2 0xA7D SWAP1 PUSH2 0x1550 JUMP JUMPDEST PUSH1 0x40 MLOAD DUP1 SWAP2 SUB SWAP1 REVERT JUMPDEST PUSH2 0xAEF DUP5 DUP5 DUP4 DUP2 MLOAD DUP2 LT PUSH2 0xA9D JUMPI PUSH2 0xA9C PUSH2 0x1119 JUMP JUMPDEST JUMPDEST PUSH1 0x20 MUL PUSH1 0x20 ADD ADD MLOAD PUSH1 0x64 PUSH1 0x5 DUP1 PUSH1 0x0 DUP10 DUP9 DUP2 MLOAD DUP2 LT PUSH2 0xABF JUMPI PUSH2 0xABE PUSH2 0x1119 JUMP JUMPDEST JUMPDEST PUSH1 0x20 MUL PUSH1 0x20 ADD ADD MLOAD DUP2 MSTORE PUSH1 0x20 ADD SWAP1 DUP2 MSTORE PUSH1 0x20 ADD PUSH1 0x0 KECCAK256 SLOAD PUSH2 0xAE0 SWAP2 SWAP1 PUSH2 0x1077 JUMP JUMPDEST PUSH2 0xAEA SWAP2 SWAP1 PUSH2 0x10E8 JUMP JUMPDEST PUSH2 0x22E JUMP JUMPDEST PUSH2 0xB2E JUMPI PUSH1 0x40 MLOAD PUSH32 0x8C379A000000000000000000000000000000000000000000000000000000000 DUP2 MSTORE PUSH1 0x4 ADD PUSH2 0xB25 SWAP1 PUSH2 0x15BC JUMP JUMPDEST PUSH1 0x40 MLOAD DUP1 SWAP2 SUB SWAP1 REVERT JUMPDEST DUP1 DUP1 PUSH2 0xB39 SWAP1 PUSH2 0x15DC JUMP JUMPDEST SWAP2 POP POP PUSH2 0x952 JUMP JUMPDEST POP POP POP POP JUMP JUMPDEST PUSH1 0x5 PUSH1 0x20 MSTORE DUP1 PUSH1 0x0 MSTORE PUSH1 0x40 PUSH1 0x0 KECCAK256 PUSH1 0x0 SWAP2 POP SWAP1 POP SLOAD DUP2 JUMP JUMPDEST PUSH1 0x2 PUSH1 0x0 SWAP1 SLOAD SWAP1 PUSH2 0x100 EXP SWAP1 DIV PUSH20 0xFFFFFFFFFFFFFFFFFFFFFFFFFFFFFFFFFFFFFFFF AND DUP2 JUMP JUMPDEST PUSH1 0x0 PUSH20 0xFFFFFFFFFFFFFFFFFFFFFFFFFFFFFFFFFFFFFFFF DUP3 AND SWAP1 POP SWAP2 SWAP1 POP JUMP JUMPDEST PUSH1 0x0 PUSH2 0xBB0 DUP3 PUSH2 0xB85 JUMP JUMPDEST SWAP1 POP SWAP2 SWAP1 POP JUMP JUMPDEST PUSH2 0xBC0 DUP2 PUSH2 0xBA5 JUMP JUMPDEST DUP3 MSTORE POP POP JUMP JUMPDEST PUSH1 0x0 PUSH1 0x20 DUP3 ADD SWAP1 POP PUSH2 0xBDB PUSH1 0x0 DUP4 ADD DUP5 PUSH2 0xBB7 JUMP JUMPDEST SWAP3 SWAP2 POP POP JUMP JUMPDEST PUSH1 0x0 PUSH1 0x40 MLOAD SWAP1 POP SWAP1 JUMP JUMPDEST PUSH1 0x0 DUP1 REVERT JUMPDEST PUSH1 0x0 DUP1 REVERT JUMPDEST PUSH2 0xBFE DUP2 PUSH2 0xBA5 JUMP JUMPDEST DUP2 EQ PUSH2 0xC09 JUMPI PUSH1 0x0 DUP1 REVERT JUMPDEST POP JUMP JUMPDEST PUSH1 0x0 DUP2 CALLDATALOAD SWAP1 POP PUSH2 0xC1B DUP2 PUSH2 0xBF5 JUMP JUMPDEST SWAP3 SWAP2 POP POP JUMP JUMPDEST PUSH1 0x0 PUSH1 0x20 DUP3 DUP5 SUB SLT ISZERO PUSH2 0xC37 JUMPI PUSH2 0xC36 PUSH2 0xBEB JUMP JUMPDEST JUMPDEST PUSH1 0x0 PUSH2 0xC45 DUP5 DUP3 DUP6 ADD PUSH2 0xC0C JUMP JUMPDEST SWAP2 POP POP SWAP3 SWAP2 POP POP JUMP JUMPDEST PUSH1 0x0 DUP2 SWAP1 POP SWAP2 SWAP1 POP JUMP JUMPDEST PUSH2 0xC61 DUP2 PUSH2 0xC4E JUMP JUMPDEST DUP3 MSTORE POP POP JUMP JUMPDEST PUSH1 0x0 PUSH1 0x20 DUP3 ADD SWAP1 POP PUSH2 0xC7C PUSH1 0x0 DUP4 ADD DUP5 PUSH2 0xC58 JUMP JUMPDEST SWAP3 SWAP2 POP POP JUMP JUMPDEST PUSH1 0x0 PUSH2 0xC8D DUP3 PUSH2 0xB85 JUMP JUMPDEST SWAP1 POP SWAP2 SWAP1 POP JUMP JUMPDEST PUSH2 0xC9D DUP2 PUSH2 0xC82 JUMP JUMPDEST DUP2 EQ PUSH2 0xCA8 JUMPI PUSH1 0x0 DUP1 REVERT JUMPDEST POP JUMP JUMPDEST PUSH1 0x0 DUP2 CALLDATALOAD SWAP1 POP PUSH2 0xCBA DUP2 PUSH2 0xC94 JUMP JUMPDEST SWAP3 SWAP2 POP POP JUMP JUMPDEST PUSH2 0xCC9 DUP2 PUSH2 0xC4E JUMP JUMPDEST DUP2 EQ PUSH2 0xCD4 JUMPI PUSH1 0x0 DUP1 REVERT JUMPDEST POP JUMP JUMPDEST PUSH1 0x0 DUP2 CALLDATALOAD SWAP1 POP PUSH2 0xCE6 DUP2 PUSH2 0xCC0 JUMP JUMPDEST SWAP3 SWAP2 POP POP JUMP JUMPDEST PUSH1 0x0 DUP1 PUSH1 0x0 PUSH1 0x60 DUP5 DUP7 SUB SLT ISZERO PUSH2 0xD05 JUMPI PUSH2 0xD04 PUSH2 0xBEB JUMP JUMPDEST JUMPDEST PUSH1 0x0 PUSH2 0xD13 DUP7 DUP3 DUP8 ADD PUSH2 0xCAB JUMP JUMPDEST SWAP4 POP POP PUSH1 0x20 PUSH2 0xD24 DUP7 DUP3 DUP8 ADD PUSH2 0xCD7 JUMP JUMPDEST SWAP3 POP POP PUSH1 0x40 PUSH2 0xD35 DUP7 DUP3 DUP8 ADD PUSH2 0xCD7 JUMP JUMPDEST SWAP2 POP POP SWAP3 POP SWAP3 POP SWAP3 JUMP JUMPDEST PUSH1 0x0 DUP2 ISZERO ISZERO SWAP1 POP SWAP2 SWAP1 POP JUMP JUMPDEST PUSH2 0xD54 DUP2 PUSH2 0xD3F JUMP JUMPDEST DUP3 MSTORE POP POP JUMP JUMPDEST PUSH1 0x0 PUSH1 0x20 DUP3 ADD SWAP1 POP PUSH2 0xD6F PUSH1 0x0 DUP4 ADD DUP5 PUSH2 0xD4B JUMP JUMPDEST SWAP3 SWAP2 POP POP JUMP JUMPDEST PUSH1 0x0 DUP1 PUSH1 0x40 DUP4 DUP6 SUB SLT ISZERO PUSH2 0xD8C JUMPI PUSH2 0xD8B PUSH2 0xBEB JUMP JUMPDEST JUMPDEST PUSH1 0x0 PUSH2 0xD9A DUP6 DUP3 DUP7 ADD PUSH2 0xC0C JUMP JUMPDEST SWAP3 POP POP PUSH1 0x20 PUSH2 0xDAB DUP6 DUP3 DUP7 ADD PUSH2 0xCD7 JUMP JUMPDEST SWAP2 POP POP SWAP3 POP SWAP3 SWAP1 POP JUMP JUMPDEST PUSH1 0x0 DUP1 REVERT JUMPDEST PUSH1 0x0 PUSH1 0x1F NOT PUSH1 0x1F DUP4 ADD AND SWAP1 POP SWAP2 SWAP1 POP JUMP JUMPDEST PUSH32 0x4E487B7100000000000000000000000000000000000000000000000000000000 PUSH1 0x0 MSTORE PUSH1 0x41 PUSH1 0x4 MSTORE PUSH1 0x24 PUSH1 0x0 REVERT JUMPDEST PUSH2 0xE03 DUP3 PUSH2 0xDBA JUMP JUMPDEST DUP2 ADD DUP2 DUP2 LT PUSH8 0xFFFFFFFFFFFFFFFF DUP3 GT OR ISZERO PUSH2 0xE22 JUMPI PUSH2 0xE21 PUSH2 0xDCB JUMP JUMPDEST JUMPDEST DUP1 PUSH1 0x40 MSTORE POP POP POP JUMP JUMPDEST PUSH1 0x0 PUSH2 0xE35 PUSH2 0xBE1 JUMP JUMPDEST SWAP1 POP PUSH2 0xE41 DUP3 DUP3 PUSH2 0xDFA JUMP JUMPDEST SWAP2 SWAP1 POP JUMP JUMPDEST PUSH1 0x0 PUSH8 0xFFFFFFFFFFFFFFFF DUP3 GT ISZERO PUSH2 0xE61 JUMPI PUSH2 0xE60 PUSH2 0xDCB JUMP JUMPDEST JUMPDEST PUSH1 0x20 DUP3 MUL SWAP1 POP PUSH1 0x20 DUP2 ADD SWAP1 POP SWAP2 SWAP1 POP JUMP JUMPDEST PUSH1 0x0 DUP1 REVERT JUMPDEST PUSH1 0x0 PUSH2 0xE8A PUSH2 0xE85 DUP5 PUSH2 0xE46 JUMP JUMPDEST PUSH2 0xE2B JUMP JUMPDEST SWAP1 POP DUP1 DUP4 DUP3 MSTORE PUSH1 0x20 DUP3 ADD SWAP1 POP PUSH1 0x20 DUP5 MUL DUP4 ADD DUP6 DUP2 GT ISZERO PUSH2 0xEAD JUMPI PUSH2 0xEAC PUSH2 0xE72 JUMP JUMPDEST JUMPDEST DUP4 JUMPDEST DUP2 DUP2 LT ISZERO PUSH2 0xED6 JUMPI DUP1 PUSH2 0xEC2 DUP9 DUP3 PUSH2 0xCD7 JUMP JUMPDEST DUP5 MSTORE PUSH1 0x20 DUP5 ADD SWAP4 POP POP PUSH1 0x20 DUP2 ADD SWAP1 POP PUSH2 0xEAF JUMP JUMPDEST POP POP POP SWAP4 SWAP3 POP POP POP JUMP JUMPDEST PUSH1 0x0 DUP3 PUSH1 0x1F DUP4 ADD SLT PUSH2 0xEF5 JUMPI PUSH2 0xEF4 PUSH2 0xDB5 JUMP JUMPDEST JUMPDEST DUP2 CALLDATALOAD PUSH2 0xF05 DUP5 DUP3 PUSH1 0x20 DUP7 ADD PUSH2 0xE77 JUMP JUMPDEST SWAP2 POP POP SWAP3 SWAP2 POP POP JUMP JUMPDEST PUSH1 0x0 DUP1 PUSH1 0x40 DUP4 DUP6 SUB SLT ISZERO PUSH2 0xF25 JUMPI PUSH2 0xF24 PUSH2 0xBEB JUMP JUMPDEST JUMPDEST PUSH1 0x0 PUSH2 0xF33 DUP6 DUP3 DUP7 ADD PUSH2 0xCAB JUMP JUMPDEST SWAP3 POP POP PUSH1 0x20 DUP4 ADD CALLDATALOAD PUSH8 0xFFFFFFFFFFFFFFFF DUP2 GT ISZERO PUSH2 0xF54 JUMPI PUSH2 0xF53 PUSH2 0xBF0 JUMP JUMPDEST JUMPDEST PUSH2 0xF60 DUP6 DUP3 DUP7 ADD PUSH2 0xEE0 JUMP JUMPDEST SWAP2 POP POP SWAP3 POP SWAP3 SWAP1 POP JUMP JUMPDEST PUSH1 0x0 PUSH1 0x20 DUP3 DUP5 SUB SLT ISZERO PUSH2 0xF80 JUMPI PUSH2 0xF7F PUSH2 0xBEB JUMP JUMPDEST JUMPDEST PUSH1 0x0 PUSH2 0xF8E DUP5 DUP3 DUP6 ADD PUSH2 0xCD7 JUMP JUMPDEST SWAP2 POP POP SWAP3 SWAP2 POP POP JUMP JUMPDEST PUSH1 0x0 DUP3 DUP3 MSTORE PUSH1 0x20 DUP3 ADD SWAP1 POP SWAP3 SWAP2 POP POP JUMP JUMPDEST PUSH32 0x496E76616C6964205061636B6167652E00000000000000000000000000000000 PUSH1 0x0 DUP3 ADD MSTORE POP JUMP JUMPDEST PUSH1 0x0 PUSH2 0xFDE PUSH1 0x10 DUP4 PUSH2 0xF97 JUMP JUMPDEST SWAP2 POP PUSH2 0xFE9 DUP3 PUSH2 0xFA8 JUMP JUMPDEST PUSH1 0x20 DUP3 ADD SWAP1 POP SWAP2 SWAP1 POP JUMP JUMPDEST PUSH1 0x0 PUSH1 0x20 DUP3 ADD SWAP1 POP DUP2 DUP2 SUB PUSH1 0x0 DUP4 ADD MSTORE PUSH2 0x100D DUP2 PUSH2 0xFD1 JUMP JUMPDEST SWAP1 POP SWAP2 SWAP1 POP JUMP JUMPDEST PUSH32 0x4E487B7100000000000000000000000000000000000000000000000000000000 PUSH1 0x0 MSTORE PUSH1 0x11 PUSH1 0x4 MSTORE PUSH1 0x24 PUSH1 0x0 REVERT JUMPDEST PUSH1 0x0 PUSH2 0x104E DUP3 PUSH2 0xC4E JUMP JUMPDEST SWAP2 POP PUSH2 0x1059 DUP4 PUSH2 0xC4E JUMP JUMPDEST SWAP3 POP DUP3 DUP3 ADD SWAP1 POP DUP1 DUP3 GT ISZERO PUSH2 0x1071 JUMPI PUSH2 0x1070 PUSH2 0x1014 JUMP JUMPDEST JUMPDEST SWAP3 SWAP2 POP POP JUMP JUMPDEST PUSH1 0x0 PUSH2 0x1082 DUP3 PUSH2 0xC4E JUMP JUMPDEST SWAP2 POP PUSH2 0x108D DUP4 PUSH2 0xC4E JUMP JUMPDEST SWAP3 POP DUP3 DUP3 MUL PUSH2 0x109B DUP2 PUSH2 0xC4E JUMP JUMPDEST SWAP2 POP DUP3 DUP3 DIV DUP5 EQ DUP4 ISZERO OR PUSH2 0x10B2 JUMPI PUSH2 0x10B1 PUSH2 0x1014 JUMP JUMPDEST JUMPDEST POP SWAP3 SWAP2 POP POP JUMP JUMPDEST PUSH32 0x4E487B7100000000000000000000000000000000000000000000000000000000 PUSH1 0x0 MSTORE PUSH1 0x12 PUSH1 0x4 MSTORE PUSH1 0x24 PUSH1 0x0 REVERT JUMPDEST PUSH1 0x0 PUSH2 0x10F3 DUP3 PUSH2 0xC4E JUMP JUMPDEST SWAP2 POP PUSH2 0x10FE DUP4 PUSH2 0xC4E JUMP JUMPDEST SWAP3 POP DUP3 PUSH2 0x110E JUMPI PUSH2 0x110D PUSH2 0x10B9 JUMP JUMPDEST JUMPDEST DUP3 DUP3 DIV SWAP1 POP SWAP3 SWAP2 POP POP JUMP JUMPDEST PUSH32 0x4E487B7100000000000000000000000000000000000000000000000000000000 PUSH1 0x0 MSTORE PUSH1 0x32 PUSH1 0x4 MSTORE PUSH1 0x24 PUSH1 0x0 REVERT JUMPDEST PUSH1 0x0 DUP2 SWAP1 POP SWAP2 SWAP1 POP JUMP JUMPDEST PUSH1 0x0 DUP2 SWAP1 POP SWAP2 SWAP1 POP JUMP JUMPDEST PUSH1 0x0 PUSH2 0x1177 PUSH2 0x1172 PUSH2 0x116D DUP5 PUSH2 0x1148 JUMP JUMPDEST PUSH2 0x1152 JUMP JUMPDEST PUSH2 0xC4E JUMP JUMPDEST SWAP1 POP SWAP2 SWAP1 POP JUMP JUMPDEST PUSH2 0x1187 DUP2 PUSH2 0x115C JUMP JUMPDEST DUP3 MSTORE POP POP JUMP JUMPDEST PUSH1 0x0 DUP2 MLOAD SWAP1 POP SWAP2 SWAP1 POP JUMP JUMPDEST PUSH1 0x0 DUP3 DUP3 MSTORE PUSH1 0x20 DUP3 ADD SWAP1 POP SWAP3 SWAP2 POP POP JUMP JUMPDEST PUSH1 0x0 DUP2 SWAP1 POP PUSH1 0x20 DUP3 ADD SWAP1 POP SWAP2 SWAP1 POP JUMP JUMPDEST PUSH2 0x11C2 DUP2 PUSH2 0xBA5 JUMP JUMPDEST DUP3 MSTORE POP POP JUMP JUMPDEST PUSH1 0x0 PUSH2 0x11D4 DUP4 DUP4 PUSH2 0x11B9 JUMP JUMPDEST PUSH1 0x20 DUP4 ADD SWAP1 POP SWAP3 SWAP2 POP POP JUMP JUMPDEST PUSH1 0x0 PUSH1 0x20 DUP3 ADD SWAP1 POP SWAP2 SWAP1 POP JUMP JUMPDEST PUSH1 0x0 PUSH2 0x11F8 DUP3 PUSH2 0x118D JUMP JUMPDEST PUSH2 0x1202 DUP2 DUP6 PUSH2 0x1198 JUMP JUMPDEST SWAP4 POP PUSH2 0x120D DUP4 PUSH2 0x11A9 JUMP JUMPDEST DUP1 PUSH1 0x0 JUMPDEST DUP4 DUP2 LT ISZERO PUSH2 0x123E JUMPI DUP2 MLOAD PUSH2 0x1225 DUP9 DUP3 PUSH2 0x11C8 JUMP JUMPDEST SWAP8 POP PUSH2 0x1230 DUP4 PUSH2 0x11E0 JUMP JUMPDEST SWAP3 POP POP PUSH1 0x1 DUP2 ADD SWAP1 POP PUSH2 0x1211 JUMP JUMPDEST POP DUP6 SWAP4 POP POP POP POP SWAP3 SWAP2 POP POP JUMP JUMPDEST PUSH1 0x0 PUSH1 0x80 DUP3 ADD SWAP1 POP PUSH2 0x1260 PUSH1 0x0 DUP4 ADD DUP8 PUSH2 0x117E JUMP JUMPDEST DUP2 DUP2 SUB PUSH1 0x20 DUP4 ADD MSTORE PUSH2 0x1272 DUP2 DUP7 PUSH2 0x11ED JUMP JUMPDEST SWAP1 POP PUSH2 0x1281 PUSH1 0x40 DUP4 ADD DUP6 PUSH2 0xBB7 JUMP JUMPDEST PUSH2 0x128E PUSH1 0x60 DUP4 ADD DUP5 PUSH2 0xC58 JUMP JUMPDEST SWAP6 SWAP5 POP POP POP POP POP JUMP JUMPDEST PUSH1 0x0 DUP2 MLOAD SWAP1 POP PUSH2 0x12A6 DUP2 PUSH2 0xCC0 JUMP JUMPDEST SWAP3 SWAP2 POP POP JUMP JUMPDEST PUSH1 0x0 PUSH2 0x12BF PUSH2 0x12BA DUP5 PUSH2 0xE46 JUMP JUMPDEST PUSH2 0xE2B JUMP JUMPDEST SWAP1 POP DUP1 DUP4 DUP3 MSTORE PUSH1 0x20 DUP3 ADD SWAP1 POP PUSH1 0x20 DUP5 MUL DUP4 ADD DUP6 DUP2 GT ISZERO PUSH2 0x12E2 JUMPI PUSH2 0x12E1 PUSH2 0xE72 JUMP JUMPDEST JUMPDEST DUP4 JUMPDEST DUP2 DUP2 LT ISZERO PUSH2 0x130B JUMPI DUP1 PUSH2 0x12F7 DUP9 DUP3 PUSH2 0x1297 JUMP JUMPDEST DUP5 MSTORE PUSH1 0x20 DUP5 ADD SWAP4 POP POP PUSH1 0x20 DUP2 ADD SWAP1 POP PUSH2 0x12E4 JUMP JUMPDEST POP POP POP SWAP4 SWAP3 POP POP POP JUMP JUMPDEST PUSH1 0x0 DUP3 PUSH1 0x1F DUP4 ADD SLT PUSH2 0x132A JUMPI PUSH2 0x1329 PUSH2 0xDB5 JUMP JUMPDEST JUMPDEST DUP2 MLOAD PUSH2 0x133A DUP5 DUP3 PUSH1 0x20 DUP7 ADD PUSH2 0x12AC JUMP JUMPDEST SWAP2 POP POP SWAP3 SWAP2 POP POP JUMP JUMPDEST PUSH1 0x0 PUSH1 0x20 DUP3 DUP5 SUB SLT ISZERO PUSH2 0x1359 JUMPI PUSH2 0x1358 PUSH2 0xBEB JUMP JUMPDEST JUMPDEST PUSH1 0x0 DUP3 ADD MLOAD PUSH8 0xFFFFFFFFFFFFFFFF DUP2 GT ISZERO PUSH2 0x1377 JUMPI PUSH2 0x1376 PUSH2 0xBF0 JUMP JUMPDEST JUMPDEST PUSH2 0x1383 DUP5 DUP3 DUP6 ADD PUSH2 0x1315 JUMP JUMPDEST SWAP2 POP POP SWAP3 SWAP2 POP POP JUMP JUMPDEST PUSH32 0x4F6E6C794F776E65722E00000000000000000000000000000000000000000000 PUSH1 0x0 DUP3 ADD MSTORE POP JUMP JUMPDEST PUSH1 0x0 PUSH2 0x13C2 PUSH1 0xA DUP4 PUSH2 0xF97 JUMP JUMPDEST SWAP2 POP PUSH2 0x13CD DUP3 PUSH2 0x138C JUMP JUMPDEST PUSH1 0x20 DUP3 ADD SWAP1 POP SWAP2 SWAP1 POP JUMP JUMPDEST PUSH1 0x0 PUSH1 0x20 DUP3 ADD SWAP1 POP DUP2 DUP2 SUB PUSH1 0x0 DUP4 ADD MSTORE PUSH2 0x13F1 DUP2 PUSH2 0x13B5 JUMP JUMPDEST SWAP1 POP SWAP2 SWAP1 POP JUMP JUMPDEST PUSH32 0x496E76616C6964204C6576656C2E000000000000000000000000000000000000 PUSH1 0x0 DUP3 ADD MSTORE POP JUMP JUMPDEST PUSH1 0x0 PUSH2 0x142E PUSH1 0xE DUP4 PUSH2 0xF97 JUMP JUMPDEST SWAP2 POP PUSH2 0x1439 DUP3 PUSH2 0x13F8 JUMP JUMPDEST PUSH1 0x20 DUP3 ADD SWAP1 POP SWAP2 SWAP1 POP JUMP JUMPDEST PUSH1 0x0 PUSH1 0x20 DUP3 ADD SWAP1 POP DUP2 DUP2 SUB PUSH1 0x0 DUP4 ADD MSTORE PUSH2 0x145D DUP2 PUSH2 0x1421 JUMP JUMPDEST SWAP1 POP SWAP2 SWAP1 POP JUMP JUMPDEST PUSH1 0x0 PUSH2 0x146F DUP3 PUSH2 0xC4E JUMP JUMPDEST SWAP2 POP PUSH2 0x147A DUP4 PUSH2 0xC4E JUMP JUMPDEST SWAP3 POP DUP3 DUP3 SUB SWAP1 POP DUP2 DUP2 GT ISZERO PUSH2 0x1492 JUMPI PUSH2 0x1491 PUSH2 0x1014 JUMP JUMPDEST JUMPDEST SWAP3 SWAP2 POP POP JUMP JUMPDEST PUSH32 0x4E6F7420436F6E73656375746976652E00000000000000000000000000000000 PUSH1 0x0 DUP3 ADD MSTORE POP JUMP JUMPDEST PUSH1 0x0 PUSH2 0x14CE PUSH1 0x10 DUP4 PUSH2 0xF97 JUMP JUMPDEST SWAP2 POP PUSH2 0x14D9 DUP3 PUSH2 0x1498 JUMP JUMPDEST PUSH1 0x20 DUP3 ADD SWAP1 POP SWAP2 SWAP1 POP JUMP JUMPDEST PUSH1 0x0 PUSH1 0x20 DUP3 ADD SWAP1 POP DUP2 DUP2 SUB PUSH1 0x0 DUP4 ADD MSTORE PUSH2 0x14FD DUP2 PUSH2 0x14C1 JUMP JUMPDEST SWAP1 POP SWAP2 SWAP1 POP JUMP JUMPDEST PUSH32 0x496E76616C6964205061796D656E742E00000000000000000000000000000000 PUSH1 0x0 DUP3 ADD MSTORE POP JUMP JUMPDEST PUSH1 0x0 PUSH2 0x153A PUSH1 0x10 DUP4 PUSH2 0xF97 JUMP JUMPDEST SWAP2 POP PUSH2 0x1545 DUP3 PUSH2 0x1504 JUMP JUMPDEST PUSH1 0x20 DUP3 ADD SWAP1 POP SWAP2 SWAP1 POP JUMP JUMPDEST PUSH1 0x0 PUSH1 0x20 DUP3 ADD SWAP1 POP DUP2 DUP2 SUB PUSH1 0x0 DUP4 ADD MSTORE PUSH2 0x1569 DUP2 PUSH2 0x152D JUMP JUMPDEST SWAP1 POP SWAP2 SWAP1 POP JUMP JUMPDEST PUSH32 0x5061636B616765206E6F742042757965642E0000000000000000000000000000 PUSH1 0x0 DUP3 ADD MSTORE POP JUMP JUMPDEST PUSH1 0x0 PUSH2 0x15A6 PUSH1 0x12 DUP4 PUSH2 0xF97 JUMP JUMPDEST SWAP2 POP PUSH2 0x15B1 DUP3 PUSH2 0x1570 JUMP JUMPDEST PUSH1 0x20 DUP3 ADD SWAP1 POP SWAP2 SWAP1 POP JUMP JUMPDEST PUSH1 0x0 PUSH1 0x20 DUP3 ADD SWAP1 POP DUP2 DUP2 SUB PUSH1 0x0 DUP4 ADD MSTORE PUSH2 0x15D5 DUP2 PUSH2 0x1599 JUMP JUMPDEST SWAP1 POP SWAP2 SWAP1 POP JUMP JUMPDEST PUSH1 0x0 PUSH2 0x15E7 DUP3 PUSH2 0xC4E JUMP JUMPDEST SWAP2 POP PUSH32 0xFFFFFFFFFFFFFFFFFFFFFFFFFFFFFFFFFFFFFFFFFFFFFFFFFFFFFFFFFFFFFFFF DUP3 SUB PUSH2 0x1619 JUMPI PUSH2 0x1618 PUSH2 0x1014 JUMP JUMPDEST JUMPDEST PUSH1 0x1 DUP3 ADD SWAP1 POP SWAP2 SWAP1 POP JUMP INVALID LOG2 PUSH5 0x6970667358 0x22 SLT KECCAK256 JUMP 0xF6 SHR EQ REVERT 0x5F 0xAC 0xFB 0xE1 PUSH10 0xC8AB4B70F96D8DDE0975 JUMPI 0xAF 0xCE STATICCALL 0xB8 0x1E 0x4B 0xF PC LT SWAP13 SELFBALANCE PUSH5 0x736F6C6343 STOP ADDMOD GT STOP CALLER "},"methodIdentifiers":{"Packages(uint256)":"c7ef078c","ROUTER()":"32fe7b26","SHIBAFRICA()":"f60f384b","WBNB()":"8dd95002","buyPackage(address,uint256,uint256)":"5e9d306e","buyPackages(address,uint256[])":"9ca04d64","levels(address)":"47082db3","setLevel(address,uint256)":"722dcd8f"}}}}}