{
  "_format": "hh-sol-artifact-1",
  "contractName": "DividendDistributor",
  "sourceName": "contracts/Shiba2R.sol",
  "abi": [
    {
      "inputs": [
        {
          "internalType": "contract IPancakeRouter02",
          "name": "_router",
          "type": "address"
        }
      ],
      "stateMutability": "nonpayable",
      "type": "constructor"
    },
    {
      "inputs": [],
      "name": "claimDividend",
      "outputs": [],
      "stateMutability": "nonpayable",
      "type": "function"
    },
    {
      "inputs": [],
      "name": "deposit",
      "outputs": [],
      "stateMutability": "payable",
      "type": "function"
    },
    {
      "inputs": [],
      "name": "dividendsPerShare",
      "outputs": [
        {
          "internalType": "uint256",
          "name": "",
          "type": "uint256"
        }
      ],
      "stateMutability": "view",
      "type": "function"
    },
    {
      "inputs": [],
      "name": "dividendsPerShareAccuracyFactor",
      "outputs": [
        {
          "internalType": "uint256",
          "name": "",
          "type": "uint256"
        }
      ],
      "stateMutability": "view",
      "type": "function"
    },
    {
      "inputs": [
        {
          "internalType": "address",
          "name": "shareholder",
          "type": "address"
        }
      ],
      "name": "getUnpaidEarnings",
      "outputs": [
        {
          "internalType": "uint256",
          "name": "",
          "type": "uint256"
        }
      ],
      "stateMutability": "view",
      "type": "function"
    },
    {
      "inputs": [],
      "name": "minDistribution",
      "outputs": [
        {
          "internalType": "uint256",
          "name": "",
          "type": "uint256"
        }
      ],
      "stateMutability": "view",
      "type": "function"
    },
    {
      "inputs": [],
      "name": "minPeriod",
      "outputs": [
        {
          "internalType": "uint256",
          "name": "",
          "type": "uint256"
        }
      ],
      "stateMutability": "view",
      "type": "function"
    },
    {
      "inputs": [
        {
          "internalType": "uint256",
          "name": "gas",
          "type": "uint256"
        }
      ],
      "name": "process",
      "outputs": [],
      "stateMutability": "nonpayable",
      "type": "function"
    },
    {
      "inputs": [
        {
          "internalType": "uint256",
          "name": "newMinPeriod",
          "type": "uint256"
        },
        {
          "internalType": "uint256",
          "name": "newMinDistribution",
          "type": "uint256"
        }
      ],
      "name": "setDistributionCriteria",
      "outputs": [],
      "stateMutability": "nonpayable",
      "type": "function"
    },
    {
      "inputs": [
        {
          "internalType": "address",
          "name": "shareholder",
          "type": "address"
        },
        {
          "internalType": "uint256",
          "name": "amount",
          "type": "uint256"
        }
      ],
      "name": "setShare",
      "outputs": [],
      "stateMutability": "nonpayable",
      "type": "function"
    },
    {
      "inputs": [
        {
          "internalType": "address",
          "name": "",
          "type": "address"
        }
      ],
      "name": "shares",
      "outputs": [
        {
          "internalType": "uint256",
          "name": "amount",
          "type": "uint256"
        },
        {
          "internalType": "uint256",
          "name": "totalExcluded",
          "type": "uint256"
        },
        {
          "internalType": "uint256",
          "name": "totalRealised",
          "type": "uint256"
        }
      ],
      "stateMutability": "view",
      "type": "function"
    },
    {
      "inputs": [],
      "name": "totalDistributed",
      "outputs": [
        {
          "internalType": "uint256",
          "name": "",
          "type": "uint256"
        }
      ],
      "stateMutability": "view",
      "type": "function"
    },
    {
      "inputs": [],
      "name": "totalDividends",
      "outputs": [
        {
          "internalType": "uint256",
          "name": "",
          "type": "uint256"
        }
      ],
      "stateMutability": "view",
      "type": "function"
    },
    {
      "inputs": [],
      "name": "totalShares",
      "outputs": [
        {
          "internalType": "uint256",
          "name": "",
          "type": "uint256"
        }
      ],
      "stateMutability": "view",
      "type": "function"
    }
  ],
  "bytecode": "0x60806040526ec097ce7bc90715b34b9f1000000000600a55610e10600b556001600c553480156200002f57600080fd5b50604051620016b9380380620016b983398181016040528101906200005591906200015b565b80600160006101000a81548173ffffffffffffffffffffffffffffffffffffffff021916908373ffffffffffffffffffffffffffffffffffffffff160217905550336000806101000a81548173ffffffffffffffffffffffffffffffffffffffff021916908373ffffffffffffffffffffffffffffffffffffffff160217905550506200018d565b600080fd5b600073ffffffffffffffffffffffffffffffffffffffff82169050919050565b60006200010f82620000e2565b9050919050565b6000620001238262000102565b9050919050565b620001358162000116565b81146200014157600080fd5b50565b60008151905062000155816200012a565b92915050565b600060208284031215620001745762000173620000dd565b5b6000620001848482850162000144565b91505092915050565b61151c806200019d6000396000f3fe6080604052600436106100dd5760003560e01c8063ce7c2ac21161007f578063efca2eed11610059578063efca2eed14610291578063f0fc6bca146102bc578063ffb2c479146102d3578063ffd49c84146102fc576100dd565b8063ce7c2ac21461021d578063d0e30db01461025c578063e2d2e21914610266576100dd565b80632d48e896116100bb5780632d48e896146101735780633a98ef391461019c5780634fab0ae8146101c7578063997664d7146101f2576100dd565b806311ce023d146100e257806314b6ca961461010d57806328fd319814610136575b600080fd5b3480156100ee57600080fd5b506100f7610327565b6040516101049190611089565b60405180910390f35b34801561011957600080fd5b50610134600480360381019061012f9190611133565b61032d565b005b34801561014257600080fd5b5061015d60048036038101906101589190611173565b6105ec565b60405161016a9190611089565b60405180910390f35b34801561017f57600080fd5b5061019a600480360381019061019591906111a0565b610705565b005b3480156101a857600080fd5b506101b161076f565b6040516101be9190611089565b60405180910390f35b3480156101d357600080fd5b506101dc610775565b6040516101e99190611089565b60405180910390f35b3480156101fe57600080fd5b5061020761077b565b6040516102149190611089565b60405180910390f35b34801561022957600080fd5b50610244600480360381019061023f9190611173565b610781565b604051610253939291906111e0565b60405180910390f35b6102646107ab565b005b34801561027257600080fd5b5061027b610863565b6040516102889190611089565b60405180910390f35b34801561029d57600080fd5b506102a6610869565b6040516102b39190611089565b60405180910390f35b3480156102c857600080fd5b506102d161086f565b005b3480156102df57600080fd5b506102fa60048036038101906102f59190611217565b6108c2565b005b34801561030857600080fd5b50610311610a55565b60405161031e9190611089565b60405180910390f35b600a5481565b60008054906101000a900473ffffffffffffffffffffffffffffffffffffffff1673ffffffffffffffffffffffffffffffffffffffff163373ffffffffffffffffffffffffffffffffffffffff161461038557600080fd5b6000600560008473ffffffffffffffffffffffffffffffffffffffff1673ffffffffffffffffffffffffffffffffffffffff1681526020019081526020016000206000015411156103da576103d982610a5b565b5b60008111801561042c57506000600560008473ffffffffffffffffffffffffffffffffffffffff1673ffffffffffffffffffffffffffffffffffffffff16815260200190815260200160002060000154145b1561043f5761043a82610cc3565b6104a1565b60008114801561049157506000600560008473ffffffffffffffffffffffffffffffffffffffff1673ffffffffffffffffffffffffffffffffffffffff16815260200190815260200160002060000154115b156104a05761049f82610d72565b5b5b61050a816104fc600560008673ffffffffffffffffffffffffffffffffffffffff1673ffffffffffffffffffffffffffffffffffffffff16815260200190815260200160002060000154600654610f7990919063ffffffff16565b610f8f90919063ffffffff16565b60068190555080600560008473ffffffffffffffffffffffffffffffffffffffff1673ffffffffffffffffffffffffffffffffffffffff168152602001908152602001600020600001819055506105a2600560008473ffffffffffffffffffffffffffffffffffffffff1673ffffffffffffffffffffffffffffffffffffffff16815260200190815260200160002060000154610fa5565b600560008473ffffffffffffffffffffffffffffffffffffffff1673ffffffffffffffffffffffffffffffffffffffff168152602001908152602001600020600101819055505050565b600080600560008473ffffffffffffffffffffffffffffffffffffffff1673ffffffffffffffffffffffffffffffffffffffff16815260200190815260200160002060000154036106405760009050610700565b600061068d600560008573ffffffffffffffffffffffffffffffffffffffff1673ffffffffffffffffffffffffffffffffffffffff16815260200190815260200160002060000154610fa5565b90506000600560008573ffffffffffffffffffffffffffffffffffffffff1673ffffffffffffffffffffffffffffffffffffffff1681526020019081526020016000206001015490508082116106e857600092505050610700565b6106fb8183610f7990919063ffffffff16565b925050505b919050565b60008054906101000a900473ffffffffffffffffffffffffffffffffffffffff1673ffffffffffffffffffffffffffffffffffffffff163373ffffffffffffffffffffffffffffffffffffffff161461075d57600080fd5b81600b8190555080600c819055505050565b60065481565b600c5481565b60075481565b60056020528060005260406000206000915090508060000154908060010154908060020154905083565b60008054906101000a900473ffffffffffffffffffffffffffffffffffffffff1673ffffffffffffffffffffffffffffffffffffffff163373ffffffffffffffffffffffffffffffffffffffff161461080357600080fd5b61081834600754610f8f90919063ffffffff16565b60078190555061085b61084a60065461083c34600a54610fd790919063ffffffff16565b610fed90919063ffffffff16565b600954610f8f90919063ffffffff16565b600981905550565b60095481565b60085481565b61087833611003565b6108b7576040517f08c379a00000000000000000000000000000000000000000000000000000000081526004016108ae906112a1565b60405180910390fd5b6108c033610a5b565b565b60008054906101000a900473ffffffffffffffffffffffffffffffffffffffff1673ffffffffffffffffffffffffffffffffffffffff163373ffffffffffffffffffffffffffffffffffffffff161461091a57600080fd5b60006002805490509050600081036109325750610a52565b60008060005a90505b848210801561094957508383105b15610a4d5783600d5410610960576000600d819055505b6109a96002600d5481548110610979576109786112c1565b5b9060005260206000200160009054906101000a900473ffffffffffffffffffffffffffffffffffffffff16611003565b156109f8576109f76002600d54815481106109c7576109c66112c1565b5b9060005260206000200160009054906101000a900473ffffffffffffffffffffffffffffffffffffffff16610a5b565b5b610a1d610a0e5a83610f7990919063ffffffff16565b83610f8f90919063ffffffff16565b91505a9050600d6000815480929190610a359061131f565b91905055508280610a459061131f565b93505061093b565b505050505b50565b600b5481565b6000600560008373ffffffffffffffffffffffffffffffffffffffff1673ffffffffffffffffffffffffffffffffffffffff168152602001908152602001600020600001540315610cc0576000610ab1826105ec565b90506000811115610cbe57610ad181600854610f8f90919063ffffffff16565b60088190555060008273ffffffffffffffffffffffffffffffffffffffff168261753090604051610b0190611398565b600060405180830381858888f193505050503d8060008114610b3f576040519150601f19603f3d011682016040523d82523d6000602084013e610b44565b606091505b505090506000905042600460008573ffffffffffffffffffffffffffffffffffffffff1673ffffffffffffffffffffffffffffffffffffffff16815260200190815260200160002081905550610be582600560008673ffffffffffffffffffffffffffffffffffffffff1673ffffffffffffffffffffffffffffffffffffffff16815260200190815260200160002060020154610f8f90919063ffffffff16565b600560008573ffffffffffffffffffffffffffffffffffffffff1673ffffffffffffffffffffffffffffffffffffffff16815260200190815260200160002060020181905550610c76600560008573ffffffffffffffffffffffffffffffffffffffff1673ffffffffffffffffffffffffffffffffffffffff16815260200190815260200160002060000154610fa5565b600560008573ffffffffffffffffffffffffffffffffffffffff1673ffffffffffffffffffffffffffffffffffffffff16815260200190815260200160002060010181905550505b505b50565b600280549050600360008373ffffffffffffffffffffffffffffffffffffffff1673ffffffffffffffffffffffffffffffffffffffff168152602001908152602001600020819055506002819080600181540180825580915050600190039060005260206000200160009091909190916101000a81548173ffffffffffffffffffffffffffffffffffffffff021916908373ffffffffffffffffffffffffffffffffffffffff16021790555050565b60026001600280549050610d8691906113ad565b81548110610d9757610d966112c1565b5b9060005260206000200160009054906101000a900473ffffffffffffffffffffffffffffffffffffffff166002600360008473ffffffffffffffffffffffffffffffffffffffff1673ffffffffffffffffffffffffffffffffffffffff1681526020019081526020016000205481548110610e1557610e146112c1565b5b9060005260206000200160006101000a81548173ffffffffffffffffffffffffffffffffffffffff021916908373ffffffffffffffffffffffffffffffffffffffff160217905550600360008273ffffffffffffffffffffffffffffffffffffffff1673ffffffffffffffffffffffffffffffffffffffff168152602001908152602001600020546003600060026001600280549050610eb591906113ad565b81548110610ec657610ec56112c1565b5b9060005260206000200160009054906101000a900473ffffffffffffffffffffffffffffffffffffffff1673ffffffffffffffffffffffffffffffffffffffff1673ffffffffffffffffffffffffffffffffffffffff168152602001908152602001600020819055506002805480610f4157610f406113e1565b5b6001900381819060005260206000200160006101000a81549073ffffffffffffffffffffffffffffffffffffffff0219169055905550565b60008183610f8791906113ad565b905092915050565b60008183610f9d9190611410565b905092915050565b6000610fd0600a54610fc260095485610fd790919063ffffffff16565b610fed90919063ffffffff16565b9050919050565b60008183610fe59190611444565b905092915050565b60008183610ffb91906114b5565b905092915050565b600042600b54600460008573ffffffffffffffffffffffffffffffffffffffff1673ffffffffffffffffffffffffffffffffffffffff168152602001908152602001600020546110539190611410565b1080156110695750600c54611067836105ec565b115b9050919050565b6000819050919050565b61108381611070565b82525050565b600060208201905061109e600083018461107a565b92915050565b600080fd5b600073ffffffffffffffffffffffffffffffffffffffff82169050919050565b60006110d4826110a9565b9050919050565b6110e4816110c9565b81146110ef57600080fd5b50565b600081359050611101816110db565b92915050565b61111081611070565b811461111b57600080fd5b50565b60008135905061112d81611107565b92915050565b6000806040838503121561114a576111496110a4565b5b6000611158858286016110f2565b92505060206111698582860161111e565b9150509250929050565b600060208284031215611189576111886110a4565b5b6000611197848285016110f2565b91505092915050565b600080604083850312156111b7576111b66110a4565b5b60006111c58582860161111e565b92505060206111d68582860161111e565b9150509250929050565b60006060820190506111f5600083018661107a565b611202602083018561107a565b61120f604083018461107a565b949350505050565b60006020828403121561122d5761122c6110a4565b5b600061123b8482850161111e565b91505092915050565b600082825260208201905092915050565b7f546f6f20736f6f6e2e204e65656420746f207761697421000000000000000000600082015250565b600061128b601783611244565b915061129682611255565b602082019050919050565b600060208201905081810360008301526112ba8161127e565b9050919050565b7f4e487b7100000000000000000000000000000000000000000000000000000000600052603260045260246000fd5b7f4e487b7100000000000000000000000000000000000000000000000000000000600052601160045260246000fd5b600061132a82611070565b91507fffffffffffffffffffffffffffffffffffffffffffffffffffffffffffffffff820361135c5761135b6112f0565b5b600182019050919050565b600081905092915050565b50565b6000611382600083611367565b915061138d82611372565b600082019050919050565b60006113a382611375565b9150819050919050565b60006113b882611070565b91506113c383611070565b92508282039050818111156113db576113da6112f0565b5b92915050565b7f4e487b7100000000000000000000000000000000000000000000000000000000600052603160045260246000fd5b600061141b82611070565b915061142683611070565b925082820190508082111561143e5761143d6112f0565b5b92915050565b600061144f82611070565b915061145a83611070565b925082820261146881611070565b9150828204841483151761147f5761147e6112f0565b5b5092915050565b7f4e487b7100000000000000000000000000000000000000000000000000000000600052601260045260246000fd5b60006114c082611070565b91506114cb83611070565b9250826114db576114da611486565b5b82820490509291505056fea264697066735822122011fb8e1045ed207ed99210acad16c23bec3872417e54521616aaad23796bd93864736f6c63430008110033",
  "linkReferences": {},
  "deployedLinkReferences": {}
}